{
	"contracts/Forwarder.sol": {
		"Forwarder": {
			"abi": [
				{
					"inputs": [],
					"stateMutability": "nonpayable",
					"type": "constructor"
				},
				{
					"anonymous": false,
					"inputs": [
						{
							"indexed": true,
							"internalType": "bytes32",
							"name": "domainSeparator",
							"type": "bytes32"
						},
						{
							"indexed": false,
							"internalType": "bytes",
							"name": "domainValue",
							"type": "bytes"
						}
					],
					"name": "DomainRegistered",
					"type": "event"
				},
				{
					"anonymous": false,
					"inputs": [
						{
							"indexed": true,
							"internalType": "bytes32",
							"name": "typeHash",
							"type": "bytes32"
						},
						{
							"indexed": false,
							"internalType": "string",
							"name": "typeStr",
							"type": "string"
						}
					],
					"name": "RequestTypeRegistered",
					"type": "event"
				},
				{
					"inputs": [
						{
							"components": [
								{
									"internalType": "address",
									"name": "from",
									"type": "address"
								},
								{
									"internalType": "address",
									"name": "to",
									"type": "address"
								},
								{
									"internalType": "uint256",
									"name": "value",
									"type": "uint256"
								},
								{
									"internalType": "uint256",
									"name": "gas",
									"type": "uint256"
								},
								{
									"internalType": "uint256",
									"name": "nonce",
									"type": "uint256"
								},
								{
									"internalType": "bytes",
									"name": "data",
									"type": "bytes"
								},
								{
									"internalType": "uint256",
									"name": "validUntilTime",
									"type": "uint256"
								}
							],
							"internalType": "struct IForwarder.ForwardRequest",
							"name": "req",
							"type": "tuple"
						}
					],
					"name": "_getEncoded",
					"outputs": [
						{
							"internalType": "bytes",
							"name": "",
							"type": "bytes"
						}
					],
					"stateMutability": "pure",
					"type": "function"
				},
				{
					"inputs": [
						{
							"components": [
								{
									"internalType": "address",
									"name": "from",
									"type": "address"
								},
								{
									"internalType": "address",
									"name": "to",
									"type": "address"
								},
								{
									"internalType": "uint256",
									"name": "value",
									"type": "uint256"
								},
								{
									"internalType": "uint256",
									"name": "gas",
									"type": "uint256"
								},
								{
									"internalType": "uint256",
									"name": "nonce",
									"type": "uint256"
								},
								{
									"internalType": "bytes",
									"name": "data",
									"type": "bytes"
								},
								{
									"internalType": "uint256",
									"name": "validUntilTime",
									"type": "uint256"
								}
							],
							"internalType": "struct IForwarder.ForwardRequest",
							"name": "req",
							"type": "tuple"
						},
						{
							"internalType": "bytes",
							"name": "sig",
							"type": "bytes"
						}
					],
					"name": "execute",
					"outputs": [
						{
							"internalType": "bool",
							"name": "success",
							"type": "bool"
						},
						{
							"internalType": "bytes",
							"name": "ret",
							"type": "bytes"
						}
					],
					"stateMutability": "payable",
					"type": "function"
				},
				{
					"inputs": [
						{
							"internalType": "address",
							"name": "from",
							"type": "address"
						}
					],
					"name": "getNonce",
					"outputs": [
						{
							"internalType": "uint256",
							"name": "",
							"type": "uint256"
						}
					],
					"stateMutability": "view",
					"type": "function"
				},
				{
					"inputs": [
						{
							"internalType": "bytes4",
							"name": "interfaceId",
							"type": "bytes4"
						}
					],
					"name": "supportsInterface",
					"outputs": [
						{
							"internalType": "bool",
							"name": "",
							"type": "bool"
						}
					],
					"stateMutability": "view",
					"type": "function"
				},
				{
					"inputs": [
						{
							"components": [
								{
									"internalType": "address",
									"name": "from",
									"type": "address"
								},
								{
									"internalType": "address",
									"name": "to",
									"type": "address"
								},
								{
									"internalType": "uint256",
									"name": "value",
									"type": "uint256"
								},
								{
									"internalType": "uint256",
									"name": "gas",
									"type": "uint256"
								},
								{
									"internalType": "uint256",
									"name": "nonce",
									"type": "uint256"
								},
								{
									"internalType": "bytes",
									"name": "data",
									"type": "bytes"
								},
								{
									"internalType": "uint256",
									"name": "validUntilTime",
									"type": "uint256"
								}
							],
							"internalType": "struct IForwarder.ForwardRequest",
							"name": "req",
							"type": "tuple"
						},
						{
							"internalType": "bytes",
							"name": "sig",
							"type": "bytes"
						}
					],
					"name": "verify",
					"outputs": [],
					"stateMutability": "view",
					"type": "function"
				},
				{
					"stateMutability": "payable",
					"type": "receive"
				}
			],
			"devdoc": {
				"kind": "dev",
				"methods": {
					"execute((address,address,uint256,uint256,uint256,bytes,uint256),bytes)": {
						"params": {
							"forwardRequest": "All requested transaction parameters.",
							"signature": "The client signature to be validated."
						},
						"returns": {
							"ret": "The byte array returned by the underlying `CALL` to the target address.",
							"success": "The success flag of the underlying `CALL` to the target address."
						}
					},
					"getNonce(address)": {
						"params": {
							"from": "The address of a sender."
						},
						"returns": {
							"_0": "The nonce for this address."
						}
					},
					"supportsInterface(bytes4)": {
						"details": "Returns true if this contract implements the interface defined by `interfaceId`. See the corresponding https://eips.ethereum.org/EIPS/eip-165#how-interfaces-are-identified[EIP section] to learn more about how these ids are created. This function call must use less than 30 000 gas."
					}
				},
				"title": "The Forwarder Implementation",
				"version": 1
			},
			"evm": {
				"assembly": "    /* \"contracts/Forwarder.sol\":511:4503  contract Forwarder is IForwarder, ERC165, EIP712 {... */\n  mstore(0x40, 0x0140)\n    /* \"contracts/Forwarder.sol\":1230:1288  constructor() EIP712(\"FileverseMetaTxForwarder\", \"1.0\") {} */\n  callvalue\n  dup1\n  iszero\n  tag_1\n  jumpi\n  0x00\n  dup1\n  revert\ntag_1:\n  pop\n    /* \"@openzeppelin/contracts/utils/cryptography/EIP712.sol\":2464:3066  constructor(string memory name, string memory version) {... */\n  mload(0x40)\n  dup1\n  0x40\n  add\n  0x40\n  mstore\n  dup1\n  0x18\n  dup2\n  mstore\n  0x20\n  add\n  0x46696c6576657273654d6574615478466f727761726465720000000000000000\n  dup2\n  mstore\n  pop\n  mload(0x40)\n  dup1\n  0x40\n  add\n  0x40\n  mstore\n  dup1\n  0x03\n  dup2\n  mstore\n  0x20\n  add\n  0x312e300000000000000000000000000000000000000000000000000000000000\n  dup2\n  mstore\n  pop\n    /* \"@openzeppelin/contracts/utils/cryptography/EIP712.sol\":2529:2547  bytes32 hashedName */\n  0x00\n    /* \"@openzeppelin/contracts/utils/cryptography/EIP712.sol\":2566:2570  name */\n  dup3\n    /* \"@openzeppelin/contracts/utils/cryptography/EIP712.sol\":2550:2572  keccak256(bytes(name)) */\n  dup1\n  mload\n  swap1\n  0x20\n  add\n  keccak256\n    /* \"@openzeppelin/contracts/utils/cryptography/EIP712.sol\":2529:2572  bytes32 hashedName = keccak256(bytes(name)) */\n  swap1\n  pop\n    /* \"@openzeppelin/contracts/utils/cryptography/EIP712.sol\":2582:2603  bytes32 hashedVersion */\n  0x00\n    /* \"@openzeppelin/contracts/utils/cryptography/EIP712.sol\":2622:2629  version */\n  dup3\n    /* \"@openzeppelin/contracts/utils/cryptography/EIP712.sol\":2606:2631  keccak256(bytes(version)) */\n  dup1\n  mload\n  swap1\n  0x20\n  add\n  keccak256\n    /* \"@openzeppelin/contracts/utils/cryptography/EIP712.sol\":2582:2631  bytes32 hashedVersion = keccak256(bytes(version)) */\n  swap1\n  pop\n    /* \"@openzeppelin/contracts/utils/cryptography/EIP712.sol\":2641:2657  bytes32 typeHash */\n  0x00\n    /* \"@openzeppelin/contracts/utils/cryptography/EIP712.sol\":2660:2777  keccak256(... */\n  0x8b73c3c69bb8fe3d512ecc4cf759cc79239f7b179b0ffacaa9a75d522b39400f\n    /* \"@openzeppelin/contracts/utils/cryptography/EIP712.sol\":2641:2777  bytes32 typeHash = keccak256(... */\n  swap1\n  pop\n    /* \"@openzeppelin/contracts/utils/cryptography/EIP712.sol\":2802:2812  hashedName */\n  dup3\n    /* \"@openzeppelin/contracts/utils/cryptography/EIP712.sol\":2787:2812  _HASHED_NAME = hashedName */\n  0xe0\n  dup2\n  dup2\n  mstore\n  pop\n  pop\n    /* \"@openzeppelin/contracts/utils/cryptography/EIP712.sol\":2840:2853  hashedVersion */\n  dup2\n    /* \"@openzeppelin/contracts/utils/cryptography/EIP712.sol\":2822:2853  _HASHED_VERSION = hashedVersion */\n  0x0100\n  dup2\n  dup2\n  mstore\n  pop\n  pop\n    /* \"@openzeppelin/contracts/utils/cryptography/EIP712.sol\":2882:2895  block.chainid */\n  chainid\n    /* \"@openzeppelin/contracts/utils/cryptography/EIP712.sol\":2863:2895  _CACHED_CHAIN_ID = block.chainid */\n  0xa0\n  dup2\n  dup2\n  mstore\n  pop\n  pop\n    /* \"@openzeppelin/contracts/utils/cryptography/EIP712.sol\":2932:2990  _buildDomainSeparator(typeHash, hashedName, hashedVersion) */\n  tag_5\n    /* \"@openzeppelin/contracts/utils/cryptography/EIP712.sol\":2954:2962  typeHash */\n  dup2\n    /* \"@openzeppelin/contracts/utils/cryptography/EIP712.sol\":2964:2974  hashedName */\n  dup5\n    /* \"@openzeppelin/contracts/utils/cryptography/EIP712.sol\":2976:2989  hashedVersion */\n  dup5\n    /* \"@openzeppelin/contracts/utils/cryptography/EIP712.sol\":2932:2953  _buildDomainSeparator */\n  shl(0x20, tag_6)\n    /* \"@openzeppelin/contracts/utils/cryptography/EIP712.sol\":2932:2990  _buildDomainSeparator(typeHash, hashedName, hashedVersion) */\n  0x20\n  shr\n  jump\t// in\ntag_5:\n    /* \"@openzeppelin/contracts/utils/cryptography/EIP712.sol\":2905:2990  _CACHED_DOMAIN_SEPARATOR = _buildDomainSeparator(typeHash, hashedName, hashedVersion) */\n  0x80\n  dup2\n  dup2\n  mstore\n  pop\n  pop\n    /* \"@openzeppelin/contracts/utils/cryptography/EIP712.sol\":3023:3027  this */\n  address\n    /* \"@openzeppelin/contracts/utils/cryptography/EIP712.sol\":3000:3028  _CACHED_THIS = address(this) */\n  0xffffffffffffffffffffffffffffffffffffffff\n  and\n  0xc0\n  dup2\n  0xffffffffffffffffffffffffffffffffffffffff\n  and\n  dup2\n  mstore\n  pop\n  pop\n    /* \"@openzeppelin/contracts/utils/cryptography/EIP712.sol\":3051:3059  typeHash */\n  dup1\n    /* \"@openzeppelin/contracts/utils/cryptography/EIP712.sol\":3038:3059  _TYPE_HASH = typeHash */\n  0x0120\n  dup2\n  dup2\n  mstore\n  pop\n  pop\n    /* \"@openzeppelin/contracts/utils/cryptography/EIP712.sol\":2519:3066  {... */\n  pop\n  pop\n  pop\n    /* \"@openzeppelin/contracts/utils/cryptography/EIP712.sol\":2464:3066  constructor(string memory name, string memory version) {... */\n  pop\n  pop\n    /* \"contracts/Forwarder.sol\":511:4503  contract Forwarder is IForwarder, ERC165, EIP712 {... */\n  jump(tag_8)\n    /* \"@openzeppelin/contracts/utils/cryptography/EIP712.sol\":3466:3723  function _buildDomainSeparator(... */\ntag_6:\n    /* \"@openzeppelin/contracts/utils/cryptography/EIP712.sol\":3606:3613  bytes32 */\n  0x00\n    /* \"@openzeppelin/contracts/utils/cryptography/EIP712.sol\":3653:3661  typeHash */\n  dup4\n    /* \"@openzeppelin/contracts/utils/cryptography/EIP712.sol\":3663:3671  nameHash */\n  dup4\n    /* \"@openzeppelin/contracts/utils/cryptography/EIP712.sol\":3673:3684  versionHash */\n  dup4\n    /* \"@openzeppelin/contracts/utils/cryptography/EIP712.sol\":3686:3699  block.chainid */\n  chainid\n    /* \"@openzeppelin/contracts/utils/cryptography/EIP712.sol\":3709:3713  this */\n  address\n    /* \"@openzeppelin/contracts/utils/cryptography/EIP712.sol\":3642:3715  abi.encode(typeHash, nameHash, versionHash, block.chainid, address(this)) */\n  add(0x20, mload(0x40))\n  tag_10\n  swap6\n  swap5\n  swap4\n  swap3\n  swap2\n  swap1\n  tag_11\n  jump\t// in\ntag_10:\n  mload(0x40)\n  0x20\n  dup2\n  dup4\n  sub\n  sub\n  dup2\n  mstore\n  swap1\n  0x40\n  mstore\n    /* \"@openzeppelin/contracts/utils/cryptography/EIP712.sol\":3632:3716  keccak256(abi.encode(typeHash, nameHash, versionHash, block.chainid, address(this))) */\n  dup1\n  mload\n  swap1\n  0x20\n  add\n  keccak256\n    /* \"@openzeppelin/contracts/utils/cryptography/EIP712.sol\":3625:3716  return keccak256(abi.encode(typeHash, nameHash, versionHash, block.chainid, address(this))) */\n  swap1\n  pop\n    /* \"@openzeppelin/contracts/utils/cryptography/EIP712.sol\":3466:3723  function _buildDomainSeparator(... */\n  swap4\n  swap3\n  pop\n  pop\n  pop\n  jump\t// out\n    /* \"#utility.yul\":7:84   */\ntag_12:\n    /* \"#utility.yul\":44:51   */\n  0x00\n    /* \"#utility.yul\":73:78   */\n  dup2\n    /* \"#utility.yul\":62:78   */\n  swap1\n  pop\n    /* \"#utility.yul\":7:84   */\n  swap2\n  swap1\n  pop\n  jump\t// out\n    /* \"#utility.yul\":90:208   */\ntag_13:\n    /* \"#utility.yul\":177:201   */\n  tag_22\n    /* \"#utility.yul\":195:200   */\n  dup2\n    /* \"#utility.yul\":177:201   */\n  tag_12\n  jump\t// in\ntag_22:\n    /* \"#utility.yul\":172:175   */\n  dup3\n    /* \"#utility.yul\":165:202   */\n  mstore\n    /* \"#utility.yul\":90:208   */\n  pop\n  pop\n  jump\t// out\n    /* \"#utility.yul\":214:291   */\ntag_14:\n    /* \"#utility.yul\":251:258   */\n  0x00\n    /* \"#utility.yul\":280:285   */\n  dup2\n    /* \"#utility.yul\":269:285   */\n  swap1\n  pop\n    /* \"#utility.yul\":214:291   */\n  swap2\n  swap1\n  pop\n  jump\t// out\n    /* \"#utility.yul\":297:415   */\ntag_15:\n    /* \"#utility.yul\":384:408   */\n  tag_25\n    /* \"#utility.yul\":402:407   */\n  dup2\n    /* \"#utility.yul\":384:408   */\n  tag_14\n  jump\t// in\ntag_25:\n    /* \"#utility.yul\":379:382   */\n  dup3\n    /* \"#utility.yul\":372:409   */\n  mstore\n    /* \"#utility.yul\":297:415   */\n  pop\n  pop\n  jump\t// out\n    /* \"#utility.yul\":421:547   */\ntag_16:\n    /* \"#utility.yul\":458:465   */\n  0x00\n    /* \"#utility.yul\":498:540   */\n  0xffffffffffffffffffffffffffffffffffffffff\n    /* \"#utility.yul\":491:496   */\n  dup3\n    /* \"#utility.yul\":487:541   */\n  and\n    /* \"#utility.yul\":476:541   */\n  swap1\n  pop\n    /* \"#utility.yul\":421:547   */\n  swap2\n  swap1\n  pop\n  jump\t// out\n    /* \"#utility.yul\":553:649   */\ntag_17:\n    /* \"#utility.yul\":590:597   */\n  0x00\n    /* \"#utility.yul\":619:643   */\n  tag_28\n    /* \"#utility.yul\":637:642   */\n  dup3\n    /* \"#utility.yul\":619:643   */\n  tag_16\n  jump\t// in\ntag_28:\n    /* \"#utility.yul\":608:643   */\n  swap1\n  pop\n    /* \"#utility.yul\":553:649   */\n  swap2\n  swap1\n  pop\n  jump\t// out\n    /* \"#utility.yul\":655:773   */\ntag_18:\n    /* \"#utility.yul\":742:766   */\n  tag_30\n    /* \"#utility.yul\":760:765   */\n  dup2\n    /* \"#utility.yul\":742:766   */\n  tag_17\n  jump\t// in\ntag_30:\n    /* \"#utility.yul\":737:740   */\n  dup3\n    /* \"#utility.yul\":730:767   */\n  mstore\n    /* \"#utility.yul\":655:773   */\n  pop\n  pop\n  jump\t// out\n    /* \"#utility.yul\":779:1443   */\ntag_11:\n    /* \"#utility.yul\":984:988   */\n  0x00\n    /* \"#utility.yul\":1022:1025   */\n  0xa0\n    /* \"#utility.yul\":1011:1020   */\n  dup3\n    /* \"#utility.yul\":1007:1026   */\n  add\n    /* \"#utility.yul\":999:1026   */\n  swap1\n  pop\n    /* \"#utility.yul\":1036:1107   */\n  tag_32\n    /* \"#utility.yul\":1104:1105   */\n  0x00\n    /* \"#utility.yul\":1093:1102   */\n  dup4\n    /* \"#utility.yul\":1089:1106   */\n  add\n    /* \"#utility.yul\":1080:1086   */\n  dup9\n    /* \"#utility.yul\":1036:1107   */\n  tag_13\n  jump\t// in\ntag_32:\n    /* \"#utility.yul\":1117:1189   */\n  tag_33\n    /* \"#utility.yul\":1185:1187   */\n  0x20\n    /* \"#utility.yul\":1174:1183   */\n  dup4\n    /* \"#utility.yul\":1170:1188   */\n  add\n    /* \"#utility.yul\":1161:1167   */\n  dup8\n    /* \"#utility.yul\":1117:1189   */\n  tag_13\n  jump\t// in\ntag_33:\n    /* \"#utility.yul\":1199:1271   */\n  tag_34\n    /* \"#utility.yul\":1267:1269   */\n  0x40\n    /* \"#utility.yul\":1256:1265   */\n  dup4\n    /* \"#utility.yul\":1252:1270   */\n  add\n    /* \"#utility.yul\":1243:1249   */\n  dup7\n    /* \"#utility.yul\":1199:1271   */\n  tag_13\n  jump\t// in\ntag_34:\n    /* \"#utility.yul\":1281:1353   */\n  tag_35\n    /* \"#utility.yul\":1349:1351   */\n  0x60\n    /* \"#utility.yul\":1338:1347   */\n  dup4\n    /* \"#utility.yul\":1334:1352   */\n  add\n    /* \"#utility.yul\":1325:1331   */\n  dup6\n    /* \"#utility.yul\":1281:1353   */\n  tag_15\n  jump\t// in\ntag_35:\n    /* \"#utility.yul\":1363:1436   */\n  tag_36\n    /* \"#utility.yul\":1431:1434   */\n  0x80\n    /* \"#utility.yul\":1420:1429   */\n  dup4\n    /* \"#utility.yul\":1416:1435   */\n  add\n    /* \"#utility.yul\":1407:1413   */\n  dup5\n    /* \"#utility.yul\":1363:1436   */\n  tag_18\n  jump\t// in\ntag_36:\n    /* \"#utility.yul\":779:1443   */\n  swap7\n  swap6\n  pop\n  pop\n  pop\n  pop\n  pop\n  pop\n  jump\t// out\n    /* \"contracts/Forwarder.sol\":511:4503  contract Forwarder is IForwarder, ERC165, EIP712 {... */\ntag_8:\n  mload(0x80)\n  mload(0xa0)\n  mload(0xc0)\n  mload(0xe0)\n  mload(0x0100)\n  mload(0x0120)\n  codecopy(0x00, dataOffset(sub_0), dataSize(sub_0))\n  0x00\n  assignImmutable(\"0xc0716a75736aa0153859080550bdffc64f9b3c18688cab149448346712372131\")\n  0x00\n  assignImmutable(\"0x0d6cd4ec10ba1ddf2bf93a2217daf35c2366821168893716c47620b960944d15\")\n  0x00\n  assignImmutable(\"0xd69b85eff1d6b032be2efa9877c087b40fe7111b09e822e2dfcddfe5951aa76d\")\n  0x00\n  assignImmutable(\"0x9e1fb2b79e882622ed243a034292b4fa176df601f71d921cffbf6c845001c2b4\")\n  0x00\n  assignImmutable(\"0x42d683e394a4df18653c7650f8aa08cb69f6a4b0d0acad4653af662538b2a674\")\n  0x00\n  assignImmutable(\"0xdd5c87e7d2b0dfec287534406fac02a7bbb933ae982df87d512731e2383f3518\")\n  return(0x00, dataSize(sub_0))\nstop\n\nsub_0: assembly {\n        /* \"contracts/Forwarder.sol\":511:4503  contract Forwarder is IForwarder, ERC165, EIP712 {... */\n      mstore(0x40, 0x80)\n      jumpi(tag_1, lt(calldatasize, 0x04))\n      shr(0xe0, calldataload(0x00))\n      dup1\n      0x019fe885\n      eq\n      tag_3\n      jumpi\n      dup1\n      0x01ffc9a7\n      eq\n      tag_4\n      jumpi\n      dup1\n      0x269fb1c7\n      eq\n      tag_5\n      jumpi\n      dup1\n      0x2d0335ab\n      eq\n      tag_6\n      jumpi\n      dup1\n      0x44d46c8e\n      eq\n      tag_7\n      jumpi\n      jump(tag_2)\n    tag_1:\n      jumpi(tag_2, calldatasize)\n      stop\n    tag_2:\n      0x00\n      dup1\n      revert\n        /* \"contracts/Forwarder.sol\":1642:1822  function verify(ForwardRequest calldata req, bytes calldata sig)... */\n    tag_3:\n      callvalue\n      dup1\n      iszero\n      tag_10\n      jumpi\n      0x00\n      dup1\n      revert\n    tag_10:\n      pop\n      tag_11\n      0x04\n      dup1\n      calldatasize\n      sub\n      dup2\n      add\n      swap1\n      tag_12\n      swap2\n      swap1\n      tag_13\n      jump\t// in\n    tag_12:\n      tag_14\n      jump\t// in\n    tag_11:\n      stop\n        /* \"contracts/Forwarder.sol\":1322:1605  function supportsInterface(bytes4 interfaceId)... */\n    tag_4:\n      callvalue\n      dup1\n      iszero\n      tag_15\n      jumpi\n      0x00\n      dup1\n      revert\n    tag_15:\n      pop\n      tag_16\n      0x04\n      dup1\n      calldatasize\n      sub\n      dup2\n      add\n      swap1\n      tag_17\n      swap2\n      swap1\n      tag_18\n      jump\t// in\n    tag_17:\n      tag_19\n      jump\t// in\n    tag_16:\n      mload(0x40)\n      tag_20\n      swap2\n      swap1\n      tag_21\n      jump\t// in\n    tag_20:\n      mload(0x40)\n      dup1\n      swap2\n      sub\n      swap1\n      return\n        /* \"contracts/Forwarder.sol\":3876:4501  function _getEncoded(ForwardRequest calldata req)... */\n    tag_5:\n      callvalue\n      dup1\n      iszero\n      tag_22\n      jumpi\n      0x00\n      dup1\n      revert\n    tag_22:\n      pop\n      tag_23\n      0x04\n      dup1\n      calldatasize\n      sub\n      dup2\n      add\n      swap1\n      tag_24\n      swap2\n      swap1\n      tag_25\n      jump\t// in\n    tag_24:\n      tag_26\n      jump\t// in\n    tag_23:\n      mload(0x40)\n      tag_27\n      swap2\n      swap1\n      tag_28\n      jump\t// in\n    tag_27:\n      mload(0x40)\n      dup1\n      swap2\n      sub\n      swap1\n      return\n        /* \"contracts/Forwarder.sol\":1117:1224  function getNonce(address from) public view override returns (uint256) {... */\n    tag_6:\n      callvalue\n      dup1\n      iszero\n      tag_29\n      jumpi\n      0x00\n      dup1\n      revert\n    tag_29:\n      pop\n      tag_30\n      0x04\n      dup1\n      calldatasize\n      sub\n      dup2\n      add\n      swap1\n      tag_31\n      swap2\n      swap1\n      tag_32\n      jump\t// in\n    tag_31:\n      tag_33\n      jump\t// in\n    tag_30:\n      mload(0x40)\n      tag_34\n      swap2\n      swap1\n      tag_35\n      jump\t// in\n    tag_34:\n      mload(0x40)\n      dup1\n      swap2\n      sub\n      swap1\n      return\n        /* \"contracts/Forwarder.sol\":1859:3008  function execute(ForwardRequest calldata req, bytes calldata sig)... */\n    tag_7:\n      tag_36\n      0x04\n      dup1\n      calldatasize\n      sub\n      dup2\n      add\n      swap1\n      tag_37\n      swap2\n      swap1\n      tag_13\n      jump\t// in\n    tag_37:\n      tag_38\n      jump\t// in\n    tag_36:\n      mload(0x40)\n      tag_39\n      swap3\n      swap2\n      swap1\n      tag_40\n      jump\t// in\n    tag_39:\n      mload(0x40)\n      dup1\n      swap2\n      sub\n      swap1\n      return\n        /* \"contracts/Forwarder.sol\":1642:1822  function verify(ForwardRequest calldata req, bytes calldata sig)... */\n    tag_14:\n        /* \"contracts/Forwarder.sol\":1768:1785  _verifyNonce(req) */\n      tag_42\n        /* \"contracts/Forwarder.sol\":1781:1784  req */\n      dup4\n        /* \"contracts/Forwarder.sol\":1768:1780  _verifyNonce */\n      tag_43\n        /* \"contracts/Forwarder.sol\":1768:1785  _verifyNonce(req) */\n      jump\t// in\n    tag_42:\n        /* \"contracts/Forwarder.sol\":1795:1815  _verifySig(req, sig) */\n      tag_44\n        /* \"contracts/Forwarder.sol\":1806:1809  req */\n      dup4\n        /* \"contracts/Forwarder.sol\":1811:1814  sig */\n      dup4\n      dup4\n        /* \"contracts/Forwarder.sol\":1795:1805  _verifySig */\n      tag_45\n        /* \"contracts/Forwarder.sol\":1795:1815  _verifySig(req, sig) */\n      jump\t// in\n    tag_44:\n        /* \"contracts/Forwarder.sol\":1642:1822  function verify(ForwardRequest calldata req, bytes calldata sig)... */\n      pop\n      pop\n      pop\n      jump\t// out\n        /* \"contracts/Forwarder.sol\":1322:1605  function supportsInterface(bytes4 interfaceId)... */\n    tag_19:\n        /* \"contracts/Forwarder.sol\":1464:1468  bool */\n      0x00\n        /* \"contracts/Forwarder.sol\":1518:1546  type(IForwarder).interfaceId */\n      0x6848b1a000000000000000000000000000000000000000000000000000000000\n        /* \"contracts/Forwarder.sol\":1503:1546  interfaceId == type(IForwarder).interfaceId */\n      not(0xffffffffffffffffffffffffffffffffffffffffffffffffffffffff)\n      and\n        /* \"contracts/Forwarder.sol\":1503:1514  interfaceId */\n      dup3\n        /* \"contracts/Forwarder.sol\":1503:1546  interfaceId == type(IForwarder).interfaceId */\n      not(0xffffffffffffffffffffffffffffffffffffffffffffffffffffffff)\n      and\n      eq\n        /* \"contracts/Forwarder.sol\":1503:1598  interfaceId == type(IForwarder).interfaceId ||... */\n      dup1\n      tag_47\n      jumpi\n      pop\n        /* \"contracts/Forwarder.sol\":1562:1598  super.supportsInterface(interfaceId) */\n      tag_48\n        /* \"contracts/Forwarder.sol\":1586:1597  interfaceId */\n      dup3\n        /* \"contracts/Forwarder.sol\":1562:1585  super.supportsInterface */\n      tag_49\n        /* \"contracts/Forwarder.sol\":1562:1598  super.supportsInterface(interfaceId) */\n      jump\t// in\n    tag_48:\n        /* \"contracts/Forwarder.sol\":1503:1598  interfaceId == type(IForwarder).interfaceId ||... */\n    tag_47:\n        /* \"contracts/Forwarder.sol\":1484:1598  return... */\n      swap1\n      pop\n        /* \"contracts/Forwarder.sol\":1322:1605  function supportsInterface(bytes4 interfaceId)... */\n      swap2\n      swap1\n      pop\n      jump\t// out\n        /* \"contracts/Forwarder.sol\":3876:4501  function _getEncoded(ForwardRequest calldata req)... */\n    tag_26:\n        /* \"contracts/Forwarder.sol\":3971:3983  bytes memory */\n      0x60\n        /* \"contracts/Forwarder.sol\":741:889  keccak256(... */\n      0xb91ae508e6f0e8e33913dec60d2fdcb39fe037ce56198c70a7927d7cd813fd96\n        /* \"contracts/Forwarder.sol\":4296:4299  req */\n      dup3\n        /* \"contracts/Forwarder.sol\":4296:4304  req.from */\n      0x00\n      add\n      0x20\n      dup2\n      add\n      swap1\n      tag_51\n      swap2\n      swap1\n      tag_32\n      jump\t// in\n    tag_51:\n        /* \"contracts/Forwarder.sol\":4322:4325  req */\n      dup4\n        /* \"contracts/Forwarder.sol\":4322:4328  req.to */\n      0x20\n      add\n      0x20\n      dup2\n      add\n      swap1\n      tag_52\n      swap2\n      swap1\n      tag_32\n      jump\t// in\n    tag_52:\n        /* \"contracts/Forwarder.sol\":4346:4349  req */\n      dup5\n        /* \"contracts/Forwarder.sol\":4346:4355  req.value */\n      0x40\n      add\n      calldataload\n        /* \"contracts/Forwarder.sol\":4373:4376  req */\n      dup6\n        /* \"contracts/Forwarder.sol\":4373:4380  req.gas */\n      0x60\n      add\n      calldataload\n        /* \"contracts/Forwarder.sol\":4398:4401  req */\n      dup7\n        /* \"contracts/Forwarder.sol\":4398:4407  req.nonce */\n      0x80\n      add\n      calldataload\n        /* \"contracts/Forwarder.sol\":4435:4438  req */\n      dup8\n        /* \"contracts/Forwarder.sol\":4435:4443  req.data */\n      dup1\n      0xa0\n      add\n      swap1\n      tag_53\n      swap2\n      swap1\n      tag_54\n      jump\t// in\n    tag_53:\n        /* \"contracts/Forwarder.sol\":4425:4444  keccak256(req.data) */\n      mload(0x40)\n      tag_55\n      swap3\n      swap2\n      swap1\n      tag_56\n      jump\t// in\n    tag_55:\n      mload(0x40)\n      dup1\n      swap2\n      sub\n      swap1\n      keccak256\n        /* \"contracts/Forwarder.sol\":4462:4465  req */\n      dup9\n        /* \"contracts/Forwarder.sol\":4462:4480  req.validUntilTime */\n      0xc0\n      add\n      calldataload\n        /* \"contracts/Forwarder.sol\":4241:4494  abi.encode(... */\n      add(0x20, mload(0x40))\n      tag_57\n      swap9\n      swap8\n      swap7\n      swap6\n      swap5\n      swap4\n      swap3\n      swap2\n      swap1\n      tag_58\n      jump\t// in\n    tag_57:\n      mload(0x40)\n      0x20\n      dup2\n      dup4\n      sub\n      sub\n      dup2\n      mstore\n      swap1\n      0x40\n      mstore\n        /* \"contracts/Forwarder.sol\":4222:4494  return... */\n      swap1\n      pop\n        /* \"contracts/Forwarder.sol\":3876:4501  function _getEncoded(ForwardRequest calldata req)... */\n      swap2\n      swap1\n      pop\n      jump\t// out\n        /* \"contracts/Forwarder.sol\":1117:1224  function getNonce(address from) public view override returns (uint256) {... */\n    tag_33:\n        /* \"contracts/Forwarder.sol\":1179:1186  uint256 */\n      0x00\n        /* \"contracts/Forwarder.sol\":1205:1211  nonces */\n      dup1\n        /* \"contracts/Forwarder.sol\":1205:1217  nonces[from] */\n      0x00\n        /* \"contracts/Forwarder.sol\":1212:1216  from */\n      dup4\n        /* \"contracts/Forwarder.sol\":1205:1217  nonces[from] */\n      0xffffffffffffffffffffffffffffffffffffffff\n      and\n      0xffffffffffffffffffffffffffffffffffffffff\n      and\n      dup2\n      mstore\n      0x20\n      add\n      swap1\n      dup2\n      mstore\n      0x20\n      add\n      0x00\n      keccak256\n      sload\n        /* \"contracts/Forwarder.sol\":1198:1217  return nonces[from] */\n      swap1\n      pop\n        /* \"contracts/Forwarder.sol\":1117:1224  function getNonce(address from) public view override returns (uint256) {... */\n      swap2\n      swap1\n      pop\n      jump\t// out\n        /* \"contracts/Forwarder.sol\":1859:3008  function execute(ForwardRequest calldata req, bytes calldata sig)... */\n    tag_38:\n        /* \"contracts/Forwarder.sol\":1992:2004  bool success */\n      0x00\n        /* \"contracts/Forwarder.sol\":2006:2022  bytes memory ret */\n      0x60\n        /* \"contracts/Forwarder.sol\":2038:2058  _verifySig(req, sig) */\n      tag_61\n        /* \"contracts/Forwarder.sol\":2049:2052  req */\n      dup6\n        /* \"contracts/Forwarder.sol\":2054:2057  sig */\n      dup6\n      dup6\n        /* \"contracts/Forwarder.sol\":2038:2048  _verifySig */\n      tag_45\n        /* \"contracts/Forwarder.sol\":2038:2058  _verifySig(req, sig) */\n      jump\t// in\n    tag_61:\n        /* \"contracts/Forwarder.sol\":2068:2094  _verifyAndUpdateNonce(req) */\n      tag_62\n        /* \"contracts/Forwarder.sol\":2090:2093  req */\n      dup6\n        /* \"contracts/Forwarder.sol\":2068:2089  _verifyAndUpdateNonce */\n      tag_63\n        /* \"contracts/Forwarder.sol\":2068:2094  _verifyAndUpdateNonce(req) */\n      jump\t// in\n    tag_62:\n        /* \"contracts/Forwarder.sol\":2148:2149  0 */\n      0x00\n        /* \"contracts/Forwarder.sol\":2126:2129  req */\n      dup6\n        /* \"contracts/Forwarder.sol\":2126:2144  req.validUntilTime */\n      0xc0\n      add\n      calldataload\n        /* \"contracts/Forwarder.sol\":2126:2149  req.validUntilTime == 0 */\n      eq\n        /* \"contracts/Forwarder.sol\":2126:2189  req.validUntilTime == 0 || req.validUntilTime > block.timestamp */\n      dup1\n      tag_64\n      jumpi\n      pop\n        /* \"contracts/Forwarder.sol\":2174:2189  block.timestamp */\n      timestamp\n        /* \"contracts/Forwarder.sol\":2153:2156  req */\n      dup6\n        /* \"contracts/Forwarder.sol\":2153:2171  req.validUntilTime */\n      0xc0\n      add\n      calldataload\n        /* \"contracts/Forwarder.sol\":2153:2189  req.validUntilTime > block.timestamp */\n      gt\n        /* \"contracts/Forwarder.sol\":2126:2189  req.validUntilTime == 0 || req.validUntilTime > block.timestamp */\n    tag_64:\n        /* \"contracts/Forwarder.sol\":2105:2235  require(... */\n      tag_65\n      jumpi\n      mload(0x40)\n      0x08c379a000000000000000000000000000000000000000000000000000000000\n      dup2\n      mstore\n      0x04\n      add\n      tag_66\n      swap1\n      tag_67\n      jump\t// in\n    tag_66:\n      mload(0x40)\n      dup1\n      swap2\n      sub\n      swap1\n      revert\n    tag_65:\n        /* \"contracts/Forwarder.sol\":2246:2268  uint256 gasForTransfer */\n      0x00\n        /* \"contracts/Forwarder.sol\":2299:2300  0 */\n      dup1\n        /* \"contracts/Forwarder.sol\":2286:2289  req */\n      dup7\n        /* \"contracts/Forwarder.sol\":2286:2295  req.value */\n      0x40\n      add\n      calldataload\n        /* \"contracts/Forwarder.sol\":2286:2300  req.value != 0 */\n      eq\n        /* \"contracts/Forwarder.sol\":2282:2409  if (req.value != 0) {... */\n      tag_68\n      jumpi\n        /* \"contracts/Forwarder.sol\":2333:2338  40000 */\n      0x9c40\n        /* \"contracts/Forwarder.sol\":2316:2338  gasForTransfer = 40000 */\n      swap1\n      pop\n        /* \"contracts/Forwarder.sol\":2282:2409  if (req.value != 0) {... */\n    tag_68:\n        /* \"contracts/Forwarder.sol\":2418:2439  bytes memory callData */\n      0x00\n        /* \"contracts/Forwarder.sol\":2459:2462  req */\n      dup7\n        /* \"contracts/Forwarder.sol\":2459:2467  req.data */\n      dup1\n      0xa0\n      add\n      swap1\n      tag_69\n      swap2\n      swap1\n      tag_54\n      jump\t// in\n    tag_69:\n        /* \"contracts/Forwarder.sol\":2469:2472  req */\n      dup9\n        /* \"contracts/Forwarder.sol\":2469:2477  req.from */\n      0x00\n      add\n      0x20\n      dup2\n      add\n      swap1\n      tag_70\n      swap2\n      swap1\n      tag_32\n      jump\t// in\n    tag_70:\n        /* \"contracts/Forwarder.sol\":2442:2478  abi.encodePacked(req.data, req.from) */\n      add(0x20, mload(0x40))\n      tag_71\n      swap4\n      swap3\n      swap2\n      swap1\n      tag_72\n      jump\t// in\n    tag_71:\n      mload(0x40)\n      0x20\n      dup2\n      dup4\n      sub\n      sub\n      dup2\n      mstore\n      swap1\n      0x40\n      mstore\n        /* \"contracts/Forwarder.sol\":2418:2478  bytes memory callData = abi.encodePacked(req.data, req.from) */\n      swap1\n      pop\n        /* \"contracts/Forwarder.sol\":2544:2558  gasForTransfer */\n      dup2\n        /* \"contracts/Forwarder.sol\":2534:2537  req */\n      dup8\n        /* \"contracts/Forwarder.sol\":2534:2541  req.gas */\n      0x60\n      add\n      calldataload\n        /* \"contracts/Forwarder.sol\":2534:2558  req.gas + gasForTransfer */\n      tag_73\n      swap2\n      swap1\n      tag_74\n      jump\t// in\n    tag_73:\n        /* \"contracts/Forwarder.sol\":2528:2530  64 */\n      0x40\n        /* \"contracts/Forwarder.sol\":2522:2524  63 */\n      0x3f\n        /* \"contracts/Forwarder.sol\":2510:2519  gasleft() */\n      gas\n        /* \"contracts/Forwarder.sol\":2510:2524  gasleft() * 63 */\n      tag_75\n      swap2\n      swap1\n      tag_76\n      jump\t// in\n    tag_75:\n        /* \"contracts/Forwarder.sol\":2509:2530  (gasleft() * 63) / 64 */\n      tag_77\n      swap2\n      swap1\n      tag_78\n      jump\t// in\n    tag_77:\n        /* \"contracts/Forwarder.sol\":2509:2558  (gasleft() * 63) / 64 >= req.gas + gasForTransfer */\n      lt\n      iszero\n        /* \"contracts/Forwarder.sol\":2488:2605  require(... */\n      tag_79\n      jumpi\n      mload(0x40)\n      0x08c379a000000000000000000000000000000000000000000000000000000000\n      dup2\n      mstore\n      0x04\n      add\n      tag_80\n      swap1\n      tag_81\n      jump\t// in\n    tag_80:\n      mload(0x40)\n      dup1\n      swap2\n      sub\n      swap1\n      revert\n    tag_79:\n        /* \"contracts/Forwarder.sol\":2691:2694  req */\n      dup7\n        /* \"contracts/Forwarder.sol\":2691:2697  req.to */\n      0x20\n      add\n      0x20\n      dup2\n      add\n      swap1\n      tag_82\n      swap2\n      swap1\n      tag_32\n      jump\t// in\n    tag_82:\n        /* \"contracts/Forwarder.sol\":2691:2702  req.to.call */\n      0xffffffffffffffffffffffffffffffffffffffff\n      and\n        /* \"contracts/Forwarder.sol\":2708:2711  req */\n      dup8\n        /* \"contracts/Forwarder.sol\":2708:2715  req.gas */\n      0x60\n      add\n      calldataload\n        /* \"contracts/Forwarder.sol\":2724:2727  req */\n      dup9\n        /* \"contracts/Forwarder.sol\":2724:2733  req.value */\n      0x40\n      add\n      calldataload\n        /* \"contracts/Forwarder.sol\":2735:2743  callData */\n      dup4\n        /* \"contracts/Forwarder.sol\":2691:2744  req.to.call{gas: req.gas, value: req.value}(callData) */\n      mload(0x40)\n      tag_83\n      swap2\n      swap1\n      tag_84\n      jump\t// in\n    tag_83:\n      0x00\n      mload(0x40)\n      dup1\n      dup4\n      sub\n      dup2\n      dup6\n      dup9\n      dup9\n      call\n      swap4\n      pop\n      pop\n      pop\n      pop\n      returndatasize\n      dup1\n      0x00\n      dup2\n      eq\n      tag_87\n      jumpi\n      mload(0x40)\n      swap2\n      pop\n      and(add(returndatasize, 0x3f), not(0x1f))\n      dup3\n      add\n      0x40\n      mstore\n      returndatasize\n      dup3\n      mstore\n      returndatasize\n      0x00\n      0x20\n      dup5\n      add\n      returndatacopy\n      jump(tag_86)\n    tag_87:\n      0x60\n      swap2\n      pop\n    tag_86:\n      pop\n        /* \"contracts/Forwarder.sol\":2674:2744  (success, ret) = req.to.call{gas: req.gas, value: req.value}(callData) */\n      dup1\n      swap5\n      pop\n      dup2\n      swap6\n      pop\n      pop\n      pop\n        /* \"contracts/Forwarder.sol\":2772:2773  0 */\n      0x00\n        /* \"contracts/Forwarder.sol\":2759:2762  req */\n      dup8\n        /* \"contracts/Forwarder.sol\":2759:2768  req.value */\n      0x40\n      add\n      calldataload\n        /* \"contracts/Forwarder.sol\":2759:2773  req.value != 0 */\n      eq\n      iszero\n        /* \"contracts/Forwarder.sol\":2759:2802  req.value != 0 && address(this).balance > 0 */\n      dup1\n      iszero\n      tag_88\n      jumpi\n      pop\n        /* \"contracts/Forwarder.sol\":2801:2802  0 */\n      0x00\n        /* \"contracts/Forwarder.sol\":2777:2798  address(this).balance */\n      selfbalance\n        /* \"contracts/Forwarder.sol\":2777:2802  address(this).balance > 0 */\n      gt\n        /* \"contracts/Forwarder.sol\":2759:2802  req.value != 0 && address(this).balance > 0 */\n    tag_88:\n        /* \"contracts/Forwarder.sol\":2755:2970  if (req.value != 0 && address(this).balance > 0) {... */\n      iszero\n      tag_89\n      jumpi\n        /* \"contracts/Forwarder.sol\":2918:2921  req */\n      dup7\n        /* \"contracts/Forwarder.sol\":2918:2926  req.from */\n      0x00\n      add\n      0x20\n      dup2\n      add\n      swap1\n      tag_90\n      swap2\n      swap1\n      tag_32\n      jump\t// in\n    tag_90:\n        /* \"contracts/Forwarder.sol\":2910:2936  payable(req.from).transfer */\n      0xffffffffffffffffffffffffffffffffffffffff\n      and\n        /* \"contracts/Forwarder.sol\":2910:2959  payable(req.from).transfer(address(this).balance) */\n      0x08fc\n        /* \"contracts/Forwarder.sol\":2937:2958  address(this).balance */\n      selfbalance\n        /* \"contracts/Forwarder.sol\":2910:2959  payable(req.from).transfer(address(this).balance) */\n      swap1\n      dup2\n      iszero\n      mul\n      swap1\n      mload(0x40)\n      0x00\n      mload(0x40)\n      dup1\n      dup4\n      sub\n      dup2\n      dup6\n      dup9\n      dup9\n      call\n      swap4\n      pop\n      pop\n      pop\n      pop\n      iszero\n      dup1\n      iszero\n      tag_92\n      jumpi\n      returndatasize\n      0x00\n      dup1\n      returndatacopy\n      revert(0x00, returndatasize)\n    tag_92:\n      pop\n        /* \"contracts/Forwarder.sol\":2755:2970  if (req.value != 0 && address(this).balance > 0) {... */\n    tag_89:\n        /* \"contracts/Forwarder.sol\":2980:3001  return (success, ret) */\n      pop\n      pop\n        /* \"contracts/Forwarder.sol\":1859:3008  function execute(ForwardRequest calldata req, bytes calldata sig)... */\n      swap4\n      pop\n      swap4\n      swap2\n      pop\n      pop\n      jump\t// out\n        /* \"contracts/Forwarder.sol\":3014:3157  function _verifyNonce(ForwardRequest calldata req) internal view {... */\n    tag_43:\n        /* \"contracts/Forwarder.sol\":3117:3120  req */\n      dup1\n        /* \"contracts/Forwarder.sol\":3117:3126  req.nonce */\n      0x80\n      add\n      calldataload\n        /* \"contracts/Forwarder.sol\":3097:3103  nonces */\n      0x00\n        /* \"contracts/Forwarder.sol\":3097:3113  nonces[req.from] */\n      dup1\n        /* \"contracts/Forwarder.sol\":3104:3107  req */\n      dup4\n        /* \"contracts/Forwarder.sol\":3104:3112  req.from */\n      0x00\n      add\n      0x20\n      dup2\n      add\n      swap1\n      tag_94\n      swap2\n      swap1\n      tag_32\n      jump\t// in\n    tag_94:\n        /* \"contracts/Forwarder.sol\":3097:3113  nonces[req.from] */\n      0xffffffffffffffffffffffffffffffffffffffff\n      and\n      0xffffffffffffffffffffffffffffffffffffffff\n      and\n      dup2\n      mstore\n      0x20\n      add\n      swap1\n      dup2\n      mstore\n      0x20\n      add\n      0x00\n      keccak256\n      sload\n        /* \"contracts/Forwarder.sol\":3097:3126  nonces[req.from] == req.nonce */\n      eq\n        /* \"contracts/Forwarder.sol\":3089:3150  require(nonces[req.from] == req.nonce, \"FWD: nonce mismatch\") */\n      tag_95\n      jumpi\n      mload(0x40)\n      0x08c379a000000000000000000000000000000000000000000000000000000000\n      dup2\n      mstore\n      0x04\n      add\n      tag_96\n      swap1\n      tag_97\n      jump\t// in\n    tag_96:\n      mload(0x40)\n      dup1\n      swap2\n      sub\n      swap1\n      revert\n    tag_95:\n        /* \"contracts/Forwarder.sol\":3014:3157  function _verifyNonce(ForwardRequest calldata req) internal view {... */\n      pop\n      jump\t// out\n        /* \"contracts/Forwarder.sol\":3318:3734  function _verifySig(ForwardRequest calldata req, bytes calldata sig)... */\n    tag_45:\n        /* \"contracts/Forwarder.sol\":3447:3461  address signer */\n      0x00\n        /* \"contracts/Forwarder.sol\":3464:3544  _hashTypedDataV4(keccak256(_getEncoded(req))).recover(... */\n      tag_99\n        /* \"contracts/Forwarder.sol\":3531:3534  sig */\n      dup4\n      dup4\n        /* \"contracts/Forwarder.sol\":3464:3544  _hashTypedDataV4(keccak256(_getEncoded(req))).recover(... */\n      dup1\n      dup1\n      0x1f\n      add\n      0x20\n      dup1\n      swap2\n      div\n      mul\n      0x20\n      add\n      mload(0x40)\n      swap1\n      dup2\n      add\n      0x40\n      mstore\n      dup1\n      swap4\n      swap3\n      swap2\n      swap1\n      dup2\n      dup2\n      mstore\n      0x20\n      add\n      dup4\n      dup4\n      dup1\n      dup3\n      dup5\n      calldatacopy\n      0x00\n      dup2\n      dup5\n      add\n      mstore\n      not(0x1f)\n      0x1f\n      dup3\n      add\n      and\n      swap1\n      pop\n      dup1\n      dup4\n      add\n      swap3\n      pop\n      pop\n      pop\n      pop\n      pop\n      pop\n      pop\n        /* \"contracts/Forwarder.sol\":3464:3509  _hashTypedDataV4(keccak256(_getEncoded(req))) */\n      tag_100\n        /* \"contracts/Forwarder.sol\":3491:3507  _getEncoded(req) */\n      tag_101\n        /* \"contracts/Forwarder.sol\":3503:3506  req */\n      dup8\n        /* \"contracts/Forwarder.sol\":3491:3502  _getEncoded */\n      tag_26\n        /* \"contracts/Forwarder.sol\":3491:3507  _getEncoded(req) */\n      jump\t// in\n    tag_101:\n        /* \"contracts/Forwarder.sol\":3481:3508  keccak256(_getEncoded(req)) */\n      dup1\n      mload\n      swap1\n      0x20\n      add\n      keccak256\n        /* \"contracts/Forwarder.sol\":3464:3480  _hashTypedDataV4 */\n      tag_102\n        /* \"contracts/Forwarder.sol\":3464:3509  _hashTypedDataV4(keccak256(_getEncoded(req))) */\n      jump\t// in\n    tag_100:\n        /* \"contracts/Forwarder.sol\":3464:3517  _hashTypedDataV4(keccak256(_getEncoded(req))).recover */\n      tag_103\n      swap1\n        /* \"contracts/Forwarder.sol\":3464:3544  _hashTypedDataV4(keccak256(_getEncoded(req))).recover(... */\n      swap2\n      swap1\n      0xffffffff\n      and\n      jump\t// in\n    tag_99:\n        /* \"contracts/Forwarder.sol\":3447:3544  address signer = _hashTypedDataV4(keccak256(_getEncoded(req))).recover(... */\n      swap1\n      pop\n        /* \"contracts/Forwarder.sol\":647:689  0x0000000000000000000000000000000000000000 */\n      0x00\n        /* \"contracts/Forwarder.sol\":3628:3656  tx.origin == DRY_RUN_ADDRESS */\n      0xffffffffffffffffffffffffffffffffffffffff\n      and\n        /* \"contracts/Forwarder.sol\":3628:3637  tx.origin */\n      origin\n        /* \"contracts/Forwarder.sol\":3628:3656  tx.origin == DRY_RUN_ADDRESS */\n      0xffffffffffffffffffffffffffffffffffffffff\n      and\n      eq\n        /* \"contracts/Forwarder.sol\":3628:3678  tx.origin == DRY_RUN_ADDRESS || signer == req.from */\n      dup1\n      tag_104\n      jumpi\n      pop\n        /* \"contracts/Forwarder.sol\":3670:3673  req */\n      dup4\n        /* \"contracts/Forwarder.sol\":3670:3678  req.from */\n      0x00\n      add\n      0x20\n      dup2\n      add\n      swap1\n      tag_105\n      swap2\n      swap1\n      tag_32\n      jump\t// in\n    tag_105:\n        /* \"contracts/Forwarder.sol\":3660:3678  signer == req.from */\n      0xffffffffffffffffffffffffffffffffffffffff\n      and\n        /* \"contracts/Forwarder.sol\":3660:3666  signer */\n      dup2\n        /* \"contracts/Forwarder.sol\":3660:3678  signer == req.from */\n      0xffffffffffffffffffffffffffffffffffffffff\n      and\n      eq\n        /* \"contracts/Forwarder.sol\":3628:3678  tx.origin == DRY_RUN_ADDRESS || signer == req.from */\n    tag_104:\n        /* \"contracts/Forwarder.sol\":3607:3727  require(... */\n      tag_106\n      jumpi\n      mload(0x40)\n      0x08c379a000000000000000000000000000000000000000000000000000000000\n      dup2\n      mstore\n      0x04\n      add\n      tag_107\n      swap1\n      tag_108\n      jump\t// in\n    tag_107:\n      mload(0x40)\n      dup1\n      swap2\n      sub\n      swap1\n      revert\n    tag_106:\n        /* \"contracts/Forwarder.sol\":3437:3734  {... */\n      pop\n        /* \"contracts/Forwarder.sol\":3318:3734  function _verifySig(ForwardRequest calldata req, bytes calldata sig)... */\n      pop\n      pop\n      pop\n      jump\t// out\n        /* \"@openzeppelin/contracts/utils/introspection/ERC165.sol\":829:984  function supportsInterface(bytes4 interfaceId) public view virtual override returns (bool) {... */\n    tag_49:\n        /* \"@openzeppelin/contracts/utils/introspection/ERC165.sol\":914:918  bool */\n      0x00\n        /* \"@openzeppelin/contracts/utils/introspection/ERC165.sol\":952:977  type(IERC165).interfaceId */\n      0x01ffc9a700000000000000000000000000000000000000000000000000000000\n        /* \"@openzeppelin/contracts/utils/introspection/ERC165.sol\":937:977  interfaceId == type(IERC165).interfaceId */\n      not(0xffffffffffffffffffffffffffffffffffffffffffffffffffffffff)\n      and\n        /* \"@openzeppelin/contracts/utils/introspection/ERC165.sol\":937:948  interfaceId */\n      dup3\n        /* \"@openzeppelin/contracts/utils/introspection/ERC165.sol\":937:977  interfaceId == type(IERC165).interfaceId */\n      not(0xffffffffffffffffffffffffffffffffffffffffffffffffffffffff)\n      and\n      eq\n        /* \"@openzeppelin/contracts/utils/introspection/ERC165.sol\":930:977  return interfaceId == type(IERC165).interfaceId */\n      swap1\n      pop\n        /* \"@openzeppelin/contracts/utils/introspection/ERC165.sol\":829:984  function supportsInterface(bytes4 interfaceId) public view virtual override returns (bool) {... */\n      swap2\n      swap1\n      pop\n      jump\t// out\n        /* \"contracts/Forwarder.sol\":3163:3312  function _verifyAndUpdateNonce(ForwardRequest calldata req) internal {... */\n    tag_63:\n        /* \"contracts/Forwarder.sol\":3272:3275  req */\n      dup1\n        /* \"contracts/Forwarder.sol\":3272:3281  req.nonce */\n      0x80\n      add\n      calldataload\n        /* \"contracts/Forwarder.sol\":3250:3256  nonces */\n      0x00\n        /* \"contracts/Forwarder.sol\":3250:3266  nonces[req.from] */\n      dup1\n        /* \"contracts/Forwarder.sol\":3257:3260  req */\n      dup4\n        /* \"contracts/Forwarder.sol\":3257:3265  req.from */\n      0x00\n      add\n      0x20\n      dup2\n      add\n      swap1\n      tag_111\n      swap2\n      swap1\n      tag_32\n      jump\t// in\n    tag_111:\n        /* \"contracts/Forwarder.sol\":3250:3266  nonces[req.from] */\n      0xffffffffffffffffffffffffffffffffffffffff\n      and\n      0xffffffffffffffffffffffffffffffffffffffff\n      and\n      dup2\n      mstore\n      0x20\n      add\n      swap1\n      dup2\n      mstore\n      0x20\n      add\n      0x00\n      keccak256\n      0x00\n        /* \"contracts/Forwarder.sol\":3250:3268  nonces[req.from]++ */\n      dup2\n      sload\n      dup1\n      swap3\n      swap2\n      swap1\n      tag_112\n      swap1\n      tag_113\n      jump\t// in\n    tag_112:\n      swap2\n      swap1\n      pop\n      sstore\n        /* \"contracts/Forwarder.sol\":3250:3281  nonces[req.from]++ == req.nonce */\n      eq\n        /* \"contracts/Forwarder.sol\":3242:3305  require(nonces[req.from]++ == req.nonce, \"FWD: nonce mismatch\") */\n      tag_114\n      jumpi\n      mload(0x40)\n      0x08c379a000000000000000000000000000000000000000000000000000000000\n      dup2\n      mstore\n      0x04\n      add\n      tag_115\n      swap1\n      tag_97\n      jump\t// in\n    tag_115:\n      mload(0x40)\n      dup1\n      swap2\n      sub\n      swap1\n      revert\n    tag_114:\n        /* \"contracts/Forwarder.sol\":3163:3312  function _verifyAndUpdateNonce(ForwardRequest calldata req) internal {... */\n      pop\n      jump\t// out\n        /* \"@openzeppelin/contracts/utils/cryptography/EIP712.sol\":4348:4513  function _hashTypedDataV4(bytes32 structHash) internal view virtual returns (bytes32) {... */\n    tag_102:\n        /* \"@openzeppelin/contracts/utils/cryptography/EIP712.sol\":4425:4432  bytes32 */\n      0x00\n        /* \"@openzeppelin/contracts/utils/cryptography/EIP712.sol\":4451:4506  ECDSA.toTypedDataHash(_domainSeparatorV4(), structHash) */\n      tag_117\n        /* \"@openzeppelin/contracts/utils/cryptography/EIP712.sol\":4473:4493  _domainSeparatorV4() */\n      tag_118\n        /* \"@openzeppelin/contracts/utils/cryptography/EIP712.sol\":4473:4491  _domainSeparatorV4 */\n      tag_119\n        /* \"@openzeppelin/contracts/utils/cryptography/EIP712.sol\":4473:4493  _domainSeparatorV4() */\n      jump\t// in\n    tag_118:\n        /* \"@openzeppelin/contracts/utils/cryptography/EIP712.sol\":4495:4505  structHash */\n      dup4\n        /* \"@openzeppelin/contracts/utils/cryptography/EIP712.sol\":4451:4472  ECDSA.toTypedDataHash */\n      tag_120\n        /* \"@openzeppelin/contracts/utils/cryptography/EIP712.sol\":4451:4506  ECDSA.toTypedDataHash(_domainSeparatorV4(), structHash) */\n      jump\t// in\n    tag_117:\n        /* \"@openzeppelin/contracts/utils/cryptography/EIP712.sol\":4444:4506  return ECDSA.toTypedDataHash(_domainSeparatorV4(), structHash) */\n      swap1\n      pop\n        /* \"@openzeppelin/contracts/utils/cryptography/EIP712.sol\":4348:4513  function _hashTypedDataV4(bytes32 structHash) internal view virtual returns (bytes32) {... */\n      swap2\n      swap1\n      pop\n      jump\t// out\n        /* \"@openzeppelin/contracts/utils/cryptography/ECDSA.sol\":3661:3888  function recover(bytes32 hash, bytes memory signature) internal pure returns (address) {... */\n    tag_103:\n        /* \"@openzeppelin/contracts/utils/cryptography/ECDSA.sol\":3739:3746  address */\n      0x00\n        /* \"@openzeppelin/contracts/utils/cryptography/ECDSA.sol\":3759:3776  address recovered */\n      dup1\n        /* \"@openzeppelin/contracts/utils/cryptography/ECDSA.sol\":3778:3796  RecoverError error */\n      0x00\n        /* \"@openzeppelin/contracts/utils/cryptography/ECDSA.sol\":3800:3827  tryRecover(hash, signature) */\n      tag_122\n        /* \"@openzeppelin/contracts/utils/cryptography/ECDSA.sol\":3811:3815  hash */\n      dup6\n        /* \"@openzeppelin/contracts/utils/cryptography/ECDSA.sol\":3817:3826  signature */\n      dup6\n        /* \"@openzeppelin/contracts/utils/cryptography/ECDSA.sol\":3800:3810  tryRecover */\n      tag_123\n        /* \"@openzeppelin/contracts/utils/cryptography/ECDSA.sol\":3800:3827  tryRecover(hash, signature) */\n      jump\t// in\n    tag_122:\n        /* \"@openzeppelin/contracts/utils/cryptography/ECDSA.sol\":3758:3827  (address recovered, RecoverError error) = tryRecover(hash, signature) */\n      swap2\n      pop\n      swap2\n      pop\n        /* \"@openzeppelin/contracts/utils/cryptography/ECDSA.sol\":3837:3855  _throwError(error) */\n      tag_124\n        /* \"@openzeppelin/contracts/utils/cryptography/ECDSA.sol\":3849:3854  error */\n      dup2\n        /* \"@openzeppelin/contracts/utils/cryptography/ECDSA.sol\":3837:3848  _throwError */\n      tag_125\n        /* \"@openzeppelin/contracts/utils/cryptography/ECDSA.sol\":3837:3855  _throwError(error) */\n      jump\t// in\n    tag_124:\n        /* \"@openzeppelin/contracts/utils/cryptography/ECDSA.sol\":3872:3881  recovered */\n      dup2\n        /* \"@openzeppelin/contracts/utils/cryptography/ECDSA.sol\":3865:3881  return recovered */\n      swap3\n      pop\n      pop\n      pop\n        /* \"@openzeppelin/contracts/utils/cryptography/ECDSA.sol\":3661:3888  function recover(bytes32 hash, bytes memory signature) internal pure returns (address) {... */\n      swap3\n      swap2\n      pop\n      pop\n      jump\t// out\n        /* \"@openzeppelin/contracts/utils/cryptography/EIP712.sol\":3152:3460  function _domainSeparatorV4() internal view returns (bytes32) {... */\n    tag_119:\n        /* \"@openzeppelin/contracts/utils/cryptography/EIP712.sol\":3205:3212  bytes32 */\n      0x00\n        /* \"@openzeppelin/contracts/utils/cryptography/EIP712.sol\":3245:3257  _CACHED_THIS */\n      immutable(\"0x9e1fb2b79e882622ed243a034292b4fa176df601f71d921cffbf6c845001c2b4\")\n        /* \"@openzeppelin/contracts/utils/cryptography/EIP712.sol\":3228:3257  address(this) == _CACHED_THIS */\n      0xffffffffffffffffffffffffffffffffffffffff\n      and\n        /* \"@openzeppelin/contracts/utils/cryptography/EIP712.sol\":3236:3240  this */\n      address\n        /* \"@openzeppelin/contracts/utils/cryptography/EIP712.sol\":3228:3257  address(this) == _CACHED_THIS */\n      0xffffffffffffffffffffffffffffffffffffffff\n      and\n      eq\n        /* \"@openzeppelin/contracts/utils/cryptography/EIP712.sol\":3228:3294  address(this) == _CACHED_THIS && block.chainid == _CACHED_CHAIN_ID */\n      dup1\n      iszero\n      tag_127\n      jumpi\n      pop\n        /* \"@openzeppelin/contracts/utils/cryptography/EIP712.sol\":3278:3294  _CACHED_CHAIN_ID */\n      immutable(\"0x42d683e394a4df18653c7650f8aa08cb69f6a4b0d0acad4653af662538b2a674\")\n        /* \"@openzeppelin/contracts/utils/cryptography/EIP712.sol\":3261:3274  block.chainid */\n      chainid\n        /* \"@openzeppelin/contracts/utils/cryptography/EIP712.sol\":3261:3294  block.chainid == _CACHED_CHAIN_ID */\n      eq\n        /* \"@openzeppelin/contracts/utils/cryptography/EIP712.sol\":3228:3294  address(this) == _CACHED_THIS && block.chainid == _CACHED_CHAIN_ID */\n    tag_127:\n        /* \"@openzeppelin/contracts/utils/cryptography/EIP712.sol\":3224:3454  if (address(this) == _CACHED_THIS && block.chainid == _CACHED_CHAIN_ID) {... */\n      iszero\n      tag_128\n      jumpi\n        /* \"@openzeppelin/contracts/utils/cryptography/EIP712.sol\":3317:3341  _CACHED_DOMAIN_SEPARATOR */\n      immutable(\"0xdd5c87e7d2b0dfec287534406fac02a7bbb933ae982df87d512731e2383f3518\")\n        /* \"@openzeppelin/contracts/utils/cryptography/EIP712.sol\":3310:3341  return _CACHED_DOMAIN_SEPARATOR */\n      swap1\n      pop\n      jump(tag_126)\n        /* \"@openzeppelin/contracts/utils/cryptography/EIP712.sol\":3224:3454  if (address(this) == _CACHED_THIS && block.chainid == _CACHED_CHAIN_ID) {... */\n    tag_128:\n        /* \"@openzeppelin/contracts/utils/cryptography/EIP712.sol\":3379:3443  _buildDomainSeparator(_TYPE_HASH, _HASHED_NAME, _HASHED_VERSION) */\n      tag_130\n        /* \"@openzeppelin/contracts/utils/cryptography/EIP712.sol\":3401:3411  _TYPE_HASH */\n      immutable(\"0xc0716a75736aa0153859080550bdffc64f9b3c18688cab149448346712372131\")\n        /* \"@openzeppelin/contracts/utils/cryptography/EIP712.sol\":3413:3425  _HASHED_NAME */\n      immutable(\"0xd69b85eff1d6b032be2efa9877c087b40fe7111b09e822e2dfcddfe5951aa76d\")\n        /* \"@openzeppelin/contracts/utils/cryptography/EIP712.sol\":3427:3442  _HASHED_VERSION */\n      immutable(\"0x0d6cd4ec10ba1ddf2bf93a2217daf35c2366821168893716c47620b960944d15\")\n        /* \"@openzeppelin/contracts/utils/cryptography/EIP712.sol\":3379:3400  _buildDomainSeparator */\n      tag_131\n        /* \"@openzeppelin/contracts/utils/cryptography/EIP712.sol\":3379:3443  _buildDomainSeparator(_TYPE_HASH, _HASHED_NAME, _HASHED_VERSION) */\n      jump\t// in\n    tag_130:\n        /* \"@openzeppelin/contracts/utils/cryptography/EIP712.sol\":3372:3443  return _buildDomainSeparator(_TYPE_HASH, _HASHED_NAME, _HASHED_VERSION) */\n      swap1\n      pop\n        /* \"@openzeppelin/contracts/utils/cryptography/EIP712.sol\":3152:3460  function _domainSeparatorV4() internal view returns (bytes32) {... */\n    tag_126:\n      swap1\n      jump\t// out\n        /* \"@openzeppelin/contracts/utils/cryptography/ECDSA.sol\":8341:8535  function toTypedDataHash(bytes32 domainSeparator, bytes32 structHash) internal pure returns (bytes32) {... */\n    tag_120:\n        /* \"@openzeppelin/contracts/utils/cryptography/ECDSA.sol\":8434:8441  bytes32 */\n      0x00\n        /* \"@openzeppelin/contracts/utils/cryptography/ECDSA.sol\":8499:8514  domainSeparator */\n      dup3\n        /* \"@openzeppelin/contracts/utils/cryptography/ECDSA.sol\":8516:8526  structHash */\n      dup3\n        /* \"@openzeppelin/contracts/utils/cryptography/ECDSA.sol\":8470:8527  abi.encodePacked(\"\\x19\\x01\", domainSeparator, structHash) */\n      add(0x20, mload(0x40))\n      tag_133\n      swap3\n      swap2\n      swap1\n      tag_134\n      jump\t// in\n    tag_133:\n      mload(0x40)\n      0x20\n      dup2\n      dup4\n      sub\n      sub\n      dup2\n      mstore\n      swap1\n      0x40\n      mstore\n        /* \"@openzeppelin/contracts/utils/cryptography/ECDSA.sol\":8460:8528  keccak256(abi.encodePacked(\"\\x19\\x01\", domainSeparator, structHash)) */\n      dup1\n      mload\n      swap1\n      0x20\n      add\n      keccak256\n        /* \"@openzeppelin/contracts/utils/cryptography/ECDSA.sol\":8453:8528  return keccak256(abi.encodePacked(\"\\x19\\x01\", domainSeparator, structHash)) */\n      swap1\n      pop\n        /* \"@openzeppelin/contracts/utils/cryptography/ECDSA.sol\":8341:8535  function toTypedDataHash(bytes32 domainSeparator, bytes32 structHash) internal pure returns (bytes32) {... */\n      swap3\n      swap2\n      pop\n      pop\n      jump\t// out\n        /* \"@openzeppelin/contracts/utils/cryptography/ECDSA.sol\":2145:2875  function tryRecover(bytes32 hash, bytes memory signature) internal pure returns (address, RecoverError) {... */\n    tag_123:\n        /* \"@openzeppelin/contracts/utils/cryptography/ECDSA.sol\":2226:2233  address */\n      0x00\n        /* \"@openzeppelin/contracts/utils/cryptography/ECDSA.sol\":2235:2247  RecoverError */\n      dup1\n        /* \"@openzeppelin/contracts/utils/cryptography/ECDSA.sol\":2283:2285  65 */\n      0x41\n        /* \"@openzeppelin/contracts/utils/cryptography/ECDSA.sol\":2263:2272  signature */\n      dup4\n        /* \"@openzeppelin/contracts/utils/cryptography/ECDSA.sol\":2263:2279  signature.length */\n      mload\n        /* \"@openzeppelin/contracts/utils/cryptography/ECDSA.sol\":2263:2285  signature.length == 65 */\n      sub\n        /* \"@openzeppelin/contracts/utils/cryptography/ECDSA.sol\":2259:2869  if (signature.length == 65) {... */\n      tag_136\n      jumpi\n        /* \"@openzeppelin/contracts/utils/cryptography/ECDSA.sol\":2301:2310  bytes32 r */\n      0x00\n        /* \"@openzeppelin/contracts/utils/cryptography/ECDSA.sol\":2324:2333  bytes32 s */\n      dup1\n        /* \"@openzeppelin/contracts/utils/cryptography/ECDSA.sol\":2347:2354  uint8 v */\n      0x00\n        /* \"@openzeppelin/contracts/utils/cryptography/ECDSA.sol\":2599:2603  0x20 */\n      0x20\n        /* \"@openzeppelin/contracts/utils/cryptography/ECDSA.sol\":2588:2597  signature */\n      dup7\n        /* \"@openzeppelin/contracts/utils/cryptography/ECDSA.sol\":2584:2604  add(signature, 0x20) */\n      add\n        /* \"@openzeppelin/contracts/utils/cryptography/ECDSA.sol\":2578:2605  mload(add(signature, 0x20)) */\n      mload\n        /* \"@openzeppelin/contracts/utils/cryptography/ECDSA.sol\":2573:2605  r := mload(add(signature, 0x20)) */\n      swap3\n      pop\n        /* \"@openzeppelin/contracts/utils/cryptography/ECDSA.sol\":2648:2652  0x40 */\n      0x40\n        /* \"@openzeppelin/contracts/utils/cryptography/ECDSA.sol\":2637:2646  signature */\n      dup7\n        /* \"@openzeppelin/contracts/utils/cryptography/ECDSA.sol\":2633:2653  add(signature, 0x40) */\n      add\n        /* \"@openzeppelin/contracts/utils/cryptography/ECDSA.sol\":2627:2654  mload(add(signature, 0x40)) */\n      mload\n        /* \"@openzeppelin/contracts/utils/cryptography/ECDSA.sol\":2622:2654  s := mload(add(signature, 0x40)) */\n      swap2\n      pop\n        /* \"@openzeppelin/contracts/utils/cryptography/ECDSA.sol\":2705:2709  0x60 */\n      0x60\n        /* \"@openzeppelin/contracts/utils/cryptography/ECDSA.sol\":2694:2703  signature */\n      dup7\n        /* \"@openzeppelin/contracts/utils/cryptography/ECDSA.sol\":2690:2710  add(signature, 0x60) */\n      add\n        /* \"@openzeppelin/contracts/utils/cryptography/ECDSA.sol\":2684:2711  mload(add(signature, 0x60)) */\n      mload\n        /* \"@openzeppelin/contracts/utils/cryptography/ECDSA.sol\":2681:2682  0 */\n      0x00\n        /* \"@openzeppelin/contracts/utils/cryptography/ECDSA.sol\":2676:2712  byte(0, mload(add(signature, 0x60))) */\n      byte\n        /* \"@openzeppelin/contracts/utils/cryptography/ECDSA.sol\":2671:2712  v := byte(0, mload(add(signature, 0x60))) */\n      swap1\n      pop\n        /* \"@openzeppelin/contracts/utils/cryptography/ECDSA.sol\":2746:2771  tryRecover(hash, v, r, s) */\n      tag_137\n        /* \"@openzeppelin/contracts/utils/cryptography/ECDSA.sol\":2757:2761  hash */\n      dup8\n        /* \"@openzeppelin/contracts/utils/cryptography/ECDSA.sol\":2763:2764  v */\n      dup3\n        /* \"@openzeppelin/contracts/utils/cryptography/ECDSA.sol\":2766:2767  r */\n      dup6\n        /* \"@openzeppelin/contracts/utils/cryptography/ECDSA.sol\":2769:2770  s */\n      dup6\n        /* \"@openzeppelin/contracts/utils/cryptography/ECDSA.sol\":2746:2756  tryRecover */\n      tag_138\n        /* \"@openzeppelin/contracts/utils/cryptography/ECDSA.sol\":2746:2771  tryRecover(hash, v, r, s) */\n      jump\t// in\n    tag_137:\n        /* \"@openzeppelin/contracts/utils/cryptography/ECDSA.sol\":2739:2771  return tryRecover(hash, v, r, s) */\n      swap5\n      pop\n      swap5\n      pop\n      pop\n      pop\n      pop\n      jump(tag_135)\n        /* \"@openzeppelin/contracts/utils/cryptography/ECDSA.sol\":2259:2869  if (signature.length == 65) {... */\n    tag_136:\n        /* \"@openzeppelin/contracts/utils/cryptography/ECDSA.sol\":2818:2819  0 */\n      0x00\n        /* \"@openzeppelin/contracts/utils/cryptography/ECDSA.sol\":2822:2857  RecoverError.InvalidSignatureLength */\n      0x02\n        /* \"@openzeppelin/contracts/utils/cryptography/ECDSA.sol\":2802:2858  return (address(0), RecoverError.InvalidSignatureLength) */\n      swap2\n      pop\n      swap2\n      pop\n        /* \"@openzeppelin/contracts/utils/cryptography/ECDSA.sol\":2145:2875  function tryRecover(bytes32 hash, bytes memory signature) internal pure returns (address, RecoverError) {... */\n    tag_135:\n      swap3\n      pop\n      swap3\n      swap1\n      pop\n      jump\t// out\n        /* \"@openzeppelin/contracts/utils/cryptography/ECDSA.sol\":570:1081  function _throwError(RecoverError error) private pure {... */\n    tag_125:\n        /* \"@openzeppelin/contracts/utils/cryptography/ECDSA.sol\":647:667  RecoverError.NoError */\n      0x00\n        /* \"@openzeppelin/contracts/utils/cryptography/ECDSA.sol\":638:667  error == RecoverError.NoError */\n      0x04\n      dup2\n      gt\n      iszero\n      tag_141\n      jumpi\n      tag_142\n      tag_143\n      jump\t// in\n    tag_142:\n    tag_141:\n        /* \"@openzeppelin/contracts/utils/cryptography/ECDSA.sol\":638:643  error */\n      dup2\n        /* \"@openzeppelin/contracts/utils/cryptography/ECDSA.sol\":638:667  error == RecoverError.NoError */\n      0x04\n      dup2\n      gt\n      iszero\n      tag_144\n      jumpi\n      tag_145\n      tag_143\n      jump\t// in\n    tag_145:\n    tag_144:\n      sub\n        /* \"@openzeppelin/contracts/utils/cryptography/ECDSA.sol\":634:1075  if (error == RecoverError.NoError) {... */\n      iszero\n        /* \"@openzeppelin/contracts/utils/cryptography/ECDSA.sol\":683:690  return; */\n      tag_140\n        /* \"@openzeppelin/contracts/utils/cryptography/ECDSA.sol\":634:1075  if (error == RecoverError.NoError) {... */\n      jumpi\n        /* \"@openzeppelin/contracts/utils/cryptography/ECDSA.sol\":743:772  RecoverError.InvalidSignature */\n      0x01\n        /* \"@openzeppelin/contracts/utils/cryptography/ECDSA.sol\":734:772  error == RecoverError.InvalidSignature */\n      0x04\n      dup2\n      gt\n      iszero\n      tag_148\n      jumpi\n      tag_149\n      tag_143\n      jump\t// in\n    tag_149:\n    tag_148:\n        /* \"@openzeppelin/contracts/utils/cryptography/ECDSA.sol\":734:739  error */\n      dup2\n        /* \"@openzeppelin/contracts/utils/cryptography/ECDSA.sol\":734:772  error == RecoverError.InvalidSignature */\n      0x04\n      dup2\n      gt\n      iszero\n      tag_150\n      jumpi\n      tag_151\n      tag_143\n      jump\t// in\n    tag_151:\n    tag_150:\n      sub\n        /* \"@openzeppelin/contracts/utils/cryptography/ECDSA.sol\":730:1075  if (error == RecoverError.InvalidSignature) {... */\n      tag_152\n      jumpi\n        /* \"@openzeppelin/contracts/utils/cryptography/ECDSA.sol\":788:822  revert(\"ECDSA: invalid signature\") */\n      mload(0x40)\n      0x08c379a000000000000000000000000000000000000000000000000000000000\n      dup2\n      mstore\n      0x04\n      add\n      tag_153\n      swap1\n      tag_154\n      jump\t// in\n    tag_153:\n      mload(0x40)\n      dup1\n      swap2\n      sub\n      swap1\n      revert\n        /* \"@openzeppelin/contracts/utils/cryptography/ECDSA.sol\":730:1075  if (error == RecoverError.InvalidSignature) {... */\n    tag_152:\n        /* \"@openzeppelin/contracts/utils/cryptography/ECDSA.sol\":852:887  RecoverError.InvalidSignatureLength */\n      0x02\n        /* \"@openzeppelin/contracts/utils/cryptography/ECDSA.sol\":843:887  error == RecoverError.InvalidSignatureLength */\n      0x04\n      dup2\n      gt\n      iszero\n      tag_156\n      jumpi\n      tag_157\n      tag_143\n      jump\t// in\n    tag_157:\n    tag_156:\n        /* \"@openzeppelin/contracts/utils/cryptography/ECDSA.sol\":843:848  error */\n      dup2\n        /* \"@openzeppelin/contracts/utils/cryptography/ECDSA.sol\":843:887  error == RecoverError.InvalidSignatureLength */\n      0x04\n      dup2\n      gt\n      iszero\n      tag_158\n      jumpi\n      tag_159\n      tag_143\n      jump\t// in\n    tag_159:\n    tag_158:\n      sub\n        /* \"@openzeppelin/contracts/utils/cryptography/ECDSA.sol\":839:1075  if (error == RecoverError.InvalidSignatureLength) {... */\n      tag_160\n      jumpi\n        /* \"@openzeppelin/contracts/utils/cryptography/ECDSA.sol\":903:944  revert(\"ECDSA: invalid signature length\") */\n      mload(0x40)\n      0x08c379a000000000000000000000000000000000000000000000000000000000\n      dup2\n      mstore\n      0x04\n      add\n      tag_161\n      swap1\n      tag_162\n      jump\t// in\n    tag_161:\n      mload(0x40)\n      dup1\n      swap2\n      sub\n      swap1\n      revert\n        /* \"@openzeppelin/contracts/utils/cryptography/ECDSA.sol\":839:1075  if (error == RecoverError.InvalidSignatureLength) {... */\n    tag_160:\n        /* \"@openzeppelin/contracts/utils/cryptography/ECDSA.sol\":974:1004  RecoverError.InvalidSignatureS */\n      0x03\n        /* \"@openzeppelin/contracts/utils/cryptography/ECDSA.sol\":965:1004  error == RecoverError.InvalidSignatureS */\n      0x04\n      dup2\n      gt\n      iszero\n      tag_164\n      jumpi\n      tag_165\n      tag_143\n      jump\t// in\n    tag_165:\n    tag_164:\n        /* \"@openzeppelin/contracts/utils/cryptography/ECDSA.sol\":965:970  error */\n      dup2\n        /* \"@openzeppelin/contracts/utils/cryptography/ECDSA.sol\":965:1004  error == RecoverError.InvalidSignatureS */\n      0x04\n      dup2\n      gt\n      iszero\n      tag_166\n      jumpi\n      tag_167\n      tag_143\n      jump\t// in\n    tag_167:\n    tag_166:\n      sub\n        /* \"@openzeppelin/contracts/utils/cryptography/ECDSA.sol\":961:1075  if (error == RecoverError.InvalidSignatureS) {... */\n      tag_168\n      jumpi\n        /* \"@openzeppelin/contracts/utils/cryptography/ECDSA.sol\":1020:1064  revert(\"ECDSA: invalid signature 's' value\") */\n      mload(0x40)\n      0x08c379a000000000000000000000000000000000000000000000000000000000\n      dup2\n      mstore\n      0x04\n      add\n      tag_169\n      swap1\n      tag_170\n      jump\t// in\n    tag_169:\n      mload(0x40)\n      dup1\n      swap2\n      sub\n      swap1\n      revert\n        /* \"@openzeppelin/contracts/utils/cryptography/ECDSA.sol\":961:1075  if (error == RecoverError.InvalidSignatureS) {... */\n    tag_168:\n        /* \"@openzeppelin/contracts/utils/cryptography/ECDSA.sol\":570:1081  function _throwError(RecoverError error) private pure {... */\n    tag_140:\n      pop\n      jump\t// out\n        /* \"@openzeppelin/contracts/utils/cryptography/EIP712.sol\":3466:3723  function _buildDomainSeparator(... */\n    tag_131:\n        /* \"@openzeppelin/contracts/utils/cryptography/EIP712.sol\":3606:3613  bytes32 */\n      0x00\n        /* \"@openzeppelin/contracts/utils/cryptography/EIP712.sol\":3653:3661  typeHash */\n      dup4\n        /* \"@openzeppelin/contracts/utils/cryptography/EIP712.sol\":3663:3671  nameHash */\n      dup4\n        /* \"@openzeppelin/contracts/utils/cryptography/EIP712.sol\":3673:3684  versionHash */\n      dup4\n        /* \"@openzeppelin/contracts/utils/cryptography/EIP712.sol\":3686:3699  block.chainid */\n      chainid\n        /* \"@openzeppelin/contracts/utils/cryptography/EIP712.sol\":3709:3713  this */\n      address\n        /* \"@openzeppelin/contracts/utils/cryptography/EIP712.sol\":3642:3715  abi.encode(typeHash, nameHash, versionHash, block.chainid, address(this)) */\n      add(0x20, mload(0x40))\n      tag_172\n      swap6\n      swap5\n      swap4\n      swap3\n      swap2\n      swap1\n      tag_173\n      jump\t// in\n    tag_172:\n      mload(0x40)\n      0x20\n      dup2\n      dup4\n      sub\n      sub\n      dup2\n      mstore\n      swap1\n      0x40\n      mstore\n        /* \"@openzeppelin/contracts/utils/cryptography/EIP712.sol\":3632:3716  keccak256(abi.encode(typeHash, nameHash, versionHash, block.chainid, address(this))) */\n      dup1\n      mload\n      swap1\n      0x20\n      add\n      keccak256\n        /* \"@openzeppelin/contracts/utils/cryptography/EIP712.sol\":3625:3716  return keccak256(abi.encode(typeHash, nameHash, versionHash, block.chainid, address(this))) */\n      swap1\n      pop\n        /* \"@openzeppelin/contracts/utils/cryptography/EIP712.sol\":3466:3723  function _buildDomainSeparator(... */\n      swap4\n      swap3\n      pop\n      pop\n      pop\n      jump\t// out\n        /* \"@openzeppelin/contracts/utils/cryptography/ECDSA.sol\":5069:6563  function tryRecover(... */\n    tag_138:\n        /* \"@openzeppelin/contracts/utils/cryptography/ECDSA.sol\":5195:5202  address */\n      0x00\n        /* \"@openzeppelin/contracts/utils/cryptography/ECDSA.sol\":5204:5216  RecoverError */\n      dup1\n        /* \"@openzeppelin/contracts/utils/cryptography/ECDSA.sol\":6119:6185  0x7FFFFFFFFFFFFFFFFFFFFFFFFFFFFFFF5D576E7357A4501DDFE92F46681B20A0 */\n      0x7fffffffffffffffffffffffffffffff5d576e7357a4501ddfe92f46681b20a0\n        /* \"@openzeppelin/contracts/utils/cryptography/ECDSA.sol\":6114:6115  s */\n      dup4\n        /* \"@openzeppelin/contracts/utils/cryptography/ECDSA.sol\":6106:6116  uint256(s) */\n      0x00\n      shr\n        /* \"@openzeppelin/contracts/utils/cryptography/ECDSA.sol\":6106:6185  uint256(s) > 0x7FFFFFFFFFFFFFFFFFFFFFFFFFFFFFFF5D576E7357A4501DDFE92F46681B20A0 */\n      gt\n        /* \"@openzeppelin/contracts/utils/cryptography/ECDSA.sol\":6102:6263  if (uint256(s) > 0x7FFFFFFFFFFFFFFFFFFFFFFFFFFFFFFF5D576E7357A4501DDFE92F46681B20A0) {... */\n      iszero\n      tag_175\n      jumpi\n        /* \"@openzeppelin/contracts/utils/cryptography/ECDSA.sol\":6217:6218  0 */\n      0x00\n        /* \"@openzeppelin/contracts/utils/cryptography/ECDSA.sol\":6221:6251  RecoverError.InvalidSignatureS */\n      0x03\n        /* \"@openzeppelin/contracts/utils/cryptography/ECDSA.sol\":6201:6252  return (address(0), RecoverError.InvalidSignatureS) */\n      swap2\n      pop\n      swap2\n      pop\n      jump(tag_174)\n        /* \"@openzeppelin/contracts/utils/cryptography/ECDSA.sol\":6102:6263  if (uint256(s) > 0x7FFFFFFFFFFFFFFFFFFFFFFFFFFFFFFF5D576E7357A4501DDFE92F46681B20A0) {... */\n    tag_175:\n        /* \"@openzeppelin/contracts/utils/cryptography/ECDSA.sol\":6357:6371  address signer */\n      0x00\n        /* \"@openzeppelin/contracts/utils/cryptography/ECDSA.sol\":6374:6398  ecrecover(hash, v, r, s) */\n      0x01\n        /* \"@openzeppelin/contracts/utils/cryptography/ECDSA.sol\":6384:6388  hash */\n      dup8\n        /* \"@openzeppelin/contracts/utils/cryptography/ECDSA.sol\":6390:6391  v */\n      dup8\n        /* \"@openzeppelin/contracts/utils/cryptography/ECDSA.sol\":6393:6394  r */\n      dup8\n        /* \"@openzeppelin/contracts/utils/cryptography/ECDSA.sol\":6396:6397  s */\n      dup8\n        /* \"@openzeppelin/contracts/utils/cryptography/ECDSA.sol\":6374:6398  ecrecover(hash, v, r, s) */\n      mload(0x40)\n      0x00\n      dup2\n      mstore\n      0x20\n      add\n      0x40\n      mstore\n      mload(0x40)\n      tag_176\n      swap5\n      swap4\n      swap3\n      swap2\n      swap1\n      tag_177\n      jump\t// in\n    tag_176:\n      0x20\n      mload(0x40)\n      0x20\n      dup2\n      sub\n      swap1\n      dup1\n      dup5\n      sub\n      swap1\n      dup6\n      gas\n      staticcall\n      iszero\n      dup1\n      iszero\n      tag_179\n      jumpi\n      returndatasize\n      0x00\n      dup1\n      returndatacopy\n      revert(0x00, returndatasize)\n    tag_179:\n      pop\n      pop\n      pop\n      mload(sub(mload(0x40), 0x20))\n        /* \"@openzeppelin/contracts/utils/cryptography/ECDSA.sol\":6357:6398  address signer = ecrecover(hash, v, r, s) */\n      swap1\n      pop\n        /* \"@openzeppelin/contracts/utils/cryptography/ECDSA.sol\":6430:6431  0 */\n      0x00\n        /* \"@openzeppelin/contracts/utils/cryptography/ECDSA.sol\":6412:6432  signer == address(0) */\n      0xffffffffffffffffffffffffffffffffffffffff\n      and\n        /* \"@openzeppelin/contracts/utils/cryptography/ECDSA.sol\":6412:6418  signer */\n      dup2\n        /* \"@openzeppelin/contracts/utils/cryptography/ECDSA.sol\":6412:6432  signer == address(0) */\n      0xffffffffffffffffffffffffffffffffffffffff\n      and\n      sub\n        /* \"@openzeppelin/contracts/utils/cryptography/ECDSA.sol\":6408:6509  if (signer == address(0)) {... */\n      tag_180\n      jumpi\n        /* \"@openzeppelin/contracts/utils/cryptography/ECDSA.sol\":6464:6465  0 */\n      0x00\n        /* \"@openzeppelin/contracts/utils/cryptography/ECDSA.sol\":6468:6497  RecoverError.InvalidSignature */\n      0x01\n        /* \"@openzeppelin/contracts/utils/cryptography/ECDSA.sol\":6448:6498  return (address(0), RecoverError.InvalidSignature) */\n      swap3\n      pop\n      swap3\n      pop\n      pop\n      jump(tag_174)\n        /* \"@openzeppelin/contracts/utils/cryptography/ECDSA.sol\":6408:6509  if (signer == address(0)) {... */\n    tag_180:\n        /* \"@openzeppelin/contracts/utils/cryptography/ECDSA.sol\":6527:6533  signer */\n      dup1\n        /* \"@openzeppelin/contracts/utils/cryptography/ECDSA.sol\":6535:6555  RecoverError.NoError */\n      0x00\n        /* \"@openzeppelin/contracts/utils/cryptography/ECDSA.sol\":6519:6556  return (signer, RecoverError.NoError) */\n      swap3\n      pop\n      swap3\n      pop\n      pop\n        /* \"@openzeppelin/contracts/utils/cryptography/ECDSA.sol\":5069:6563  function tryRecover(... */\n    tag_174:\n      swap5\n      pop\n      swap5\n      swap3\n      pop\n      pop\n      pop\n      jump\t// out\n        /* \"#utility.yul\":88:205   */\n    tag_182:\n        /* \"#utility.yul\":197:198   */\n      0x00\n        /* \"#utility.yul\":194:195   */\n      dup1\n        /* \"#utility.yul\":187:199   */\n      revert\n        /* \"#utility.yul\":211:328   */\n    tag_183:\n        /* \"#utility.yul\":320:321   */\n      0x00\n        /* \"#utility.yul\":317:318   */\n      dup1\n        /* \"#utility.yul\":310:322   */\n      revert\n        /* \"#utility.yul\":334:451   */\n    tag_184:\n        /* \"#utility.yul\":443:444   */\n      0x00\n        /* \"#utility.yul\":440:441   */\n      dup1\n        /* \"#utility.yul\":433:445   */\n      revert\n        /* \"#utility.yul\":497:736   */\n    tag_185:\n        /* \"#utility.yul\":577:582   */\n      0x00\n        /* \"#utility.yul\":618:621   */\n      0xe0\n        /* \"#utility.yul\":609:615   */\n      dup3\n        /* \"#utility.yul\":604:607   */\n      dup5\n        /* \"#utility.yul\":600:616   */\n      sub\n        /* \"#utility.yul\":596:622   */\n      slt\n        /* \"#utility.yul\":593:706   */\n      iszero\n      tag_250\n      jumpi\n        /* \"#utility.yul\":625:704   */\n      tag_251\n      tag_184\n      jump\t// in\n    tag_251:\n        /* \"#utility.yul\":593:706   */\n    tag_250:\n        /* \"#utility.yul\":724:730   */\n      dup2\n        /* \"#utility.yul\":715:730   */\n      swap1\n      pop\n        /* \"#utility.yul\":497:736   */\n      swap3\n      swap2\n      pop\n      pop\n      jump\t// out\n        /* \"#utility.yul\":742:859   */\n    tag_186:\n        /* \"#utility.yul\":851:852   */\n      0x00\n        /* \"#utility.yul\":848:849   */\n      dup1\n        /* \"#utility.yul\":841:853   */\n      revert\n        /* \"#utility.yul\":865:982   */\n    tag_187:\n        /* \"#utility.yul\":974:975   */\n      0x00\n        /* \"#utility.yul\":971:972   */\n      dup1\n        /* \"#utility.yul\":964:976   */\n      revert\n        /* \"#utility.yul\":988:1105   */\n    tag_188:\n        /* \"#utility.yul\":1097:1098   */\n      0x00\n        /* \"#utility.yul\":1094:1095   */\n      dup1\n        /* \"#utility.yul\":1087:1099   */\n      revert\n        /* \"#utility.yul\":1124:1676   */\n    tag_189:\n        /* \"#utility.yul\":1181:1189   */\n      0x00\n        /* \"#utility.yul\":1191:1197   */\n      dup1\n        /* \"#utility.yul\":1241:1244   */\n      dup4\n        /* \"#utility.yul\":1234:1238   */\n      0x1f\n        /* \"#utility.yul\":1226:1232   */\n      dup5\n        /* \"#utility.yul\":1222:1239   */\n      add\n        /* \"#utility.yul\":1218:1245   */\n      slt\n        /* \"#utility.yul\":1208:1330   */\n      tag_256\n      jumpi\n        /* \"#utility.yul\":1249:1328   */\n      tag_257\n      tag_186\n      jump\t// in\n    tag_257:\n        /* \"#utility.yul\":1208:1330   */\n    tag_256:\n        /* \"#utility.yul\":1362:1368   */\n      dup3\n        /* \"#utility.yul\":1349:1369   */\n      calldataload\n        /* \"#utility.yul\":1339:1369   */\n      swap1\n      pop\n        /* \"#utility.yul\":1392:1410   */\n      0xffffffffffffffff\n        /* \"#utility.yul\":1384:1390   */\n      dup2\n        /* \"#utility.yul\":1381:1411   */\n      gt\n        /* \"#utility.yul\":1378:1495   */\n      iszero\n      tag_258\n      jumpi\n        /* \"#utility.yul\":1414:1493   */\n      tag_259\n      tag_187\n      jump\t// in\n    tag_259:\n        /* \"#utility.yul\":1378:1495   */\n    tag_258:\n        /* \"#utility.yul\":1528:1532   */\n      0x20\n        /* \"#utility.yul\":1520:1526   */\n      dup4\n        /* \"#utility.yul\":1516:1533   */\n      add\n        /* \"#utility.yul\":1504:1533   */\n      swap2\n      pop\n        /* \"#utility.yul\":1582:1585   */\n      dup4\n        /* \"#utility.yul\":1574:1578   */\n      0x01\n        /* \"#utility.yul\":1566:1572   */\n      dup3\n        /* \"#utility.yul\":1562:1579   */\n      mul\n        /* \"#utility.yul\":1552:1560   */\n      dup4\n        /* \"#utility.yul\":1548:1580   */\n      add\n        /* \"#utility.yul\":1545:1586   */\n      gt\n        /* \"#utility.yul\":1542:1670   */\n      iszero\n      tag_260\n      jumpi\n        /* \"#utility.yul\":1589:1668   */\n      tag_261\n      tag_188\n      jump\t// in\n    tag_261:\n        /* \"#utility.yul\":1542:1670   */\n    tag_260:\n        /* \"#utility.yul\":1124:1676   */\n      swap3\n      pop\n      swap3\n      swap1\n      pop\n      jump\t// out\n        /* \"#utility.yul\":1682:2582   */\n    tag_13:\n        /* \"#utility.yul\":1795:1801   */\n      0x00\n        /* \"#utility.yul\":1803:1809   */\n      dup1\n        /* \"#utility.yul\":1811:1817   */\n      0x00\n        /* \"#utility.yul\":1860:1862   */\n      0x40\n        /* \"#utility.yul\":1848:1857   */\n      dup5\n        /* \"#utility.yul\":1839:1846   */\n      dup7\n        /* \"#utility.yul\":1835:1858   */\n      sub\n        /* \"#utility.yul\":1831:1863   */\n      slt\n        /* \"#utility.yul\":1828:1947   */\n      iszero\n      tag_263\n      jumpi\n        /* \"#utility.yul\":1866:1945   */\n      tag_264\n      tag_182\n      jump\t// in\n    tag_264:\n        /* \"#utility.yul\":1828:1947   */\n    tag_263:\n        /* \"#utility.yul\":2014:2015   */\n      0x00\n        /* \"#utility.yul\":2003:2012   */\n      dup5\n        /* \"#utility.yul\":1999:2016   */\n      add\n        /* \"#utility.yul\":1986:2017   */\n      calldataload\n        /* \"#utility.yul\":2044:2062   */\n      0xffffffffffffffff\n        /* \"#utility.yul\":2036:2042   */\n      dup2\n        /* \"#utility.yul\":2033:2063   */\n      gt\n        /* \"#utility.yul\":2030:2147   */\n      iszero\n      tag_265\n      jumpi\n        /* \"#utility.yul\":2066:2145   */\n      tag_266\n      tag_183\n      jump\t// in\n    tag_266:\n        /* \"#utility.yul\":2030:2147   */\n    tag_265:\n        /* \"#utility.yul\":2171:2258   */\n      tag_267\n        /* \"#utility.yul\":2250:2257   */\n      dup7\n        /* \"#utility.yul\":2241:2247   */\n      dup3\n        /* \"#utility.yul\":2230:2239   */\n      dup8\n        /* \"#utility.yul\":2226:2248   */\n      add\n        /* \"#utility.yul\":2171:2258   */\n      tag_185\n      jump\t// in\n    tag_267:\n        /* \"#utility.yul\":2161:2258   */\n      swap4\n      pop\n        /* \"#utility.yul\":1957:2268   */\n      pop\n        /* \"#utility.yul\":2335:2337   */\n      0x20\n        /* \"#utility.yul\":2324:2333   */\n      dup5\n        /* \"#utility.yul\":2320:2338   */\n      add\n        /* \"#utility.yul\":2307:2339   */\n      calldataload\n        /* \"#utility.yul\":2366:2384   */\n      0xffffffffffffffff\n        /* \"#utility.yul\":2358:2364   */\n      dup2\n        /* \"#utility.yul\":2355:2385   */\n      gt\n        /* \"#utility.yul\":2352:2469   */\n      iszero\n      tag_268\n      jumpi\n        /* \"#utility.yul\":2388:2467   */\n      tag_269\n      tag_183\n      jump\t// in\n    tag_269:\n        /* \"#utility.yul\":2352:2469   */\n    tag_268:\n        /* \"#utility.yul\":2501:2565   */\n      tag_270\n        /* \"#utility.yul\":2557:2564   */\n      dup7\n        /* \"#utility.yul\":2548:2554   */\n      dup3\n        /* \"#utility.yul\":2537:2546   */\n      dup8\n        /* \"#utility.yul\":2533:2555   */\n      add\n        /* \"#utility.yul\":2501:2565   */\n      tag_189\n      jump\t// in\n    tag_270:\n        /* \"#utility.yul\":2483:2565   */\n      swap3\n      pop\n      swap3\n      pop\n        /* \"#utility.yul\":2278:2575   */\n      pop\n        /* \"#utility.yul\":1682:2582   */\n      swap3\n      pop\n      swap3\n      pop\n      swap3\n      jump\t// out\n        /* \"#utility.yul\":2588:2737   */\n    tag_190:\n        /* \"#utility.yul\":2624:2631   */\n      0x00\n        /* \"#utility.yul\":2664:2730   */\n      0xffffffff00000000000000000000000000000000000000000000000000000000\n        /* \"#utility.yul\":2657:2662   */\n      dup3\n        /* \"#utility.yul\":2653:2731   */\n      and\n        /* \"#utility.yul\":2642:2731   */\n      swap1\n      pop\n        /* \"#utility.yul\":2588:2737   */\n      swap2\n      swap1\n      pop\n      jump\t// out\n        /* \"#utility.yul\":2743:2863   */\n    tag_191:\n        /* \"#utility.yul\":2815:2838   */\n      tag_273\n        /* \"#utility.yul\":2832:2837   */\n      dup2\n        /* \"#utility.yul\":2815:2838   */\n      tag_190\n      jump\t// in\n    tag_273:\n        /* \"#utility.yul\":2808:2813   */\n      dup2\n        /* \"#utility.yul\":2805:2839   */\n      eq\n        /* \"#utility.yul\":2795:2857   */\n      tag_274\n      jumpi\n        /* \"#utility.yul\":2853:2854   */\n      0x00\n        /* \"#utility.yul\":2850:2851   */\n      dup1\n        /* \"#utility.yul\":2843:2855   */\n      revert\n        /* \"#utility.yul\":2795:2857   */\n    tag_274:\n        /* \"#utility.yul\":2743:2863   */\n      pop\n      jump\t// out\n        /* \"#utility.yul\":2869:3006   */\n    tag_192:\n        /* \"#utility.yul\":2914:2919   */\n      0x00\n        /* \"#utility.yul\":2952:2958   */\n      dup2\n        /* \"#utility.yul\":2939:2959   */\n      calldataload\n        /* \"#utility.yul\":2930:2959   */\n      swap1\n      pop\n        /* \"#utility.yul\":2968:3000   */\n      tag_276\n        /* \"#utility.yul\":2994:2999   */\n      dup2\n        /* \"#utility.yul\":2968:3000   */\n      tag_191\n      jump\t// in\n    tag_276:\n        /* \"#utility.yul\":2869:3006   */\n      swap3\n      swap2\n      pop\n      pop\n      jump\t// out\n        /* \"#utility.yul\":3012:3339   */\n    tag_18:\n        /* \"#utility.yul\":3070:3076   */\n      0x00\n        /* \"#utility.yul\":3119:3121   */\n      0x20\n        /* \"#utility.yul\":3107:3116   */\n      dup3\n        /* \"#utility.yul\":3098:3105   */\n      dup5\n        /* \"#utility.yul\":3094:3117   */\n      sub\n        /* \"#utility.yul\":3090:3122   */\n      slt\n        /* \"#utility.yul\":3087:3206   */\n      iszero\n      tag_278\n      jumpi\n        /* \"#utility.yul\":3125:3204   */\n      tag_279\n      tag_182\n      jump\t// in\n    tag_279:\n        /* \"#utility.yul\":3087:3206   */\n    tag_278:\n        /* \"#utility.yul\":3245:3246   */\n      0x00\n        /* \"#utility.yul\":3270:3322   */\n      tag_280\n        /* \"#utility.yul\":3314:3321   */\n      dup5\n        /* \"#utility.yul\":3305:3311   */\n      dup3\n        /* \"#utility.yul\":3294:3303   */\n      dup6\n        /* \"#utility.yul\":3290:3312   */\n      add\n        /* \"#utility.yul\":3270:3322   */\n      tag_192\n      jump\t// in\n    tag_280:\n        /* \"#utility.yul\":3260:3322   */\n      swap2\n      pop\n        /* \"#utility.yul\":3216:3332   */\n      pop\n        /* \"#utility.yul\":3012:3339   */\n      swap3\n      swap2\n      pop\n      pop\n      jump\t// out\n        /* \"#utility.yul\":3345:3435   */\n    tag_193:\n        /* \"#utility.yul\":3379:3386   */\n      0x00\n        /* \"#utility.yul\":3422:3427   */\n      dup2\n        /* \"#utility.yul\":3415:3428   */\n      iszero\n        /* \"#utility.yul\":3408:3429   */\n      iszero\n        /* \"#utility.yul\":3397:3429   */\n      swap1\n      pop\n        /* \"#utility.yul\":3345:3435   */\n      swap2\n      swap1\n      pop\n      jump\t// out\n        /* \"#utility.yul\":3441:3550   */\n    tag_194:\n        /* \"#utility.yul\":3522:3543   */\n      tag_283\n        /* \"#utility.yul\":3537:3542   */\n      dup2\n        /* \"#utility.yul\":3522:3543   */\n      tag_193\n      jump\t// in\n    tag_283:\n        /* \"#utility.yul\":3517:3520   */\n      dup3\n        /* \"#utility.yul\":3510:3544   */\n      mstore\n        /* \"#utility.yul\":3441:3550   */\n      pop\n      pop\n      jump\t// out\n        /* \"#utility.yul\":3556:3766   */\n    tag_21:\n        /* \"#utility.yul\":3643:3647   */\n      0x00\n        /* \"#utility.yul\":3681:3683   */\n      0x20\n        /* \"#utility.yul\":3670:3679   */\n      dup3\n        /* \"#utility.yul\":3666:3684   */\n      add\n        /* \"#utility.yul\":3658:3684   */\n      swap1\n      pop\n        /* \"#utility.yul\":3694:3759   */\n      tag_285\n        /* \"#utility.yul\":3756:3757   */\n      0x00\n        /* \"#utility.yul\":3745:3754   */\n      dup4\n        /* \"#utility.yul\":3741:3758   */\n      add\n        /* \"#utility.yul\":3732:3738   */\n      dup5\n        /* \"#utility.yul\":3694:3759   */\n      tag_194\n      jump\t// in\n    tag_285:\n        /* \"#utility.yul\":3556:3766   */\n      swap3\n      swap2\n      pop\n      pop\n      jump\t// out\n        /* \"#utility.yul\":3772:4329   */\n    tag_25:\n        /* \"#utility.yul\":3865:3871   */\n      0x00\n        /* \"#utility.yul\":3914:3916   */\n      0x20\n        /* \"#utility.yul\":3902:3911   */\n      dup3\n        /* \"#utility.yul\":3893:3900   */\n      dup5\n        /* \"#utility.yul\":3889:3912   */\n      sub\n        /* \"#utility.yul\":3885:3917   */\n      slt\n        /* \"#utility.yul\":3882:4001   */\n      iszero\n      tag_287\n      jumpi\n        /* \"#utility.yul\":3920:3999   */\n      tag_288\n      tag_182\n      jump\t// in\n    tag_288:\n        /* \"#utility.yul\":3882:4001   */\n    tag_287:\n        /* \"#utility.yul\":4068:4069   */\n      0x00\n        /* \"#utility.yul\":4057:4066   */\n      dup3\n        /* \"#utility.yul\":4053:4070   */\n      add\n        /* \"#utility.yul\":4040:4071   */\n      calldataload\n        /* \"#utility.yul\":4098:4116   */\n      0xffffffffffffffff\n        /* \"#utility.yul\":4090:4096   */\n      dup2\n        /* \"#utility.yul\":4087:4117   */\n      gt\n        /* \"#utility.yul\":4084:4201   */\n      iszero\n      tag_289\n      jumpi\n        /* \"#utility.yul\":4120:4199   */\n      tag_290\n      tag_183\n      jump\t// in\n    tag_290:\n        /* \"#utility.yul\":4084:4201   */\n    tag_289:\n        /* \"#utility.yul\":4225:4312   */\n      tag_291\n        /* \"#utility.yul\":4304:4311   */\n      dup5\n        /* \"#utility.yul\":4295:4301   */\n      dup3\n        /* \"#utility.yul\":4284:4293   */\n      dup6\n        /* \"#utility.yul\":4280:4302   */\n      add\n        /* \"#utility.yul\":4225:4312   */\n      tag_185\n      jump\t// in\n    tag_291:\n        /* \"#utility.yul\":4215:4312   */\n      swap2\n      pop\n        /* \"#utility.yul\":4011:4322   */\n      pop\n        /* \"#utility.yul\":3772:4329   */\n      swap3\n      swap2\n      pop\n      pop\n      jump\t// out\n        /* \"#utility.yul\":4335:4433   */\n    tag_195:\n        /* \"#utility.yul\":4386:4392   */\n      0x00\n        /* \"#utility.yul\":4420:4425   */\n      dup2\n        /* \"#utility.yul\":4414:4426   */\n      mload\n        /* \"#utility.yul\":4404:4426   */\n      swap1\n      pop\n        /* \"#utility.yul\":4335:4433   */\n      swap2\n      swap1\n      pop\n      jump\t// out\n        /* \"#utility.yul\":4439:4607   */\n    tag_196:\n        /* \"#utility.yul\":4522:4533   */\n      0x00\n        /* \"#utility.yul\":4556:4562   */\n      dup3\n        /* \"#utility.yul\":4551:4554   */\n      dup3\n        /* \"#utility.yul\":4544:4563   */\n      mstore\n        /* \"#utility.yul\":4596:4600   */\n      0x20\n        /* \"#utility.yul\":4591:4594   */\n      dup3\n        /* \"#utility.yul\":4587:4601   */\n      add\n        /* \"#utility.yul\":4572:4601   */\n      swap1\n      pop\n        /* \"#utility.yul\":4439:4607   */\n      swap3\n      swap2\n      pop\n      pop\n      jump\t// out\n        /* \"#utility.yul\":4613:4859   */\n    tag_197:\n        /* \"#utility.yul\":4694:4695   */\n      0x00\n        /* \"#utility.yul\":4704:4817   */\n    tag_295:\n        /* \"#utility.yul\":4718:4724   */\n      dup4\n        /* \"#utility.yul\":4715:4716   */\n      dup2\n        /* \"#utility.yul\":4712:4725   */\n      lt\n        /* \"#utility.yul\":4704:4817   */\n      iszero\n      tag_297\n      jumpi\n        /* \"#utility.yul\":4803:4804   */\n      dup1\n        /* \"#utility.yul\":4798:4801   */\n      dup3\n        /* \"#utility.yul\":4794:4805   */\n      add\n        /* \"#utility.yul\":4788:4806   */\n      mload\n        /* \"#utility.yul\":4784:4785   */\n      dup2\n        /* \"#utility.yul\":4779:4782   */\n      dup5\n        /* \"#utility.yul\":4775:4786   */\n      add\n        /* \"#utility.yul\":4768:4807   */\n      mstore\n        /* \"#utility.yul\":4740:4742   */\n      0x20\n        /* \"#utility.yul\":4737:4738   */\n      dup2\n        /* \"#utility.yul\":4733:4743   */\n      add\n        /* \"#utility.yul\":4728:4743   */\n      swap1\n      pop\n        /* \"#utility.yul\":4704:4817   */\n      jump(tag_295)\n    tag_297:\n        /* \"#utility.yul\":4851:4852   */\n      0x00\n        /* \"#utility.yul\":4842:4848   */\n      dup5\n        /* \"#utility.yul\":4837:4840   */\n      dup5\n        /* \"#utility.yul\":4833:4849   */\n      add\n        /* \"#utility.yul\":4826:4853   */\n      mstore\n        /* \"#utility.yul\":4675:4859   */\n      pop\n        /* \"#utility.yul\":4613:4859   */\n      pop\n      pop\n      pop\n      jump\t// out\n        /* \"#utility.yul\":4865:4967   */\n    tag_198:\n        /* \"#utility.yul\":4906:4912   */\n      0x00\n        /* \"#utility.yul\":4957:4959   */\n      0x1f\n        /* \"#utility.yul\":4953:4960   */\n      not\n        /* \"#utility.yul\":4948:4950   */\n      0x1f\n        /* \"#utility.yul\":4941:4946   */\n      dup4\n        /* \"#utility.yul\":4937:4951   */\n      add\n        /* \"#utility.yul\":4933:4961   */\n      and\n        /* \"#utility.yul\":4923:4961   */\n      swap1\n      pop\n        /* \"#utility.yul\":4865:4967   */\n      swap2\n      swap1\n      pop\n      jump\t// out\n        /* \"#utility.yul\":4973:5346   */\n    tag_199:\n        /* \"#utility.yul\":5059:5062   */\n      0x00\n        /* \"#utility.yul\":5087:5125   */\n      tag_300\n        /* \"#utility.yul\":5119:5124   */\n      dup3\n        /* \"#utility.yul\":5087:5125   */\n      tag_195\n      jump\t// in\n    tag_300:\n        /* \"#utility.yul\":5141:5211   */\n      tag_301\n        /* \"#utility.yul\":5204:5210   */\n      dup2\n        /* \"#utility.yul\":5199:5202   */\n      dup6\n        /* \"#utility.yul\":5141:5211   */\n      tag_196\n      jump\t// in\n    tag_301:\n        /* \"#utility.yul\":5134:5211   */\n      swap4\n      pop\n        /* \"#utility.yul\":5220:5285   */\n      tag_302\n        /* \"#utility.yul\":5278:5284   */\n      dup2\n        /* \"#utility.yul\":5273:5276   */\n      dup6\n        /* \"#utility.yul\":5266:5270   */\n      0x20\n        /* \"#utility.yul\":5259:5264   */\n      dup7\n        /* \"#utility.yul\":5255:5271   */\n      add\n        /* \"#utility.yul\":5220:5285   */\n      tag_197\n      jump\t// in\n    tag_302:\n        /* \"#utility.yul\":5310:5339   */\n      tag_303\n        /* \"#utility.yul\":5332:5338   */\n      dup2\n        /* \"#utility.yul\":5310:5339   */\n      tag_198\n      jump\t// in\n    tag_303:\n        /* \"#utility.yul\":5305:5308   */\n      dup5\n        /* \"#utility.yul\":5301:5340   */\n      add\n        /* \"#utility.yul\":5294:5340   */\n      swap2\n      pop\n        /* \"#utility.yul\":5063:5346   */\n      pop\n        /* \"#utility.yul\":4973:5346   */\n      swap3\n      swap2\n      pop\n      pop\n      jump\t// out\n        /* \"#utility.yul\":5352:5661   */\n    tag_28:\n        /* \"#utility.yul\":5463:5467   */\n      0x00\n        /* \"#utility.yul\":5501:5503   */\n      0x20\n        /* \"#utility.yul\":5490:5499   */\n      dup3\n        /* \"#utility.yul\":5486:5504   */\n      add\n        /* \"#utility.yul\":5478:5504   */\n      swap1\n      pop\n        /* \"#utility.yul\":5550:5559   */\n      dup2\n        /* \"#utility.yul\":5544:5548   */\n      dup2\n        /* \"#utility.yul\":5540:5560   */\n      sub\n        /* \"#utility.yul\":5536:5537   */\n      0x00\n        /* \"#utility.yul\":5525:5534   */\n      dup4\n        /* \"#utility.yul\":5521:5538   */\n      add\n        /* \"#utility.yul\":5514:5561   */\n      mstore\n        /* \"#utility.yul\":5578:5654   */\n      tag_305\n        /* \"#utility.yul\":5649:5653   */\n      dup2\n        /* \"#utility.yul\":5640:5646   */\n      dup5\n        /* \"#utility.yul\":5578:5654   */\n      tag_199\n      jump\t// in\n    tag_305:\n        /* \"#utility.yul\":5570:5654   */\n      swap1\n      pop\n        /* \"#utility.yul\":5352:5661   */\n      swap3\n      swap2\n      pop\n      pop\n      jump\t// out\n        /* \"#utility.yul\":5667:5793   */\n    tag_200:\n        /* \"#utility.yul\":5704:5711   */\n      0x00\n        /* \"#utility.yul\":5744:5786   */\n      0xffffffffffffffffffffffffffffffffffffffff\n        /* \"#utility.yul\":5737:5742   */\n      dup3\n        /* \"#utility.yul\":5733:5787   */\n      and\n        /* \"#utility.yul\":5722:5787   */\n      swap1\n      pop\n        /* \"#utility.yul\":5667:5793   */\n      swap2\n      swap1\n      pop\n      jump\t// out\n        /* \"#utility.yul\":5799:5895   */\n    tag_201:\n        /* \"#utility.yul\":5836:5843   */\n      0x00\n        /* \"#utility.yul\":5865:5889   */\n      tag_308\n        /* \"#utility.yul\":5883:5888   */\n      dup3\n        /* \"#utility.yul\":5865:5889   */\n      tag_200\n      jump\t// in\n    tag_308:\n        /* \"#utility.yul\":5854:5889   */\n      swap1\n      pop\n        /* \"#utility.yul\":5799:5895   */\n      swap2\n      swap1\n      pop\n      jump\t// out\n        /* \"#utility.yul\":5901:6023   */\n    tag_202:\n        /* \"#utility.yul\":5974:5998   */\n      tag_310\n        /* \"#utility.yul\":5992:5997   */\n      dup2\n        /* \"#utility.yul\":5974:5998   */\n      tag_201\n      jump\t// in\n    tag_310:\n        /* \"#utility.yul\":5967:5972   */\n      dup2\n        /* \"#utility.yul\":5964:5999   */\n      eq\n        /* \"#utility.yul\":5954:6017   */\n      tag_311\n      jumpi\n        /* \"#utility.yul\":6013:6014   */\n      0x00\n        /* \"#utility.yul\":6010:6011   */\n      dup1\n        /* \"#utility.yul\":6003:6015   */\n      revert\n        /* \"#utility.yul\":5954:6017   */\n    tag_311:\n        /* \"#utility.yul\":5901:6023   */\n      pop\n      jump\t// out\n        /* \"#utility.yul\":6029:6168   */\n    tag_203:\n        /* \"#utility.yul\":6075:6080   */\n      0x00\n        /* \"#utility.yul\":6113:6119   */\n      dup2\n        /* \"#utility.yul\":6100:6120   */\n      calldataload\n        /* \"#utility.yul\":6091:6120   */\n      swap1\n      pop\n        /* \"#utility.yul\":6129:6162   */\n      tag_313\n        /* \"#utility.yul\":6156:6161   */\n      dup2\n        /* \"#utility.yul\":6129:6162   */\n      tag_202\n      jump\t// in\n    tag_313:\n        /* \"#utility.yul\":6029:6168   */\n      swap3\n      swap2\n      pop\n      pop\n      jump\t// out\n        /* \"#utility.yul\":6174:6503   */\n    tag_32:\n        /* \"#utility.yul\":6233:6239   */\n      0x00\n        /* \"#utility.yul\":6282:6284   */\n      0x20\n        /* \"#utility.yul\":6270:6279   */\n      dup3\n        /* \"#utility.yul\":6261:6268   */\n      dup5\n        /* \"#utility.yul\":6257:6280   */\n      sub\n        /* \"#utility.yul\":6253:6285   */\n      slt\n        /* \"#utility.yul\":6250:6369   */\n      iszero\n      tag_315\n      jumpi\n        /* \"#utility.yul\":6288:6367   */\n      tag_316\n      tag_182\n      jump\t// in\n    tag_316:\n        /* \"#utility.yul\":6250:6369   */\n    tag_315:\n        /* \"#utility.yul\":6408:6409   */\n      0x00\n        /* \"#utility.yul\":6433:6486   */\n      tag_317\n        /* \"#utility.yul\":6478:6485   */\n      dup5\n        /* \"#utility.yul\":6469:6475   */\n      dup3\n        /* \"#utility.yul\":6458:6467   */\n      dup6\n        /* \"#utility.yul\":6454:6476   */\n      add\n        /* \"#utility.yul\":6433:6486   */\n      tag_203\n      jump\t// in\n    tag_317:\n        /* \"#utility.yul\":6423:6486   */\n      swap2\n      pop\n        /* \"#utility.yul\":6379:6496   */\n      pop\n        /* \"#utility.yul\":6174:6503   */\n      swap3\n      swap2\n      pop\n      pop\n      jump\t// out\n        /* \"#utility.yul\":6509:6586   */\n    tag_204:\n        /* \"#utility.yul\":6546:6553   */\n      0x00\n        /* \"#utility.yul\":6575:6580   */\n      dup2\n        /* \"#utility.yul\":6564:6580   */\n      swap1\n      pop\n        /* \"#utility.yul\":6509:6586   */\n      swap2\n      swap1\n      pop\n      jump\t// out\n        /* \"#utility.yul\":6592:6710   */\n    tag_205:\n        /* \"#utility.yul\":6679:6703   */\n      tag_320\n        /* \"#utility.yul\":6697:6702   */\n      dup2\n        /* \"#utility.yul\":6679:6703   */\n      tag_204\n      jump\t// in\n    tag_320:\n        /* \"#utility.yul\":6674:6677   */\n      dup3\n        /* \"#utility.yul\":6667:6704   */\n      mstore\n        /* \"#utility.yul\":6592:6710   */\n      pop\n      pop\n      jump\t// out\n        /* \"#utility.yul\":6716:6938   */\n    tag_35:\n        /* \"#utility.yul\":6809:6813   */\n      0x00\n        /* \"#utility.yul\":6847:6849   */\n      0x20\n        /* \"#utility.yul\":6836:6845   */\n      dup3\n        /* \"#utility.yul\":6832:6850   */\n      add\n        /* \"#utility.yul\":6824:6850   */\n      swap1\n      pop\n        /* \"#utility.yul\":6860:6931   */\n      tag_322\n        /* \"#utility.yul\":6928:6929   */\n      0x00\n        /* \"#utility.yul\":6917:6926   */\n      dup4\n        /* \"#utility.yul\":6913:6930   */\n      add\n        /* \"#utility.yul\":6904:6910   */\n      dup5\n        /* \"#utility.yul\":6860:6931   */\n      tag_205\n      jump\t// in\n    tag_322:\n        /* \"#utility.yul\":6716:6938   */\n      swap3\n      swap2\n      pop\n      pop\n      jump\t// out\n        /* \"#utility.yul\":6944:7351   */\n    tag_40:\n        /* \"#utility.yul\":7077:7081   */\n      0x00\n        /* \"#utility.yul\":7115:7117   */\n      0x40\n        /* \"#utility.yul\":7104:7113   */\n      dup3\n        /* \"#utility.yul\":7100:7118   */\n      add\n        /* \"#utility.yul\":7092:7118   */\n      swap1\n      pop\n        /* \"#utility.yul\":7128:7193   */\n      tag_324\n        /* \"#utility.yul\":7190:7191   */\n      0x00\n        /* \"#utility.yul\":7179:7188   */\n      dup4\n        /* \"#utility.yul\":7175:7192   */\n      add\n        /* \"#utility.yul\":7166:7172   */\n      dup6\n        /* \"#utility.yul\":7128:7193   */\n      tag_194\n      jump\t// in\n    tag_324:\n        /* \"#utility.yul\":7240:7249   */\n      dup2\n        /* \"#utility.yul\":7234:7238   */\n      dup2\n        /* \"#utility.yul\":7230:7250   */\n      sub\n        /* \"#utility.yul\":7225:7227   */\n      0x20\n        /* \"#utility.yul\":7214:7223   */\n      dup4\n        /* \"#utility.yul\":7210:7228   */\n      add\n        /* \"#utility.yul\":7203:7251   */\n      mstore\n        /* \"#utility.yul\":7268:7344   */\n      tag_325\n        /* \"#utility.yul\":7339:7343   */\n      dup2\n        /* \"#utility.yul\":7330:7336   */\n      dup5\n        /* \"#utility.yul\":7268:7344   */\n      tag_199\n      jump\t// in\n    tag_325:\n        /* \"#utility.yul\":7260:7344   */\n      swap1\n      pop\n        /* \"#utility.yul\":6944:7351   */\n      swap4\n      swap3\n      pop\n      pop\n      pop\n      jump\t// out\n        /* \"#utility.yul\":7357:7474   */\n    tag_206:\n        /* \"#utility.yul\":7466:7467   */\n      0x00\n        /* \"#utility.yul\":7463:7464   */\n      dup1\n        /* \"#utility.yul\":7456:7468   */\n      revert\n        /* \"#utility.yul\":7480:7597   */\n    tag_207:\n        /* \"#utility.yul\":7589:7590   */\n      0x00\n        /* \"#utility.yul\":7586:7587   */\n      dup1\n        /* \"#utility.yul\":7579:7591   */\n      revert\n        /* \"#utility.yul\":7603:7720   */\n    tag_208:\n        /* \"#utility.yul\":7712:7713   */\n      0x00\n        /* \"#utility.yul\":7709:7710   */\n      dup1\n        /* \"#utility.yul\":7702:7714   */\n      revert\n        /* \"#utility.yul\":7726:8450   */\n    tag_54:\n        /* \"#utility.yul\":7803:7807   */\n      0x00\n        /* \"#utility.yul\":7809:7815   */\n      dup1\n        /* \"#utility.yul\":7865:7876   */\n      dup4\n        /* \"#utility.yul\":7852:7877   */\n      calldataload\n        /* \"#utility.yul\":7965:7966   */\n      0x01\n        /* \"#utility.yul\":7959:7963   */\n      0x20\n        /* \"#utility.yul\":7955:7967   */\n      sub\n        /* \"#utility.yul\":7944:7952   */\n      dup5\n        /* \"#utility.yul\":7928:7942   */\n      calldatasize\n        /* \"#utility.yul\":7924:7953   */\n      sub\n        /* \"#utility.yul\":7920:7968   */\n      sub\n        /* \"#utility.yul\":7900:7918   */\n      dup2\n        /* \"#utility.yul\":7896:7969   */\n      slt\n        /* \"#utility.yul\":7886:8054   */\n      tag_330\n      jumpi\n        /* \"#utility.yul\":7973:8052   */\n      tag_331\n      tag_206\n      jump\t// in\n    tag_331:\n        /* \"#utility.yul\":7886:8054   */\n    tag_330:\n        /* \"#utility.yul\":8085:8103   */\n      dup1\n        /* \"#utility.yul\":8075:8083   */\n      dup5\n        /* \"#utility.yul\":8071:8104   */\n      add\n        /* \"#utility.yul\":8063:8104   */\n      swap3\n      pop\n        /* \"#utility.yul\":8137:8141   */\n      dup3\n        /* \"#utility.yul\":8124:8142   */\n      calldataload\n        /* \"#utility.yul\":8114:8142   */\n      swap2\n      pop\n        /* \"#utility.yul\":8165:8183   */\n      0xffffffffffffffff\n        /* \"#utility.yul\":8157:8163   */\n      dup3\n        /* \"#utility.yul\":8154:8184   */\n      gt\n        /* \"#utility.yul\":8151:8268   */\n      iszero\n      tag_332\n      jumpi\n        /* \"#utility.yul\":8187:8266   */\n      tag_333\n      tag_207\n      jump\t// in\n    tag_333:\n        /* \"#utility.yul\":8151:8268   */\n    tag_332:\n        /* \"#utility.yul\":8295:8297   */\n      0x20\n        /* \"#utility.yul\":8289:8293   */\n      dup4\n        /* \"#utility.yul\":8285:8298   */\n      add\n        /* \"#utility.yul\":8277:8298   */\n      swap3\n      pop\n        /* \"#utility.yul\":8352:8356   */\n      0x01\n        /* \"#utility.yul\":8344:8350   */\n      dup3\n        /* \"#utility.yul\":8340:8357   */\n      mul\n        /* \"#utility.yul\":8324:8338   */\n      calldatasize\n        /* \"#utility.yul\":8320:8358   */\n      sub\n        /* \"#utility.yul\":8314:8318   */\n      dup4\n        /* \"#utility.yul\":8310:8359   */\n      sgt\n        /* \"#utility.yul\":8307:8443   */\n      iszero\n      tag_334\n      jumpi\n        /* \"#utility.yul\":8362:8441   */\n      tag_335\n      tag_208\n      jump\t// in\n    tag_335:\n        /* \"#utility.yul\":8307:8443   */\n    tag_334:\n        /* \"#utility.yul\":7816:8450   */\n      pop\n        /* \"#utility.yul\":7726:8450   */\n      swap3\n      pop\n      swap3\n      swap1\n      pop\n      jump\t// out\n        /* \"#utility.yul\":8456:8603   */\n    tag_209:\n        /* \"#utility.yul\":8557:8568   */\n      0x00\n        /* \"#utility.yul\":8594:8597   */\n      dup2\n        /* \"#utility.yul\":8579:8597   */\n      swap1\n      pop\n        /* \"#utility.yul\":8456:8603   */\n      swap3\n      swap2\n      pop\n      pop\n      jump\t// out\n        /* \"#utility.yul\":8609:8755   */\n    tag_210:\n        /* \"#utility.yul\":8706:8712   */\n      dup3\n        /* \"#utility.yul\":8701:8704   */\n      dup2\n        /* \"#utility.yul\":8696:8699   */\n      dup4\n        /* \"#utility.yul\":8683:8713   */\n      calldatacopy\n        /* \"#utility.yul\":8747:8748   */\n      0x00\n        /* \"#utility.yul\":8738:8744   */\n      dup4\n        /* \"#utility.yul\":8733:8736   */\n      dup4\n        /* \"#utility.yul\":8729:8745   */\n      add\n        /* \"#utility.yul\":8722:8749   */\n      mstore\n        /* \"#utility.yul\":8609:8755   */\n      pop\n      pop\n      pop\n      jump\t// out\n        /* \"#utility.yul\":8783:9110   */\n    tag_211:\n        /* \"#utility.yul\":8897:8900   */\n      0x00\n        /* \"#utility.yul\":8918:9006   */\n      tag_339\n        /* \"#utility.yul\":8999:9005   */\n      dup4\n        /* \"#utility.yul\":8994:8997   */\n      dup6\n        /* \"#utility.yul\":8918:9006   */\n      tag_209\n      jump\t// in\n    tag_339:\n        /* \"#utility.yul\":8911:9006   */\n      swap4\n      pop\n        /* \"#utility.yul\":9016:9072   */\n      tag_340\n        /* \"#utility.yul\":9065:9071   */\n      dup4\n        /* \"#utility.yul\":9060:9063   */\n      dup6\n        /* \"#utility.yul\":9053:9058   */\n      dup5\n        /* \"#utility.yul\":9016:9072   */\n      tag_210\n      jump\t// in\n    tag_340:\n        /* \"#utility.yul\":9097:9103   */\n      dup3\n        /* \"#utility.yul\":9092:9095   */\n      dup5\n        /* \"#utility.yul\":9088:9104   */\n      add\n        /* \"#utility.yul\":9081:9104   */\n      swap1\n      pop\n        /* \"#utility.yul\":8783:9110   */\n      swap4\n      swap3\n      pop\n      pop\n      pop\n      jump\t// out\n        /* \"#utility.yul\":9116:9407   */\n    tag_56:\n        /* \"#utility.yul\":9256:9259   */\n      0x00\n        /* \"#utility.yul\":9278:9381   */\n      tag_342\n        /* \"#utility.yul\":9377:9380   */\n      dup3\n        /* \"#utility.yul\":9368:9374   */\n      dup5\n        /* \"#utility.yul\":9360:9366   */\n      dup7\n        /* \"#utility.yul\":9278:9381   */\n      tag_211\n      jump\t// in\n    tag_342:\n        /* \"#utility.yul\":9271:9381   */\n      swap2\n      pop\n        /* \"#utility.yul\":9398:9401   */\n      dup2\n        /* \"#utility.yul\":9391:9401   */\n      swap1\n      pop\n        /* \"#utility.yul\":9116:9407   */\n      swap4\n      swap3\n      pop\n      pop\n      pop\n      jump\t// out\n        /* \"#utility.yul\":9413:9490   */\n    tag_212:\n        /* \"#utility.yul\":9450:9457   */\n      0x00\n        /* \"#utility.yul\":9479:9484   */\n      dup2\n        /* \"#utility.yul\":9468:9484   */\n      swap1\n      pop\n        /* \"#utility.yul\":9413:9490   */\n      swap2\n      swap1\n      pop\n      jump\t// out\n        /* \"#utility.yul\":9496:9614   */\n    tag_213:\n        /* \"#utility.yul\":9583:9607   */\n      tag_345\n        /* \"#utility.yul\":9601:9606   */\n      dup2\n        /* \"#utility.yul\":9583:9607   */\n      tag_212\n      jump\t// in\n    tag_345:\n        /* \"#utility.yul\":9578:9581   */\n      dup3\n        /* \"#utility.yul\":9571:9608   */\n      mstore\n        /* \"#utility.yul\":9496:9614   */\n      pop\n      pop\n      jump\t// out\n        /* \"#utility.yul\":9620:9738   */\n    tag_214:\n        /* \"#utility.yul\":9707:9731   */\n      tag_347\n        /* \"#utility.yul\":9725:9730   */\n      dup2\n        /* \"#utility.yul\":9707:9731   */\n      tag_201\n      jump\t// in\n    tag_347:\n        /* \"#utility.yul\":9702:9705   */\n      dup3\n        /* \"#utility.yul\":9695:9732   */\n      mstore\n        /* \"#utility.yul\":9620:9738   */\n      pop\n      pop\n      jump\t// out\n        /* \"#utility.yul\":9744:10741   */\n    tag_58:\n        /* \"#utility.yul\":10033:10037   */\n      0x00\n        /* \"#utility.yul\":10071:10074   */\n      0x0100\n        /* \"#utility.yul\":10060:10069   */\n      dup3\n        /* \"#utility.yul\":10056:10075   */\n      add\n        /* \"#utility.yul\":10048:10075   */\n      swap1\n      pop\n        /* \"#utility.yul\":10085:10156   */\n      tag_349\n        /* \"#utility.yul\":10153:10154   */\n      0x00\n        /* \"#utility.yul\":10142:10151   */\n      dup4\n        /* \"#utility.yul\":10138:10155   */\n      add\n        /* \"#utility.yul\":10129:10135   */\n      dup12\n        /* \"#utility.yul\":10085:10156   */\n      tag_213\n      jump\t// in\n    tag_349:\n        /* \"#utility.yul\":10166:10238   */\n      tag_350\n        /* \"#utility.yul\":10234:10236   */\n      0x20\n        /* \"#utility.yul\":10223:10232   */\n      dup4\n        /* \"#utility.yul\":10219:10237   */\n      add\n        /* \"#utility.yul\":10210:10216   */\n      dup11\n        /* \"#utility.yul\":10166:10238   */\n      tag_214\n      jump\t// in\n    tag_350:\n        /* \"#utility.yul\":10248:10320   */\n      tag_351\n        /* \"#utility.yul\":10316:10318   */\n      0x40\n        /* \"#utility.yul\":10305:10314   */\n      dup4\n        /* \"#utility.yul\":10301:10319   */\n      add\n        /* \"#utility.yul\":10292:10298   */\n      dup10\n        /* \"#utility.yul\":10248:10320   */\n      tag_214\n      jump\t// in\n    tag_351:\n        /* \"#utility.yul\":10330:10402   */\n      tag_352\n        /* \"#utility.yul\":10398:10400   */\n      0x60\n        /* \"#utility.yul\":10387:10396   */\n      dup4\n        /* \"#utility.yul\":10383:10401   */\n      add\n        /* \"#utility.yul\":10374:10380   */\n      dup9\n        /* \"#utility.yul\":10330:10402   */\n      tag_205\n      jump\t// in\n    tag_352:\n        /* \"#utility.yul\":10412:10485   */\n      tag_353\n        /* \"#utility.yul\":10480:10483   */\n      0x80\n        /* \"#utility.yul\":10469:10478   */\n      dup4\n        /* \"#utility.yul\":10465:10484   */\n      add\n        /* \"#utility.yul\":10456:10462   */\n      dup8\n        /* \"#utility.yul\":10412:10485   */\n      tag_205\n      jump\t// in\n    tag_353:\n        /* \"#utility.yul\":10495:10568   */\n      tag_354\n        /* \"#utility.yul\":10563:10566   */\n      0xa0\n        /* \"#utility.yul\":10552:10561   */\n      dup4\n        /* \"#utility.yul\":10548:10567   */\n      add\n        /* \"#utility.yul\":10539:10545   */\n      dup7\n        /* \"#utility.yul\":10495:10568   */\n      tag_205\n      jump\t// in\n    tag_354:\n        /* \"#utility.yul\":10578:10651   */\n      tag_355\n        /* \"#utility.yul\":10646:10649   */\n      0xc0\n        /* \"#utility.yul\":10635:10644   */\n      dup4\n        /* \"#utility.yul\":10631:10650   */\n      add\n        /* \"#utility.yul\":10622:10628   */\n      dup6\n        /* \"#utility.yul\":10578:10651   */\n      tag_213\n      jump\t// in\n    tag_355:\n        /* \"#utility.yul\":10661:10734   */\n      tag_356\n        /* \"#utility.yul\":10729:10732   */\n      0xe0\n        /* \"#utility.yul\":10718:10727   */\n      dup4\n        /* \"#utility.yul\":10714:10733   */\n      add\n        /* \"#utility.yul\":10705:10711   */\n      dup5\n        /* \"#utility.yul\":10661:10734   */\n      tag_205\n      jump\t// in\n    tag_356:\n        /* \"#utility.yul\":9744:10741   */\n      swap10\n      swap9\n      pop\n      pop\n      pop\n      pop\n      pop\n      pop\n      pop\n      pop\n      pop\n      jump\t// out\n        /* \"#utility.yul\":10747:10916   */\n    tag_215:\n        /* \"#utility.yul\":10831:10842   */\n      0x00\n        /* \"#utility.yul\":10865:10871   */\n      dup3\n        /* \"#utility.yul\":10860:10863   */\n      dup3\n        /* \"#utility.yul\":10853:10872   */\n      mstore\n        /* \"#utility.yul\":10905:10909   */\n      0x20\n        /* \"#utility.yul\":10900:10903   */\n      dup3\n        /* \"#utility.yul\":10896:10910   */\n      add\n        /* \"#utility.yul\":10881:10910   */\n      swap1\n      pop\n        /* \"#utility.yul\":10747:10916   */\n      swap3\n      swap2\n      pop\n      pop\n      jump\t// out\n        /* \"#utility.yul\":10922:11092   */\n    tag_216:\n        /* \"#utility.yul\":11062:11084   */\n      0x4657443a20726571756573742065787069726564000000000000000000000000\n        /* \"#utility.yul\":11058:11059   */\n      0x00\n        /* \"#utility.yul\":11050:11056   */\n      dup3\n        /* \"#utility.yul\":11046:11060   */\n      add\n        /* \"#utility.yul\":11039:11085   */\n      mstore\n        /* \"#utility.yul\":10922:11092   */\n      pop\n      jump\t// out\n        /* \"#utility.yul\":11098:11464   */\n    tag_217:\n        /* \"#utility.yul\":11240:11243   */\n      0x00\n        /* \"#utility.yul\":11261:11328   */\n      tag_360\n        /* \"#utility.yul\":11325:11327   */\n      0x14\n        /* \"#utility.yul\":11320:11323   */\n      dup4\n        /* \"#utility.yul\":11261:11328   */\n      tag_215\n      jump\t// in\n    tag_360:\n        /* \"#utility.yul\":11254:11328   */\n      swap2\n      pop\n        /* \"#utility.yul\":11337:11430   */\n      tag_361\n        /* \"#utility.yul\":11426:11429   */\n      dup3\n        /* \"#utility.yul\":11337:11430   */\n      tag_216\n      jump\t// in\n    tag_361:\n        /* \"#utility.yul\":11455:11457   */\n      0x20\n        /* \"#utility.yul\":11450:11453   */\n      dup3\n        /* \"#utility.yul\":11446:11458   */\n      add\n        /* \"#utility.yul\":11439:11458   */\n      swap1\n      pop\n        /* \"#utility.yul\":11098:11464   */\n      swap2\n      swap1\n      pop\n      jump\t// out\n        /* \"#utility.yul\":11470:11889   */\n    tag_67:\n        /* \"#utility.yul\":11636:11640   */\n      0x00\n        /* \"#utility.yul\":11674:11676   */\n      0x20\n        /* \"#utility.yul\":11663:11672   */\n      dup3\n        /* \"#utility.yul\":11659:11677   */\n      add\n        /* \"#utility.yul\":11651:11677   */\n      swap1\n      pop\n        /* \"#utility.yul\":11723:11732   */\n      dup2\n        /* \"#utility.yul\":11717:11721   */\n      dup2\n        /* \"#utility.yul\":11713:11733   */\n      sub\n        /* \"#utility.yul\":11709:11710   */\n      0x00\n        /* \"#utility.yul\":11698:11707   */\n      dup4\n        /* \"#utility.yul\":11694:11711   */\n      add\n        /* \"#utility.yul\":11687:11734   */\n      mstore\n        /* \"#utility.yul\":11751:11882   */\n      tag_363\n        /* \"#utility.yul\":11877:11881   */\n      dup2\n        /* \"#utility.yul\":11751:11882   */\n      tag_217\n      jump\t// in\n    tag_363:\n        /* \"#utility.yul\":11743:11882   */\n      swap1\n      pop\n        /* \"#utility.yul\":11470:11889   */\n      swap2\n      swap1\n      pop\n      jump\t// out\n        /* \"#utility.yul\":11895:11989   */\n    tag_218:\n        /* \"#utility.yul\":11928:11936   */\n      0x00\n        /* \"#utility.yul\":11976:11981   */\n      dup2\n        /* \"#utility.yul\":11972:11974   */\n      0x60\n        /* \"#utility.yul\":11968:11982   */\n      shl\n        /* \"#utility.yul\":11947:11982   */\n      swap1\n      pop\n        /* \"#utility.yul\":11895:11989   */\n      swap2\n      swap1\n      pop\n      jump\t// out\n        /* \"#utility.yul\":11995:12089   */\n    tag_219:\n        /* \"#utility.yul\":12034:12041   */\n      0x00\n        /* \"#utility.yul\":12063:12083   */\n      tag_366\n        /* \"#utility.yul\":12077:12082   */\n      dup3\n        /* \"#utility.yul\":12063:12083   */\n      tag_218\n      jump\t// in\n    tag_366:\n        /* \"#utility.yul\":12052:12083   */\n      swap1\n      pop\n        /* \"#utility.yul\":11995:12089   */\n      swap2\n      swap1\n      pop\n      jump\t// out\n        /* \"#utility.yul\":12095:12195   */\n    tag_220:\n        /* \"#utility.yul\":12134:12141   */\n      0x00\n        /* \"#utility.yul\":12163:12189   */\n      tag_368\n        /* \"#utility.yul\":12183:12188   */\n      dup3\n        /* \"#utility.yul\":12163:12189   */\n      tag_219\n      jump\t// in\n    tag_368:\n        /* \"#utility.yul\":12152:12189   */\n      swap1\n      pop\n        /* \"#utility.yul\":12095:12195   */\n      swap2\n      swap1\n      pop\n      jump\t// out\n        /* \"#utility.yul\":12201:12358   */\n    tag_221:\n        /* \"#utility.yul\":12306:12351   */\n      tag_370\n        /* \"#utility.yul\":12326:12350   */\n      tag_371\n        /* \"#utility.yul\":12344:12349   */\n      dup3\n        /* \"#utility.yul\":12326:12350   */\n      tag_201\n      jump\t// in\n    tag_371:\n        /* \"#utility.yul\":12306:12351   */\n      tag_220\n      jump\t// in\n    tag_370:\n        /* \"#utility.yul\":12301:12304   */\n      dup3\n        /* \"#utility.yul\":12294:12352   */\n      mstore\n        /* \"#utility.yul\":12201:12358   */\n      pop\n      pop\n      jump\t// out\n        /* \"#utility.yul\":12364:12796   */\n    tag_72:\n        /* \"#utility.yul\":12532:12535   */\n      0x00\n        /* \"#utility.yul\":12554:12657   */\n      tag_373\n        /* \"#utility.yul\":12653:12656   */\n      dup3\n        /* \"#utility.yul\":12644:12650   */\n      dup6\n        /* \"#utility.yul\":12636:12642   */\n      dup8\n        /* \"#utility.yul\":12554:12657   */\n      tag_211\n      jump\t// in\n    tag_373:\n        /* \"#utility.yul\":12547:12657   */\n      swap2\n      pop\n        /* \"#utility.yul\":12667:12742   */\n      tag_374\n        /* \"#utility.yul\":12738:12741   */\n      dup3\n        /* \"#utility.yul\":12729:12735   */\n      dup5\n        /* \"#utility.yul\":12667:12742   */\n      tag_221\n      jump\t// in\n    tag_374:\n        /* \"#utility.yul\":12767:12769   */\n      0x14\n        /* \"#utility.yul\":12762:12765   */\n      dup3\n        /* \"#utility.yul\":12758:12770   */\n      add\n        /* \"#utility.yul\":12751:12770   */\n      swap2\n      pop\n        /* \"#utility.yul\":12787:12790   */\n      dup2\n        /* \"#utility.yul\":12780:12790   */\n      swap1\n      pop\n        /* \"#utility.yul\":12364:12796   */\n      swap5\n      swap4\n      pop\n      pop\n      pop\n      pop\n      jump\t// out\n        /* \"#utility.yul\":12802:12982   */\n    tag_222:\n        /* \"#utility.yul\":12850:12927   */\n      0x4e487b7100000000000000000000000000000000000000000000000000000000\n        /* \"#utility.yul\":12847:12848   */\n      0x00\n        /* \"#utility.yul\":12840:12928   */\n      mstore\n        /* \"#utility.yul\":12947:12951   */\n      0x11\n        /* \"#utility.yul\":12944:12945   */\n      0x04\n        /* \"#utility.yul\":12937:12952   */\n      mstore\n        /* \"#utility.yul\":12971:12975   */\n      0x24\n        /* \"#utility.yul\":12968:12969   */\n      0x00\n        /* \"#utility.yul\":12961:12976   */\n      revert\n        /* \"#utility.yul\":12988:13179   */\n    tag_74:\n        /* \"#utility.yul\":13028:13031   */\n      0x00\n        /* \"#utility.yul\":13047:13067   */\n      tag_377\n        /* \"#utility.yul\":13065:13066   */\n      dup3\n        /* \"#utility.yul\":13047:13067   */\n      tag_204\n      jump\t// in\n    tag_377:\n        /* \"#utility.yul\":13042:13067   */\n      swap2\n      pop\n        /* \"#utility.yul\":13081:13101   */\n      tag_378\n        /* \"#utility.yul\":13099:13100   */\n      dup4\n        /* \"#utility.yul\":13081:13101   */\n      tag_204\n      jump\t// in\n    tag_378:\n        /* \"#utility.yul\":13076:13101   */\n      swap3\n      pop\n        /* \"#utility.yul\":13124:13125   */\n      dup3\n        /* \"#utility.yul\":13121:13122   */\n      dup3\n        /* \"#utility.yul\":13117:13126   */\n      add\n        /* \"#utility.yul\":13110:13126   */\n      swap1\n      pop\n        /* \"#utility.yul\":13145:13148   */\n      dup1\n        /* \"#utility.yul\":13142:13143   */\n      dup3\n        /* \"#utility.yul\":13139:13149   */\n      gt\n        /* \"#utility.yul\":13136:13172   */\n      iszero\n      tag_379\n      jumpi\n        /* \"#utility.yul\":13152:13170   */\n      tag_380\n      tag_222\n      jump\t// in\n    tag_380:\n        /* \"#utility.yul\":13136:13172   */\n    tag_379:\n        /* \"#utility.yul\":12988:13179   */\n      swap3\n      swap2\n      pop\n      pop\n      jump\t// out\n        /* \"#utility.yul\":13185:13595   */\n    tag_76:\n        /* \"#utility.yul\":13225:13232   */\n      0x00\n        /* \"#utility.yul\":13248:13268   */\n      tag_382\n        /* \"#utility.yul\":13266:13267   */\n      dup3\n        /* \"#utility.yul\":13248:13268   */\n      tag_204\n      jump\t// in\n    tag_382:\n        /* \"#utility.yul\":13243:13268   */\n      swap2\n      pop\n        /* \"#utility.yul\":13282:13302   */\n      tag_383\n        /* \"#utility.yul\":13300:13301   */\n      dup4\n        /* \"#utility.yul\":13282:13302   */\n      tag_204\n      jump\t// in\n    tag_383:\n        /* \"#utility.yul\":13277:13302   */\n      swap3\n      pop\n        /* \"#utility.yul\":13337:13338   */\n      dup3\n        /* \"#utility.yul\":13334:13335   */\n      dup3\n        /* \"#utility.yul\":13330:13339   */\n      mul\n        /* \"#utility.yul\":13359:13389   */\n      tag_384\n        /* \"#utility.yul\":13377:13388   */\n      dup2\n        /* \"#utility.yul\":13359:13389   */\n      tag_204\n      jump\t// in\n    tag_384:\n        /* \"#utility.yul\":13348:13389   */\n      swap2\n      pop\n        /* \"#utility.yul\":13538:13539   */\n      dup3\n        /* \"#utility.yul\":13529:13536   */\n      dup3\n        /* \"#utility.yul\":13525:13540   */\n      div\n        /* \"#utility.yul\":13522:13523   */\n      dup5\n        /* \"#utility.yul\":13519:13541   */\n      eq\n        /* \"#utility.yul\":13499:13500   */\n      dup4\n        /* \"#utility.yul\":13492:13501   */\n      iszero\n        /* \"#utility.yul\":13472:13555   */\n      or\n        /* \"#utility.yul\":13449:13588   */\n      tag_385\n      jumpi\n        /* \"#utility.yul\":13568:13586   */\n      tag_386\n      tag_222\n      jump\t// in\n    tag_386:\n        /* \"#utility.yul\":13449:13588   */\n    tag_385:\n        /* \"#utility.yul\":13233:13595   */\n      pop\n        /* \"#utility.yul\":13185:13595   */\n      swap3\n      swap2\n      pop\n      pop\n      jump\t// out\n        /* \"#utility.yul\":13601:13781   */\n    tag_223:\n        /* \"#utility.yul\":13649:13726   */\n      0x4e487b7100000000000000000000000000000000000000000000000000000000\n        /* \"#utility.yul\":13646:13647   */\n      0x00\n        /* \"#utility.yul\":13639:13727   */\n      mstore\n        /* \"#utility.yul\":13746:13750   */\n      0x12\n        /* \"#utility.yul\":13743:13744   */\n      0x04\n        /* \"#utility.yul\":13736:13751   */\n      mstore\n        /* \"#utility.yul\":13770:13774   */\n      0x24\n        /* \"#utility.yul\":13767:13768   */\n      0x00\n        /* \"#utility.yul\":13760:13775   */\n      revert\n        /* \"#utility.yul\":13787:13972   */\n    tag_78:\n        /* \"#utility.yul\":13827:13828   */\n      0x00\n        /* \"#utility.yul\":13844:13864   */\n      tag_389\n        /* \"#utility.yul\":13862:13863   */\n      dup3\n        /* \"#utility.yul\":13844:13864   */\n      tag_204\n      jump\t// in\n    tag_389:\n        /* \"#utility.yul\":13839:13864   */\n      swap2\n      pop\n        /* \"#utility.yul\":13878:13898   */\n      tag_390\n        /* \"#utility.yul\":13896:13897   */\n      dup4\n        /* \"#utility.yul\":13878:13898   */\n      tag_204\n      jump\t// in\n    tag_390:\n        /* \"#utility.yul\":13873:13898   */\n      swap3\n      pop\n        /* \"#utility.yul\":13917:13918   */\n      dup3\n        /* \"#utility.yul\":13907:13942   */\n      tag_391\n      jumpi\n        /* \"#utility.yul\":13922:13940   */\n      tag_392\n      tag_223\n      jump\t// in\n    tag_392:\n        /* \"#utility.yul\":13907:13942   */\n    tag_391:\n        /* \"#utility.yul\":13964:13965   */\n      dup3\n        /* \"#utility.yul\":13961:13962   */\n      dup3\n        /* \"#utility.yul\":13957:13966   */\n      div\n        /* \"#utility.yul\":13952:13966   */\n      swap1\n      pop\n        /* \"#utility.yul\":13787:13972   */\n      swap3\n      swap2\n      pop\n      pop\n      jump\t// out\n        /* \"#utility.yul\":13978:14149   */\n    tag_224:\n        /* \"#utility.yul\":14118:14141   */\n      0x4657443a20696e73756666696369656e74206761730000000000000000000000\n        /* \"#utility.yul\":14114:14115   */\n      0x00\n        /* \"#utility.yul\":14106:14112   */\n      dup3\n        /* \"#utility.yul\":14102:14116   */\n      add\n        /* \"#utility.yul\":14095:14142   */\n      mstore\n        /* \"#utility.yul\":13978:14149   */\n      pop\n      jump\t// out\n        /* \"#utility.yul\":14155:14521   */\n    tag_225:\n        /* \"#utility.yul\":14297:14300   */\n      0x00\n        /* \"#utility.yul\":14318:14385   */\n      tag_395\n        /* \"#utility.yul\":14382:14384   */\n      0x15\n        /* \"#utility.yul\":14377:14380   */\n      dup4\n        /* \"#utility.yul\":14318:14385   */\n      tag_215\n      jump\t// in\n    tag_395:\n        /* \"#utility.yul\":14311:14385   */\n      swap2\n      pop\n        /* \"#utility.yul\":14394:14487   */\n      tag_396\n        /* \"#utility.yul\":14483:14486   */\n      dup3\n        /* \"#utility.yul\":14394:14487   */\n      tag_224\n      jump\t// in\n    tag_396:\n        /* \"#utility.yul\":14512:14514   */\n      0x20\n        /* \"#utility.yul\":14507:14510   */\n      dup3\n        /* \"#utility.yul\":14503:14515   */\n      add\n        /* \"#utility.yul\":14496:14515   */\n      swap1\n      pop\n        /* \"#utility.yul\":14155:14521   */\n      swap2\n      swap1\n      pop\n      jump\t// out\n        /* \"#utility.yul\":14527:14946   */\n    tag_81:\n        /* \"#utility.yul\":14693:14697   */\n      0x00\n        /* \"#utility.yul\":14731:14733   */\n      0x20\n        /* \"#utility.yul\":14720:14729   */\n      dup3\n        /* \"#utility.yul\":14716:14734   */\n      add\n        /* \"#utility.yul\":14708:14734   */\n      swap1\n      pop\n        /* \"#utility.yul\":14780:14789   */\n      dup2\n        /* \"#utility.yul\":14774:14778   */\n      dup2\n        /* \"#utility.yul\":14770:14790   */\n      sub\n        /* \"#utility.yul\":14766:14767   */\n      0x00\n        /* \"#utility.yul\":14755:14764   */\n      dup4\n        /* \"#utility.yul\":14751:14768   */\n      add\n        /* \"#utility.yul\":14744:14791   */\n      mstore\n        /* \"#utility.yul\":14808:14939   */\n      tag_398\n        /* \"#utility.yul\":14934:14938   */\n      dup2\n        /* \"#utility.yul\":14808:14939   */\n      tag_225\n      jump\t// in\n    tag_398:\n        /* \"#utility.yul\":14800:14939   */\n      swap1\n      pop\n        /* \"#utility.yul\":14527:14946   */\n      swap2\n      swap1\n      pop\n      jump\t// out\n        /* \"#utility.yul\":14952:15338   */\n    tag_226:\n        /* \"#utility.yul\":15056:15059   */\n      0x00\n        /* \"#utility.yul\":15084:15122   */\n      tag_400\n        /* \"#utility.yul\":15116:15121   */\n      dup3\n        /* \"#utility.yul\":15084:15122   */\n      tag_195\n      jump\t// in\n    tag_400:\n        /* \"#utility.yul\":15138:15226   */\n      tag_401\n        /* \"#utility.yul\":15219:15225   */\n      dup2\n        /* \"#utility.yul\":15214:15217   */\n      dup6\n        /* \"#utility.yul\":15138:15226   */\n      tag_209\n      jump\t// in\n    tag_401:\n        /* \"#utility.yul\":15131:15226   */\n      swap4\n      pop\n        /* \"#utility.yul\":15235:15300   */\n      tag_402\n        /* \"#utility.yul\":15293:15299   */\n      dup2\n        /* \"#utility.yul\":15288:15291   */\n      dup6\n        /* \"#utility.yul\":15281:15285   */\n      0x20\n        /* \"#utility.yul\":15274:15279   */\n      dup7\n        /* \"#utility.yul\":15270:15286   */\n      add\n        /* \"#utility.yul\":15235:15300   */\n      tag_197\n      jump\t// in\n    tag_402:\n        /* \"#utility.yul\":15325:15331   */\n      dup1\n        /* \"#utility.yul\":15320:15323   */\n      dup5\n        /* \"#utility.yul\":15316:15332   */\n      add\n        /* \"#utility.yul\":15309:15332   */\n      swap2\n      pop\n        /* \"#utility.yul\":15060:15338   */\n      pop\n        /* \"#utility.yul\":14952:15338   */\n      swap3\n      swap2\n      pop\n      pop\n      jump\t// out\n        /* \"#utility.yul\":15344:15615   */\n    tag_84:\n        /* \"#utility.yul\":15474:15477   */\n      0x00\n        /* \"#utility.yul\":15496:15589   */\n      tag_404\n        /* \"#utility.yul\":15585:15588   */\n      dup3\n        /* \"#utility.yul\":15576:15582   */\n      dup5\n        /* \"#utility.yul\":15496:15589   */\n      tag_226\n      jump\t// in\n    tag_404:\n        /* \"#utility.yul\":15489:15589   */\n      swap2\n      pop\n        /* \"#utility.yul\":15606:15609   */\n      dup2\n        /* \"#utility.yul\":15599:15609   */\n      swap1\n      pop\n        /* \"#utility.yul\":15344:15615   */\n      swap3\n      swap2\n      pop\n      pop\n      jump\t// out\n        /* \"#utility.yul\":15621:15790   */\n    tag_227:\n        /* \"#utility.yul\":15761:15782   */\n      0x4657443a206e6f6e6365206d69736d6174636800000000000000000000000000\n        /* \"#utility.yul\":15757:15758   */\n      0x00\n        /* \"#utility.yul\":15749:15755   */\n      dup3\n        /* \"#utility.yul\":15745:15759   */\n      add\n        /* \"#utility.yul\":15738:15783   */\n      mstore\n        /* \"#utility.yul\":15621:15790   */\n      pop\n      jump\t// out\n        /* \"#utility.yul\":15796:16162   */\n    tag_228:\n        /* \"#utility.yul\":15938:15941   */\n      0x00\n        /* \"#utility.yul\":15959:16026   */\n      tag_407\n        /* \"#utility.yul\":16023:16025   */\n      0x13\n        /* \"#utility.yul\":16018:16021   */\n      dup4\n        /* \"#utility.yul\":15959:16026   */\n      tag_215\n      jump\t// in\n    tag_407:\n        /* \"#utility.yul\":15952:16026   */\n      swap2\n      pop\n        /* \"#utility.yul\":16035:16128   */\n      tag_408\n        /* \"#utility.yul\":16124:16127   */\n      dup3\n        /* \"#utility.yul\":16035:16128   */\n      tag_227\n      jump\t// in\n    tag_408:\n        /* \"#utility.yul\":16153:16155   */\n      0x20\n        /* \"#utility.yul\":16148:16151   */\n      dup3\n        /* \"#utility.yul\":16144:16156   */\n      add\n        /* \"#utility.yul\":16137:16156   */\n      swap1\n      pop\n        /* \"#utility.yul\":15796:16162   */\n      swap2\n      swap1\n      pop\n      jump\t// out\n        /* \"#utility.yul\":16168:16587   */\n    tag_97:\n        /* \"#utility.yul\":16334:16338   */\n      0x00\n        /* \"#utility.yul\":16372:16374   */\n      0x20\n        /* \"#utility.yul\":16361:16370   */\n      dup3\n        /* \"#utility.yul\":16357:16375   */\n      add\n        /* \"#utility.yul\":16349:16375   */\n      swap1\n      pop\n        /* \"#utility.yul\":16421:16430   */\n      dup2\n        /* \"#utility.yul\":16415:16419   */\n      dup2\n        /* \"#utility.yul\":16411:16431   */\n      sub\n        /* \"#utility.yul\":16407:16408   */\n      0x00\n        /* \"#utility.yul\":16396:16405   */\n      dup4\n        /* \"#utility.yul\":16392:16409   */\n      add\n        /* \"#utility.yul\":16385:16432   */\n      mstore\n        /* \"#utility.yul\":16449:16580   */\n      tag_410\n        /* \"#utility.yul\":16575:16579   */\n      dup2\n        /* \"#utility.yul\":16449:16580   */\n      tag_228\n      jump\t// in\n    tag_410:\n        /* \"#utility.yul\":16441:16580   */\n      swap1\n      pop\n        /* \"#utility.yul\":16168:16587   */\n      swap2\n      swap1\n      pop\n      jump\t// out\n        /* \"#utility.yul\":16593:16766   */\n    tag_229:\n        /* \"#utility.yul\":16733:16758   */\n      0x4657443a207369676e6174757265206d69736d61746368000000000000000000\n        /* \"#utility.yul\":16729:16730   */\n      0x00\n        /* \"#utility.yul\":16721:16727   */\n      dup3\n        /* \"#utility.yul\":16717:16731   */\n      add\n        /* \"#utility.yul\":16710:16759   */\n      mstore\n        /* \"#utility.yul\":16593:16766   */\n      pop\n      jump\t// out\n        /* \"#utility.yul\":16772:17138   */\n    tag_230:\n        /* \"#utility.yul\":16914:16917   */\n      0x00\n        /* \"#utility.yul\":16935:17002   */\n      tag_413\n        /* \"#utility.yul\":16999:17001   */\n      0x17\n        /* \"#utility.yul\":16994:16997   */\n      dup4\n        /* \"#utility.yul\":16935:17002   */\n      tag_215\n      jump\t// in\n    tag_413:\n        /* \"#utility.yul\":16928:17002   */\n      swap2\n      pop\n        /* \"#utility.yul\":17011:17104   */\n      tag_414\n        /* \"#utility.yul\":17100:17103   */\n      dup3\n        /* \"#utility.yul\":17011:17104   */\n      tag_229\n      jump\t// in\n    tag_414:\n        /* \"#utility.yul\":17129:17131   */\n      0x20\n        /* \"#utility.yul\":17124:17127   */\n      dup3\n        /* \"#utility.yul\":17120:17132   */\n      add\n        /* \"#utility.yul\":17113:17132   */\n      swap1\n      pop\n        /* \"#utility.yul\":16772:17138   */\n      swap2\n      swap1\n      pop\n      jump\t// out\n        /* \"#utility.yul\":17144:17563   */\n    tag_108:\n        /* \"#utility.yul\":17310:17314   */\n      0x00\n        /* \"#utility.yul\":17348:17350   */\n      0x20\n        /* \"#utility.yul\":17337:17346   */\n      dup3\n        /* \"#utility.yul\":17333:17351   */\n      add\n        /* \"#utility.yul\":17325:17351   */\n      swap1\n      pop\n        /* \"#utility.yul\":17397:17406   */\n      dup2\n        /* \"#utility.yul\":17391:17395   */\n      dup2\n        /* \"#utility.yul\":17387:17407   */\n      sub\n        /* \"#utility.yul\":17383:17384   */\n      0x00\n        /* \"#utility.yul\":17372:17381   */\n      dup4\n        /* \"#utility.yul\":17368:17385   */\n      add\n        /* \"#utility.yul\":17361:17408   */\n      mstore\n        /* \"#utility.yul\":17425:17556   */\n      tag_416\n        /* \"#utility.yul\":17551:17555   */\n      dup2\n        /* \"#utility.yul\":17425:17556   */\n      tag_230\n      jump\t// in\n    tag_416:\n        /* \"#utility.yul\":17417:17556   */\n      swap1\n      pop\n        /* \"#utility.yul\":17144:17563   */\n      swap2\n      swap1\n      pop\n      jump\t// out\n        /* \"#utility.yul\":17569:17802   */\n    tag_113:\n        /* \"#utility.yul\":17608:17611   */\n      0x00\n        /* \"#utility.yul\":17631:17655   */\n      tag_418\n        /* \"#utility.yul\":17649:17654   */\n      dup3\n        /* \"#utility.yul\":17631:17655   */\n      tag_204\n      jump\t// in\n    tag_418:\n        /* \"#utility.yul\":17622:17655   */\n      swap2\n      pop\n        /* \"#utility.yul\":17677:17743   */\n      0xffffffffffffffffffffffffffffffffffffffffffffffffffffffffffffffff\n        /* \"#utility.yul\":17670:17675   */\n      dup3\n        /* \"#utility.yul\":17667:17744   */\n      sub\n        /* \"#utility.yul\":17664:17767   */\n      tag_419\n      jumpi\n        /* \"#utility.yul\":17747:17765   */\n      tag_420\n      tag_222\n      jump\t// in\n    tag_420:\n        /* \"#utility.yul\":17664:17767   */\n    tag_419:\n        /* \"#utility.yul\":17794:17795   */\n      0x01\n        /* \"#utility.yul\":17787:17792   */\n      dup3\n        /* \"#utility.yul\":17783:17796   */\n      add\n        /* \"#utility.yul\":17776:17796   */\n      swap1\n      pop\n        /* \"#utility.yul\":17569:17802   */\n      swap2\n      swap1\n      pop\n      jump\t// out\n        /* \"#utility.yul\":17808:17956   */\n    tag_231:\n        /* \"#utility.yul\":17910:17921   */\n      0x00\n        /* \"#utility.yul\":17947:17950   */\n      dup2\n        /* \"#utility.yul\":17932:17950   */\n      swap1\n      pop\n        /* \"#utility.yul\":17808:17956   */\n      swap3\n      swap2\n      pop\n      pop\n      jump\t// out\n        /* \"#utility.yul\":17962:18176   */\n    tag_232:\n        /* \"#utility.yul\":18102:18168   */\n      0x1901000000000000000000000000000000000000000000000000000000000000\n        /* \"#utility.yul\":18098:18099   */\n      0x00\n        /* \"#utility.yul\":18090:18096   */\n      dup3\n        /* \"#utility.yul\":18086:18100   */\n      add\n        /* \"#utility.yul\":18079:18169   */\n      mstore\n        /* \"#utility.yul\":17962:18176   */\n      pop\n      jump\t// out\n        /* \"#utility.yul\":18182:18582   */\n    tag_233:\n        /* \"#utility.yul\":18342:18345   */\n      0x00\n        /* \"#utility.yul\":18363:18447   */\n      tag_424\n        /* \"#utility.yul\":18445:18446   */\n      0x02\n        /* \"#utility.yul\":18440:18443   */\n      dup4\n        /* \"#utility.yul\":18363:18447   */\n      tag_231\n      jump\t// in\n    tag_424:\n        /* \"#utility.yul\":18356:18447   */\n      swap2\n      pop\n        /* \"#utility.yul\":18456:18549   */\n      tag_425\n        /* \"#utility.yul\":18545:18548   */\n      dup3\n        /* \"#utility.yul\":18456:18549   */\n      tag_232\n      jump\t// in\n    tag_425:\n        /* \"#utility.yul\":18574:18575   */\n      0x02\n        /* \"#utility.yul\":18569:18572   */\n      dup3\n        /* \"#utility.yul\":18565:18576   */\n      add\n        /* \"#utility.yul\":18558:18576   */\n      swap1\n      pop\n        /* \"#utility.yul\":18182:18582   */\n      swap2\n      swap1\n      pop\n      jump\t// out\n        /* \"#utility.yul\":18588:18667   */\n    tag_234:\n        /* \"#utility.yul\":18627:18634   */\n      0x00\n        /* \"#utility.yul\":18656:18661   */\n      dup2\n        /* \"#utility.yul\":18645:18661   */\n      swap1\n      pop\n        /* \"#utility.yul\":18588:18667   */\n      swap2\n      swap1\n      pop\n      jump\t// out\n        /* \"#utility.yul\":18673:18830   */\n    tag_235:\n        /* \"#utility.yul\":18778:18823   */\n      tag_428\n        /* \"#utility.yul\":18798:18822   */\n      tag_429\n        /* \"#utility.yul\":18816:18821   */\n      dup3\n        /* \"#utility.yul\":18798:18822   */\n      tag_212\n      jump\t// in\n    tag_429:\n        /* \"#utility.yul\":18778:18823   */\n      tag_234\n      jump\t// in\n    tag_428:\n        /* \"#utility.yul\":18773:18776   */\n      dup3\n        /* \"#utility.yul\":18766:18824   */\n      mstore\n        /* \"#utility.yul\":18673:18830   */\n      pop\n      pop\n      jump\t// out\n        /* \"#utility.yul\":18836:19499   */\n    tag_134:\n        /* \"#utility.yul\":19077:19080   */\n      0x00\n        /* \"#utility.yul\":19099:19247   */\n      tag_431\n        /* \"#utility.yul\":19243:19246   */\n      dup3\n        /* \"#utility.yul\":19099:19247   */\n      tag_233\n      jump\t// in\n    tag_431:\n        /* \"#utility.yul\":19092:19247   */\n      swap2\n      pop\n        /* \"#utility.yul\":19257:19332   */\n      tag_432\n        /* \"#utility.yul\":19328:19331   */\n      dup3\n        /* \"#utility.yul\":19319:19325   */\n      dup6\n        /* \"#utility.yul\":19257:19332   */\n      tag_235\n      jump\t// in\n    tag_432:\n        /* \"#utility.yul\":19357:19359   */\n      0x20\n        /* \"#utility.yul\":19352:19355   */\n      dup3\n        /* \"#utility.yul\":19348:19360   */\n      add\n        /* \"#utility.yul\":19341:19360   */\n      swap2\n      pop\n        /* \"#utility.yul\":19370:19445   */\n      tag_433\n        /* \"#utility.yul\":19441:19444   */\n      dup3\n        /* \"#utility.yul\":19432:19438   */\n      dup5\n        /* \"#utility.yul\":19370:19445   */\n      tag_235\n      jump\t// in\n    tag_433:\n        /* \"#utility.yul\":19470:19472   */\n      0x20\n        /* \"#utility.yul\":19465:19468   */\n      dup3\n        /* \"#utility.yul\":19461:19473   */\n      add\n        /* \"#utility.yul\":19454:19473   */\n      swap2\n      pop\n        /* \"#utility.yul\":19490:19493   */\n      dup2\n        /* \"#utility.yul\":19483:19493   */\n      swap1\n      pop\n        /* \"#utility.yul\":18836:19499   */\n      swap4\n      swap3\n      pop\n      pop\n      pop\n      jump\t// out\n        /* \"#utility.yul\":19505:19685   */\n    tag_143:\n        /* \"#utility.yul\":19553:19630   */\n      0x4e487b7100000000000000000000000000000000000000000000000000000000\n        /* \"#utility.yul\":19550:19551   */\n      0x00\n        /* \"#utility.yul\":19543:19631   */\n      mstore\n        /* \"#utility.yul\":19650:19654   */\n      0x21\n        /* \"#utility.yul\":19647:19648   */\n      0x04\n        /* \"#utility.yul\":19640:19655   */\n      mstore\n        /* \"#utility.yul\":19674:19678   */\n      0x24\n        /* \"#utility.yul\":19671:19672   */\n      0x00\n        /* \"#utility.yul\":19664:19679   */\n      revert\n        /* \"#utility.yul\":19691:19865   */\n    tag_236:\n        /* \"#utility.yul\":19831:19857   */\n      0x45434453413a20696e76616c6964207369676e61747572650000000000000000\n        /* \"#utility.yul\":19827:19828   */\n      0x00\n        /* \"#utility.yul\":19819:19825   */\n      dup3\n        /* \"#utility.yul\":19815:19829   */\n      add\n        /* \"#utility.yul\":19808:19858   */\n      mstore\n        /* \"#utility.yul\":19691:19865   */\n      pop\n      jump\t// out\n        /* \"#utility.yul\":19871:20237   */\n    tag_237:\n        /* \"#utility.yul\":20013:20016   */\n      0x00\n        /* \"#utility.yul\":20034:20101   */\n      tag_437\n        /* \"#utility.yul\":20098:20100   */\n      0x18\n        /* \"#utility.yul\":20093:20096   */\n      dup4\n        /* \"#utility.yul\":20034:20101   */\n      tag_215\n      jump\t// in\n    tag_437:\n        /* \"#utility.yul\":20027:20101   */\n      swap2\n      pop\n        /* \"#utility.yul\":20110:20203   */\n      tag_438\n        /* \"#utility.yul\":20199:20202   */\n      dup3\n        /* \"#utility.yul\":20110:20203   */\n      tag_236\n      jump\t// in\n    tag_438:\n        /* \"#utility.yul\":20228:20230   */\n      0x20\n        /* \"#utility.yul\":20223:20226   */\n      dup3\n        /* \"#utility.yul\":20219:20231   */\n      add\n        /* \"#utility.yul\":20212:20231   */\n      swap1\n      pop\n        /* \"#utility.yul\":19871:20237   */\n      swap2\n      swap1\n      pop\n      jump\t// out\n        /* \"#utility.yul\":20243:20662   */\n    tag_154:\n        /* \"#utility.yul\":20409:20413   */\n      0x00\n        /* \"#utility.yul\":20447:20449   */\n      0x20\n        /* \"#utility.yul\":20436:20445   */\n      dup3\n        /* \"#utility.yul\":20432:20450   */\n      add\n        /* \"#utility.yul\":20424:20450   */\n      swap1\n      pop\n        /* \"#utility.yul\":20496:20505   */\n      dup2\n        /* \"#utility.yul\":20490:20494   */\n      dup2\n        /* \"#utility.yul\":20486:20506   */\n      sub\n        /* \"#utility.yul\":20482:20483   */\n      0x00\n        /* \"#utility.yul\":20471:20480   */\n      dup4\n        /* \"#utility.yul\":20467:20484   */\n      add\n        /* \"#utility.yul\":20460:20507   */\n      mstore\n        /* \"#utility.yul\":20524:20655   */\n      tag_440\n        /* \"#utility.yul\":20650:20654   */\n      dup2\n        /* \"#utility.yul\":20524:20655   */\n      tag_237\n      jump\t// in\n    tag_440:\n        /* \"#utility.yul\":20516:20655   */\n      swap1\n      pop\n        /* \"#utility.yul\":20243:20662   */\n      swap2\n      swap1\n      pop\n      jump\t// out\n        /* \"#utility.yul\":20668:20849   */\n    tag_238:\n        /* \"#utility.yul\":20808:20841   */\n      0x45434453413a20696e76616c6964207369676e6174757265206c656e67746800\n        /* \"#utility.yul\":20804:20805   */\n      0x00\n        /* \"#utility.yul\":20796:20802   */\n      dup3\n        /* \"#utility.yul\":20792:20806   */\n      add\n        /* \"#utility.yul\":20785:20842   */\n      mstore\n        /* \"#utility.yul\":20668:20849   */\n      pop\n      jump\t// out\n        /* \"#utility.yul\":20855:21221   */\n    tag_239:\n        /* \"#utility.yul\":20997:21000   */\n      0x00\n        /* \"#utility.yul\":21018:21085   */\n      tag_443\n        /* \"#utility.yul\":21082:21084   */\n      0x1f\n        /* \"#utility.yul\":21077:21080   */\n      dup4\n        /* \"#utility.yul\":21018:21085   */\n      tag_215\n      jump\t// in\n    tag_443:\n        /* \"#utility.yul\":21011:21085   */\n      swap2\n      pop\n        /* \"#utility.yul\":21094:21187   */\n      tag_444\n        /* \"#utility.yul\":21183:21186   */\n      dup3\n        /* \"#utility.yul\":21094:21187   */\n      tag_238\n      jump\t// in\n    tag_444:\n        /* \"#utility.yul\":21212:21214   */\n      0x20\n        /* \"#utility.yul\":21207:21210   */\n      dup3\n        /* \"#utility.yul\":21203:21215   */\n      add\n        /* \"#utility.yul\":21196:21215   */\n      swap1\n      pop\n        /* \"#utility.yul\":20855:21221   */\n      swap2\n      swap1\n      pop\n      jump\t// out\n        /* \"#utility.yul\":21227:21646   */\n    tag_162:\n        /* \"#utility.yul\":21393:21397   */\n      0x00\n        /* \"#utility.yul\":21431:21433   */\n      0x20\n        /* \"#utility.yul\":21420:21429   */\n      dup3\n        /* \"#utility.yul\":21416:21434   */\n      add\n        /* \"#utility.yul\":21408:21434   */\n      swap1\n      pop\n        /* \"#utility.yul\":21480:21489   */\n      dup2\n        /* \"#utility.yul\":21474:21478   */\n      dup2\n        /* \"#utility.yul\":21470:21490   */\n      sub\n        /* \"#utility.yul\":21466:21467   */\n      0x00\n        /* \"#utility.yul\":21455:21464   */\n      dup4\n        /* \"#utility.yul\":21451:21468   */\n      add\n        /* \"#utility.yul\":21444:21491   */\n      mstore\n        /* \"#utility.yul\":21508:21639   */\n      tag_446\n        /* \"#utility.yul\":21634:21638   */\n      dup2\n        /* \"#utility.yul\":21508:21639   */\n      tag_239\n      jump\t// in\n    tag_446:\n        /* \"#utility.yul\":21500:21639   */\n      swap1\n      pop\n        /* \"#utility.yul\":21227:21646   */\n      swap2\n      swap1\n      pop\n      jump\t// out\n        /* \"#utility.yul\":21652:21873   */\n    tag_240:\n        /* \"#utility.yul\":21792:21826   */\n      0x45434453413a20696e76616c6964207369676e6174757265202773272076616c\n        /* \"#utility.yul\":21788:21789   */\n      0x00\n        /* \"#utility.yul\":21780:21786   */\n      dup3\n        /* \"#utility.yul\":21776:21790   */\n      add\n        /* \"#utility.yul\":21769:21827   */\n      mstore\n        /* \"#utility.yul\":21861:21865   */\n      0x7565000000000000000000000000000000000000000000000000000000000000\n        /* \"#utility.yul\":21856:21858   */\n      0x20\n        /* \"#utility.yul\":21848:21854   */\n      dup3\n        /* \"#utility.yul\":21844:21859   */\n      add\n        /* \"#utility.yul\":21837:21866   */\n      mstore\n        /* \"#utility.yul\":21652:21873   */\n      pop\n      jump\t// out\n        /* \"#utility.yul\":21879:22245   */\n    tag_241:\n        /* \"#utility.yul\":22021:22024   */\n      0x00\n        /* \"#utility.yul\":22042:22109   */\n      tag_449\n        /* \"#utility.yul\":22106:22108   */\n      0x22\n        /* \"#utility.yul\":22101:22104   */\n      dup4\n        /* \"#utility.yul\":22042:22109   */\n      tag_215\n      jump\t// in\n    tag_449:\n        /* \"#utility.yul\":22035:22109   */\n      swap2\n      pop\n        /* \"#utility.yul\":22118:22211   */\n      tag_450\n        /* \"#utility.yul\":22207:22210   */\n      dup3\n        /* \"#utility.yul\":22118:22211   */\n      tag_240\n      jump\t// in\n    tag_450:\n        /* \"#utility.yul\":22236:22238   */\n      0x40\n        /* \"#utility.yul\":22231:22234   */\n      dup3\n        /* \"#utility.yul\":22227:22239   */\n      add\n        /* \"#utility.yul\":22220:22239   */\n      swap1\n      pop\n        /* \"#utility.yul\":21879:22245   */\n      swap2\n      swap1\n      pop\n      jump\t// out\n        /* \"#utility.yul\":22251:22670   */\n    tag_170:\n        /* \"#utility.yul\":22417:22421   */\n      0x00\n        /* \"#utility.yul\":22455:22457   */\n      0x20\n        /* \"#utility.yul\":22444:22453   */\n      dup3\n        /* \"#utility.yul\":22440:22458   */\n      add\n        /* \"#utility.yul\":22432:22458   */\n      swap1\n      pop\n        /* \"#utility.yul\":22504:22513   */\n      dup2\n        /* \"#utility.yul\":22498:22502   */\n      dup2\n        /* \"#utility.yul\":22494:22514   */\n      sub\n        /* \"#utility.yul\":22490:22491   */\n      0x00\n        /* \"#utility.yul\":22479:22488   */\n      dup4\n        /* \"#utility.yul\":22475:22492   */\n      add\n        /* \"#utility.yul\":22468:22515   */\n      mstore\n        /* \"#utility.yul\":22532:22663   */\n      tag_452\n        /* \"#utility.yul\":22658:22662   */\n      dup2\n        /* \"#utility.yul\":22532:22663   */\n      tag_241\n      jump\t// in\n    tag_452:\n        /* \"#utility.yul\":22524:22663   */\n      swap1\n      pop\n        /* \"#utility.yul\":22251:22670   */\n      swap2\n      swap1\n      pop\n      jump\t// out\n        /* \"#utility.yul\":22676:23340   */\n    tag_173:\n        /* \"#utility.yul\":22881:22885   */\n      0x00\n        /* \"#utility.yul\":22919:22922   */\n      0xa0\n        /* \"#utility.yul\":22908:22917   */\n      dup3\n        /* \"#utility.yul\":22904:22923   */\n      add\n        /* \"#utility.yul\":22896:22923   */\n      swap1\n      pop\n        /* \"#utility.yul\":22933:23004   */\n      tag_454\n        /* \"#utility.yul\":23001:23002   */\n      0x00\n        /* \"#utility.yul\":22990:22999   */\n      dup4\n        /* \"#utility.yul\":22986:23003   */\n      add\n        /* \"#utility.yul\":22977:22983   */\n      dup9\n        /* \"#utility.yul\":22933:23004   */\n      tag_213\n      jump\t// in\n    tag_454:\n        /* \"#utility.yul\":23014:23086   */\n      tag_455\n        /* \"#utility.yul\":23082:23084   */\n      0x20\n        /* \"#utility.yul\":23071:23080   */\n      dup4\n        /* \"#utility.yul\":23067:23085   */\n      add\n        /* \"#utility.yul\":23058:23064   */\n      dup8\n        /* \"#utility.yul\":23014:23086   */\n      tag_213\n      jump\t// in\n    tag_455:\n        /* \"#utility.yul\":23096:23168   */\n      tag_456\n        /* \"#utility.yul\":23164:23166   */\n      0x40\n        /* \"#utility.yul\":23153:23162   */\n      dup4\n        /* \"#utility.yul\":23149:23167   */\n      add\n        /* \"#utility.yul\":23140:23146   */\n      dup7\n        /* \"#utility.yul\":23096:23168   */\n      tag_213\n      jump\t// in\n    tag_456:\n        /* \"#utility.yul\":23178:23250   */\n      tag_457\n        /* \"#utility.yul\":23246:23248   */\n      0x60\n        /* \"#utility.yul\":23235:23244   */\n      dup4\n        /* \"#utility.yul\":23231:23249   */\n      add\n        /* \"#utility.yul\":23222:23228   */\n      dup6\n        /* \"#utility.yul\":23178:23250   */\n      tag_205\n      jump\t// in\n    tag_457:\n        /* \"#utility.yul\":23260:23333   */\n      tag_458\n        /* \"#utility.yul\":23328:23331   */\n      0x80\n        /* \"#utility.yul\":23317:23326   */\n      dup4\n        /* \"#utility.yul\":23313:23332   */\n      add\n        /* \"#utility.yul\":23304:23310   */\n      dup5\n        /* \"#utility.yul\":23260:23333   */\n      tag_214\n      jump\t// in\n    tag_458:\n        /* \"#utility.yul\":22676:23340   */\n      swap7\n      swap6\n      pop\n      pop\n      pop\n      pop\n      pop\n      pop\n      jump\t// out\n        /* \"#utility.yul\":23346:23432   */\n    tag_242:\n        /* \"#utility.yul\":23381:23388   */\n      0x00\n        /* \"#utility.yul\":23421:23425   */\n      0xff\n        /* \"#utility.yul\":23414:23419   */\n      dup3\n        /* \"#utility.yul\":23410:23426   */\n      and\n        /* \"#utility.yul\":23399:23426   */\n      swap1\n      pop\n        /* \"#utility.yul\":23346:23432   */\n      swap2\n      swap1\n      pop\n      jump\t// out\n        /* \"#utility.yul\":23438:23550   */\n    tag_243:\n        /* \"#utility.yul\":23521:23543   */\n      tag_461\n        /* \"#utility.yul\":23537:23542   */\n      dup2\n        /* \"#utility.yul\":23521:23543   */\n      tag_242\n      jump\t// in\n    tag_461:\n        /* \"#utility.yul\":23516:23519   */\n      dup3\n        /* \"#utility.yul\":23509:23544   */\n      mstore\n        /* \"#utility.yul\":23438:23550   */\n      pop\n      pop\n      jump\t// out\n        /* \"#utility.yul\":23556:24101   */\n    tag_177:\n        /* \"#utility.yul\":23729:23733   */\n      0x00\n        /* \"#utility.yul\":23767:23770   */\n      0x80\n        /* \"#utility.yul\":23756:23765   */\n      dup3\n        /* \"#utility.yul\":23752:23771   */\n      add\n        /* \"#utility.yul\":23744:23771   */\n      swap1\n      pop\n        /* \"#utility.yul\":23781:23852   */\n      tag_463\n        /* \"#utility.yul\":23849:23850   */\n      0x00\n        /* \"#utility.yul\":23838:23847   */\n      dup4\n        /* \"#utility.yul\":23834:23851   */\n      add\n        /* \"#utility.yul\":23825:23831   */\n      dup8\n        /* \"#utility.yul\":23781:23852   */\n      tag_213\n      jump\t// in\n    tag_463:\n        /* \"#utility.yul\":23862:23930   */\n      tag_464\n        /* \"#utility.yul\":23926:23928   */\n      0x20\n        /* \"#utility.yul\":23915:23924   */\n      dup4\n        /* \"#utility.yul\":23911:23929   */\n      add\n        /* \"#utility.yul\":23902:23908   */\n      dup7\n        /* \"#utility.yul\":23862:23930   */\n      tag_243\n      jump\t// in\n    tag_464:\n        /* \"#utility.yul\":23940:24012   */\n      tag_465\n        /* \"#utility.yul\":24008:24010   */\n      0x40\n        /* \"#utility.yul\":23997:24006   */\n      dup4\n        /* \"#utility.yul\":23993:24011   */\n      add\n        /* \"#utility.yul\":23984:23990   */\n      dup6\n        /* \"#utility.yul\":23940:24012   */\n      tag_213\n      jump\t// in\n    tag_465:\n        /* \"#utility.yul\":24022:24094   */\n      tag_466\n        /* \"#utility.yul\":24090:24092   */\n      0x60\n        /* \"#utility.yul\":24079:24088   */\n      dup4\n        /* \"#utility.yul\":24075:24093   */\n      add\n        /* \"#utility.yul\":24066:24072   */\n      dup5\n        /* \"#utility.yul\":24022:24094   */\n      tag_213\n      jump\t// in\n    tag_466:\n        /* \"#utility.yul\":23556:24101   */\n      swap6\n      swap5\n      pop\n      pop\n      pop\n      pop\n      pop\n      jump\t// out\n\n    auxdata: 0xa2646970667358221220cc04908c83b001574829f6f9759b00114c0f7420cea657957fc84bb86443b4a064736f6c63430008110033\n}\n",
				"bytecode": {
					"linkReferences": {},
					"object": "6101406040523480156200001257600080fd5b506040518060400160405280601881526020017f46696c6576657273654d6574615478466f7277617264657200000000000000008152506040518060400160405280600381526020017f312e30000000000000000000000000000000000000000000000000000000000081525060008280519060200120905060008280519060200120905060007f8b73c3c69bb8fe3d512ecc4cf759cc79239f7b179b0ffacaa9a75d522b39400f90508260e081815250508161010081815250504660a08181525050620000e88184846200013760201b60201c565b608081815250503073ffffffffffffffffffffffffffffffffffffffff1660c08173ffffffffffffffffffffffffffffffffffffffff168152505080610120818152505050505050506200024b565b6000838383463060405160200162000154959493929190620001ee565b6040516020818303038152906040528051906020012090509392505050565b6000819050919050565b620001888162000173565b82525050565b6000819050919050565b620001a3816200018e565b82525050565b600073ffffffffffffffffffffffffffffffffffffffff82169050919050565b6000620001d682620001a9565b9050919050565b620001e881620001c9565b82525050565b600060a0820190506200020560008301886200017d565b6200021460208301876200017d565b6200022360408301866200017d565b62000232606083018562000198565b620002416080830184620001dd565b9695505050505050565b60805160a05160c05160e05161010051610120516118916200029b6000396000610901015260006109430152600061092201526000610857015260006108ad015260006108d601526118916000f3fe60806040526004361061004e5760003560e01c8063019fe8851461005a57806301ffc9a714610083578063269fb1c7146100c05780632d0335ab146100fd57806344d46c8e1461013a57610055565b3661005557005b600080fd5b34801561006657600080fd5b50610081600480360381019061007c9190610d06565b61016b565b005b34801561008f57600080fd5b506100aa60048036038101906100a59190610dda565b610184565b6040516100b79190610e22565b60405180910390f35b3480156100cc57600080fd5b506100e760048036038101906100e29190610e3d565b6101fe565b6040516100f49190610f16565b60405180910390f35b34801561010957600080fd5b50610124600480360381019061011f9190610f96565b6102ae565b6040516101319190610fdc565b60405180910390f35b610154600480360381019061014f9190610d06565b6102f6565b604051610162929190610ff7565b60405180910390f35b61017483610533565b61017f8383836105cc565b505050565b60007f6848b1a0000000000000000000000000000000000000000000000000000000007bffffffffffffffffffffffffffffffffffffffffffffffffffffffff1916827bffffffffffffffffffffffffffffffffffffffffffffffffffffffff191614806101f757506101f6826106fb565b5b9050919050565b60607fb91ae508e6f0e8e33913dec60d2fdcb39fe037ce56198c70a7927d7cd813fd968260000160208101906102349190610f96565b8360200160208101906102479190610f96565b846040013585606001358660800135878060a001906102669190611036565b6040516102749291906110d8565b60405180910390208860c00135604051602001610298989796959493929190611119565b6040516020818303038152906040529050919050565b60008060008373ffffffffffffffffffffffffffffffffffffffff1673ffffffffffffffffffffffffffffffffffffffff168152602001908152602001600020549050919050565b600060606103058585856105cc565b61030e85610765565b60008560c0013514806103245750428560c00135115b610363576040517f08c379a000000000000000000000000000000000000000000000000000000000815260040161035a906111f4565b60405180910390fd5b60008086604001351461037657619c4090505b6000868060a001906103889190611036565b88600001602081019061039b9190610f96565b6040516020016103ad9392919061125c565b60405160208183030381529060405290508187606001356103ce91906112b5565b6040603f5a6103dd91906112e9565b6103e7919061135a565b1015610428576040517f08c379a000000000000000000000000000000000000000000000000000000000815260040161041f906113d7565b60405180910390fd5b86602001602081019061043b9190610f96565b73ffffffffffffffffffffffffffffffffffffffff1687606001358860400135836040516104699190611428565b600060405180830381858888f193505050503d80600081146104a7576040519150601f19603f3d011682016040523d82523d6000602084013e6104ac565b606091505b50809450819550505060008760400135141580156104ca5750600047115b15610529578660000160208101906104e29190610f96565b73ffffffffffffffffffffffffffffffffffffffff166108fc479081150290604051600060405180830381858888f19350505050158015610527573d6000803e3d6000fd5b505b5050935093915050565b806080013560008083600001602081019061054e9190610f96565b73ffffffffffffffffffffffffffffffffffffffff1673ffffffffffffffffffffffffffffffffffffffff16815260200190815260200160002054146105c9576040517f08c379a00000000000000000000000000000000000000000000000000000000081526004016105c09061148b565b60405180910390fd5b50565b600061063c83838080601f016020809104026020016040519081016040528093929190818152602001838380828437600081840152601f19601f8201169050808301925050505050505061062e610622876101fe565b80519060200120610812565b61082c90919063ffffffff16565b9050600073ffffffffffffffffffffffffffffffffffffffff163273ffffffffffffffffffffffffffffffffffffffff1614806106b657508360000160208101906106879190610f96565b73ffffffffffffffffffffffffffffffffffffffff168173ffffffffffffffffffffffffffffffffffffffff16145b6106f5576040517f08c379a00000000000000000000000000000000000000000000000000000000081526004016106ec906114f7565b60405180910390fd5b50505050565b60007f01ffc9a7000000000000000000000000000000000000000000000000000000007bffffffffffffffffffffffffffffffffffffffffffffffffffffffff1916827bffffffffffffffffffffffffffffffffffffffffffffffffffffffff1916149050919050565b80608001356000808360000160208101906107809190610f96565b73ffffffffffffffffffffffffffffffffffffffff1673ffffffffffffffffffffffffffffffffffffffff16815260200190815260200160002060008154809291906107cb90611517565b919050551461080f576040517f08c379a00000000000000000000000000000000000000000000000000000000081526004016108069061148b565b60405180910390fd5b50565b600061082561081f610853565b8361096d565b9050919050565b600080600061083b85856109a0565b91509150610848816109f1565b819250505092915050565b60007f000000000000000000000000000000000000000000000000000000000000000073ffffffffffffffffffffffffffffffffffffffff163073ffffffffffffffffffffffffffffffffffffffff161480156108cf57507f000000000000000000000000000000000000000000000000000000000000000046145b156108fc577f0000000000000000000000000000000000000000000000000000000000000000905061096a565b6109677f00000000000000000000000000000000000000000000000000000000000000007f00000000000000000000000000000000000000000000000000000000000000007f0000000000000000000000000000000000000000000000000000000000000000610b57565b90505b90565b600082826040516020016109829291906115d7565b60405160208183030381529060405280519060200120905092915050565b60008060418351036109e15760008060006020860151925060408601519150606086015160001a90506109d587828585610b91565b945094505050506109ea565b60006002915091505b9250929050565b60006004811115610a0557610a0461160e565b5b816004811115610a1857610a1761160e565b5b0315610b545760016004811115610a3257610a3161160e565b5b816004811115610a4557610a4461160e565b5b03610a85576040517f08c379a0000000000000000000000000000000000000000000000000000000008152600401610a7c90611689565b60405180910390fd5b60026004811115610a9957610a9861160e565b5b816004811115610aac57610aab61160e565b5b03610aec576040517f08c379a0000000000000000000000000000000000000000000000000000000008152600401610ae3906116f5565b60405180910390fd5b60036004811115610b0057610aff61160e565b5b816004811115610b1357610b1261160e565b5b03610b53576040517f08c379a0000000000000000000000000000000000000000000000000000000008152600401610b4a90611787565b60405180910390fd5b5b50565b60008383834630604051602001610b729594939291906117a7565b6040516020818303038152906040528051906020012090509392505050565b6000807f7fffffffffffffffffffffffffffffff5d576e7357a4501ddfe92f46681b20a08360001c1115610bcc576000600391509150610c6a565b600060018787878760405160008152602001604052604051610bf19493929190611816565b6020604051602081039080840390855afa158015610c13573d6000803e3d6000fd5b505050602060405103519050600073ffffffffffffffffffffffffffffffffffffffff168173ffffffffffffffffffffffffffffffffffffffff1603610c6157600060019250925050610c6a565b80600092509250505b94509492505050565b600080fd5b600080fd5b600080fd5b600060e08284031215610c9857610c97610c7d565b5b81905092915050565b600080fd5b600080fd5b600080fd5b60008083601f840112610cc657610cc5610ca1565b5b8235905067ffffffffffffffff811115610ce357610ce2610ca6565b5b602083019150836001820283011115610cff57610cfe610cab565b5b9250929050565b600080600060408486031215610d1f57610d1e610c73565b5b600084013567ffffffffffffffff811115610d3d57610d3c610c78565b5b610d4986828701610c82565b935050602084013567ffffffffffffffff811115610d6a57610d69610c78565b5b610d7686828701610cb0565b92509250509250925092565b60007fffffffff0000000000000000000000000000000000000000000000000000000082169050919050565b610db781610d82565b8114610dc257600080fd5b50565b600081359050610dd481610dae565b92915050565b600060208284031215610df057610def610c73565b5b6000610dfe84828501610dc5565b91505092915050565b60008115159050919050565b610e1c81610e07565b82525050565b6000602082019050610e376000830184610e13565b92915050565b600060208284031215610e5357610e52610c73565b5b600082013567ffffffffffffffff811115610e7157610e70610c78565b5b610e7d84828501610c82565b91505092915050565b600081519050919050565b600082825260208201905092915050565b60005b83811015610ec0578082015181840152602081019050610ea5565b60008484015250505050565b6000601f19601f8301169050919050565b6000610ee882610e86565b610ef28185610e91565b9350610f02818560208601610ea2565b610f0b81610ecc565b840191505092915050565b60006020820190508181036000830152610f308184610edd565b905092915050565b600073ffffffffffffffffffffffffffffffffffffffff82169050919050565b6000610f6382610f38565b9050919050565b610f7381610f58565b8114610f7e57600080fd5b50565b600081359050610f9081610f6a565b92915050565b600060208284031215610fac57610fab610c73565b5b6000610fba84828501610f81565b91505092915050565b6000819050919050565b610fd681610fc3565b82525050565b6000602082019050610ff16000830184610fcd565b92915050565b600060408201905061100c6000830185610e13565b818103602083015261101e8184610edd565b90509392505050565b600080fd5b600080fd5b600080fd5b6000808335600160200384360303811261105357611052611027565b5b80840192508235915067ffffffffffffffff8211156110755761107461102c565b5b60208301925060018202360383131561109157611090611031565b5b509250929050565b600081905092915050565b82818337600083830152505050565b60006110bf8385611099565b93506110cc8385846110a4565b82840190509392505050565b60006110e58284866110b3565b91508190509392505050565b6000819050919050565b611104816110f1565b82525050565b61111381610f58565b82525050565b60006101008201905061112f600083018b6110fb565b61113c602083018a61110a565b611149604083018961110a565b6111566060830188610fcd565b6111636080830187610fcd565b61117060a0830186610fcd565b61117d60c08301856110fb565b61118a60e0830184610fcd565b9998505050505050505050565b600082825260208201905092915050565b7f4657443a20726571756573742065787069726564000000000000000000000000600082015250565b60006111de601483611197565b91506111e9826111a8565b602082019050919050565b6000602082019050818103600083015261120d816111d1565b9050919050565b60008160601b9050919050565b600061122c82611214565b9050919050565b600061123e82611221565b9050919050565b61125661125182610f58565b611233565b82525050565b60006112698285876110b3565b91506112758284611245565b601482019150819050949350505050565b7f4e487b7100000000000000000000000000000000000000000000000000000000600052601160045260246000fd5b60006112c082610fc3565b91506112cb83610fc3565b92508282019050808211156112e3576112e2611286565b5b92915050565b60006112f482610fc3565b91506112ff83610fc3565b925082820261130d81610fc3565b9150828204841483151761132457611323611286565b5b5092915050565b7f4e487b7100000000000000000000000000000000000000000000000000000000600052601260045260246000fd5b600061136582610fc3565b915061137083610fc3565b9250826113805761137f61132b565b5b828204905092915050565b7f4657443a20696e73756666696369656e74206761730000000000000000000000600082015250565b60006113c1601583611197565b91506113cc8261138b565b602082019050919050565b600060208201905081810360008301526113f0816113b4565b9050919050565b600061140282610e86565b61140c8185611099565b935061141c818560208601610ea2565b80840191505092915050565b600061143482846113f7565b915081905092915050565b7f4657443a206e6f6e6365206d69736d6174636800000000000000000000000000600082015250565b6000611475601383611197565b91506114808261143f565b602082019050919050565b600060208201905081810360008301526114a481611468565b9050919050565b7f4657443a207369676e6174757265206d69736d61746368000000000000000000600082015250565b60006114e1601783611197565b91506114ec826114ab565b602082019050919050565b60006020820190508181036000830152611510816114d4565b9050919050565b600061152282610fc3565b91507fffffffffffffffffffffffffffffffffffffffffffffffffffffffffffffffff820361155457611553611286565b5b600182019050919050565b600081905092915050565b7f1901000000000000000000000000000000000000000000000000000000000000600082015250565b60006115a060028361155f565b91506115ab8261156a565b600282019050919050565b6000819050919050565b6115d16115cc826110f1565b6115b6565b82525050565b60006115e282611593565b91506115ee82856115c0565b6020820191506115fe82846115c0565b6020820191508190509392505050565b7f4e487b7100000000000000000000000000000000000000000000000000000000600052602160045260246000fd5b7f45434453413a20696e76616c6964207369676e61747572650000000000000000600082015250565b6000611673601883611197565b915061167e8261163d565b602082019050919050565b600060208201905081810360008301526116a281611666565b9050919050565b7f45434453413a20696e76616c6964207369676e6174757265206c656e67746800600082015250565b60006116df601f83611197565b91506116ea826116a9565b602082019050919050565b6000602082019050818103600083015261170e816116d2565b9050919050565b7f45434453413a20696e76616c6964207369676e6174757265202773272076616c60008201527f7565000000000000000000000000000000000000000000000000000000000000602082015250565b6000611771602283611197565b915061177c82611715565b604082019050919050565b600060208201905081810360008301526117a081611764565b9050919050565b600060a0820190506117bc60008301886110fb565b6117c960208301876110fb565b6117d660408301866110fb565b6117e36060830185610fcd565b6117f0608083018461110a565b9695505050505050565b600060ff82169050919050565b611810816117fa565b82525050565b600060808201905061182b60008301876110fb565b6118386020830186611807565b61184560408301856110fb565b61185260608301846110fb565b9594505050505056fea2646970667358221220cc04908c83b001574829f6f9759b00114c0f7420cea657957fc84bb86443b4a064736f6c63430008110033",
					"opcodes": "PUSH2 0x140 PUSH1 0x40 MSTORE CALLVALUE DUP1 ISZERO PUSH3 0x12 JUMPI PUSH1 0x0 DUP1 REVERT JUMPDEST POP PUSH1 0x40 MLOAD DUP1 PUSH1 0x40 ADD PUSH1 0x40 MSTORE DUP1 PUSH1 0x18 DUP2 MSTORE PUSH1 0x20 ADD PUSH32 0x46696C6576657273654D6574615478466F727761726465720000000000000000 DUP2 MSTORE POP PUSH1 0x40 MLOAD DUP1 PUSH1 0x40 ADD PUSH1 0x40 MSTORE DUP1 PUSH1 0x3 DUP2 MSTORE PUSH1 0x20 ADD PUSH32 0x312E300000000000000000000000000000000000000000000000000000000000 DUP2 MSTORE POP PUSH1 0x0 DUP3 DUP1 MLOAD SWAP1 PUSH1 0x20 ADD KECCAK256 SWAP1 POP PUSH1 0x0 DUP3 DUP1 MLOAD SWAP1 PUSH1 0x20 ADD KECCAK256 SWAP1 POP PUSH1 0x0 PUSH32 0x8B73C3C69BB8FE3D512ECC4CF759CC79239F7B179B0FFACAA9A75D522B39400F SWAP1 POP DUP3 PUSH1 0xE0 DUP2 DUP2 MSTORE POP POP DUP2 PUSH2 0x100 DUP2 DUP2 MSTORE POP POP CHAINID PUSH1 0xA0 DUP2 DUP2 MSTORE POP POP PUSH3 0xE8 DUP2 DUP5 DUP5 PUSH3 0x137 PUSH1 0x20 SHL PUSH1 0x20 SHR JUMP JUMPDEST PUSH1 0x80 DUP2 DUP2 MSTORE POP POP ADDRESS PUSH20 0xFFFFFFFFFFFFFFFFFFFFFFFFFFFFFFFFFFFFFFFF AND PUSH1 0xC0 DUP2 PUSH20 0xFFFFFFFFFFFFFFFFFFFFFFFFFFFFFFFFFFFFFFFF AND DUP2 MSTORE POP POP DUP1 PUSH2 0x120 DUP2 DUP2 MSTORE POP POP POP POP POP POP POP PUSH3 0x24B JUMP JUMPDEST PUSH1 0x0 DUP4 DUP4 DUP4 CHAINID ADDRESS PUSH1 0x40 MLOAD PUSH1 0x20 ADD PUSH3 0x154 SWAP6 SWAP5 SWAP4 SWAP3 SWAP2 SWAP1 PUSH3 0x1EE JUMP JUMPDEST PUSH1 0x40 MLOAD PUSH1 0x20 DUP2 DUP4 SUB SUB DUP2 MSTORE SWAP1 PUSH1 0x40 MSTORE DUP1 MLOAD SWAP1 PUSH1 0x20 ADD KECCAK256 SWAP1 POP SWAP4 SWAP3 POP POP POP JUMP JUMPDEST PUSH1 0x0 DUP2 SWAP1 POP SWAP2 SWAP1 POP JUMP JUMPDEST PUSH3 0x188 DUP2 PUSH3 0x173 JUMP JUMPDEST DUP3 MSTORE POP POP JUMP JUMPDEST PUSH1 0x0 DUP2 SWAP1 POP SWAP2 SWAP1 POP JUMP JUMPDEST PUSH3 0x1A3 DUP2 PUSH3 0x18E JUMP JUMPDEST DUP3 MSTORE POP POP JUMP JUMPDEST PUSH1 0x0 PUSH20 0xFFFFFFFFFFFFFFFFFFFFFFFFFFFFFFFFFFFFFFFF DUP3 AND SWAP1 POP SWAP2 SWAP1 POP JUMP JUMPDEST PUSH1 0x0 PUSH3 0x1D6 DUP3 PUSH3 0x1A9 JUMP JUMPDEST SWAP1 POP SWAP2 SWAP1 POP JUMP JUMPDEST PUSH3 0x1E8 DUP2 PUSH3 0x1C9 JUMP JUMPDEST DUP3 MSTORE POP POP JUMP JUMPDEST PUSH1 0x0 PUSH1 0xA0 DUP3 ADD SWAP1 POP PUSH3 0x205 PUSH1 0x0 DUP4 ADD DUP9 PUSH3 0x17D JUMP JUMPDEST PUSH3 0x214 PUSH1 0x20 DUP4 ADD DUP8 PUSH3 0x17D JUMP JUMPDEST PUSH3 0x223 PUSH1 0x40 DUP4 ADD DUP7 PUSH3 0x17D JUMP JUMPDEST PUSH3 0x232 PUSH1 0x60 DUP4 ADD DUP6 PUSH3 0x198 JUMP JUMPDEST PUSH3 0x241 PUSH1 0x80 DUP4 ADD DUP5 PUSH3 0x1DD JUMP JUMPDEST SWAP7 SWAP6 POP POP POP POP POP POP JUMP JUMPDEST PUSH1 0x80 MLOAD PUSH1 0xA0 MLOAD PUSH1 0xC0 MLOAD PUSH1 0xE0 MLOAD PUSH2 0x100 MLOAD PUSH2 0x120 MLOAD PUSH2 0x1891 PUSH3 0x29B PUSH1 0x0 CODECOPY PUSH1 0x0 PUSH2 0x901 ADD MSTORE PUSH1 0x0 PUSH2 0x943 ADD MSTORE PUSH1 0x0 PUSH2 0x922 ADD MSTORE PUSH1 0x0 PUSH2 0x857 ADD MSTORE PUSH1 0x0 PUSH2 0x8AD ADD MSTORE PUSH1 0x0 PUSH2 0x8D6 ADD MSTORE PUSH2 0x1891 PUSH1 0x0 RETURN INVALID PUSH1 0x80 PUSH1 0x40 MSTORE PUSH1 0x4 CALLDATASIZE LT PUSH2 0x4E JUMPI PUSH1 0x0 CALLDATALOAD PUSH1 0xE0 SHR DUP1 PUSH4 0x19FE885 EQ PUSH2 0x5A JUMPI DUP1 PUSH4 0x1FFC9A7 EQ PUSH2 0x83 JUMPI DUP1 PUSH4 0x269FB1C7 EQ PUSH2 0xC0 JUMPI DUP1 PUSH4 0x2D0335AB EQ PUSH2 0xFD JUMPI DUP1 PUSH4 0x44D46C8E EQ PUSH2 0x13A JUMPI PUSH2 0x55 JUMP JUMPDEST CALLDATASIZE PUSH2 0x55 JUMPI STOP JUMPDEST PUSH1 0x0 DUP1 REVERT JUMPDEST CALLVALUE DUP1 ISZERO PUSH2 0x66 JUMPI PUSH1 0x0 DUP1 REVERT JUMPDEST POP PUSH2 0x81 PUSH1 0x4 DUP1 CALLDATASIZE SUB DUP2 ADD SWAP1 PUSH2 0x7C SWAP2 SWAP1 PUSH2 0xD06 JUMP JUMPDEST PUSH2 0x16B JUMP JUMPDEST STOP JUMPDEST CALLVALUE DUP1 ISZERO PUSH2 0x8F JUMPI PUSH1 0x0 DUP1 REVERT JUMPDEST POP PUSH2 0xAA PUSH1 0x4 DUP1 CALLDATASIZE SUB DUP2 ADD SWAP1 PUSH2 0xA5 SWAP2 SWAP1 PUSH2 0xDDA JUMP JUMPDEST PUSH2 0x184 JUMP JUMPDEST PUSH1 0x40 MLOAD PUSH2 0xB7 SWAP2 SWAP1 PUSH2 0xE22 JUMP JUMPDEST PUSH1 0x40 MLOAD DUP1 SWAP2 SUB SWAP1 RETURN JUMPDEST CALLVALUE DUP1 ISZERO PUSH2 0xCC JUMPI PUSH1 0x0 DUP1 REVERT JUMPDEST POP PUSH2 0xE7 PUSH1 0x4 DUP1 CALLDATASIZE SUB DUP2 ADD SWAP1 PUSH2 0xE2 SWAP2 SWAP1 PUSH2 0xE3D JUMP JUMPDEST PUSH2 0x1FE JUMP JUMPDEST PUSH1 0x40 MLOAD PUSH2 0xF4 SWAP2 SWAP1 PUSH2 0xF16 JUMP JUMPDEST PUSH1 0x40 MLOAD DUP1 SWAP2 SUB SWAP1 RETURN JUMPDEST CALLVALUE DUP1 ISZERO PUSH2 0x109 JUMPI PUSH1 0x0 DUP1 REVERT JUMPDEST POP PUSH2 0x124 PUSH1 0x4 DUP1 CALLDATASIZE SUB DUP2 ADD SWAP1 PUSH2 0x11F SWAP2 SWAP1 PUSH2 0xF96 JUMP JUMPDEST PUSH2 0x2AE JUMP JUMPDEST PUSH1 0x40 MLOAD PUSH2 0x131 SWAP2 SWAP1 PUSH2 0xFDC JUMP JUMPDEST PUSH1 0x40 MLOAD DUP1 SWAP2 SUB SWAP1 RETURN JUMPDEST PUSH2 0x154 PUSH1 0x4 DUP1 CALLDATASIZE SUB DUP2 ADD SWAP1 PUSH2 0x14F SWAP2 SWAP1 PUSH2 0xD06 JUMP JUMPDEST PUSH2 0x2F6 JUMP JUMPDEST PUSH1 0x40 MLOAD PUSH2 0x162 SWAP3 SWAP2 SWAP1 PUSH2 0xFF7 JUMP JUMPDEST PUSH1 0x40 MLOAD DUP1 SWAP2 SUB SWAP1 RETURN JUMPDEST PUSH2 0x174 DUP4 PUSH2 0x533 JUMP JUMPDEST PUSH2 0x17F DUP4 DUP4 DUP4 PUSH2 0x5CC JUMP JUMPDEST POP POP POP JUMP JUMPDEST PUSH1 0x0 PUSH32 0x6848B1A000000000000000000000000000000000000000000000000000000000 PUSH28 0xFFFFFFFFFFFFFFFFFFFFFFFFFFFFFFFFFFFFFFFFFFFFFFFFFFFFFFFF NOT AND DUP3 PUSH28 0xFFFFFFFFFFFFFFFFFFFFFFFFFFFFFFFFFFFFFFFFFFFFFFFFFFFFFFFF NOT AND EQ DUP1 PUSH2 0x1F7 JUMPI POP PUSH2 0x1F6 DUP3 PUSH2 0x6FB JUMP JUMPDEST JUMPDEST SWAP1 POP SWAP2 SWAP1 POP JUMP JUMPDEST PUSH1 0x60 PUSH32 0xB91AE508E6F0E8E33913DEC60D2FDCB39FE037CE56198C70A7927D7CD813FD96 DUP3 PUSH1 0x0 ADD PUSH1 0x20 DUP2 ADD SWAP1 PUSH2 0x234 SWAP2 SWAP1 PUSH2 0xF96 JUMP JUMPDEST DUP4 PUSH1 0x20 ADD PUSH1 0x20 DUP2 ADD SWAP1 PUSH2 0x247 SWAP2 SWAP1 PUSH2 0xF96 JUMP JUMPDEST DUP5 PUSH1 0x40 ADD CALLDATALOAD DUP6 PUSH1 0x60 ADD CALLDATALOAD DUP7 PUSH1 0x80 ADD CALLDATALOAD DUP8 DUP1 PUSH1 0xA0 ADD SWAP1 PUSH2 0x266 SWAP2 SWAP1 PUSH2 0x1036 JUMP JUMPDEST PUSH1 0x40 MLOAD PUSH2 0x274 SWAP3 SWAP2 SWAP1 PUSH2 0x10D8 JUMP JUMPDEST PUSH1 0x40 MLOAD DUP1 SWAP2 SUB SWAP1 KECCAK256 DUP9 PUSH1 0xC0 ADD CALLDATALOAD PUSH1 0x40 MLOAD PUSH1 0x20 ADD PUSH2 0x298 SWAP9 SWAP8 SWAP7 SWAP6 SWAP5 SWAP4 SWAP3 SWAP2 SWAP1 PUSH2 0x1119 JUMP JUMPDEST PUSH1 0x40 MLOAD PUSH1 0x20 DUP2 DUP4 SUB SUB DUP2 MSTORE SWAP1 PUSH1 0x40 MSTORE SWAP1 POP SWAP2 SWAP1 POP JUMP JUMPDEST PUSH1 0x0 DUP1 PUSH1 0x0 DUP4 PUSH20 0xFFFFFFFFFFFFFFFFFFFFFFFFFFFFFFFFFFFFFFFF AND PUSH20 0xFFFFFFFFFFFFFFFFFFFFFFFFFFFFFFFFFFFFFFFF AND DUP2 MSTORE PUSH1 0x20 ADD SWAP1 DUP2 MSTORE PUSH1 0x20 ADD PUSH1 0x0 KECCAK256 SLOAD SWAP1 POP SWAP2 SWAP1 POP JUMP JUMPDEST PUSH1 0x0 PUSH1 0x60 PUSH2 0x305 DUP6 DUP6 DUP6 PUSH2 0x5CC JUMP JUMPDEST PUSH2 0x30E DUP6 PUSH2 0x765 JUMP JUMPDEST PUSH1 0x0 DUP6 PUSH1 0xC0 ADD CALLDATALOAD EQ DUP1 PUSH2 0x324 JUMPI POP TIMESTAMP DUP6 PUSH1 0xC0 ADD CALLDATALOAD GT JUMPDEST PUSH2 0x363 JUMPI PUSH1 0x40 MLOAD PUSH32 0x8C379A000000000000000000000000000000000000000000000000000000000 DUP2 MSTORE PUSH1 0x4 ADD PUSH2 0x35A SWAP1 PUSH2 0x11F4 JUMP JUMPDEST PUSH1 0x40 MLOAD DUP1 SWAP2 SUB SWAP1 REVERT JUMPDEST PUSH1 0x0 DUP1 DUP7 PUSH1 0x40 ADD CALLDATALOAD EQ PUSH2 0x376 JUMPI PUSH2 0x9C40 SWAP1 POP JUMPDEST PUSH1 0x0 DUP7 DUP1 PUSH1 0xA0 ADD SWAP1 PUSH2 0x388 SWAP2 SWAP1 PUSH2 0x1036 JUMP JUMPDEST DUP9 PUSH1 0x0 ADD PUSH1 0x20 DUP2 ADD SWAP1 PUSH2 0x39B SWAP2 SWAP1 PUSH2 0xF96 JUMP JUMPDEST PUSH1 0x40 MLOAD PUSH1 0x20 ADD PUSH2 0x3AD SWAP4 SWAP3 SWAP2 SWAP1 PUSH2 0x125C JUMP JUMPDEST PUSH1 0x40 MLOAD PUSH1 0x20 DUP2 DUP4 SUB SUB DUP2 MSTORE SWAP1 PUSH1 0x40 MSTORE SWAP1 POP DUP2 DUP8 PUSH1 0x60 ADD CALLDATALOAD PUSH2 0x3CE SWAP2 SWAP1 PUSH2 0x12B5 JUMP JUMPDEST PUSH1 0x40 PUSH1 0x3F GAS PUSH2 0x3DD SWAP2 SWAP1 PUSH2 0x12E9 JUMP JUMPDEST PUSH2 0x3E7 SWAP2 SWAP1 PUSH2 0x135A JUMP JUMPDEST LT ISZERO PUSH2 0x428 JUMPI PUSH1 0x40 MLOAD PUSH32 0x8C379A000000000000000000000000000000000000000000000000000000000 DUP2 MSTORE PUSH1 0x4 ADD PUSH2 0x41F SWAP1 PUSH2 0x13D7 JUMP JUMPDEST PUSH1 0x40 MLOAD DUP1 SWAP2 SUB SWAP1 REVERT JUMPDEST DUP7 PUSH1 0x20 ADD PUSH1 0x20 DUP2 ADD SWAP1 PUSH2 0x43B SWAP2 SWAP1 PUSH2 0xF96 JUMP JUMPDEST PUSH20 0xFFFFFFFFFFFFFFFFFFFFFFFFFFFFFFFFFFFFFFFF AND DUP8 PUSH1 0x60 ADD CALLDATALOAD DUP9 PUSH1 0x40 ADD CALLDATALOAD DUP4 PUSH1 0x40 MLOAD PUSH2 0x469 SWAP2 SWAP1 PUSH2 0x1428 JUMP JUMPDEST PUSH1 0x0 PUSH1 0x40 MLOAD DUP1 DUP4 SUB DUP2 DUP6 DUP9 DUP9 CALL SWAP4 POP POP POP POP RETURNDATASIZE DUP1 PUSH1 0x0 DUP2 EQ PUSH2 0x4A7 JUMPI PUSH1 0x40 MLOAD SWAP2 POP PUSH1 0x1F NOT PUSH1 0x3F RETURNDATASIZE ADD AND DUP3 ADD PUSH1 0x40 MSTORE RETURNDATASIZE DUP3 MSTORE RETURNDATASIZE PUSH1 0x0 PUSH1 0x20 DUP5 ADD RETURNDATACOPY PUSH2 0x4AC JUMP JUMPDEST PUSH1 0x60 SWAP2 POP JUMPDEST POP DUP1 SWAP5 POP DUP2 SWAP6 POP POP POP PUSH1 0x0 DUP8 PUSH1 0x40 ADD CALLDATALOAD EQ ISZERO DUP1 ISZERO PUSH2 0x4CA JUMPI POP PUSH1 0x0 SELFBALANCE GT JUMPDEST ISZERO PUSH2 0x529 JUMPI DUP7 PUSH1 0x0 ADD PUSH1 0x20 DUP2 ADD SWAP1 PUSH2 0x4E2 SWAP2 SWAP1 PUSH2 0xF96 JUMP JUMPDEST PUSH20 0xFFFFFFFFFFFFFFFFFFFFFFFFFFFFFFFFFFFFFFFF AND PUSH2 0x8FC SELFBALANCE SWAP1 DUP2 ISZERO MUL SWAP1 PUSH1 0x40 MLOAD PUSH1 0x0 PUSH1 0x40 MLOAD DUP1 DUP4 SUB DUP2 DUP6 DUP9 DUP9 CALL SWAP4 POP POP POP POP ISZERO DUP1 ISZERO PUSH2 0x527 JUMPI RETURNDATASIZE PUSH1 0x0 DUP1 RETURNDATACOPY RETURNDATASIZE PUSH1 0x0 REVERT JUMPDEST POP JUMPDEST POP POP SWAP4 POP SWAP4 SWAP2 POP POP JUMP JUMPDEST DUP1 PUSH1 0x80 ADD CALLDATALOAD PUSH1 0x0 DUP1 DUP4 PUSH1 0x0 ADD PUSH1 0x20 DUP2 ADD SWAP1 PUSH2 0x54E SWAP2 SWAP1 PUSH2 0xF96 JUMP JUMPDEST PUSH20 0xFFFFFFFFFFFFFFFFFFFFFFFFFFFFFFFFFFFFFFFF AND PUSH20 0xFFFFFFFFFFFFFFFFFFFFFFFFFFFFFFFFFFFFFFFF AND DUP2 MSTORE PUSH1 0x20 ADD SWAP1 DUP2 MSTORE PUSH1 0x20 ADD PUSH1 0x0 KECCAK256 SLOAD EQ PUSH2 0x5C9 JUMPI PUSH1 0x40 MLOAD PUSH32 0x8C379A000000000000000000000000000000000000000000000000000000000 DUP2 MSTORE PUSH1 0x4 ADD PUSH2 0x5C0 SWAP1 PUSH2 0x148B JUMP JUMPDEST PUSH1 0x40 MLOAD DUP1 SWAP2 SUB SWAP1 REVERT JUMPDEST POP JUMP JUMPDEST PUSH1 0x0 PUSH2 0x63C DUP4 DUP4 DUP1 DUP1 PUSH1 0x1F ADD PUSH1 0x20 DUP1 SWAP2 DIV MUL PUSH1 0x20 ADD PUSH1 0x40 MLOAD SWAP1 DUP2 ADD PUSH1 0x40 MSTORE DUP1 SWAP4 SWAP3 SWAP2 SWAP1 DUP2 DUP2 MSTORE PUSH1 0x20 ADD DUP4 DUP4 DUP1 DUP3 DUP5 CALLDATACOPY PUSH1 0x0 DUP2 DUP5 ADD MSTORE PUSH1 0x1F NOT PUSH1 0x1F DUP3 ADD AND SWAP1 POP DUP1 DUP4 ADD SWAP3 POP POP POP POP POP POP POP PUSH2 0x62E PUSH2 0x622 DUP8 PUSH2 0x1FE JUMP JUMPDEST DUP1 MLOAD SWAP1 PUSH1 0x20 ADD KECCAK256 PUSH2 0x812 JUMP JUMPDEST PUSH2 0x82C SWAP1 SWAP2 SWAP1 PUSH4 0xFFFFFFFF AND JUMP JUMPDEST SWAP1 POP PUSH1 0x0 PUSH20 0xFFFFFFFFFFFFFFFFFFFFFFFFFFFFFFFFFFFFFFFF AND ORIGIN PUSH20 0xFFFFFFFFFFFFFFFFFFFFFFFFFFFFFFFFFFFFFFFF AND EQ DUP1 PUSH2 0x6B6 JUMPI POP DUP4 PUSH1 0x0 ADD PUSH1 0x20 DUP2 ADD SWAP1 PUSH2 0x687 SWAP2 SWAP1 PUSH2 0xF96 JUMP JUMPDEST PUSH20 0xFFFFFFFFFFFFFFFFFFFFFFFFFFFFFFFFFFFFFFFF AND DUP2 PUSH20 0xFFFFFFFFFFFFFFFFFFFFFFFFFFFFFFFFFFFFFFFF AND EQ JUMPDEST PUSH2 0x6F5 JUMPI PUSH1 0x40 MLOAD PUSH32 0x8C379A000000000000000000000000000000000000000000000000000000000 DUP2 MSTORE PUSH1 0x4 ADD PUSH2 0x6EC SWAP1 PUSH2 0x14F7 JUMP JUMPDEST PUSH1 0x40 MLOAD DUP1 SWAP2 SUB SWAP1 REVERT JUMPDEST POP POP POP POP JUMP JUMPDEST PUSH1 0x0 PUSH32 0x1FFC9A700000000000000000000000000000000000000000000000000000000 PUSH28 0xFFFFFFFFFFFFFFFFFFFFFFFFFFFFFFFFFFFFFFFFFFFFFFFFFFFFFFFF NOT AND DUP3 PUSH28 0xFFFFFFFFFFFFFFFFFFFFFFFFFFFFFFFFFFFFFFFFFFFFFFFFFFFFFFFF NOT AND EQ SWAP1 POP SWAP2 SWAP1 POP JUMP JUMPDEST DUP1 PUSH1 0x80 ADD CALLDATALOAD PUSH1 0x0 DUP1 DUP4 PUSH1 0x0 ADD PUSH1 0x20 DUP2 ADD SWAP1 PUSH2 0x780 SWAP2 SWAP1 PUSH2 0xF96 JUMP JUMPDEST PUSH20 0xFFFFFFFFFFFFFFFFFFFFFFFFFFFFFFFFFFFFFFFF AND PUSH20 0xFFFFFFFFFFFFFFFFFFFFFFFFFFFFFFFFFFFFFFFF AND DUP2 MSTORE PUSH1 0x20 ADD SWAP1 DUP2 MSTORE PUSH1 0x20 ADD PUSH1 0x0 KECCAK256 PUSH1 0x0 DUP2 SLOAD DUP1 SWAP3 SWAP2 SWAP1 PUSH2 0x7CB SWAP1 PUSH2 0x1517 JUMP JUMPDEST SWAP2 SWAP1 POP SSTORE EQ PUSH2 0x80F JUMPI PUSH1 0x40 MLOAD PUSH32 0x8C379A000000000000000000000000000000000000000000000000000000000 DUP2 MSTORE PUSH1 0x4 ADD PUSH2 0x806 SWAP1 PUSH2 0x148B JUMP JUMPDEST PUSH1 0x40 MLOAD DUP1 SWAP2 SUB SWAP1 REVERT JUMPDEST POP JUMP JUMPDEST PUSH1 0x0 PUSH2 0x825 PUSH2 0x81F PUSH2 0x853 JUMP JUMPDEST DUP4 PUSH2 0x96D JUMP JUMPDEST SWAP1 POP SWAP2 SWAP1 POP JUMP JUMPDEST PUSH1 0x0 DUP1 PUSH1 0x0 PUSH2 0x83B DUP6 DUP6 PUSH2 0x9A0 JUMP JUMPDEST SWAP2 POP SWAP2 POP PUSH2 0x848 DUP2 PUSH2 0x9F1 JUMP JUMPDEST DUP2 SWAP3 POP POP POP SWAP3 SWAP2 POP POP JUMP JUMPDEST PUSH1 0x0 PUSH32 0x0 PUSH20 0xFFFFFFFFFFFFFFFFFFFFFFFFFFFFFFFFFFFFFFFF AND ADDRESS PUSH20 0xFFFFFFFFFFFFFFFFFFFFFFFFFFFFFFFFFFFFFFFF AND EQ DUP1 ISZERO PUSH2 0x8CF JUMPI POP PUSH32 0x0 CHAINID EQ JUMPDEST ISZERO PUSH2 0x8FC JUMPI PUSH32 0x0 SWAP1 POP PUSH2 0x96A JUMP JUMPDEST PUSH2 0x967 PUSH32 0x0 PUSH32 0x0 PUSH32 0x0 PUSH2 0xB57 JUMP JUMPDEST SWAP1 POP JUMPDEST SWAP1 JUMP JUMPDEST PUSH1 0x0 DUP3 DUP3 PUSH1 0x40 MLOAD PUSH1 0x20 ADD PUSH2 0x982 SWAP3 SWAP2 SWAP1 PUSH2 0x15D7 JUMP JUMPDEST PUSH1 0x40 MLOAD PUSH1 0x20 DUP2 DUP4 SUB SUB DUP2 MSTORE SWAP1 PUSH1 0x40 MSTORE DUP1 MLOAD SWAP1 PUSH1 0x20 ADD KECCAK256 SWAP1 POP SWAP3 SWAP2 POP POP JUMP JUMPDEST PUSH1 0x0 DUP1 PUSH1 0x41 DUP4 MLOAD SUB PUSH2 0x9E1 JUMPI PUSH1 0x0 DUP1 PUSH1 0x0 PUSH1 0x20 DUP7 ADD MLOAD SWAP3 POP PUSH1 0x40 DUP7 ADD MLOAD SWAP2 POP PUSH1 0x60 DUP7 ADD MLOAD PUSH1 0x0 BYTE SWAP1 POP PUSH2 0x9D5 DUP8 DUP3 DUP6 DUP6 PUSH2 0xB91 JUMP JUMPDEST SWAP5 POP SWAP5 POP POP POP POP PUSH2 0x9EA JUMP JUMPDEST PUSH1 0x0 PUSH1 0x2 SWAP2 POP SWAP2 POP JUMPDEST SWAP3 POP SWAP3 SWAP1 POP JUMP JUMPDEST PUSH1 0x0 PUSH1 0x4 DUP2 GT ISZERO PUSH2 0xA05 JUMPI PUSH2 0xA04 PUSH2 0x160E JUMP JUMPDEST JUMPDEST DUP2 PUSH1 0x4 DUP2 GT ISZERO PUSH2 0xA18 JUMPI PUSH2 0xA17 PUSH2 0x160E JUMP JUMPDEST JUMPDEST SUB ISZERO PUSH2 0xB54 JUMPI PUSH1 0x1 PUSH1 0x4 DUP2 GT ISZERO PUSH2 0xA32 JUMPI PUSH2 0xA31 PUSH2 0x160E JUMP JUMPDEST JUMPDEST DUP2 PUSH1 0x4 DUP2 GT ISZERO PUSH2 0xA45 JUMPI PUSH2 0xA44 PUSH2 0x160E JUMP JUMPDEST JUMPDEST SUB PUSH2 0xA85 JUMPI PUSH1 0x40 MLOAD PUSH32 0x8C379A000000000000000000000000000000000000000000000000000000000 DUP2 MSTORE PUSH1 0x4 ADD PUSH2 0xA7C SWAP1 PUSH2 0x1689 JUMP JUMPDEST PUSH1 0x40 MLOAD DUP1 SWAP2 SUB SWAP1 REVERT JUMPDEST PUSH1 0x2 PUSH1 0x4 DUP2 GT ISZERO PUSH2 0xA99 JUMPI PUSH2 0xA98 PUSH2 0x160E JUMP JUMPDEST JUMPDEST DUP2 PUSH1 0x4 DUP2 GT ISZERO PUSH2 0xAAC JUMPI PUSH2 0xAAB PUSH2 0x160E JUMP JUMPDEST JUMPDEST SUB PUSH2 0xAEC JUMPI PUSH1 0x40 MLOAD PUSH32 0x8C379A000000000000000000000000000000000000000000000000000000000 DUP2 MSTORE PUSH1 0x4 ADD PUSH2 0xAE3 SWAP1 PUSH2 0x16F5 JUMP JUMPDEST PUSH1 0x40 MLOAD DUP1 SWAP2 SUB SWAP1 REVERT JUMPDEST PUSH1 0x3 PUSH1 0x4 DUP2 GT ISZERO PUSH2 0xB00 JUMPI PUSH2 0xAFF PUSH2 0x160E JUMP JUMPDEST JUMPDEST DUP2 PUSH1 0x4 DUP2 GT ISZERO PUSH2 0xB13 JUMPI PUSH2 0xB12 PUSH2 0x160E JUMP JUMPDEST JUMPDEST SUB PUSH2 0xB53 JUMPI PUSH1 0x40 MLOAD PUSH32 0x8C379A000000000000000000000000000000000000000000000000000000000 DUP2 MSTORE PUSH1 0x4 ADD PUSH2 0xB4A SWAP1 PUSH2 0x1787 JUMP JUMPDEST PUSH1 0x40 MLOAD DUP1 SWAP2 SUB SWAP1 REVERT JUMPDEST JUMPDEST POP JUMP JUMPDEST PUSH1 0x0 DUP4 DUP4 DUP4 CHAINID ADDRESS PUSH1 0x40 MLOAD PUSH1 0x20 ADD PUSH2 0xB72 SWAP6 SWAP5 SWAP4 SWAP3 SWAP2 SWAP1 PUSH2 0x17A7 JUMP JUMPDEST PUSH1 0x40 MLOAD PUSH1 0x20 DUP2 DUP4 SUB SUB DUP2 MSTORE SWAP1 PUSH1 0x40 MSTORE DUP1 MLOAD SWAP1 PUSH1 0x20 ADD KECCAK256 SWAP1 POP SWAP4 SWAP3 POP POP POP JUMP JUMPDEST PUSH1 0x0 DUP1 PUSH32 0x7FFFFFFFFFFFFFFFFFFFFFFFFFFFFFFF5D576E7357A4501DDFE92F46681B20A0 DUP4 PUSH1 0x0 SHR GT ISZERO PUSH2 0xBCC JUMPI PUSH1 0x0 PUSH1 0x3 SWAP2 POP SWAP2 POP PUSH2 0xC6A JUMP JUMPDEST PUSH1 0x0 PUSH1 0x1 DUP8 DUP8 DUP8 DUP8 PUSH1 0x40 MLOAD PUSH1 0x0 DUP2 MSTORE PUSH1 0x20 ADD PUSH1 0x40 MSTORE PUSH1 0x40 MLOAD PUSH2 0xBF1 SWAP5 SWAP4 SWAP3 SWAP2 SWAP1 PUSH2 0x1816 JUMP JUMPDEST PUSH1 0x20 PUSH1 0x40 MLOAD PUSH1 0x20 DUP2 SUB SWAP1 DUP1 DUP5 SUB SWAP1 DUP6 GAS STATICCALL ISZERO DUP1 ISZERO PUSH2 0xC13 JUMPI RETURNDATASIZE PUSH1 0x0 DUP1 RETURNDATACOPY RETURNDATASIZE PUSH1 0x0 REVERT JUMPDEST POP POP POP PUSH1 0x20 PUSH1 0x40 MLOAD SUB MLOAD SWAP1 POP PUSH1 0x0 PUSH20 0xFFFFFFFFFFFFFFFFFFFFFFFFFFFFFFFFFFFFFFFF AND DUP2 PUSH20 0xFFFFFFFFFFFFFFFFFFFFFFFFFFFFFFFFFFFFFFFF AND SUB PUSH2 0xC61 JUMPI PUSH1 0x0 PUSH1 0x1 SWAP3 POP SWAP3 POP POP PUSH2 0xC6A JUMP JUMPDEST DUP1 PUSH1 0x0 SWAP3 POP SWAP3 POP POP JUMPDEST SWAP5 POP SWAP5 SWAP3 POP POP POP JUMP JUMPDEST PUSH1 0x0 DUP1 REVERT JUMPDEST PUSH1 0x0 DUP1 REVERT JUMPDEST PUSH1 0x0 DUP1 REVERT JUMPDEST PUSH1 0x0 PUSH1 0xE0 DUP3 DUP5 SUB SLT ISZERO PUSH2 0xC98 JUMPI PUSH2 0xC97 PUSH2 0xC7D JUMP JUMPDEST JUMPDEST DUP2 SWAP1 POP SWAP3 SWAP2 POP POP JUMP JUMPDEST PUSH1 0x0 DUP1 REVERT JUMPDEST PUSH1 0x0 DUP1 REVERT JUMPDEST PUSH1 0x0 DUP1 REVERT JUMPDEST PUSH1 0x0 DUP1 DUP4 PUSH1 0x1F DUP5 ADD SLT PUSH2 0xCC6 JUMPI PUSH2 0xCC5 PUSH2 0xCA1 JUMP JUMPDEST JUMPDEST DUP3 CALLDATALOAD SWAP1 POP PUSH8 0xFFFFFFFFFFFFFFFF DUP2 GT ISZERO PUSH2 0xCE3 JUMPI PUSH2 0xCE2 PUSH2 0xCA6 JUMP JUMPDEST JUMPDEST PUSH1 0x20 DUP4 ADD SWAP2 POP DUP4 PUSH1 0x1 DUP3 MUL DUP4 ADD GT ISZERO PUSH2 0xCFF JUMPI PUSH2 0xCFE PUSH2 0xCAB JUMP JUMPDEST JUMPDEST SWAP3 POP SWAP3 SWAP1 POP JUMP JUMPDEST PUSH1 0x0 DUP1 PUSH1 0x0 PUSH1 0x40 DUP5 DUP7 SUB SLT ISZERO PUSH2 0xD1F JUMPI PUSH2 0xD1E PUSH2 0xC73 JUMP JUMPDEST JUMPDEST PUSH1 0x0 DUP5 ADD CALLDATALOAD PUSH8 0xFFFFFFFFFFFFFFFF DUP2 GT ISZERO PUSH2 0xD3D JUMPI PUSH2 0xD3C PUSH2 0xC78 JUMP JUMPDEST JUMPDEST PUSH2 0xD49 DUP7 DUP3 DUP8 ADD PUSH2 0xC82 JUMP JUMPDEST SWAP4 POP POP PUSH1 0x20 DUP5 ADD CALLDATALOAD PUSH8 0xFFFFFFFFFFFFFFFF DUP2 GT ISZERO PUSH2 0xD6A JUMPI PUSH2 0xD69 PUSH2 0xC78 JUMP JUMPDEST JUMPDEST PUSH2 0xD76 DUP7 DUP3 DUP8 ADD PUSH2 0xCB0 JUMP JUMPDEST SWAP3 POP SWAP3 POP POP SWAP3 POP SWAP3 POP SWAP3 JUMP JUMPDEST PUSH1 0x0 PUSH32 0xFFFFFFFF00000000000000000000000000000000000000000000000000000000 DUP3 AND SWAP1 POP SWAP2 SWAP1 POP JUMP JUMPDEST PUSH2 0xDB7 DUP2 PUSH2 0xD82 JUMP JUMPDEST DUP2 EQ PUSH2 0xDC2 JUMPI PUSH1 0x0 DUP1 REVERT JUMPDEST POP JUMP JUMPDEST PUSH1 0x0 DUP2 CALLDATALOAD SWAP1 POP PUSH2 0xDD4 DUP2 PUSH2 0xDAE JUMP JUMPDEST SWAP3 SWAP2 POP POP JUMP JUMPDEST PUSH1 0x0 PUSH1 0x20 DUP3 DUP5 SUB SLT ISZERO PUSH2 0xDF0 JUMPI PUSH2 0xDEF PUSH2 0xC73 JUMP JUMPDEST JUMPDEST PUSH1 0x0 PUSH2 0xDFE DUP5 DUP3 DUP6 ADD PUSH2 0xDC5 JUMP JUMPDEST SWAP2 POP POP SWAP3 SWAP2 POP POP JUMP JUMPDEST PUSH1 0x0 DUP2 ISZERO ISZERO SWAP1 POP SWAP2 SWAP1 POP JUMP JUMPDEST PUSH2 0xE1C DUP2 PUSH2 0xE07 JUMP JUMPDEST DUP3 MSTORE POP POP JUMP JUMPDEST PUSH1 0x0 PUSH1 0x20 DUP3 ADD SWAP1 POP PUSH2 0xE37 PUSH1 0x0 DUP4 ADD DUP5 PUSH2 0xE13 JUMP JUMPDEST SWAP3 SWAP2 POP POP JUMP JUMPDEST PUSH1 0x0 PUSH1 0x20 DUP3 DUP5 SUB SLT ISZERO PUSH2 0xE53 JUMPI PUSH2 0xE52 PUSH2 0xC73 JUMP JUMPDEST JUMPDEST PUSH1 0x0 DUP3 ADD CALLDATALOAD PUSH8 0xFFFFFFFFFFFFFFFF DUP2 GT ISZERO PUSH2 0xE71 JUMPI PUSH2 0xE70 PUSH2 0xC78 JUMP JUMPDEST JUMPDEST PUSH2 0xE7D DUP5 DUP3 DUP6 ADD PUSH2 0xC82 JUMP JUMPDEST SWAP2 POP POP SWAP3 SWAP2 POP POP JUMP JUMPDEST PUSH1 0x0 DUP2 MLOAD SWAP1 POP SWAP2 SWAP1 POP JUMP JUMPDEST PUSH1 0x0 DUP3 DUP3 MSTORE PUSH1 0x20 DUP3 ADD SWAP1 POP SWAP3 SWAP2 POP POP JUMP JUMPDEST PUSH1 0x0 JUMPDEST DUP4 DUP2 LT ISZERO PUSH2 0xEC0 JUMPI DUP1 DUP3 ADD MLOAD DUP2 DUP5 ADD MSTORE PUSH1 0x20 DUP2 ADD SWAP1 POP PUSH2 0xEA5 JUMP JUMPDEST PUSH1 0x0 DUP5 DUP5 ADD MSTORE POP POP POP POP JUMP JUMPDEST PUSH1 0x0 PUSH1 0x1F NOT PUSH1 0x1F DUP4 ADD AND SWAP1 POP SWAP2 SWAP1 POP JUMP JUMPDEST PUSH1 0x0 PUSH2 0xEE8 DUP3 PUSH2 0xE86 JUMP JUMPDEST PUSH2 0xEF2 DUP2 DUP6 PUSH2 0xE91 JUMP JUMPDEST SWAP4 POP PUSH2 0xF02 DUP2 DUP6 PUSH1 0x20 DUP7 ADD PUSH2 0xEA2 JUMP JUMPDEST PUSH2 0xF0B DUP2 PUSH2 0xECC JUMP JUMPDEST DUP5 ADD SWAP2 POP POP SWAP3 SWAP2 POP POP JUMP JUMPDEST PUSH1 0x0 PUSH1 0x20 DUP3 ADD SWAP1 POP DUP2 DUP2 SUB PUSH1 0x0 DUP4 ADD MSTORE PUSH2 0xF30 DUP2 DUP5 PUSH2 0xEDD JUMP JUMPDEST SWAP1 POP SWAP3 SWAP2 POP POP JUMP JUMPDEST PUSH1 0x0 PUSH20 0xFFFFFFFFFFFFFFFFFFFFFFFFFFFFFFFFFFFFFFFF DUP3 AND SWAP1 POP SWAP2 SWAP1 POP JUMP JUMPDEST PUSH1 0x0 PUSH2 0xF63 DUP3 PUSH2 0xF38 JUMP JUMPDEST SWAP1 POP SWAP2 SWAP1 POP JUMP JUMPDEST PUSH2 0xF73 DUP2 PUSH2 0xF58 JUMP JUMPDEST DUP2 EQ PUSH2 0xF7E JUMPI PUSH1 0x0 DUP1 REVERT JUMPDEST POP JUMP JUMPDEST PUSH1 0x0 DUP2 CALLDATALOAD SWAP1 POP PUSH2 0xF90 DUP2 PUSH2 0xF6A JUMP JUMPDEST SWAP3 SWAP2 POP POP JUMP JUMPDEST PUSH1 0x0 PUSH1 0x20 DUP3 DUP5 SUB SLT ISZERO PUSH2 0xFAC JUMPI PUSH2 0xFAB PUSH2 0xC73 JUMP JUMPDEST JUMPDEST PUSH1 0x0 PUSH2 0xFBA DUP5 DUP3 DUP6 ADD PUSH2 0xF81 JUMP JUMPDEST SWAP2 POP POP SWAP3 SWAP2 POP POP JUMP JUMPDEST PUSH1 0x0 DUP2 SWAP1 POP SWAP2 SWAP1 POP JUMP JUMPDEST PUSH2 0xFD6 DUP2 PUSH2 0xFC3 JUMP JUMPDEST DUP3 MSTORE POP POP JUMP JUMPDEST PUSH1 0x0 PUSH1 0x20 DUP3 ADD SWAP1 POP PUSH2 0xFF1 PUSH1 0x0 DUP4 ADD DUP5 PUSH2 0xFCD JUMP JUMPDEST SWAP3 SWAP2 POP POP JUMP JUMPDEST PUSH1 0x0 PUSH1 0x40 DUP3 ADD SWAP1 POP PUSH2 0x100C PUSH1 0x0 DUP4 ADD DUP6 PUSH2 0xE13 JUMP JUMPDEST DUP2 DUP2 SUB PUSH1 0x20 DUP4 ADD MSTORE PUSH2 0x101E DUP2 DUP5 PUSH2 0xEDD JUMP JUMPDEST SWAP1 POP SWAP4 SWAP3 POP POP POP JUMP JUMPDEST PUSH1 0x0 DUP1 REVERT JUMPDEST PUSH1 0x0 DUP1 REVERT JUMPDEST PUSH1 0x0 DUP1 REVERT JUMPDEST PUSH1 0x0 DUP1 DUP4 CALLDATALOAD PUSH1 0x1 PUSH1 0x20 SUB DUP5 CALLDATASIZE SUB SUB DUP2 SLT PUSH2 0x1053 JUMPI PUSH2 0x1052 PUSH2 0x1027 JUMP JUMPDEST JUMPDEST DUP1 DUP5 ADD SWAP3 POP DUP3 CALLDATALOAD SWAP2 POP PUSH8 0xFFFFFFFFFFFFFFFF DUP3 GT ISZERO PUSH2 0x1075 JUMPI PUSH2 0x1074 PUSH2 0x102C JUMP JUMPDEST JUMPDEST PUSH1 0x20 DUP4 ADD SWAP3 POP PUSH1 0x1 DUP3 MUL CALLDATASIZE SUB DUP4 SGT ISZERO PUSH2 0x1091 JUMPI PUSH2 0x1090 PUSH2 0x1031 JUMP JUMPDEST JUMPDEST POP SWAP3 POP SWAP3 SWAP1 POP JUMP JUMPDEST PUSH1 0x0 DUP2 SWAP1 POP SWAP3 SWAP2 POP POP JUMP JUMPDEST DUP3 DUP2 DUP4 CALLDATACOPY PUSH1 0x0 DUP4 DUP4 ADD MSTORE POP POP POP JUMP JUMPDEST PUSH1 0x0 PUSH2 0x10BF DUP4 DUP6 PUSH2 0x1099 JUMP JUMPDEST SWAP4 POP PUSH2 0x10CC DUP4 DUP6 DUP5 PUSH2 0x10A4 JUMP JUMPDEST DUP3 DUP5 ADD SWAP1 POP SWAP4 SWAP3 POP POP POP JUMP JUMPDEST PUSH1 0x0 PUSH2 0x10E5 DUP3 DUP5 DUP7 PUSH2 0x10B3 JUMP JUMPDEST SWAP2 POP DUP2 SWAP1 POP SWAP4 SWAP3 POP POP POP JUMP JUMPDEST PUSH1 0x0 DUP2 SWAP1 POP SWAP2 SWAP1 POP JUMP JUMPDEST PUSH2 0x1104 DUP2 PUSH2 0x10F1 JUMP JUMPDEST DUP3 MSTORE POP POP JUMP JUMPDEST PUSH2 0x1113 DUP2 PUSH2 0xF58 JUMP JUMPDEST DUP3 MSTORE POP POP JUMP JUMPDEST PUSH1 0x0 PUSH2 0x100 DUP3 ADD SWAP1 POP PUSH2 0x112F PUSH1 0x0 DUP4 ADD DUP12 PUSH2 0x10FB JUMP JUMPDEST PUSH2 0x113C PUSH1 0x20 DUP4 ADD DUP11 PUSH2 0x110A JUMP JUMPDEST PUSH2 0x1149 PUSH1 0x40 DUP4 ADD DUP10 PUSH2 0x110A JUMP JUMPDEST PUSH2 0x1156 PUSH1 0x60 DUP4 ADD DUP9 PUSH2 0xFCD JUMP JUMPDEST PUSH2 0x1163 PUSH1 0x80 DUP4 ADD DUP8 PUSH2 0xFCD JUMP JUMPDEST PUSH2 0x1170 PUSH1 0xA0 DUP4 ADD DUP7 PUSH2 0xFCD JUMP JUMPDEST PUSH2 0x117D PUSH1 0xC0 DUP4 ADD DUP6 PUSH2 0x10FB JUMP JUMPDEST PUSH2 0x118A PUSH1 0xE0 DUP4 ADD DUP5 PUSH2 0xFCD JUMP JUMPDEST SWAP10 SWAP9 POP POP POP POP POP POP POP POP POP JUMP JUMPDEST PUSH1 0x0 DUP3 DUP3 MSTORE PUSH1 0x20 DUP3 ADD SWAP1 POP SWAP3 SWAP2 POP POP JUMP JUMPDEST PUSH32 0x4657443A20726571756573742065787069726564000000000000000000000000 PUSH1 0x0 DUP3 ADD MSTORE POP JUMP JUMPDEST PUSH1 0x0 PUSH2 0x11DE PUSH1 0x14 DUP4 PUSH2 0x1197 JUMP JUMPDEST SWAP2 POP PUSH2 0x11E9 DUP3 PUSH2 0x11A8 JUMP JUMPDEST PUSH1 0x20 DUP3 ADD SWAP1 POP SWAP2 SWAP1 POP JUMP JUMPDEST PUSH1 0x0 PUSH1 0x20 DUP3 ADD SWAP1 POP DUP2 DUP2 SUB PUSH1 0x0 DUP4 ADD MSTORE PUSH2 0x120D DUP2 PUSH2 0x11D1 JUMP JUMPDEST SWAP1 POP SWAP2 SWAP1 POP JUMP JUMPDEST PUSH1 0x0 DUP2 PUSH1 0x60 SHL SWAP1 POP SWAP2 SWAP1 POP JUMP JUMPDEST PUSH1 0x0 PUSH2 0x122C DUP3 PUSH2 0x1214 JUMP JUMPDEST SWAP1 POP SWAP2 SWAP1 POP JUMP JUMPDEST PUSH1 0x0 PUSH2 0x123E DUP3 PUSH2 0x1221 JUMP JUMPDEST SWAP1 POP SWAP2 SWAP1 POP JUMP JUMPDEST PUSH2 0x1256 PUSH2 0x1251 DUP3 PUSH2 0xF58 JUMP JUMPDEST PUSH2 0x1233 JUMP JUMPDEST DUP3 MSTORE POP POP JUMP JUMPDEST PUSH1 0x0 PUSH2 0x1269 DUP3 DUP6 DUP8 PUSH2 0x10B3 JUMP JUMPDEST SWAP2 POP PUSH2 0x1275 DUP3 DUP5 PUSH2 0x1245 JUMP JUMPDEST PUSH1 0x14 DUP3 ADD SWAP2 POP DUP2 SWAP1 POP SWAP5 SWAP4 POP POP POP POP JUMP JUMPDEST PUSH32 0x4E487B7100000000000000000000000000000000000000000000000000000000 PUSH1 0x0 MSTORE PUSH1 0x11 PUSH1 0x4 MSTORE PUSH1 0x24 PUSH1 0x0 REVERT JUMPDEST PUSH1 0x0 PUSH2 0x12C0 DUP3 PUSH2 0xFC3 JUMP JUMPDEST SWAP2 POP PUSH2 0x12CB DUP4 PUSH2 0xFC3 JUMP JUMPDEST SWAP3 POP DUP3 DUP3 ADD SWAP1 POP DUP1 DUP3 GT ISZERO PUSH2 0x12E3 JUMPI PUSH2 0x12E2 PUSH2 0x1286 JUMP JUMPDEST JUMPDEST SWAP3 SWAP2 POP POP JUMP JUMPDEST PUSH1 0x0 PUSH2 0x12F4 DUP3 PUSH2 0xFC3 JUMP JUMPDEST SWAP2 POP PUSH2 0x12FF DUP4 PUSH2 0xFC3 JUMP JUMPDEST SWAP3 POP DUP3 DUP3 MUL PUSH2 0x130D DUP2 PUSH2 0xFC3 JUMP JUMPDEST SWAP2 POP DUP3 DUP3 DIV DUP5 EQ DUP4 ISZERO OR PUSH2 0x1324 JUMPI PUSH2 0x1323 PUSH2 0x1286 JUMP JUMPDEST JUMPDEST POP SWAP3 SWAP2 POP POP JUMP JUMPDEST PUSH32 0x4E487B7100000000000000000000000000000000000000000000000000000000 PUSH1 0x0 MSTORE PUSH1 0x12 PUSH1 0x4 MSTORE PUSH1 0x24 PUSH1 0x0 REVERT JUMPDEST PUSH1 0x0 PUSH2 0x1365 DUP3 PUSH2 0xFC3 JUMP JUMPDEST SWAP2 POP PUSH2 0x1370 DUP4 PUSH2 0xFC3 JUMP JUMPDEST SWAP3 POP DUP3 PUSH2 0x1380 JUMPI PUSH2 0x137F PUSH2 0x132B JUMP JUMPDEST JUMPDEST DUP3 DUP3 DIV SWAP1 POP SWAP3 SWAP2 POP POP JUMP JUMPDEST PUSH32 0x4657443A20696E73756666696369656E74206761730000000000000000000000 PUSH1 0x0 DUP3 ADD MSTORE POP JUMP JUMPDEST PUSH1 0x0 PUSH2 0x13C1 PUSH1 0x15 DUP4 PUSH2 0x1197 JUMP JUMPDEST SWAP2 POP PUSH2 0x13CC DUP3 PUSH2 0x138B JUMP JUMPDEST PUSH1 0x20 DUP3 ADD SWAP1 POP SWAP2 SWAP1 POP JUMP JUMPDEST PUSH1 0x0 PUSH1 0x20 DUP3 ADD SWAP1 POP DUP2 DUP2 SUB PUSH1 0x0 DUP4 ADD MSTORE PUSH2 0x13F0 DUP2 PUSH2 0x13B4 JUMP JUMPDEST SWAP1 POP SWAP2 SWAP1 POP JUMP JUMPDEST PUSH1 0x0 PUSH2 0x1402 DUP3 PUSH2 0xE86 JUMP JUMPDEST PUSH2 0x140C DUP2 DUP6 PUSH2 0x1099 JUMP JUMPDEST SWAP4 POP PUSH2 0x141C DUP2 DUP6 PUSH1 0x20 DUP7 ADD PUSH2 0xEA2 JUMP JUMPDEST DUP1 DUP5 ADD SWAP2 POP POP SWAP3 SWAP2 POP POP JUMP JUMPDEST PUSH1 0x0 PUSH2 0x1434 DUP3 DUP5 PUSH2 0x13F7 JUMP JUMPDEST SWAP2 POP DUP2 SWAP1 POP SWAP3 SWAP2 POP POP JUMP JUMPDEST PUSH32 0x4657443A206E6F6E6365206D69736D6174636800000000000000000000000000 PUSH1 0x0 DUP3 ADD MSTORE POP JUMP JUMPDEST PUSH1 0x0 PUSH2 0x1475 PUSH1 0x13 DUP4 PUSH2 0x1197 JUMP JUMPDEST SWAP2 POP PUSH2 0x1480 DUP3 PUSH2 0x143F JUMP JUMPDEST PUSH1 0x20 DUP3 ADD SWAP1 POP SWAP2 SWAP1 POP JUMP JUMPDEST PUSH1 0x0 PUSH1 0x20 DUP3 ADD SWAP1 POP DUP2 DUP2 SUB PUSH1 0x0 DUP4 ADD MSTORE PUSH2 0x14A4 DUP2 PUSH2 0x1468 JUMP JUMPDEST SWAP1 POP SWAP2 SWAP1 POP JUMP JUMPDEST PUSH32 0x4657443A207369676E6174757265206D69736D61746368000000000000000000 PUSH1 0x0 DUP3 ADD MSTORE POP JUMP JUMPDEST PUSH1 0x0 PUSH2 0x14E1 PUSH1 0x17 DUP4 PUSH2 0x1197 JUMP JUMPDEST SWAP2 POP PUSH2 0x14EC DUP3 PUSH2 0x14AB JUMP JUMPDEST PUSH1 0x20 DUP3 ADD SWAP1 POP SWAP2 SWAP1 POP JUMP JUMPDEST PUSH1 0x0 PUSH1 0x20 DUP3 ADD SWAP1 POP DUP2 DUP2 SUB PUSH1 0x0 DUP4 ADD MSTORE PUSH2 0x1510 DUP2 PUSH2 0x14D4 JUMP JUMPDEST SWAP1 POP SWAP2 SWAP1 POP JUMP JUMPDEST PUSH1 0x0 PUSH2 0x1522 DUP3 PUSH2 0xFC3 JUMP JUMPDEST SWAP2 POP PUSH32 0xFFFFFFFFFFFFFFFFFFFFFFFFFFFFFFFFFFFFFFFFFFFFFFFFFFFFFFFFFFFFFFFF DUP3 SUB PUSH2 0x1554 JUMPI PUSH2 0x1553 PUSH2 0x1286 JUMP JUMPDEST JUMPDEST PUSH1 0x1 DUP3 ADD SWAP1 POP SWAP2 SWAP1 POP JUMP JUMPDEST PUSH1 0x0 DUP2 SWAP1 POP SWAP3 SWAP2 POP POP JUMP JUMPDEST PUSH32 0x1901000000000000000000000000000000000000000000000000000000000000 PUSH1 0x0 DUP3 ADD MSTORE POP JUMP JUMPDEST PUSH1 0x0 PUSH2 0x15A0 PUSH1 0x2 DUP4 PUSH2 0x155F JUMP JUMPDEST SWAP2 POP PUSH2 0x15AB DUP3 PUSH2 0x156A JUMP JUMPDEST PUSH1 0x2 DUP3 ADD SWAP1 POP SWAP2 SWAP1 POP JUMP JUMPDEST PUSH1 0x0 DUP2 SWAP1 POP SWAP2 SWAP1 POP JUMP JUMPDEST PUSH2 0x15D1 PUSH2 0x15CC DUP3 PUSH2 0x10F1 JUMP JUMPDEST PUSH2 0x15B6 JUMP JUMPDEST DUP3 MSTORE POP POP JUMP JUMPDEST PUSH1 0x0 PUSH2 0x15E2 DUP3 PUSH2 0x1593 JUMP JUMPDEST SWAP2 POP PUSH2 0x15EE DUP3 DUP6 PUSH2 0x15C0 JUMP JUMPDEST PUSH1 0x20 DUP3 ADD SWAP2 POP PUSH2 0x15FE DUP3 DUP5 PUSH2 0x15C0 JUMP JUMPDEST PUSH1 0x20 DUP3 ADD SWAP2 POP DUP2 SWAP1 POP SWAP4 SWAP3 POP POP POP JUMP JUMPDEST PUSH32 0x4E487B7100000000000000000000000000000000000000000000000000000000 PUSH1 0x0 MSTORE PUSH1 0x21 PUSH1 0x4 MSTORE PUSH1 0x24 PUSH1 0x0 REVERT JUMPDEST PUSH32 0x45434453413A20696E76616C6964207369676E61747572650000000000000000 PUSH1 0x0 DUP3 ADD MSTORE POP JUMP JUMPDEST PUSH1 0x0 PUSH2 0x1673 PUSH1 0x18 DUP4 PUSH2 0x1197 JUMP JUMPDEST SWAP2 POP PUSH2 0x167E DUP3 PUSH2 0x163D JUMP JUMPDEST PUSH1 0x20 DUP3 ADD SWAP1 POP SWAP2 SWAP1 POP JUMP JUMPDEST PUSH1 0x0 PUSH1 0x20 DUP3 ADD SWAP1 POP DUP2 DUP2 SUB PUSH1 0x0 DUP4 ADD MSTORE PUSH2 0x16A2 DUP2 PUSH2 0x1666 JUMP JUMPDEST SWAP1 POP SWAP2 SWAP1 POP JUMP JUMPDEST PUSH32 0x45434453413A20696E76616C6964207369676E6174757265206C656E67746800 PUSH1 0x0 DUP3 ADD MSTORE POP JUMP JUMPDEST PUSH1 0x0 PUSH2 0x16DF PUSH1 0x1F DUP4 PUSH2 0x1197 JUMP JUMPDEST SWAP2 POP PUSH2 0x16EA DUP3 PUSH2 0x16A9 JUMP JUMPDEST PUSH1 0x20 DUP3 ADD SWAP1 POP SWAP2 SWAP1 POP JUMP JUMPDEST PUSH1 0x0 PUSH1 0x20 DUP3 ADD SWAP1 POP DUP2 DUP2 SUB PUSH1 0x0 DUP4 ADD MSTORE PUSH2 0x170E DUP2 PUSH2 0x16D2 JUMP JUMPDEST SWAP1 POP SWAP2 SWAP1 POP JUMP JUMPDEST PUSH32 0x45434453413A20696E76616C6964207369676E6174757265202773272076616C PUSH1 0x0 DUP3 ADD MSTORE PUSH32 0x7565000000000000000000000000000000000000000000000000000000000000 PUSH1 0x20 DUP3 ADD MSTORE POP JUMP JUMPDEST PUSH1 0x0 PUSH2 0x1771 PUSH1 0x22 DUP4 PUSH2 0x1197 JUMP JUMPDEST SWAP2 POP PUSH2 0x177C DUP3 PUSH2 0x1715 JUMP JUMPDEST PUSH1 0x40 DUP3 ADD SWAP1 POP SWAP2 SWAP1 POP JUMP JUMPDEST PUSH1 0x0 PUSH1 0x20 DUP3 ADD SWAP1 POP DUP2 DUP2 SUB PUSH1 0x0 DUP4 ADD MSTORE PUSH2 0x17A0 DUP2 PUSH2 0x1764 JUMP JUMPDEST SWAP1 POP SWAP2 SWAP1 POP JUMP JUMPDEST PUSH1 0x0 PUSH1 0xA0 DUP3 ADD SWAP1 POP PUSH2 0x17BC PUSH1 0x0 DUP4 ADD DUP9 PUSH2 0x10FB JUMP JUMPDEST PUSH2 0x17C9 PUSH1 0x20 DUP4 ADD DUP8 PUSH2 0x10FB JUMP JUMPDEST PUSH2 0x17D6 PUSH1 0x40 DUP4 ADD DUP7 PUSH2 0x10FB JUMP JUMPDEST PUSH2 0x17E3 PUSH1 0x60 DUP4 ADD DUP6 PUSH2 0xFCD JUMP JUMPDEST PUSH2 0x17F0 PUSH1 0x80 DUP4 ADD DUP5 PUSH2 0x110A JUMP JUMPDEST SWAP7 SWAP6 POP POP POP POP POP POP JUMP JUMPDEST PUSH1 0x0 PUSH1 0xFF DUP3 AND SWAP1 POP SWAP2 SWAP1 POP JUMP JUMPDEST PUSH2 0x1810 DUP2 PUSH2 0x17FA JUMP JUMPDEST DUP3 MSTORE POP POP JUMP JUMPDEST PUSH1 0x0 PUSH1 0x80 DUP3 ADD SWAP1 POP PUSH2 0x182B PUSH1 0x0 DUP4 ADD DUP8 PUSH2 0x10FB JUMP JUMPDEST PUSH2 0x1838 PUSH1 0x20 DUP4 ADD DUP7 PUSH2 0x1807 JUMP JUMPDEST PUSH2 0x1845 PUSH1 0x40 DUP4 ADD DUP6 PUSH2 0x10FB JUMP JUMPDEST PUSH2 0x1852 PUSH1 0x60 DUP4 ADD DUP5 PUSH2 0x10FB JUMP JUMPDEST SWAP6 SWAP5 POP POP POP POP POP JUMP INVALID LOG2 PUSH5 0x6970667358 0x22 SLT KECCAK256 0xCC DIV SWAP1 DUP13 DUP4 0xB0 ADD JUMPI BASEFEE 0x29 0xF6 0xF9 PUSH22 0x9B00114C0F7420CEA657957FC84BB86443B4A064736F PUSH13 0x63430008110033000000000000 "
				},
				"gasEstimates": {
					"creation": {
						"codeDepositCost": "1257800",
						"executionCost": "infinite",
						"totalCost": "infinite"
					},
					"external": {
						"_getEncoded((address,address,uint256,uint256,uint256,bytes,uint256))": "infinite",
						"execute((address,address,uint256,uint256,uint256,bytes,uint256),bytes)": "infinite",
						"getNonce(address)": "2885",
						"supportsInterface(bytes4)": "727",
						"verify((address,address,uint256,uint256,uint256,bytes,uint256),bytes)": "infinite"
					},
					"internal": {
						"_verifyAndUpdateNonce(struct IForwarder.ForwardRequest calldata)": "infinite",
						"_verifyNonce(struct IForwarder.ForwardRequest calldata)": "infinite",
						"_verifySig(struct IForwarder.ForwardRequest calldata,bytes calldata)": "infinite"
					}
				},
				"methodIdentifiers": {
					"_getEncoded((address,address,uint256,uint256,uint256,bytes,uint256))": "269fb1c7",
					"execute((address,address,uint256,uint256,uint256,bytes,uint256),bytes)": "44d46c8e",
					"getNonce(address)": "2d0335ab",
					"supportsInterface(bytes4)": "01ffc9a7",
					"verify((address,address,uint256,uint256,uint256,bytes,uint256),bytes)": "019fe885"
				}
			},
			"storageLayout": {
				"storage": [
					{
						"astId": 1622,
						"contract": "contracts/Forwarder.sol:Forwarder",
						"label": "nonces",
						"offset": 0,
						"slot": "0",
						"type": "t_mapping(t_address,t_uint256)"
					}
				],
				"types": {
					"t_address": {
						"encoding": "inplace",
						"label": "address",
						"numberOfBytes": "20"
					},
					"t_mapping(t_address,t_uint256)": {
						"encoding": "mapping",
						"key": "t_address",
						"label": "mapping(address => uint256)",
						"numberOfBytes": "32",
						"value": "t_uint256"
					},
					"t_uint256": {
						"encoding": "inplace",
						"label": "uint256",
						"numberOfBytes": "32"
					}
				}
			},
			"userdoc": {
				"kind": "user",
				"methods": {
					"_getEncoded((address,address,uint256,uint256,uint256,bytes,uint256))": {
						"notice": "Creates a byte array that is a valid ABI encoding of a request of a `RequestType` type. See `execute()`."
					},
					"execute((address,address,uint256,uint256,uint256,bytes,uint256),bytes)": {
						"notice": "Executes a transaction specified by the `ForwardRequest`. The transaction is first verified and then executed. The success flag and returned bytes array of the `CALL` are returned as-is. This method would revert only in case of a verification error. All the target errors are reported using the returned success flag and returned bytes array."
					},
					"verify((address,address,uint256,uint256,uint256,bytes,uint256),bytes)": {
						"notice": "Verify the transaction is valid and can be executed. Implementations must validate the signature and the nonce of the request are correct. Does not revert and returns successfully if the input is valid. Reverts if any validation has failed. For instance, if either signature or nonce are incorrect. Reverts if `domainSeparator` or `requestTypeHash` are not registered as well."
					}
				},
				"notice": "This implementation of the `IForwarder` interface uses ERC-712 signatures and stored nonces for verification.",
				"version": 1
			}
		}
	}
}