{
	"data": {
		"bytecode": {
			"linkReferences": {},
			"object": "60c060405260405180602001604052806f53edb3e7673341e0a9be488877c5c5726fffffffffffffffffffffffffffffffff16815250600690600162000047929190620001ce565b5060405180604001604052807f1ebfb986fbac5113f8e2c72286fe9362f8e7d211dbc68227a468d7b919e7500381526020017f10ec38f11baacad5535525bbe8e343074a483c051aa1616266f3b1df3fb7d2048152506007906002620000af92919062000227565b50348015620000bd57600080fd5b5060405162008a7a38038062008a7a8339818101604052810190620000e39190620002f5565b8060016000819055508073ffffffffffffffffffffffffffffffffffffffff1660808173ffffffffffffffffffffffffffffffffffffffff168152505050600073ffffffffffffffffffffffffffffffffffffffff168173ffffffffffffffffffffffffffffffffffffffff160362000193576040517f08c379a00000000000000000000000000000000000000000000000000000000081526004016200018a9062000388565b60405180910390fd5b8073ffffffffffffffffffffffffffffffffffffffff1660a08173ffffffffffffffffffffffffffffffffffffffff168152505050620003aa565b826001810192821562000214579160200282015b828111156200021357825182906fffffffffffffffffffffffffffffffff16905591602001919060010190620001e2565b5b5090506200022391906200026c565b5090565b826002810192821562000259579160200282015b82811115620002585782518255916020019190600101906200023b565b5b5090506200026891906200026c565b5090565b5b80821115620002875760008160009055506001016200026d565b5090565b600080fd5b600073ffffffffffffffffffffffffffffffffffffffff82169050919050565b6000620002bd8262000290565b9050919050565b620002cf81620002b0565b8114620002db57600080fd5b50565b600081519050620002ef81620002c4565b92915050565b6000602082840312156200030e576200030d6200028b565b5b60006200031e84828501620002de565b91505092915050565b600082825260208201905092915050565b7f4656323131000000000000000000000000000000000000000000000000000000600082015250565b60006200037060058362000327565b91506200037d8262000338565b602082019050919050565b60006020820190508181036000830152620003a38162000361565b9050919050565b60805160a0516186aa620003d0600039600061081c015260006104a201526186aa6000f3fe60806040523480156200001157600080fd5b5060043610620000c45760003560e01c80637a21695d116200007b5780637a21695d14620001f9578063831e4ae01462000219578063a9ec656a146200024f578063bad9744d1462000285578063bf0392c214620002bb578063cb9f5b6014620002f157620000c4565b806306fdde0314620000c957806314afd79e14620000eb578063183aaa391462000121578063216731511462000157578063572b6c05146200018d5780636392a51f14620001c3575b600080fd5b620000d362000327565b604051620000e29190620026f0565b60405180910390f35b6200010960048036038101906200010391906200278d565b62000344565b604051620001189190620027d0565b60405180910390f35b6200013f60048036038101906200013991906200297a565b620003ad565b6040516200014e919062002a7b565b60405180910390f35b6200017560048036038101906200016f91906200297a565b62000479565b60405162000184919062002ab0565b60405180910390f35b620001ab6004803603810190620001a591906200278d565b6200049e565b604051620001ba919062002aea565b60405180910390f35b620001e16004803603810190620001db91906200278d565b620004f6565b604051620001f0919062002ab0565b60405180910390f35b62000217600480360381019062000211919062002b93565b6200053f565b005b62000237600480360381019062000231919062002ce0565b620008fc565b60405162000246919062002aea565b60405180910390f35b6200026d60048036038101906200026791906200297a565b62001bb0565b6040516200027c919062002de4565b60405180910390f35b620002a360048036038101906200029d919062002e01565b62001c45565b604051620002b2919062002f73565b60405180910390f35b620002d96004803603810190620002d391906200278d565b62001e4d565b604051620002e8919062002fdf565b60405180910390f35b6200030f600480360381019062000309919062002ffc565b62001f12565b6040516200031e919062002f73565b60405180910390f35b604051806060016040528060258152602001620086506025913981565b6000600260008373ffffffffffffffffffffffffffffffffffffffff1673ffffffffffffffffffffffffffffffffffffffff16815260200190815260200160002060009054906101000a900473ffffffffffffffffffffffffffffffffffffffff169050919050565b60606000600167ffffffffffffffff811115620003cf57620003ce620027f2565b5b604051908082528060200260200182016040528015620003fe5781602001602082028036833780820191505090505b50905060005b60018110156200046f578381600f6200041e919062003072565b60268110620004325762000431620030ad565b5b60200201518282815181106200044d576200044c620030ad565b5b60200260200101818152505080806200046690620030dc565b91505062000404565b5080915050919050565b600081602560268110620004925762000491620030ad565b5b60200201519050919050565b60007f000000000000000000000000000000000000000000000000000000000000000073ffffffffffffffffffffffffffffffffffffffff168273ffffffffffffffffffffffffffffffffffffffff16149050919050565b6000600160008373ffffffffffffffffffffffffffffffffffffffff1673ffffffffffffffffffffffffffffffffffffffff168152602001908152602001600020549050919050565b803073ffffffffffffffffffffffffffffffffffffffff1663831e4ae082600001836040018460c00185610100016040518563ffffffff1660e01b81526004016200058e949392919062003228565b602060405180830381865afa158015620005ac573d6000803e3d6000fd5b505050506040513d601f19601f82011682018060405250810190620005d29190620032a8565b62000614576040517f08c379a00000000000000000000000000000000000000000000000000000000081526004016200060b906200332a565b60405180910390fd5b81610100016026806020026040519081016040528092919082602660200280828437600081840152601f19601f82011690508083019250505050505060006200065d82620003ad565b905060066040516020016200067391906200345a565b60405160208183030381529060405280519060200120816040516020016200069c9190620034ec565b6040516020818303038152906040528051906020012014620006f5576040517f08c379a0000000000000000000000000000000000000000000000000000000008152600401620006ec9062003555565b60405180910390fd5b83610100016026806020026040519081016040528092919082602660200280828437600081840152601f19601f82011690508083019250505050505060006200073e8262001bb0565b90506007600060028110620007585762000757620030ad565b5b015481600060028110620007715762000770620030ad565b5b6020020151148015620007b757506007600160028110620007975762000796620030ad565b5b015481600160028110620007b057620007af620030ad565b5b6020020151145b620007f9576040517f08c379a0000000000000000000000000000000000000000000000000000000008152600401620007f090620035c7565b60405180910390fd5b62000803620020e5565b60006200080f62002137565b905060008d8d8d8d8d8d877f00000000000000000000000000000000000000000000000000000000000000006040516200084990620025ef565b6200085c9897969594939291906200362b565b604051809103906000f08015801562000879573d6000803e3d6000fd5b50905062000888828262002170565b8073ffffffffffffffffffffffffffffffffffffffff168273ffffffffffffffffffffffffffffffffffffffff167fc5004d0de103a4ce335ec7dfbb178f69e81ecd773d402c331dafc66c465a020a60405160405180910390a35050620008ee62002525565b505050505050505050505050565b600062001924565b7f30644e72e131a029b85045b68181585d97816a916871ca8d3c208c16d87cfd47811062000936576000805260206000f35b50565b600060405183815284602082015285604082015260408160608360076107d05a03fa9150816200096d576000805260206000f35b825160408201526020830151606082015260408360808360066107d05a03fa9150816200099e576000805260206000f35b505050505050565b600060808601600087017f0f9006886f6f20ff507615a18b97e3c01a4014043c38b27cde5a7cdf7dab0d7f81527f1e92b1b255ac9824dd1ee75e42c910e057e6dd572de9aad0494189943d373eb1602082015262000a4b60008801357f2cb53751205cf78a9cf5e100f215c610367178554c581286e82ce6894d769ee17f08c033375f7b9b4d4d21ab61cf95398b85ceab592496fac5e0278c847e6742768462000939565b62000a9d60208801357f052490713e636a97e1fb031b2d3384c4ab2d6f6ed3ac9f459fac2d2ba4a1b2e07f01fd7cd23534b84d17783c31e441aa2eb95a050b9127e37a9f5587a1751f71eb8462000939565b62000aef60408801357f256616621649a845cb66babd1f676ba44d689e683eb7eb53374e48b8e4c409b17f0b228257ad0859000e38bdf38ff787e6b829b3cd0040ab92164d6171f3b085ea8462000939565b62000b4160608801357f186e961f4c05f1671f7994e4500382eefc07ea1ddc6a5a1a60f6ee347c7be0577f2979d724649fc184f1091abdedb64ea58401b0c0e54e9480a1c2ef5601c087e08462000939565b62000b9360808801357f27081b7a953c3790bf751674a50a23821e7f3841d7b0418e61b5277d6aaa7ccc7f1fd8ffd81e555806ffdc9e0f034c1373ae012499e7e67d5edc01582790d409938462000939565b62000be560a08801357f0e82363237a4dc55526e001eb1d695c3e9039986e9a2373455ba4b570acc72647f13498910321d23ea90b409e45e90c40e837c70eeffd5ca85a02eccbceade6b538462000939565b62000c3760c08801357f2e2315c45313e02591ba43319399b74bedd9ced2793f602f6b22eafe003f8b4a7f203a8f7d111ad941e485f2692c256680b752edc3cd8ccd92e620cf17ff3534d28462000939565b62000c8960e08801357f1e86fb929660fdaa69f10be5714651ed0de3dfd49f06238334f937d9d3e2733f7f21564b1e9db2b247e0921254e9f0f75e3fcbe2d1d30a202b2be65e4b18a152e08462000939565b62000cdc6101008801357f016ec5dcb66e609a8d89e711444d32e586f662354e41084e2888ebb97f5b67227f1a71bfa4c37985b56863021a5c26e1a561cdd4cfa2f1aa9327f632b4670f52428462000939565b62000d2f6101208801357f1831182339eb45624402af0e2887a9a93b33abc52c8d50096aca373449396cd67f15e1f2d6b38cae9960aceae8d832067aac43565737b79c4875b6dd7a67d4bfc98462000939565b62000d826101408801357f05dd559259952daad5ad52f86970c2fa050974d317cc2ad04dd58f59ecbc7e787f3020cdde5eb7df9c7afd526edb333a11dcdb1f271e3e7d31dac1ad0ddc7b75538462000939565b62000dd56101608801357f1f63433f4731866908a7fdd84e9a6a9cc5584c8e9a6c9541183c17e018660f017f176401669c60e015427c97b4f4e756e9b12a249fbc767240a1b95b6e90339af88462000939565b62000e286101808801357f1becf90ef08f14887607386cf5c4ae46eac76cc93f9b28e3dc6720f2a8636f727f266d92bb0c7cf54c13320ec43b304aae7c1e68ab8c633f6bc079beca7b83b8a88462000939565b62000e7b6101a08801357f0f16bca08d7672c2c6a70b097f780d92cb6abe71231530ab38be47ec4bb9f0657f1ecef5129f49f6c4f70856db2437c3342d840ef55e7f674431b39235bb32a2e58462000939565b62000ece6101c08801357f0e57ec4267b4df8c79888d886080dddd7330233a9ea5489dbe03a388741adc657f0f8bf7735da92118f10b840163fc142a2f8c35c5daf732d0375f30ec021c38228462000939565b62000f206101e08801357f25d3c509d8f46e27ef324e20dad1befe8f5ef4c5698065d8b2ec025b80a4bdb97e128ae85c76fbc1214b05cc94acb1a72e3f1fc009250a9a7c3eb907e1aaab4a8462000939565b62000f736102008801357f27529cf8c93cd529763ffa29d7b1b0bb845b2e4ee836bfa6fdc2a3f295a2a2a47f0b61bd21284bfb3849df98447bba37fd83979043923df5a5a1e2313f6c934fe78462000939565b62000fc66102208801357f1d0690e56fd4ebdbeddc2c36d146a581f1bada3459fc0d22e6cf3a879d8e0bb27f2a4c8d4ce173db6c3151ff95771e5bc600454ba8d8e77d73d691d3b788f1547c8462000939565b620010196102408801357f2197d9057bcd8512d8bd10d708f9b9b983e30aa4206d0d298b1bfdb22c03af0d7f1f91c262234db447c7a42e2ac865dfc25173698c81f7150c1fc6e3f5215251748462000939565b6200106c6102608801357f0ccf58b5f8b38c4fb71107eb3141fd4cd8835c1ac98ce069d17f483fda4902137f160261b562bb1c2e1adfbe16213ab10f1d65a9af797ff9fdf33cbaffdd8ff14a8462000939565b620010bf6102808801357f06070cd76564f60c5cd3189dfd49e1aed642613d7d2361e1a8e522fa39e2139b7f06d6cb60a85a184ed8560777b4d6ea19d81cb7a5c1f2dc6a485edc4ceb40a2608462000939565b620011126102a08801357f2fc55313fc9e16e0dda7103536e846ee999347ed86ad019229f031a19ed4634c7f0baae891783d92c0d64d955d136cbcebb2e38ae09dbfde150feee3c0b882a8658462000939565b620011656102c08801357f1d7c06c0d99ac359b5ef4753b1bf87d1a8fcffe2ce8cc05e92f39f1d027f43a47f065f3215077f26963b7171c9ff320db50fde64fb3dd2992595c11981b0bda98b8462000939565b620011b86102e08801357f06fead1c35303d414ab4af9fda1e1fd929ef117d2cb5da0efc04f42bc9c6f0bb7f2484e7bd73447c5f7ce18f9df35f68977544ba54ba13a30555bbc0c11a8a427a8462000939565b6200120b6103008801357f1a2f48b9b4d7d54e7533ecce0c24385e6a2a65a9f073da49b169aa83444a2c787f2f68633a8f3f177d4be86b9e27b768b50cce1a9e304d44055081d1cf878c922d8462000939565b6200125e6103208801357f2a74eb84308bc8b3e745cb7869a3301e4f7c6376639d186606ff9a27bad8cbd07f13ec3d5bd56285ef6ad6950716731c0347193d8cadd2b24f33b0bc49ea8b00278462000939565b620012b16103408801357f04a3a7a4b18f2e65b78613d067c00fc8e083e60aa927d230047343e15570c1647f1b27af4b6e4052e4c2820aa710903fc054cc14f34e5515d98f9db79108e7197e8462000939565b620013046103608801357f0a6a46ce4ff2fd7ec6b6bff4233f44cac59f12e27b2964aa4804a67b9cc179347f0466b278eb0e5e3a1117c981ee45eaa3fc9b99a65422bafc1ab3b2d35b25cb178462000939565b620013576103808801357f2a0a97c04405a1f7fef7a27e4055bffc61bfa9213790043f44a58c97808466cd7f2d02b829f9fcf0d926ff84f19acd70edd1e3cebcb3d8992d08bb9abf65cc0b5a8462000939565b620013aa6103a08801357f199dc24b47a01774b2ca14c6ebb1d6dbefd68f2910cea07a6f52a39a51e821b37f2e2acca1c520dbc0c6669c66d83c51d43ff7623e6e47e8b682b4b53c27fbee548462000939565b620013fd6103c08801357f10d9be99903ae31c2e662af507aeac7734dea024cdfca7d206aa20a47b893e707f15d021f30dff2805c0c2699359e2c1e1fd31ccaf156d2d38bbc1e1e2b42d91f18462000939565b620014506103e08801357f182f3ab3a4ff98f3885bd016f76eeec476ba1b76c323b1653ef6b80768a5a16b7f1f03120f3f56b9035896158416bc21b1b55938ca68811e0713ab85d2feee2b3e8462000939565b620014a36104008801357f0f86d0b5c22dce1b3919696027d8a6e866726b44893e19cf1384544d66758f6b7f1218fcad9b211671bc8484d52d665df07d2a87fdce5e2df8c05c643a627a53218462000939565b620014f66104208801357f29feae1b5b40d3a967d3696b9503cececda9980a7a0b51e3386778862673abd67f19abd3b165a28e010c686149f039ea919508d9373aca3096fe6fee3e63717a6e8462000939565b620015486104408801357f2c3c0a78a37f4cd21f164ffd0133f5d4cb2c0ad3ca4ce260a04930dac48cc5207e7169c644575f01b354a6f7633c7be48066117f6add439b6f745525017ac9c58462000939565b6200159a6104608801357f0b793cba68e2710afcdb131342860cea217a60ab74f3f49bcf10bbf9ad78533b7eb9e02b1890acc5f73ac202170eeb3d99ab5d849179db2a443e20d5d71cfeb08462000939565b620015ed6104808801357f06f371ff234dbbe385a7b198ec02fe2c3114696d09a9baacb27c91f2bedd20ae7f0d4adb8a04cae83cb1cd6867a50b8bb4e6f506b4f76de88d66188a2caeee25fb8462000939565b620016406104a08801357f2274d3006c7891d6ffa5005462d890c9a3f06c2740684f17d98f4fc749dc04de7f0e38eb2cc3fd05d81d7991331e43a9cb3a39825b841d3abe9fbba1d5026944548462000939565b833582527f30644e72e131a029b85045b68181585d97816a916871ca8d3c208c16d87cfd4760208501357f30644e72e131a029b85045b68181585d97816a916871ca8d3c208c16d87cfd4703066020830152843560408301526020850135606083015260408501356080830152606085013560a08301527f2d4d9aa7e302d9df41749d5507949d05dbea33fbb16c643b22f599a2be6df2e260c08301527f14bedd503c37ceb061d8ec60209fe345ce89830a19230301f076caff004d192660e08301527f0967032fcbf776d1afc985f88877f182d38480a653f2decaa9794cbc3bf3060c6101008301527f0e187847ad4c798374d0d6732bf501847dd68bc0e071241e0213bc7fc13db7ab6101208301527f304cfbd1e08a704a99f5e847d93f8c3caafddec46b7a0d379da69a4d112346a76101408301527f1739c1b1a457a8c7313123d24d2f9192f896b7c63eea05a9d57f06547ad0cec8610160830152600088015161018083015260206000018801516101a08301527f198e9393920d483a7260bfb731fb5d25f1aa493335a9e71297e485b7aef312c26101c08301527f1800deef121f1e76426a00665e5c4479674322d4f75edadd46debd5cd992f6ed6101e08301527f090689d0585ff075ec9e99ad690c3395bc4b313370b38ef355acdadcd122975b6102008301527f12c85ea5db8c6deb4aab71808dcb408fe3d1e7690c43d37b4ce6cc0166fa7daa610220830152853561024083015260208601356102608301527f0a99859aa8393a5eca66946b5015eaa847991f8bc375aa6cf49fa75656c614a66102808301527f040455d90d2400b3bccf9ce7dcf376258d8a89bfef69a359795ee559e971cb436102a08301527f0aa97e6e93aadcbb21d5b5e193976fc8edea5b4e5400d438ee722ce8b12416bf6102c08301527f1df147cf091a2b6e12bec09ea95cf9d90d8684d8c987b3041b6c08724a262ad26102e08301526020826103008460086107d05a03fa82518116935050505095945050505050565b60405161038081016040526200193e600084013562000904565b6200194d602084013562000904565b6200195c604084013562000904565b6200196b606084013562000904565b6200197a608084013562000904565b6200198960a084013562000904565b6200199860c084013562000904565b620019a760e084013562000904565b620019b761010084013562000904565b620019c761012084013562000904565b620019d761014084013562000904565b620019e761016084013562000904565b620019f761018084013562000904565b62001a076101a084013562000904565b62001a176101c084013562000904565b62001a276101e084013562000904565b62001a3761020084013562000904565b62001a4761022084013562000904565b62001a5761024084013562000904565b62001a6761026084013562000904565b62001a7761028084013562000904565b62001a876102a084013562000904565b62001a976102c084013562000904565b62001aa76102e084013562000904565b62001ab761030084013562000904565b62001ac761032084013562000904565b62001ad761034084013562000904565b62001ae761036084013562000904565b62001af761038084013562000904565b62001b076103a084013562000904565b62001b176103c084013562000904565b62001b276103e084013562000904565b62001b3761040084013562000904565b62001b4761042084013562000904565b62001b5761044084013562000904565b62001b6761046084013562000904565b62001b7761048084013562000904565b62001b876104a084013562000904565b62001b976104c084013562000904565b62001ba6818486888a620009a6565b8060005260206000f35b62001bba620025fd565b62001bc4620025fd565b82600d6026811062001bdb5762001bda620030ad565b5b60200201518160006002811062001bf75762001bf6620030ad565b5b60200201818152505082600e6026811062001c175762001c16620030ad565b5b60200201518160016002811062001c335762001c32620030ad565b5b60200201818152505080915050919050565b6060600062001c5485620004f6565b905060008062001c668686856200252f565b915091506000828262001c7a9190620036a3565b67ffffffffffffffff81111562001c965762001c95620027f2565b5b60405190808252806020026020018201604052801562001cd357816020015b62001cbf6200261f565b81526020019060019003908162001cb55790505b50905060008390505b8281101562001e3e5760056000600360008c73ffffffffffffffffffffffffffffffffffffffff1673ffffffffffffffffffffffffffffffffffffffff168152602001908152602001600020600084815260200190815260200160002060009054906101000a900473ffffffffffffffffffffffffffffffffffffffff1673ffffffffffffffffffffffffffffffffffffffff1673ffffffffffffffffffffffffffffffffffffffff1681526020019081526020016000206040518060600160405290816000820160009054906101000a900473ffffffffffffffffffffffffffffffffffffffff1673ffffffffffffffffffffffffffffffffffffffff1673ffffffffffffffffffffffffffffffffffffffff1681526020016001820154815260200160028201548152505082828151811062001e1f5762001e1e620030ad565b5b60200260200101819052508062001e3690620030dc565b905062001cdc565b50809450505050509392505050565b62001e576200261f565b600560008373ffffffffffffffffffffffffffffffffffffffff1673ffffffffffffffffffffffffffffffffffffffff1681526020019081526020016000206040518060600160405290816000820160009054906101000a900473ffffffffffffffffffffffffffffffffffffffff1673ffffffffffffffffffffffffffffffffffffffff1673ffffffffffffffffffffffffffffffffffffffff168152602001600182015481526020016002820154815250509050919050565b60606000600480549050905060008062001f2e8686856200252f565b915091506000828262001f429190620036a3565b67ffffffffffffffff81111562001f5e5762001f5d620027f2565b5b60405190808252806020026020018201604052801562001f9b57816020015b62001f876200261f565b81526020019060019003908162001f7d5790505b50905060008390505b82811015620020d757600560006004838154811062001fc85762001fc7620030ad565b5b9060005260206000200160009054906101000a900473ffffffffffffffffffffffffffffffffffffffff1673ffffffffffffffffffffffffffffffffffffffff1673ffffffffffffffffffffffffffffffffffffffff1681526020019081526020016000206040518060600160405290816000820160009054906101000a900473ffffffffffffffffffffffffffffffffffffffff1673ffffffffffffffffffffffffffffffffffffffff1673ffffffffffffffffffffffffffffffffffffffff16815260200160018201548152602001600282015481525050828281518110620020b857620020b7620030ad565b5b602002602001018190525080620020cf90620030dc565b905062001fa4565b508094505050505092915050565b6002600054036200212d576040517f08c379a000000000000000000000000000000000000000000000000000000000815260040162002124906200372e565b60405180910390fd5b6002600081905550565b600062002144336200049e565b156200215a57601436033560601c90506200216c565b62002164620025cc565b90506200216d565b5b90565b600073ffffffffffffffffffffffffffffffffffffffff16600260008373ffffffffffffffffffffffffffffffffffffffff1673ffffffffffffffffffffffffffffffffffffffff16815260200190815260200160002060009054906101000a900473ffffffffffffffffffffffffffffffffffffffff1673ffffffffffffffffffffffffffffffffffffffff161462002241576040517f08c379a00000000000000000000000000000000000000000000000000000000081526004016200223890620037a0565b60405180910390fd5b6000600160008473ffffffffffffffffffffffffffffffffffffffff1673ffffffffffffffffffffffffffffffffffffffff1681526020019081526020016000205490506000600480549050905083600260008573ffffffffffffffffffffffffffffffffffffffff1673ffffffffffffffffffffffffffffffffffffffff16815260200190815260200160002060006101000a81548173ffffffffffffffffffffffffffffffffffffffff021916908373ffffffffffffffffffffffffffffffffffffffff1602179055506004839080600181540180825580915050600190039060005260206000200160009091909190916101000a81548173ffffffffffffffffffffffffffffffffffffffff021916908373ffffffffffffffffffffffffffffffffffffffff16021790555082600360008673ffffffffffffffffffffffffffffffffffffffff1673ffffffffffffffffffffffffffffffffffffffff168152602001908152602001600020600084815260200190815260200160002060006101000a81548173ffffffffffffffffffffffffffffffffffffffff021916908373ffffffffffffffffffffffffffffffffffffffff16021790555060405180606001604052808473ffffffffffffffffffffffffffffffffffffffff16815260200183815260200182815250600560008573ffffffffffffffffffffffffffffffffffffffff1673ffffffffffffffffffffffffffffffffffffffff16815260200190815260200160002060008201518160000160006101000a81548173ffffffffffffffffffffffffffffffffffffffff021916908373ffffffffffffffffffffffffffffffffffffffff160217905550602082015181600101556040820151816002015590505081620024d990620030dc565b915081600160008673ffffffffffffffffffffffffffffffffffffffff1673ffffffffffffffffffffffffffffffffffffffff1681526020019081526020016000208190555050505050565b6001600081905550565b6000806000858587620025439190620037c2565b6200254f9190620036a3565b905060006200256c8688620025659190620037c2565b86620025d4565b905084821115620025bc576000620025bb576040517f08c379a0000000000000000000000000000000000000000000000000000000008152600401620025b2906200385d565b60405180910390fd5b5b8181935093505050935093915050565b600033905090565b6000818310620025e55781620025e7565b825b905092915050565b614dd0806200388083390190565b6040518060400160405280600290602082028036833780820191505090505090565b6040518060600160405280600073ffffffffffffffffffffffffffffffffffffffff16815260200160008152602001600081525090565b600081519050919050565b600082825260208201905092915050565b60005b838110156200269257808201518184015260208101905062002675565b60008484015250505050565b6000601f19601f8301169050919050565b6000620026bc8262002656565b620026c8818562002661565b9350620026da81856020860162002672565b620026e5816200269e565b840191505092915050565b600060208201905081810360008301526200270c8184620026af565b905092915050565b6000604051905090565b600080fd5b600080fd5b600073ffffffffffffffffffffffffffffffffffffffff82169050919050565b6000620027558262002728565b9050919050565b620027678162002748565b81146200277357600080fd5b50565b60008135905062002787816200275c565b92915050565b600060208284031215620027a657620027a56200271e565b5b6000620027b68482850162002776565b91505092915050565b620027ca8162002748565b82525050565b6000602082019050620027e76000830184620027bf565b92915050565b600080fd5b7f4e487b7100000000000000000000000000000000000000000000000000000000600052604160045260246000fd5b6200282c826200269e565b810181811067ffffffffffffffff821117156200284e576200284d620027f2565b5b80604052505050565b60006200286362002714565b905062002871828262002821565b919050565b600067ffffffffffffffff821115620028945762002893620027f2565b5b602082029050919050565b600080fd5b6000819050919050565b620028b981620028a4565b8114620028c557600080fd5b50565b600081359050620028d981620028ae565b92915050565b6000620028f6620028f08462002876565b62002857565b905080602084028301858111156200291357620029126200289f565b5b835b818110156200294057806200292b8882620028c8565b84526020840193505060208101905062002915565b5050509392505050565b600082601f830112620029625762002961620027ed565b5b602662002971848285620028df565b91505092915050565b60006104c082840312156200299457620029936200271e565b5b6000620029a4848285016200294a565b91505092915050565b600081519050919050565b600082825260208201905092915050565b6000819050602082019050919050565b620029e481620028a4565b82525050565b6000620029f88383620029d9565b60208301905092915050565b6000602082019050919050565b600062002a1e82620029ad565b62002a2a8185620029b8565b935062002a3783620029c9565b8060005b8381101562002a6e57815162002a528882620029ea565b975062002a5f8362002a04565b92505060018101905062002a3b565b5085935050505092915050565b6000602082019050818103600083015262002a97818462002a11565b905092915050565b62002aaa81620028a4565b82525050565b600060208201905062002ac7600083018462002a9f565b92915050565b60008115159050919050565b62002ae48162002acd565b82525050565b600060208201905062002b01600083018462002ad9565b92915050565b600080fd5b60008083601f84011262002b255762002b24620027ed565b5b8235905067ffffffffffffffff81111562002b455762002b4462002b07565b5b60208301915083600182028301111562002b645762002b636200289f565b5b9250929050565b600080fd5b60006105c0828403121562002b8a5762002b8962002b6b565b5b81905092915050565b6000806000806000806000610620888a03121562002bb65762002bb56200271e565b5b600088013567ffffffffffffffff81111562002bd75762002bd662002723565b5b62002be58a828b0162002b0c565b9750975050602088013567ffffffffffffffff81111562002c0b5762002c0a62002723565b5b62002c198a828b0162002b0c565b9550955050604088013567ffffffffffffffff81111562002c3f5762002c3e62002723565b5b62002c4d8a828b0162002b0c565b9350935050606062002c628a828b0162002b70565b91505092959891949750929550565b60008190508260206002028201111562002c905762002c8f6200289f565b5b92915050565b60008190508260406002028201111562002cb55762002cb46200289f565b5b92915050565b60008190508260206026028201111562002cda5762002cd96200289f565b5b92915050565b6000806000806105c0858703121562002cfe5762002cfd6200271e565b5b600062002d0e8782880162002c71565b945050604062002d218782880162002c96565b93505060c062002d348782880162002c71565b92505061010062002d488782880162002cbb565b91505092959194509250565b600060029050919050565b600081905092915050565b6000819050919050565b6000602082019050919050565b62002d8c8162002d54565b62002d98818462002d5f565b925062002da58262002d6a565b8060005b8381101562002ddc57815162002dc08782620029ea565b965062002dcd8362002d74565b92505060018101905062002da9565b505050505050565b600060408201905062002dfb600083018462002d81565b92915050565b60008060006060848603121562002e1d5762002e1c6200271e565b5b600062002e2d8682870162002776565b935050602062002e4086828701620028c8565b925050604062002e5386828701620028c8565b9150509250925092565b600081519050919050565b600082825260208201905092915050565b6000819050602082019050919050565b62002e948162002748565b82525050565b60608201600082015162002eb2600085018262002e89565b50602082015162002ec76020850182620029d9565b50604082015162002edc6040850182620029d9565b50505050565b600062002ef0838362002e9a565b60608301905092915050565b6000602082019050919050565b600062002f168262002e5d565b62002f22818562002e68565b935062002f2f8362002e79565b8060005b8381101562002f6657815162002f4a888262002ee2565b975062002f578362002efc565b92505060018101905062002f33565b5085935050505092915050565b6000602082019050818103600083015262002f8f818462002f09565b905092915050565b60608201600082015162002faf600085018262002e89565b50602082015162002fc46020850182620029d9565b50604082015162002fd96040850182620029d9565b50505050565b600060608201905062002ff6600083018462002f97565b92915050565b600080604083850312156200301657620030156200271e565b5b60006200302685828601620028c8565b92505060206200303985828601620028c8565b9150509250929050565b7f4e487b7100000000000000000000000000000000000000000000000000000000600052601160045260246000fd5b60006200307f82620028a4565b91506200308c83620028a4565b9250828201905080821115620030a757620030a662003043565b5b92915050565b7f4e487b7100000000000000000000000000000000000000000000000000000000600052603260045260246000fd5b6000620030e982620028a4565b91507fffffffffffffffffffffffffffffffffffffffffffffffffffffffffffffffff82036200311e576200311d62003043565b5b600182019050919050565b82818337505050565b620031406040838362003129565b5050565b600060029050919050565b600081905092915050565b6000819050919050565b620031726040838362003129565b5050565b600062003184838362003164565b60408301905092915050565b600082905092915050565b6000604082019050919050565b620031b38162003144565b620031bf81846200314f565b9250620031cc826200315a565b8060005b838110156200320d57620031e5828462003190565b620031f1878262003176565b9650620031fe836200319b565b925050600181019050620031d0565b505050505050565b620032246104c0838362003129565b5050565b60006105c08201905062003240600083018762003132565b6200324f6040830186620031a8565b6200325e60c083018562003132565b6200326e61010083018462003215565b95945050505050565b620032828162002acd565b81146200328e57600080fd5b50565b600081519050620032a28162003277565b92915050565b600060208284031215620032c157620032c06200271e565b5b6000620032d18482850162003291565b91505092915050565b7f496e76616c69642070726f6f6600000000000000000000000000000000000000600082015250565b600062003312600d8362002661565b91506200331f82620032da565b602082019050919050565b60006020820190508181036000830152620033458162003303565b9050919050565b600060019050919050565b600081905092915050565b6000819050919050565b6200337781620028a4565b82525050565b60006200338b83836200336c565b60208301905092915050565b60008160001c9050919050565b6000819050919050565b6000620033c5620033bf8362003397565b620033a4565b9050919050565b6000620033da8254620033ae565b9050919050565b6000600182019050919050565b620033f9816200334c565b62003405818462003357565b9250620034128262003362565b8060005b8381101562003452576200342a82620033cc565b6200343687826200337d565b96506200344383620033e1565b92505060018101905062003416565b505050505050565b6000620034688284620033ee565b60208201915081905092915050565b600081905092915050565b60006200348f82620029ad565b6200349b818562003477565b9350620034a883620029c9565b8060005b83811015620034df578151620034c388826200337d565b9750620034d08362002a04565b925050600181019050620034ac565b5085935050505092915050565b6000620034fa828462003482565b915081905092915050565b7f496e76616c6964206576656e7420696473000000000000000000000000000000600082015250565b60006200353d60118362002661565b91506200354a8262003505565b602082019050919050565b6000602082019050818103600083015262003570816200352e565b9050919050565b7f496e76616c6964207369676e6572000000000000000000000000000000000000600082015250565b6000620035af600e8362002661565b9150620035bc8262003577565b602082019050919050565b60006020820190508181036000830152620035e281620035a0565b9050919050565b82818337600083830152505050565b600062003606838562002661565b935062003615838584620035e9565b62003620836200269e565b840190509392505050565b600060a082019050818103600083015262003648818a8c620035f8565b905081810360208301526200365f81888a620035f8565b9050818103604083015262003676818688620035f8565b9050620036876060830185620027bf565b620036966080830184620027bf565b9998505050505050505050565b6000620036b082620028a4565b9150620036bd83620028a4565b9250828203905081811115620036d857620036d762003043565b5b92915050565b7f5265656e7472616e637947756172643a207265656e7472616e742063616c6c00600082015250565b600062003716601f8362002661565b91506200372382620036de565b602082019050919050565b60006020820190508181036000830152620037498162003707565b9050919050565b7f4656323030000000000000000000000000000000000000000000000000000000600082015250565b60006200378860058362002661565b9150620037958262003750565b602082019050919050565b60006020820190508181036000830152620037bb8162003779565b9050919050565b6000620037cf82620028a4565b9150620037dc83620028a4565b9250828202620037ec81620028a4565b9150828204841483151762003806576200380562003043565b5b5092915050565b7f4656323132000000000000000000000000000000000000000000000000000000600082015250565b60006200384560058362002661565b915062003852826200380d565b602082019050919050565b60006020820190508181036000830152620038788162003836565b905091905056fe60a06040523480156200001157600080fd5b5060405162004dd038038062004dd0833981810160405281019062000037919062000cb8565b808073ffffffffffffffffffffffffffffffffffffffff1660808173ffffffffffffffffffffffffffffffffffffffff1681525050506200008d62000081620001d360201b60201c565b620001ef60201b60201c565b600073ffffffffffffffffffffffffffffffffffffffff168273ffffffffffffffffffffffffffffffffffffffff1603620000ff576040517f08c379a0000000000000000000000000000000000000000000000000000000008152600401620000f69062000dfe565b60405180910390fd5b600073ffffffffffffffffffffffffffffffffffffffff168173ffffffffffffffffffffffffffffffffffffffff160362000171576040517f08c379a0000000000000000000000000000000000000000000000000000000008152600401620001689062000dfe565b60405180910390fd5b84600290816200018291906200106b565b506200019482620001ef60201b60201c565b620001a46200022d60201b60201c565b620001b582620002af60201b60201c565b620001c8828585620005de60201b60201c565b5050505050620013d1565b6000620001ea6200097060201b62001a9c1760201c565b905090565b600160006101000a81549073ffffffffffffffffffffffffffffffffffffffff02191690556200022a81620009ba60201b62001ace1760201c565b50565b600160036000600173ffffffffffffffffffffffffffffffffffffffff1673ffffffffffffffffffffffffffffffffffffffff16815260200190815260200160002060006101000a81548173ffffffffffffffffffffffffffffffffffffffff021916908373ffffffffffffffffffffffffffffffffffffffff160217905550565b600073ffffffffffffffffffffffffffffffffffffffff168173ffffffffffffffffffffffffffffffffffffffff16141580156200031a5750600173ffffffffffffffffffffffffffffffffffffffff168173ffffffffffffffffffffffffffffffffffffffff1614155b80156200035357503073ffffffffffffffffffffffffffffffffffffffff168173ffffffffffffffffffffffffffffffffffffffff1614155b62000395576040517f08c379a00000000000000000000000000000000000000000000000000000000081526004016200038c90620011a2565b60405180910390fd5b600073ffffffffffffffffffffffffffffffffffffffff16600360008373ffffffffffffffffffffffffffffffffffffffff1673ffffffffffffffffffffffffffffffffffffffff16815260200190815260200160002060009054906101000a900473ffffffffffffffffffffffffffffffffffffffff1673ffffffffffffffffffffffffffffffffffffffff161462000466576040517f08c379a00000000000000000000000000000000000000000000000000000000081526004016200045d9062001214565b60405180910390fd5b60036000600173ffffffffffffffffffffffffffffffffffffffff1673ffffffffffffffffffffffffffffffffffffffff16815260200190815260200160002060009054906101000a900473ffffffffffffffffffffffffffffffffffffffff16600360008373ffffffffffffffffffffffffffffffffffffffff1673ffffffffffffffffffffffffffffffffffffffff16815260200190815260200160002060006101000a81548173ffffffffffffffffffffffffffffffffffffffff021916908373ffffffffffffffffffffffffffffffffffffffff1602179055508060036000600173ffffffffffffffffffffffffffffffffffffffff1673ffffffffffffffffffffffffffffffffffffffff16815260200190815260200160002060006101000a81548173ffffffffffffffffffffffffffffffffffffffff021916908373ffffffffffffffffffffffffffffffffffffffff160217905550600460008154620005d49062001265565b9190508190555050565b600082510362000625576040517f08c379a00000000000000000000000000000000000000000000000000000000081526004016200061c9062001302565b60405180910390fd5b60008151036200066c576040517f08c379a0000000000000000000000000000000000000000000000000000000008152600401620006639062001302565b60405180910390fd5b6000600660008573ffffffffffffffffffffffffffffffffffffffff1673ffffffffffffffffffffffffffffffffffffffff168152602001908152602001600020604051806040016040529081600082018054620006ca9062000e5a565b80601f0160208091040260200160405190810160405280929190818152602001828054620006f89062000e5a565b8015620007495780601f106200071d5761010080835404028352916020019162000749565b820191906000526020600020905b8154815290600101906020018083116200072b57829003601f168201915b50505050508152602001600182018054620007649062000e5a565b80601f0160208091040260200160405190810160405280929190818152602001828054620007929062000e5a565b8015620007e35780601f10620007b757610100808354040283529160200191620007e3565b820191906000526020600020905b815481529060010190602001808311620007c557829003601f168201915b505050505081525050905060008160000151511462000839576040517f08c379a0000000000000000000000000000000000000000000000000000000008152600401620008309062001374565b60405180910390fd5b60008160200151511462000884576040517f08c379a00000000000000000000000000000000000000000000000000000000081526004016200087b9062001374565b60405180910390fd5b604051806040016040528084815260200183815250600660008673ffffffffffffffffffffffffffffffffffffffff1673ffffffffffffffffffffffffffffffffffffffff1681526020019081526020016000206000820151816000019081620008ef91906200106b565b5060208201518160010190816200090791906200106b565b5090505060016007600082825462000920919062001396565b925050819055508373ffffffffffffffffffffffffffffffffffffffff167f402d924b9bd03718220c51647be3ad8f7da00914b8aba403753caa37f4944a0260405160405180910390a250505050565b6000620009833362000a7e60201b60201c565b156200099957601436033560601c9050620009b6565b620009ae62000ab860201b62001b921760201c565b9050620009b7565b5b90565b60008060009054906101000a900473ffffffffffffffffffffffffffffffffffffffff169050816000806101000a81548173ffffffffffffffffffffffffffffffffffffffff021916908373ffffffffffffffffffffffffffffffffffffffff1602179055508173ffffffffffffffffffffffffffffffffffffffff168173ffffffffffffffffffffffffffffffffffffffff167f8be0079c531659141344cd1fd0a4f28419497f9722a3daafe3b4186f6b6457e060405160405180910390a35050565b600060805173ffffffffffffffffffffffffffffffffffffffff168273ffffffffffffffffffffffffffffffffffffffff16149050919050565b600033905090565b6000604051905090565b600080fd5b600080fd5b600080fd5b600080fd5b6000601f19601f8301169050919050565b7f4e487b7100000000000000000000000000000000000000000000000000000000600052604160045260246000fd5b62000b298262000ade565b810181811067ffffffffffffffff8211171562000b4b5762000b4a62000aef565b5b80604052505050565b600062000b6062000ac0565b905062000b6e828262000b1e565b919050565b600067ffffffffffffffff82111562000b915762000b9062000aef565b5b62000b9c8262000ade565b9050602081019050919050565b60005b8381101562000bc957808201518184015260208101905062000bac565b60008484015250505050565b600062000bec62000be68462000b73565b62000b54565b90508281526020810184848401111562000c0b5762000c0a62000ad9565b5b62000c1884828562000ba9565b509392505050565b600082601f83011262000c385762000c3762000ad4565b5b815162000c4a84826020860162000bd5565b91505092915050565b600073ffffffffffffffffffffffffffffffffffffffff82169050919050565b600062000c808262000c53565b9050919050565b62000c928162000c73565b811462000c9e57600080fd5b50565b60008151905062000cb28162000c87565b92915050565b600080600080600060a0868803121562000cd75762000cd662000aca565b5b600086015167ffffffffffffffff81111562000cf85762000cf762000acf565b5b62000d068882890162000c20565b955050602086015167ffffffffffffffff81111562000d2a5762000d2962000acf565b5b62000d388882890162000c20565b945050604086015167ffffffffffffffff81111562000d5c5762000d5b62000acf565b5b62000d6a8882890162000c20565b935050606062000d7d8882890162000ca1565b925050608062000d908882890162000ca1565b9150509295509295909350565b600082825260208201905092915050565b7f4656323131000000000000000000000000000000000000000000000000000000600082015250565b600062000de660058362000d9d565b915062000df38262000dae565b602082019050919050565b6000602082019050818103600083015262000e198162000dd7565b9050919050565b600081519050919050565b7f4e487b7100000000000000000000000000000000000000000000000000000000600052602260045260246000fd5b6000600282049050600182168062000e7357607f821691505b60208210810362000e895762000e8862000e2b565b5b50919050565b60008190508160005260206000209050919050565b60006020601f8301049050919050565b600082821b905092915050565b60006008830262000ef37fffffffffffffffffffffffffffffffffffffffffffffffffffffffffffffffff8262000eb4565b62000eff868362000eb4565b95508019841693508086168417925050509392505050565b6000819050919050565b6000819050919050565b600062000f4c62000f4662000f408462000f17565b62000f21565b62000f17565b9050919050565b6000819050919050565b62000f688362000f2b565b62000f8062000f778262000f53565b84845462000ec1565b825550505050565b600090565b62000f9762000f88565b62000fa481848462000f5d565b505050565b5b8181101562000fcc5762000fc060008262000f8d565b60018101905062000faa565b5050565b601f8211156200101b5762000fe58162000e8f565b62000ff08462000ea4565b8101602085101562001000578190505b620010186200100f8562000ea4565b83018262000fa9565b50505b505050565b600082821c905092915050565b6000620010406000198460080262001020565b1980831691505092915050565b60006200105b83836200102d565b9150826002028217905092915050565b620010768262000e20565b67ffffffffffffffff81111562001092576200109162000aef565b5b6200109e825462000e5a565b620010ab82828562000fd0565b600060209050601f831160018114620010e35760008415620010ce578287015190505b620010da85826200104d565b8655506200114a565b601f198416620010f38662000e8f565b60005b828110156200111d57848901518255600182019150602085019450602081019050620010f6565b868310156200113d578489015162001139601f8916826200102d565b8355505b6001600288020188555050505b505050505050565b7f4656323033000000000000000000000000000000000000000000000000000000600082015250565b60006200118a60058362000d9d565b9150620011978262001152565b602082019050919050565b60006020820190508181036000830152620011bd816200117b565b9050919050565b7f4656323034000000000000000000000000000000000000000000000000000000600082015250565b6000620011fc60058362000d9d565b91506200120982620011c4565b602082019050919050565b600060208201905081810360008301526200122f81620011ed565b9050919050565b7f4e487b7100000000000000000000000000000000000000000000000000000000600052601160045260246000fd5b6000620012728262000f17565b91507fffffffffffffffffffffffffffffffffffffffffffffffffffffffffffffffff8203620012a757620012a662001236565b5b600182019050919050565b7f4656323031000000000000000000000000000000000000000000000000000000600082015250565b6000620012ea60058362000d9d565b9150620012f782620012b2565b602082019050919050565b600060208201905081810360008301526200131d81620012db565b9050919050565b7f4656323039000000000000000000000000000000000000000000000000000000600082015250565b60006200135c60058362000d9d565b9150620013698262001324565b602082019050919050565b600060208201905081810360008301526200138f816200134d565b9050919050565b6000620013a38262000f17565b9150620013b08362000f17565b9250828201905080821115620013cb57620013ca62001236565b5b92915050565b6080516139e3620013ed600039600061072d01526139e36000f3fe608060405234801561001057600080fd5b50600436106101375760003560e01c806393ce2036116100b8578063cfd9e0c11161007c578063cfd9e0c114610303578063de7293171461031f578063e30c397814610329578063f2fde38b14610347578063f4c714b414610363578063ffad0fc61461039757610137565b806393ce203614610271578063a24259271461028f578063b4d266bc146102ad578063bab50cc9146102c9578063ccdbe6a6146102e757610137565b8063715018a6116100ff578063715018a6146101f257806379ba5097146101fc578063876dbec4146102065780638da5cb5b14610237578063918b5be11461025557610137565b80633bf1bdad1461013c578063572b6c05146101585780635eb1cf8f1461018857806366cc227d146101a45780636af8c4e7146101c2575b600080fd5b6101566004803603810190610151919061274e565b6103b5565b005b610172600480360381019061016d9190612888565b610729565b60405161017f91906128d0565b60405180910390f35b6101a2600480360381019061019d91906128eb565b610781565b005b6101ac610b2f565b6040516101b991906129e9565b60405180910390f35b6101dc60048036038101906101d79190612888565b610b39565b6040516101e991906128d0565b60405180910390f35b6101fa610c0b565b005b610204610c15565b005b610220600480360381019061021b9190612888565b610ca2565b60405161022e929190612a94565b60405180910390f35b61023f610dd6565b60405161024c9190612ada565b60405180910390f35b61026f600480360381019061026a9190612c25565b610dff565b005b610279610eb4565b6040516102869190612c6e565b60405180910390f35b610297610f42565b6040516102a491906129e9565b60405180910390f35b6102c760048036038101906102c29190612c90565b610f4c565b005b6102d16114ce565b6040516102de91906129e9565b60405180910390f35b61030160048036038101906102fc9190612888565b6114df565b005b61031d60048036038101906103189190612cd0565b611554565b005b61032761160a565b005b610331611632565b60405161033e9190612ada565b60405180910390f35b610361600480360381019061035c9190612888565b61165c565b005b61037d60048036038101906103789190612d51565b611709565b60405161038e959493929190612df5565b60405180910390f35b61039f6118e4565b6040516103ac9190612f1b565b60405180910390f35b6103c56103c0611b9a565b611ba9565b6000888890500361040b576040517f08c379a000000000000000000000000000000000000000000000000000000000815260040161040290612f89565b60405180910390fd5b60008686905003610451576040517f08c379a000000000000000000000000000000000000000000000000000000000815260040161044890612f89565b60405180910390fd5b6002600381111561046557610464612d7e565b5b82600381111561047857610477612d7e565b5b036104c857600084849050036104c3576040517f08c379a00000000000000000000000000000000000000000000000000000000081526004016104ba90612ff5565b60405180910390fd5b61050f565b6000848490501461050e576040517f08c379a000000000000000000000000000000000000000000000000000000000815260040161050590613061565b60405180910390fd5b5b600061051b6005611bf4565b90506105276005611c02565b6040518060a001604052808a8a8080601f016020809104026020016040519081016040528093929190818152602001838380828437600081840152601f19601f82011690508083019250505050505050815260200188888080601f016020809104026020016040519081016040528093929190818152602001838380828437600081840152601f19601f82011690508083019250505050505050815260200186868080601f016020809104026020016040519081016040528093929190818152602001838380828437600081840152601f19601f82011690508083019250505050505050815260200184600381111561062357610622612d7e565b5b815260200183815250600860008381526020019081526020016000206000820151816000019081610654919061328d565b50602082015181600101908161066a919061328d565b506040820151816002019081610680919061328d565b5060608201518160030160006101000a81548160ff021916908360038111156106ac576106ab612d7e565b5b0217905550608082015181600401559050506106c6611b9a565b73ffffffffffffffffffffffffffffffffffffffff16817f7c868b0d1657677f41ebc5d6a76e66b11862720a3800b9b0895b9457c181d8d98b8b8b8b8b8b6040516107169695949392919061338c565b60405180910390a3505050505050505050565b60007f000000000000000000000000000000000000000000000000000000000000000073ffffffffffffffffffffffffffffffffffffffff168273ffffffffffffffffffffffffffffffffffffffff16149050919050565b61079161078c611b9a565b611ba9565b600088889050036107d7576040517f08c379a00000000000000000000000000000000000000000000000000000000081526004016107ce90612f89565b60405180910390fd5b6000868690500361081d576040517f08c379a000000000000000000000000000000000000000000000000000000000815260040161081490612f89565b60405180910390fd5b6002600381111561083157610830612d7e565b5b82600381111561084457610843612d7e565b5b03610894576000848490500361088f576040517f08c379a000000000000000000000000000000000000000000000000000000000815260040161088690612ff5565b60405180910390fd5b6108db565b600084849050146108da576040517f08c379a00000000000000000000000000000000000000000000000000000000081526004016108d190613061565b60405180910390fd5b5b6108e56005611bf4565b891061092d57600061092c576040517f08c379a00000000000000000000000000000000000000000000000000000000081526004016109239061342a565b60405180910390fd5b5b6040518060a0016040528089898080601f016020809104026020016040519081016040528093929190818152602001838380828437600081840152601f19601f82011690508083019250505050505050815260200187878080601f016020809104026020016040519081016040528093929190818152602001838380828437600081840152601f19601f82011690508083019250505050505050815260200185858080601f016020809104026020016040519081016040528093929190818152602001838380828437600081840152601f19601f820116905080830192505050505050508152602001836003811115610a2957610a28612d7e565b5b815260200182815250600860008b81526020019081526020016000206000820151816000019081610a5a919061328d565b506020820151816001019081610a70919061328d565b506040820151816002019081610a86919061328d565b5060608201518160030160006101000a81548160ff02191690836003811115610ab257610ab1612d7e565b5b021790555060808201518160040155905050610acc611b9a565b73ffffffffffffffffffffffffffffffffffffffff16897f038bf72a38023435f249f01545d426ebccb3348739aab6415949426e9c5b1ca08a8a8a8a8a8a604051610b1c9695949392919061338c565b60405180910390a3505050505050505050565b6000600754905090565b6000600173ffffffffffffffffffffffffffffffffffffffff168273ffffffffffffffffffffffffffffffffffffffff1614158015610c045750600073ffffffffffffffffffffffffffffffffffffffff16600360008473ffffffffffffffffffffffffffffffffffffffff1673ffffffffffffffffffffffffffffffffffffffff16815260200190815260200160002060009054906101000a900473ffffffffffffffffffffffffffffffffffffffff1673ffffffffffffffffffffffffffffffffffffffff1614155b9050919050565b610c13611c18565b565b6000610c1f611b9a565b90508073ffffffffffffffffffffffffffffffffffffffff16610c40611632565b73ffffffffffffffffffffffffffffffffffffffff1614610c96576040517f08c379a0000000000000000000000000000000000000000000000000000000008152600401610c8d906134bc565b60405180910390fd5b610c9f81611c96565b50565b6006602052806000526040600020600091509050806000018054610cc5906130b0565b80601f0160208091040260200160405190810160405280929190818152602001828054610cf1906130b0565b8015610d3e5780601f10610d1357610100808354040283529160200191610d3e565b820191906000526020600020905b815481529060010190602001808311610d2157829003601f168201915b505050505090806001018054610d53906130b0565b80601f0160208091040260200160405190810160405280929190818152602001828054610d7f906130b0565b8015610dcc5780601f10610da157610100808354040283529160200191610dcc565b820191906000526020600020905b815481529060010190602001808311610daf57829003601f168201915b5050505050905082565b60008060009054906101000a900473ffffffffffffffffffffffffffffffffffffffff16905090565b610e07611c18565b6000815103610e4b576040517f08c379a0000000000000000000000000000000000000000000000000000000008152600401610e4290612f89565b60405180910390fd5b8060029081610e5a919061328d565b50610e63611b9a565b73ffffffffffffffffffffffffffffffffffffffff167ff7e4f835d77656f8760a2c1a3e841fd8a50759e50c615130349625666a46acd56002604051610ea99190613560565b60405180910390a250565b60028054610ec1906130b0565b80601f0160208091040260200160405190810160405280929190818152602001828054610eed906130b0565b8015610f3a5780601f10610f0f57610100808354040283529160200191610f3a565b820191906000526020600020905b815481529060010190602001808311610f1d57829003601f168201915b505050505081565b6000600454905090565b610f54611c18565b60006001600454610f6591906135b1565b03610fac576000610fab576040517f08c379a0000000000000000000000000000000000000000000000000000000008152600401610fa290613631565b60405180910390fd5b5b600073ffffffffffffffffffffffffffffffffffffffff168173ffffffffffffffffffffffffffffffffffffffff16141580156110165750600173ffffffffffffffffffffffffffffffffffffffff168173ffffffffffffffffffffffffffffffffffffffff1614155b801561104e57503073ffffffffffffffffffffffffffffffffffffffff168173ffffffffffffffffffffffffffffffffffffffff1614155b61108d576040517f08c379a00000000000000000000000000000000000000000000000000000000081526004016110849061369d565b60405180910390fd5b8073ffffffffffffffffffffffffffffffffffffffff16600360008473ffffffffffffffffffffffffffffffffffffffff1673ffffffffffffffffffffffffffffffffffffffff16815260200190815260200160002060009054906101000a900473ffffffffffffffffffffffffffffffffffffffff1673ffffffffffffffffffffffffffffffffffffffff161461115a576040517f08c379a000000000000000000000000000000000000000000000000000000000815260040161115190613709565b60405180910390fd5b6000600660008373ffffffffffffffffffffffffffffffffffffffff1673ffffffffffffffffffffffffffffffffffffffff1681526020019081526020016000206040518060400160405290816000820180546111b6906130b0565b80601f01602080910402602001604051908101604052809291908181526020018280546111e2906130b0565b801561122f5780601f106112045761010080835404028352916020019161122f565b820191906000526020600020905b81548152906001019060200180831161121257829003601f168201915b50505050508152602001600182018054611248906130b0565b80601f0160208091040260200160405190810160405280929190818152602001828054611274906130b0565b80156112c15780601f10611296576101008083540402835291602001916112c1565b820191906000526020600020905b8154815290600101906020018083116112a457829003601f168201915b5050505050815250509050600360008373ffffffffffffffffffffffffffffffffffffffff1673ffffffffffffffffffffffffffffffffffffffff16815260200190815260200160002060009054906101000a900473ffffffffffffffffffffffffffffffffffffffff16600360008573ffffffffffffffffffffffffffffffffffffffff1673ffffffffffffffffffffffffffffffffffffffff16815260200190815260200160002060006101000a81548173ffffffffffffffffffffffffffffffffffffffff021916908373ffffffffffffffffffffffffffffffffffffffff1602179055506000600360008473ffffffffffffffffffffffffffffffffffffffff1673ffffffffffffffffffffffffffffffffffffffff16815260200190815260200160002060006101000a81548173ffffffffffffffffffffffffffffffffffffffff021916908373ffffffffffffffffffffffffffffffffffffffff1602179055506004600081548092919061143b90613729565b91905055506000816000015151118061145957506000816020015151115b156114685761146782611cc7565b5b611470611b9a565b73ffffffffffffffffffffffffffffffffffffffff168273ffffffffffffffffffffffffffffffffffffffff167fa3cf1c45ba4d2d0a3d4d7a5fdd2a75b6feec8d0902c676a228fbb2cada34c31860405160405180910390a3505050565b60006114da6005611bf4565b905090565b6114e7611c18565b6114f081611f88565b6114f8611b9a565b73ffffffffffffffffffffffffffffffffffffffff168173ffffffffffffffffffffffffffffffffffffffff167fce61b8b5dd5de3bc40e91f97638290ba020c1f9267272522a018d616f077b16660405160405180910390a350565b61156461155f611b9a565b611ba9565b600061156e611b9a565b90506116038186868080601f016020809104026020016040519081016040528093929190818152602001838380828437600081840152601f19601f8201169050808301925050505050505085858080601f016020809104026020016040519081016040528093929190818152602001838380828437600081840152601f19601f820116905080830192505050505050506122ad565b5050505050565b61161a611615611b9a565b611ba9565b6000611624611b9a565b905061162f81611cc7565b50565b6000600160009054906101000a900473ffffffffffffffffffffffffffffffffffffffff16905090565b611664611c18565b80600160006101000a81548173ffffffffffffffffffffffffffffffffffffffff021916908373ffffffffffffffffffffffffffffffffffffffff1602179055508073ffffffffffffffffffffffffffffffffffffffff166116c4610dd6565b73ffffffffffffffffffffffffffffffffffffffff167f38d16b8cac22d99fc7c124b9cd0de2d3fa1faef420bfe791d8c362d765e2270060405160405180910390a350565b600860205280600052604060002060009150905080600001805461172c906130b0565b80601f0160208091040260200160405190810160405280929190818152602001828054611758906130b0565b80156117a55780601f1061177a576101008083540402835291602001916117a5565b820191906000526020600020905b81548152906001019060200180831161178857829003601f168201915b5050505050908060010180546117ba906130b0565b80601f01602080910402602001604051908101604052809291908181526020018280546117e6906130b0565b80156118335780601f1061180857610100808354040283529160200191611833565b820191906000526020600020905b81548152906001019060200180831161181657829003601f168201915b505050505090806002018054611848906130b0565b80601f0160208091040260200160405190810160405280929190818152602001828054611874906130b0565b80156118c15780601f10611896576101008083540402835291602001916118c1565b820191906000526020600020905b8154815290600101906020018083116118a457829003601f168201915b5050505050908060030160009054906101000a900460ff16908060040154905085565b6060600060045467ffffffffffffffff81111561190457611903612afa565b5b6040519080825280602002602001820160405280156119325781602001602082028036833780820191505090505b50905060008060036000600173ffffffffffffffffffffffffffffffffffffffff1673ffffffffffffffffffffffffffffffffffffffff16815260200190815260200160002060009054906101000a900473ffffffffffffffffffffffffffffffffffffffff1690505b600173ffffffffffffffffffffffffffffffffffffffff168173ffffffffffffffffffffffffffffffffffffffff1614611a9357808383815181106119e4576119e3613752565b5b602002602001019073ffffffffffffffffffffffffffffffffffffffff16908173ffffffffffffffffffffffffffffffffffffffff1681525050600360008273ffffffffffffffffffffffffffffffffffffffff1673ffffffffffffffffffffffffffffffffffffffff16815260200190815260200160002060009054906101000a900473ffffffffffffffffffffffffffffffffffffffff1690508180611a8b90613781565b92505061199c565b82935050505090565b6000611aa733610729565b15611abb57601436033560601c9050611aca565b611ac3611b92565b9050611acb565b5b90565b60008060009054906101000a900473ffffffffffffffffffffffffffffffffffffffff169050816000806101000a81548173ffffffffffffffffffffffffffffffffffffffff021916908373ffffffffffffffffffffffffffffffffffffffff1602179055508173ffffffffffffffffffffffffffffffffffffffff168173ffffffffffffffffffffffffffffffffffffffff167f8be0079c531659141344cd1fd0a4f28419497f9722a3daafe3b4186f6b6457e060405160405180910390a35050565b600033905090565b6000611ba4611a9c565b905090565b611bb281610b39565b611bf1576040517f08c379a0000000000000000000000000000000000000000000000000000000008152600401611be890613815565b60405180910390fd5b50565b600081600001549050919050565b6001816000016000828254019250508190555050565b611c20611b9a565b73ffffffffffffffffffffffffffffffffffffffff16611c3e610dd6565b73ffffffffffffffffffffffffffffffffffffffff1614611c94576040517f08c379a0000000000000000000000000000000000000000000000000000000008152600401611c8b90613881565b60405180910390fd5b565b600160006101000a81549073ffffffffffffffffffffffffffffffffffffffff0219169055611cc481611ace565b50565b6000600660008373ffffffffffffffffffffffffffffffffffffffff1673ffffffffffffffffffffffffffffffffffffffff168152602001908152602001600020604051806040016040529081600082018054611d23906130b0565b80601f0160208091040260200160405190810160405280929190818152602001828054611d4f906130b0565b8015611d9c5780601f10611d7157610100808354040283529160200191611d9c565b820191906000526020600020905b815481529060010190602001808311611d7f57829003601f168201915b50505050508152602001600182018054611db5906130b0565b80601f0160208091040260200160405190810160405280929190818152602001828054611de1906130b0565b8015611e2e5780601f10611e0357610100808354040283529160200191611e2e565b820191906000526020600020905b815481529060010190602001808311611e1157829003601f168201915b5050505050815250509050600081600001515111611e81576040517f08c379a0000000000000000000000000000000000000000000000000000000008152600401611e78906138ed565b60405180910390fd5b600081602001515111611ec9576040517f08c379a0000000000000000000000000000000000000000000000000000000008152600401611ec0906138ed565b60405180910390fd5b600660008373ffffffffffffffffffffffffffffffffffffffff1673ffffffffffffffffffffffffffffffffffffffff16815260200190815260200160002060008082016000611f19919061261d565b600182016000611f29919061261d565b5050600760008154611f3a90613729565b919050819055508173ffffffffffffffffffffffffffffffffffffffff167fe43263e34fd2c5f045a6bb8f67fc65b9bdfd615beb14b6036a76aedf940e187660405160405180910390a25050565b600073ffffffffffffffffffffffffffffffffffffffff168173ffffffffffffffffffffffffffffffffffffffff1614158015611ff25750600173ffffffffffffffffffffffffffffffffffffffff168173ffffffffffffffffffffffffffffffffffffffff1614155b801561202a57503073ffffffffffffffffffffffffffffffffffffffff168173ffffffffffffffffffffffffffffffffffffffff1614155b612069576040517f08c379a00000000000000000000000000000000000000000000000000000000081526004016120609061369d565b60405180910390fd5b600073ffffffffffffffffffffffffffffffffffffffff16600360008373ffffffffffffffffffffffffffffffffffffffff1673ffffffffffffffffffffffffffffffffffffffff16815260200190815260200160002060009054906101000a900473ffffffffffffffffffffffffffffffffffffffff1673ffffffffffffffffffffffffffffffffffffffff1614612137576040517f08c379a000000000000000000000000000000000000000000000000000000000815260040161212e90613709565b60405180910390fd5b60036000600173ffffffffffffffffffffffffffffffffffffffff1673ffffffffffffffffffffffffffffffffffffffff16815260200190815260200160002060009054906101000a900473ffffffffffffffffffffffffffffffffffffffff16600360008373ffffffffffffffffffffffffffffffffffffffff1673ffffffffffffffffffffffffffffffffffffffff16815260200190815260200160002060006101000a81548173ffffffffffffffffffffffffffffffffffffffff021916908373ffffffffffffffffffffffffffffffffffffffff1602179055508060036000600173ffffffffffffffffffffffffffffffffffffffff1673ffffffffffffffffffffffffffffffffffffffff16815260200190815260200160002060006101000a81548173ffffffffffffffffffffffffffffffffffffffff021916908373ffffffffffffffffffffffffffffffffffffffff1602179055506004600081546122a390613781565b9190508190555050565b60008251036122f1576040517f08c379a00000000000000000000000000000000000000000000000000000000081526004016122e890613959565b60405180910390fd5b6000815103612335576040517f08c379a000000000000000000000000000000000000000000000000000000000815260040161232c90613959565b60405180910390fd5b6000600660008573ffffffffffffffffffffffffffffffffffffffff1673ffffffffffffffffffffffffffffffffffffffff168152602001908152602001600020604051806040016040529081600082018054612391906130b0565b80601f01602080910402602001604051908101604052809291908181526020018280546123bd906130b0565b801561240a5780601f106123df5761010080835404028352916020019161240a565b820191906000526020600020905b8154815290600101906020018083116123ed57829003601f168201915b50505050508152602001600182018054612423906130b0565b80601f016020809104026020016040519081016040528092919081815260200182805461244f906130b0565b801561249c5780601f106124715761010080835404028352916020019161249c565b820191906000526020600020905b81548152906001019060200180831161247f57829003601f168201915b50505050508152505090506000816000015151146124ef576040517f08c379a00000000000000000000000000000000000000000000000000000000081526004016124e6906138ed565b60405180910390fd5b600081602001515114612537576040517f08c379a000000000000000000000000000000000000000000000000000000000815260040161252e906138ed565b60405180910390fd5b604051806040016040528084815260200183815250600660008673ffffffffffffffffffffffffffffffffffffffff1673ffffffffffffffffffffffffffffffffffffffff16815260200190815260200160002060008201518160000190816125a0919061328d565b5060208201518160010190816125b6919061328d565b509050506001600760008282546125cd9190613979565b925050819055508373ffffffffffffffffffffffffffffffffffffffff167f402d924b9bd03718220c51647be3ad8f7da00914b8aba403753caa37f4944a0260405160405180910390a250505050565b508054612629906130b0565b6000825580601f1061263b575061265a565b601f016020900490600052602060002090810190612659919061265d565b5b50565b5b8082111561267657600081600090555060010161265e565b5090565b6000604051905090565b600080fd5b600080fd5b600080fd5b600080fd5b600080fd5b60008083601f8401126126b3576126b261268e565b5b8235905067ffffffffffffffff8111156126d0576126cf612693565b5b6020830191508360018202830111156126ec576126eb612698565b5b9250929050565b6004811061270057600080fd5b50565b600081359050612712816126f3565b92915050565b6000819050919050565b61272b81612718565b811461273657600080fd5b50565b60008135905061274881612722565b92915050565b60008060008060008060008060a0898b03121561276e5761276d612684565b5b600089013567ffffffffffffffff81111561278c5761278b612689565b5b6127988b828c0161269d565b9850985050602089013567ffffffffffffffff8111156127bb576127ba612689565b5b6127c78b828c0161269d565b9650965050604089013567ffffffffffffffff8111156127ea576127e9612689565b5b6127f68b828c0161269d565b945094505060606128098b828c01612703565b925050608061281a8b828c01612739565b9150509295985092959890939650565b600073ffffffffffffffffffffffffffffffffffffffff82169050919050565b60006128558261282a565b9050919050565b6128658161284a565b811461287057600080fd5b50565b6000813590506128828161285c565b92915050565b60006020828403121561289e5761289d612684565b5b60006128ac84828501612873565b91505092915050565b60008115159050919050565b6128ca816128b5565b82525050565b60006020820190506128e560008301846128c1565b92915050565b600080600080600080600080600060c08a8c03121561290d5761290c612684565b5b600061291b8c828d01612739565b99505060208a013567ffffffffffffffff81111561293c5761293b612689565b5b6129488c828d0161269d565b985098505060408a013567ffffffffffffffff81111561296b5761296a612689565b5b6129778c828d0161269d565b965096505060608a013567ffffffffffffffff81111561299a57612999612689565b5b6129a68c828d0161269d565b945094505060806129b98c828d01612703565b92505060a06129ca8c828d01612739565b9150509295985092959850929598565b6129e381612718565b82525050565b60006020820190506129fe60008301846129da565b92915050565b600081519050919050565b600082825260208201905092915050565b60005b83811015612a3e578082015181840152602081019050612a23565b60008484015250505050565b6000601f19601f8301169050919050565b6000612a6682612a04565b612a708185612a0f565b9350612a80818560208601612a20565b612a8981612a4a565b840191505092915050565b60006040820190508181036000830152612aae8185612a5b565b90508181036020830152612ac28184612a5b565b90509392505050565b612ad48161284a565b82525050565b6000602082019050612aef6000830184612acb565b92915050565b600080fd5b7f4e487b7100000000000000000000000000000000000000000000000000000000600052604160045260246000fd5b612b3282612a4a565b810181811067ffffffffffffffff82111715612b5157612b50612afa565b5b80604052505050565b6000612b6461267a565b9050612b708282612b29565b919050565b600067ffffffffffffffff821115612b9057612b8f612afa565b5b612b9982612a4a565b9050602081019050919050565b82818337600083830152505050565b6000612bc8612bc384612b75565b612b5a565b905082815260208101848484011115612be457612be3612af5565b5b612bef848285612ba6565b509392505050565b600082601f830112612c0c57612c0b61268e565b5b8135612c1c848260208601612bb5565b91505092915050565b600060208284031215612c3b57612c3a612684565b5b600082013567ffffffffffffffff811115612c5957612c58612689565b5b612c6584828501612bf7565b91505092915050565b60006020820190508181036000830152612c888184612a5b565b905092915050565b60008060408385031215612ca757612ca6612684565b5b6000612cb585828601612873565b9250506020612cc685828601612873565b9150509250929050565b60008060008060408587031215612cea57612ce9612684565b5b600085013567ffffffffffffffff811115612d0857612d07612689565b5b612d148782880161269d565b9450945050602085013567ffffffffffffffff811115612d3757612d36612689565b5b612d438782880161269d565b925092505092959194509250565b600060208284031215612d6757612d66612684565b5b6000612d7584828501612739565b91505092915050565b7f4e487b7100000000000000000000000000000000000000000000000000000000600052602160045260246000fd5b60048110612dbe57612dbd612d7e565b5b50565b6000819050612dcf82612dad565b919050565b6000612ddf82612dc1565b9050919050565b612def81612dd4565b82525050565b600060a0820190508181036000830152612e0f8188612a5b565b90508181036020830152612e238187612a5b565b90508181036040830152612e378186612a5b565b9050612e466060830185612de6565b612e5360808301846129da565b9695505050505050565b600081519050919050565b600082825260208201905092915050565b6000819050602082019050919050565b612e928161284a565b82525050565b6000612ea48383612e89565b60208301905092915050565b6000602082019050919050565b6000612ec882612e5d565b612ed28185612e68565b9350612edd83612e79565b8060005b83811015612f0e578151612ef58882612e98565b9750612f0083612eb0565b925050600181019050612ee1565b5085935050505092915050565b60006020820190508181036000830152612f358184612ebd565b905092915050565b7f4656323036000000000000000000000000000000000000000000000000000000600082015250565b6000612f73600583612a0f565b9150612f7e82612f3d565b602082019050919050565b60006020820190508181036000830152612fa281612f66565b9050919050565b7f4656323133000000000000000000000000000000000000000000000000000000600082015250565b6000612fdf600583612a0f565b9150612fea82612fa9565b602082019050919050565b6000602082019050818103600083015261300e81612fd2565b9050919050565b7f4656323134000000000000000000000000000000000000000000000000000000600082015250565b600061304b600583612a0f565b915061305682613015565b602082019050919050565b6000602082019050818103600083015261307a8161303e565b9050919050565b7f4e487b7100000000000000000000000000000000000000000000000000000000600052602260045260246000fd5b600060028204905060018216806130c857607f821691505b6020821081036130db576130da613081565b5b50919050565b60008190508160005260206000209050919050565b60006020601f8301049050919050565b600082821b905092915050565b6000600883026131437fffffffffffffffffffffffffffffffffffffffffffffffffffffffffffffffff82613106565b61314d8683613106565b95508019841693508086168417925050509392505050565b6000819050919050565b600061318a61318561318084612718565b613165565b612718565b9050919050565b6000819050919050565b6131a48361316f565b6131b86131b082613191565b848454613113565b825550505050565b600090565b6131cd6131c0565b6131d881848461319b565b505050565b5b818110156131fc576131f16000826131c5565b6001810190506131de565b5050565b601f82111561324157613212816130e1565b61321b846130f6565b8101602085101561322a578190505b61323e613236856130f6565b8301826131dd565b50505b505050565b600082821c905092915050565b600061326460001984600802613246565b1980831691505092915050565b600061327d8383613253565b9150826002028217905092915050565b61329682612a04565b67ffffffffffffffff8111156132af576132ae612afa565b5b6132b982546130b0565b6132c4828285613200565b600060209050601f8311600181146132f757600084156132e5578287015190505b6132ef8582613271565b865550613357565b601f198416613305866130e1565b60005b8281101561332d57848901518255600182019150602085019450602081019050613308565b8683101561334a5784890151613346601f891682613253565b8355505b6001600288020188555050505b505050505050565b600061336b8385612a0f565b9350613378838584612ba6565b61338183612a4a565b840190509392505050565b600060608201905081810360008301526133a781888a61335f565b905081810360208301526133bc81868861335f565b905081810360408301526133d181848661335f565b9050979650505050505050565b7f4656323037000000000000000000000000000000000000000000000000000000600082015250565b6000613414600583612a0f565b915061341f826133de565b602082019050919050565b6000602082019050818103600083015261344381613407565b9050919050565b7f4f776e61626c6532537465703a2063616c6c6572206973206e6f74207468652060008201527f6e6577206f776e65720000000000000000000000000000000000000000000000602082015250565b60006134a6602983612a0f565b91506134b18261344a565b604082019050919050565b600060208201905081810360008301526134d581613499565b9050919050565b600081546134e9816130b0565b6134f38186612a0f565b9450600182166000811461350e576001811461352457613557565b60ff198316865281151560200286019350613557565b61352d856130e1565b60005b8381101561354f57815481890152600182019150602081019050613530565b808801955050505b50505092915050565b6000602082019050818103600083015261357a81846134dc565b905092915050565b7f4e487b7100000000000000000000000000000000000000000000000000000000600052601160045260246000fd5b60006135bc82612718565b91506135c783612718565b92508282039050818111156135df576135de613582565b5b92915050565b7f4656323035000000000000000000000000000000000000000000000000000000600082015250565b600061361b600583612a0f565b9150613626826135e5565b602082019050919050565b6000602082019050818103600083015261364a8161360e565b9050919050565b7f4656323033000000000000000000000000000000000000000000000000000000600082015250565b6000613687600583612a0f565b915061369282613651565b602082019050919050565b600060208201905081810360008301526136b68161367a565b9050919050565b7f4656323034000000000000000000000000000000000000000000000000000000600082015250565b60006136f3600583612a0f565b91506136fe826136bd565b602082019050919050565b60006020820190508181036000830152613722816136e6565b9050919050565b600061373482612718565b91506000820361374757613746613582565b5b600182039050919050565b7f4e487b7100000000000000000000000000000000000000000000000000000000600052603260045260246000fd5b600061378c82612718565b91507fffffffffffffffffffffffffffffffffffffffffffffffffffffffffffffffff82036137be576137bd613582565b5b600182019050919050565b7f526f6c65204d697373696e670000000000000000000000000000000000000000600082015250565b60006137ff600c83612a0f565b915061380a826137c9565b602082019050919050565b6000602082019050818103600083015261382e816137f2565b9050919050565b7f4f776e61626c653a2063616c6c6572206973206e6f7420746865206f776e6572600082015250565b600061386b602083612a0f565b915061387682613835565b602082019050919050565b6000602082019050818103600083015261389a8161385e565b9050919050565b7f4656323039000000000000000000000000000000000000000000000000000000600082015250565b60006138d7600583612a0f565b91506138e2826138a1565b602082019050919050565b60006020820190508181036000830152613906816138ca565b9050919050565b7f4656323031000000000000000000000000000000000000000000000000000000600082015250565b6000613943600583612a0f565b915061394e8261390d565b602082019050919050565b6000602082019050818103600083015261397281613936565b9050919050565b600061398482612718565b915061398f83612718565b92508282019050808211156139a7576139a6613582565b5b9291505056fea2646970667358221220b28ed1938ce70b547268da2fcc38313540d025da0d230f587cc8acc55b7d6f4264736f6c6343000811003346696c657665727365205a7550617373205265676973747279202d204574684265726c696ea2646970667358221220477b8f0c654ce19ca99ab67d07cd527a5a39015c2a3259855d6cfbfba3c5eb4364736f6c63430008110033",
			"opcodes": "PUSH1 0xC0 PUSH1 0x40 MSTORE PUSH1 0x40 MLOAD DUP1 PUSH1 0x20 ADD PUSH1 0x40 MSTORE DUP1 PUSH16 0x53EDB3E7673341E0A9BE488877C5C572 PUSH16 0xFFFFFFFFFFFFFFFFFFFFFFFFFFFFFFFF AND DUP2 MSTORE POP PUSH1 0x6 SWAP1 PUSH1 0x1 PUSH3 0x47 SWAP3 SWAP2 SWAP1 PUSH3 0x1CE JUMP JUMPDEST POP PUSH1 0x40 MLOAD DUP1 PUSH1 0x40 ADD PUSH1 0x40 MSTORE DUP1 PUSH32 0x1EBFB986FBAC5113F8E2C72286FE9362F8E7D211DBC68227A468D7B919E75003 DUP2 MSTORE PUSH1 0x20 ADD PUSH32 0x10EC38F11BAACAD5535525BBE8E343074A483C051AA1616266F3B1DF3FB7D204 DUP2 MSTORE POP PUSH1 0x7 SWAP1 PUSH1 0x2 PUSH3 0xAF SWAP3 SWAP2 SWAP1 PUSH3 0x227 JUMP JUMPDEST POP CALLVALUE DUP1 ISZERO PUSH3 0xBD JUMPI PUSH1 0x0 DUP1 REVERT JUMPDEST POP PUSH1 0x40 MLOAD PUSH3 0x8A7A CODESIZE SUB DUP1 PUSH3 0x8A7A DUP4 CODECOPY DUP2 DUP2 ADD PUSH1 0x40 MSTORE DUP2 ADD SWAP1 PUSH3 0xE3 SWAP2 SWAP1 PUSH3 0x2F5 JUMP JUMPDEST DUP1 PUSH1 0x1 PUSH1 0x0 DUP2 SWAP1 SSTORE POP DUP1 PUSH20 0xFFFFFFFFFFFFFFFFFFFFFFFFFFFFFFFFFFFFFFFF AND PUSH1 0x80 DUP2 PUSH20 0xFFFFFFFFFFFFFFFFFFFFFFFFFFFFFFFFFFFFFFFF AND DUP2 MSTORE POP POP POP PUSH1 0x0 PUSH20 0xFFFFFFFFFFFFFFFFFFFFFFFFFFFFFFFFFFFFFFFF AND DUP2 PUSH20 0xFFFFFFFFFFFFFFFFFFFFFFFFFFFFFFFFFFFFFFFF AND SUB PUSH3 0x193 JUMPI PUSH1 0x40 MLOAD PUSH32 0x8C379A000000000000000000000000000000000000000000000000000000000 DUP2 MSTORE PUSH1 0x4 ADD PUSH3 0x18A SWAP1 PUSH3 0x388 JUMP JUMPDEST PUSH1 0x40 MLOAD DUP1 SWAP2 SUB SWAP1 REVERT JUMPDEST DUP1 PUSH20 0xFFFFFFFFFFFFFFFFFFFFFFFFFFFFFFFFFFFFFFFF AND PUSH1 0xA0 DUP2 PUSH20 0xFFFFFFFFFFFFFFFFFFFFFFFFFFFFFFFFFFFFFFFF AND DUP2 MSTORE POP POP POP PUSH3 0x3AA JUMP JUMPDEST DUP3 PUSH1 0x1 DUP2 ADD SWAP3 DUP3 ISZERO PUSH3 0x214 JUMPI SWAP2 PUSH1 0x20 MUL DUP3 ADD JUMPDEST DUP3 DUP2 GT ISZERO PUSH3 0x213 JUMPI DUP3 MLOAD DUP3 SWAP1 PUSH16 0xFFFFFFFFFFFFFFFFFFFFFFFFFFFFFFFF AND SWAP1 SSTORE SWAP2 PUSH1 0x20 ADD SWAP2 SWAP1 PUSH1 0x1 ADD SWAP1 PUSH3 0x1E2 JUMP JUMPDEST JUMPDEST POP SWAP1 POP PUSH3 0x223 SWAP2 SWAP1 PUSH3 0x26C JUMP JUMPDEST POP SWAP1 JUMP JUMPDEST DUP3 PUSH1 0x2 DUP2 ADD SWAP3 DUP3 ISZERO PUSH3 0x259 JUMPI SWAP2 PUSH1 0x20 MUL DUP3 ADD JUMPDEST DUP3 DUP2 GT ISZERO PUSH3 0x258 JUMPI DUP3 MLOAD DUP3 SSTORE SWAP2 PUSH1 0x20 ADD SWAP2 SWAP1 PUSH1 0x1 ADD SWAP1 PUSH3 0x23B JUMP JUMPDEST JUMPDEST POP SWAP1 POP PUSH3 0x268 SWAP2 SWAP1 PUSH3 0x26C JUMP JUMPDEST POP SWAP1 JUMP JUMPDEST JUMPDEST DUP1 DUP3 GT ISZERO PUSH3 0x287 JUMPI PUSH1 0x0 DUP2 PUSH1 0x0 SWAP1 SSTORE POP PUSH1 0x1 ADD PUSH3 0x26D JUMP JUMPDEST POP SWAP1 JUMP JUMPDEST PUSH1 0x0 DUP1 REVERT JUMPDEST PUSH1 0x0 PUSH20 0xFFFFFFFFFFFFFFFFFFFFFFFFFFFFFFFFFFFFFFFF DUP3 AND SWAP1 POP SWAP2 SWAP1 POP JUMP JUMPDEST PUSH1 0x0 PUSH3 0x2BD DUP3 PUSH3 0x290 JUMP JUMPDEST SWAP1 POP SWAP2 SWAP1 POP JUMP JUMPDEST PUSH3 0x2CF DUP2 PUSH3 0x2B0 JUMP JUMPDEST DUP2 EQ PUSH3 0x2DB JUMPI PUSH1 0x0 DUP1 REVERT JUMPDEST POP JUMP JUMPDEST PUSH1 0x0 DUP2 MLOAD SWAP1 POP PUSH3 0x2EF DUP2 PUSH3 0x2C4 JUMP JUMPDEST SWAP3 SWAP2 POP POP JUMP JUMPDEST PUSH1 0x0 PUSH1 0x20 DUP3 DUP5 SUB SLT ISZERO PUSH3 0x30E JUMPI PUSH3 0x30D PUSH3 0x28B JUMP JUMPDEST JUMPDEST PUSH1 0x0 PUSH3 0x31E DUP5 DUP3 DUP6 ADD PUSH3 0x2DE JUMP JUMPDEST SWAP2 POP POP SWAP3 SWAP2 POP POP JUMP JUMPDEST PUSH1 0x0 DUP3 DUP3 MSTORE PUSH1 0x20 DUP3 ADD SWAP1 POP SWAP3 SWAP2 POP POP JUMP JUMPDEST PUSH32 0x4656323131000000000000000000000000000000000000000000000000000000 PUSH1 0x0 DUP3 ADD MSTORE POP JUMP JUMPDEST PUSH1 0x0 PUSH3 0x370 PUSH1 0x5 DUP4 PUSH3 0x327 JUMP JUMPDEST SWAP2 POP PUSH3 0x37D DUP3 PUSH3 0x338 JUMP JUMPDEST PUSH1 0x20 DUP3 ADD SWAP1 POP SWAP2 SWAP1 POP JUMP JUMPDEST PUSH1 0x0 PUSH1 0x20 DUP3 ADD SWAP1 POP DUP2 DUP2 SUB PUSH1 0x0 DUP4 ADD MSTORE PUSH3 0x3A3 DUP2 PUSH3 0x361 JUMP JUMPDEST SWAP1 POP SWAP2 SWAP1 POP JUMP JUMPDEST PUSH1 0x80 MLOAD PUSH1 0xA0 MLOAD PUSH2 0x86AA PUSH3 0x3D0 PUSH1 0x0 CODECOPY PUSH1 0x0 PUSH2 0x81C ADD MSTORE PUSH1 0x0 PUSH2 0x4A2 ADD MSTORE PUSH2 0x86AA PUSH1 0x0 RETURN INVALID PUSH1 0x80 PUSH1 0x40 MSTORE CALLVALUE DUP1 ISZERO PUSH3 0x11 JUMPI PUSH1 0x0 DUP1 REVERT JUMPDEST POP PUSH1 0x4 CALLDATASIZE LT PUSH3 0xC4 JUMPI PUSH1 0x0 CALLDATALOAD PUSH1 0xE0 SHR DUP1 PUSH4 0x7A21695D GT PUSH3 0x7B JUMPI DUP1 PUSH4 0x7A21695D EQ PUSH3 0x1F9 JUMPI DUP1 PUSH4 0x831E4AE0 EQ PUSH3 0x219 JUMPI DUP1 PUSH4 0xA9EC656A EQ PUSH3 0x24F JUMPI DUP1 PUSH4 0xBAD9744D EQ PUSH3 0x285 JUMPI DUP1 PUSH4 0xBF0392C2 EQ PUSH3 0x2BB JUMPI DUP1 PUSH4 0xCB9F5B60 EQ PUSH3 0x2F1 JUMPI PUSH3 0xC4 JUMP JUMPDEST DUP1 PUSH4 0x6FDDE03 EQ PUSH3 0xC9 JUMPI DUP1 PUSH4 0x14AFD79E EQ PUSH3 0xEB JUMPI DUP1 PUSH4 0x183AAA39 EQ PUSH3 0x121 JUMPI DUP1 PUSH4 0x21673151 EQ PUSH3 0x157 JUMPI DUP1 PUSH4 0x572B6C05 EQ PUSH3 0x18D JUMPI DUP1 PUSH4 0x6392A51F EQ PUSH3 0x1C3 JUMPI JUMPDEST PUSH1 0x0 DUP1 REVERT JUMPDEST PUSH3 0xD3 PUSH3 0x327 JUMP JUMPDEST PUSH1 0x40 MLOAD PUSH3 0xE2 SWAP2 SWAP1 PUSH3 0x26F0 JUMP JUMPDEST PUSH1 0x40 MLOAD DUP1 SWAP2 SUB SWAP1 RETURN JUMPDEST PUSH3 0x109 PUSH1 0x4 DUP1 CALLDATASIZE SUB DUP2 ADD SWAP1 PUSH3 0x103 SWAP2 SWAP1 PUSH3 0x278D JUMP JUMPDEST PUSH3 0x344 JUMP JUMPDEST PUSH1 0x40 MLOAD PUSH3 0x118 SWAP2 SWAP1 PUSH3 0x27D0 JUMP JUMPDEST PUSH1 0x40 MLOAD DUP1 SWAP2 SUB SWAP1 RETURN JUMPDEST PUSH3 0x13F PUSH1 0x4 DUP1 CALLDATASIZE SUB DUP2 ADD SWAP1 PUSH3 0x139 SWAP2 SWAP1 PUSH3 0x297A JUMP JUMPDEST PUSH3 0x3AD JUMP JUMPDEST PUSH1 0x40 MLOAD PUSH3 0x14E SWAP2 SWAP1 PUSH3 0x2A7B JUMP JUMPDEST PUSH1 0x40 MLOAD DUP1 SWAP2 SUB SWAP1 RETURN JUMPDEST PUSH3 0x175 PUSH1 0x4 DUP1 CALLDATASIZE SUB DUP2 ADD SWAP1 PUSH3 0x16F SWAP2 SWAP1 PUSH3 0x297A JUMP JUMPDEST PUSH3 0x479 JUMP JUMPDEST PUSH1 0x40 MLOAD PUSH3 0x184 SWAP2 SWAP1 PUSH3 0x2AB0 JUMP JUMPDEST PUSH1 0x40 MLOAD DUP1 SWAP2 SUB SWAP1 RETURN JUMPDEST PUSH3 0x1AB PUSH1 0x4 DUP1 CALLDATASIZE SUB DUP2 ADD SWAP1 PUSH3 0x1A5 SWAP2 SWAP1 PUSH3 0x278D JUMP JUMPDEST PUSH3 0x49E JUMP JUMPDEST PUSH1 0x40 MLOAD PUSH3 0x1BA SWAP2 SWAP1 PUSH3 0x2AEA JUMP JUMPDEST PUSH1 0x40 MLOAD DUP1 SWAP2 SUB SWAP1 RETURN JUMPDEST PUSH3 0x1E1 PUSH1 0x4 DUP1 CALLDATASIZE SUB DUP2 ADD SWAP1 PUSH3 0x1DB SWAP2 SWAP1 PUSH3 0x278D JUMP JUMPDEST PUSH3 0x4F6 JUMP JUMPDEST PUSH1 0x40 MLOAD PUSH3 0x1F0 SWAP2 SWAP1 PUSH3 0x2AB0 JUMP JUMPDEST PUSH1 0x40 MLOAD DUP1 SWAP2 SUB SWAP1 RETURN JUMPDEST PUSH3 0x217 PUSH1 0x4 DUP1 CALLDATASIZE SUB DUP2 ADD SWAP1 PUSH3 0x211 SWAP2 SWAP1 PUSH3 0x2B93 JUMP JUMPDEST PUSH3 0x53F JUMP JUMPDEST STOP JUMPDEST PUSH3 0x237 PUSH1 0x4 DUP1 CALLDATASIZE SUB DUP2 ADD SWAP1 PUSH3 0x231 SWAP2 SWAP1 PUSH3 0x2CE0 JUMP JUMPDEST PUSH3 0x8FC JUMP JUMPDEST PUSH1 0x40 MLOAD PUSH3 0x246 SWAP2 SWAP1 PUSH3 0x2AEA JUMP JUMPDEST PUSH1 0x40 MLOAD DUP1 SWAP2 SUB SWAP1 RETURN JUMPDEST PUSH3 0x26D PUSH1 0x4 DUP1 CALLDATASIZE SUB DUP2 ADD SWAP1 PUSH3 0x267 SWAP2 SWAP1 PUSH3 0x297A JUMP JUMPDEST PUSH3 0x1BB0 JUMP JUMPDEST PUSH1 0x40 MLOAD PUSH3 0x27C SWAP2 SWAP1 PUSH3 0x2DE4 JUMP JUMPDEST PUSH1 0x40 MLOAD DUP1 SWAP2 SUB SWAP1 RETURN JUMPDEST PUSH3 0x2A3 PUSH1 0x4 DUP1 CALLDATASIZE SUB DUP2 ADD SWAP1 PUSH3 0x29D SWAP2 SWAP1 PUSH3 0x2E01 JUMP JUMPDEST PUSH3 0x1C45 JUMP JUMPDEST PUSH1 0x40 MLOAD PUSH3 0x2B2 SWAP2 SWAP1 PUSH3 0x2F73 JUMP JUMPDEST PUSH1 0x40 MLOAD DUP1 SWAP2 SUB SWAP1 RETURN JUMPDEST PUSH3 0x2D9 PUSH1 0x4 DUP1 CALLDATASIZE SUB DUP2 ADD SWAP1 PUSH3 0x2D3 SWAP2 SWAP1 PUSH3 0x278D JUMP JUMPDEST PUSH3 0x1E4D JUMP JUMPDEST PUSH1 0x40 MLOAD PUSH3 0x2E8 SWAP2 SWAP1 PUSH3 0x2FDF JUMP JUMPDEST PUSH1 0x40 MLOAD DUP1 SWAP2 SUB SWAP1 RETURN JUMPDEST PUSH3 0x30F PUSH1 0x4 DUP1 CALLDATASIZE SUB DUP2 ADD SWAP1 PUSH3 0x309 SWAP2 SWAP1 PUSH3 0x2FFC JUMP JUMPDEST PUSH3 0x1F12 JUMP JUMPDEST PUSH1 0x40 MLOAD PUSH3 0x31E SWAP2 SWAP1 PUSH3 0x2F73 JUMP JUMPDEST PUSH1 0x40 MLOAD DUP1 SWAP2 SUB SWAP1 RETURN JUMPDEST PUSH1 0x40 MLOAD DUP1 PUSH1 0x60 ADD PUSH1 0x40 MSTORE DUP1 PUSH1 0x25 DUP2 MSTORE PUSH1 0x20 ADD PUSH3 0x8650 PUSH1 0x25 SWAP2 CODECOPY DUP2 JUMP JUMPDEST PUSH1 0x0 PUSH1 0x2 PUSH1 0x0 DUP4 PUSH20 0xFFFFFFFFFFFFFFFFFFFFFFFFFFFFFFFFFFFFFFFF AND PUSH20 0xFFFFFFFFFFFFFFFFFFFFFFFFFFFFFFFFFFFFFFFF AND DUP2 MSTORE PUSH1 0x20 ADD SWAP1 DUP2 MSTORE PUSH1 0x20 ADD PUSH1 0x0 KECCAK256 PUSH1 0x0 SWAP1 SLOAD SWAP1 PUSH2 0x100 EXP SWAP1 DIV PUSH20 0xFFFFFFFFFFFFFFFFFFFFFFFFFFFFFFFFFFFFFFFF AND SWAP1 POP SWAP2 SWAP1 POP JUMP JUMPDEST PUSH1 0x60 PUSH1 0x0 PUSH1 0x1 PUSH8 0xFFFFFFFFFFFFFFFF DUP2 GT ISZERO PUSH3 0x3CF JUMPI PUSH3 0x3CE PUSH3 0x27F2 JUMP JUMPDEST JUMPDEST PUSH1 0x40 MLOAD SWAP1 DUP1 DUP3 MSTORE DUP1 PUSH1 0x20 MUL PUSH1 0x20 ADD DUP3 ADD PUSH1 0x40 MSTORE DUP1 ISZERO PUSH3 0x3FE JUMPI DUP2 PUSH1 0x20 ADD PUSH1 0x20 DUP3 MUL DUP1 CALLDATASIZE DUP4 CALLDATACOPY DUP1 DUP3 ADD SWAP2 POP POP SWAP1 POP JUMPDEST POP SWAP1 POP PUSH1 0x0 JUMPDEST PUSH1 0x1 DUP2 LT ISZERO PUSH3 0x46F JUMPI DUP4 DUP2 PUSH1 0xF PUSH3 0x41E SWAP2 SWAP1 PUSH3 0x3072 JUMP JUMPDEST PUSH1 0x26 DUP2 LT PUSH3 0x432 JUMPI PUSH3 0x431 PUSH3 0x30AD JUMP JUMPDEST JUMPDEST PUSH1 0x20 MUL ADD MLOAD DUP3 DUP3 DUP2 MLOAD DUP2 LT PUSH3 0x44D JUMPI PUSH3 0x44C PUSH3 0x30AD JUMP JUMPDEST JUMPDEST PUSH1 0x20 MUL PUSH1 0x20 ADD ADD DUP2 DUP2 MSTORE POP POP DUP1 DUP1 PUSH3 0x466 SWAP1 PUSH3 0x30DC JUMP JUMPDEST SWAP2 POP POP PUSH3 0x404 JUMP JUMPDEST POP DUP1 SWAP2 POP POP SWAP2 SWAP1 POP JUMP JUMPDEST PUSH1 0x0 DUP2 PUSH1 0x25 PUSH1 0x26 DUP2 LT PUSH3 0x492 JUMPI PUSH3 0x491 PUSH3 0x30AD JUMP JUMPDEST JUMPDEST PUSH1 0x20 MUL ADD MLOAD SWAP1 POP SWAP2 SWAP1 POP JUMP JUMPDEST PUSH1 0x0 PUSH32 0x0 PUSH20 0xFFFFFFFFFFFFFFFFFFFFFFFFFFFFFFFFFFFFFFFF AND DUP3 PUSH20 0xFFFFFFFFFFFFFFFFFFFFFFFFFFFFFFFFFFFFFFFF AND EQ SWAP1 POP SWAP2 SWAP1 POP JUMP JUMPDEST PUSH1 0x0 PUSH1 0x1 PUSH1 0x0 DUP4 PUSH20 0xFFFFFFFFFFFFFFFFFFFFFFFFFFFFFFFFFFFFFFFF AND PUSH20 0xFFFFFFFFFFFFFFFFFFFFFFFFFFFFFFFFFFFFFFFF AND DUP2 MSTORE PUSH1 0x20 ADD SWAP1 DUP2 MSTORE PUSH1 0x20 ADD PUSH1 0x0 KECCAK256 SLOAD SWAP1 POP SWAP2 SWAP1 POP JUMP JUMPDEST DUP1 ADDRESS PUSH20 0xFFFFFFFFFFFFFFFFFFFFFFFFFFFFFFFFFFFFFFFF AND PUSH4 0x831E4AE0 DUP3 PUSH1 0x0 ADD DUP4 PUSH1 0x40 ADD DUP5 PUSH1 0xC0 ADD DUP6 PUSH2 0x100 ADD PUSH1 0x40 MLOAD DUP6 PUSH4 0xFFFFFFFF AND PUSH1 0xE0 SHL DUP2 MSTORE PUSH1 0x4 ADD PUSH3 0x58E SWAP5 SWAP4 SWAP3 SWAP2 SWAP1 PUSH3 0x3228 JUMP JUMPDEST PUSH1 0x20 PUSH1 0x40 MLOAD DUP1 DUP4 SUB DUP2 DUP7 GAS STATICCALL ISZERO DUP1 ISZERO PUSH3 0x5AC JUMPI RETURNDATASIZE PUSH1 0x0 DUP1 RETURNDATACOPY RETURNDATASIZE PUSH1 0x0 REVERT JUMPDEST POP POP POP POP PUSH1 0x40 MLOAD RETURNDATASIZE PUSH1 0x1F NOT PUSH1 0x1F DUP3 ADD AND DUP3 ADD DUP1 PUSH1 0x40 MSTORE POP DUP2 ADD SWAP1 PUSH3 0x5D2 SWAP2 SWAP1 PUSH3 0x32A8 JUMP JUMPDEST PUSH3 0x614 JUMPI PUSH1 0x40 MLOAD PUSH32 0x8C379A000000000000000000000000000000000000000000000000000000000 DUP2 MSTORE PUSH1 0x4 ADD PUSH3 0x60B SWAP1 PUSH3 0x332A JUMP JUMPDEST PUSH1 0x40 MLOAD DUP1 SWAP2 SUB SWAP1 REVERT JUMPDEST DUP2 PUSH2 0x100 ADD PUSH1 0x26 DUP1 PUSH1 0x20 MUL PUSH1 0x40 MLOAD SWAP1 DUP2 ADD PUSH1 0x40 MSTORE DUP1 SWAP3 SWAP2 SWAP1 DUP3 PUSH1 0x26 PUSH1 0x20 MUL DUP1 DUP3 DUP5 CALLDATACOPY PUSH1 0x0 DUP2 DUP5 ADD MSTORE PUSH1 0x1F NOT PUSH1 0x1F DUP3 ADD AND SWAP1 POP DUP1 DUP4 ADD SWAP3 POP POP POP POP POP POP PUSH1 0x0 PUSH3 0x65D DUP3 PUSH3 0x3AD JUMP JUMPDEST SWAP1 POP PUSH1 0x6 PUSH1 0x40 MLOAD PUSH1 0x20 ADD PUSH3 0x673 SWAP2 SWAP1 PUSH3 0x345A JUMP JUMPDEST PUSH1 0x40 MLOAD PUSH1 0x20 DUP2 DUP4 SUB SUB DUP2 MSTORE SWAP1 PUSH1 0x40 MSTORE DUP1 MLOAD SWAP1 PUSH1 0x20 ADD KECCAK256 DUP2 PUSH1 0x40 MLOAD PUSH1 0x20 ADD PUSH3 0x69C SWAP2 SWAP1 PUSH3 0x34EC JUMP JUMPDEST PUSH1 0x40 MLOAD PUSH1 0x20 DUP2 DUP4 SUB SUB DUP2 MSTORE SWAP1 PUSH1 0x40 MSTORE DUP1 MLOAD SWAP1 PUSH1 0x20 ADD KECCAK256 EQ PUSH3 0x6F5 JUMPI PUSH1 0x40 MLOAD PUSH32 0x8C379A000000000000000000000000000000000000000000000000000000000 DUP2 MSTORE PUSH1 0x4 ADD PUSH3 0x6EC SWAP1 PUSH3 0x3555 JUMP JUMPDEST PUSH1 0x40 MLOAD DUP1 SWAP2 SUB SWAP1 REVERT JUMPDEST DUP4 PUSH2 0x100 ADD PUSH1 0x26 DUP1 PUSH1 0x20 MUL PUSH1 0x40 MLOAD SWAP1 DUP2 ADD PUSH1 0x40 MSTORE DUP1 SWAP3 SWAP2 SWAP1 DUP3 PUSH1 0x26 PUSH1 0x20 MUL DUP1 DUP3 DUP5 CALLDATACOPY PUSH1 0x0 DUP2 DUP5 ADD MSTORE PUSH1 0x1F NOT PUSH1 0x1F DUP3 ADD AND SWAP1 POP DUP1 DUP4 ADD SWAP3 POP POP POP POP POP POP PUSH1 0x0 PUSH3 0x73E DUP3 PUSH3 0x1BB0 JUMP JUMPDEST SWAP1 POP PUSH1 0x7 PUSH1 0x0 PUSH1 0x2 DUP2 LT PUSH3 0x758 JUMPI PUSH3 0x757 PUSH3 0x30AD JUMP JUMPDEST JUMPDEST ADD SLOAD DUP2 PUSH1 0x0 PUSH1 0x2 DUP2 LT PUSH3 0x771 JUMPI PUSH3 0x770 PUSH3 0x30AD JUMP JUMPDEST JUMPDEST PUSH1 0x20 MUL ADD MLOAD EQ DUP1 ISZERO PUSH3 0x7B7 JUMPI POP PUSH1 0x7 PUSH1 0x1 PUSH1 0x2 DUP2 LT PUSH3 0x797 JUMPI PUSH3 0x796 PUSH3 0x30AD JUMP JUMPDEST JUMPDEST ADD SLOAD DUP2 PUSH1 0x1 PUSH1 0x2 DUP2 LT PUSH3 0x7B0 JUMPI PUSH3 0x7AF PUSH3 0x30AD JUMP JUMPDEST JUMPDEST PUSH1 0x20 MUL ADD MLOAD EQ JUMPDEST PUSH3 0x7F9 JUMPI PUSH1 0x40 MLOAD PUSH32 0x8C379A000000000000000000000000000000000000000000000000000000000 DUP2 MSTORE PUSH1 0x4 ADD PUSH3 0x7F0 SWAP1 PUSH3 0x35C7 JUMP JUMPDEST PUSH1 0x40 MLOAD DUP1 SWAP2 SUB SWAP1 REVERT JUMPDEST PUSH3 0x803 PUSH3 0x20E5 JUMP JUMPDEST PUSH1 0x0 PUSH3 0x80F PUSH3 0x2137 JUMP JUMPDEST SWAP1 POP PUSH1 0x0 DUP14 DUP14 DUP14 DUP14 DUP14 DUP14 DUP8 PUSH32 0x0 PUSH1 0x40 MLOAD PUSH3 0x849 SWAP1 PUSH3 0x25EF JUMP JUMPDEST PUSH3 0x85C SWAP9 SWAP8 SWAP7 SWAP6 SWAP5 SWAP4 SWAP3 SWAP2 SWAP1 PUSH3 0x362B JUMP JUMPDEST PUSH1 0x40 MLOAD DUP1 SWAP2 SUB SWAP1 PUSH1 0x0 CREATE DUP1 ISZERO DUP1 ISZERO PUSH3 0x879 JUMPI RETURNDATASIZE PUSH1 0x0 DUP1 RETURNDATACOPY RETURNDATASIZE PUSH1 0x0 REVERT JUMPDEST POP SWAP1 POP PUSH3 0x888 DUP3 DUP3 PUSH3 0x2170 JUMP JUMPDEST DUP1 PUSH20 0xFFFFFFFFFFFFFFFFFFFFFFFFFFFFFFFFFFFFFFFF AND DUP3 PUSH20 0xFFFFFFFFFFFFFFFFFFFFFFFFFFFFFFFFFFFFFFFF AND PUSH32 0xC5004D0DE103A4CE335EC7DFBB178F69E81ECD773D402C331DAFC66C465A020A PUSH1 0x40 MLOAD PUSH1 0x40 MLOAD DUP1 SWAP2 SUB SWAP1 LOG3 POP POP PUSH3 0x8EE PUSH3 0x2525 JUMP JUMPDEST POP POP POP POP POP POP POP POP POP POP POP POP JUMP JUMPDEST PUSH1 0x0 PUSH3 0x1924 JUMP JUMPDEST PUSH32 0x30644E72E131A029B85045B68181585D97816A916871CA8D3C208C16D87CFD47 DUP2 LT PUSH3 0x936 JUMPI PUSH1 0x0 DUP1 MSTORE PUSH1 0x20 PUSH1 0x0 RETURN JUMPDEST POP JUMP JUMPDEST PUSH1 0x0 PUSH1 0x40 MLOAD DUP4 DUP2 MSTORE DUP5 PUSH1 0x20 DUP3 ADD MSTORE DUP6 PUSH1 0x40 DUP3 ADD MSTORE PUSH1 0x40 DUP2 PUSH1 0x60 DUP4 PUSH1 0x7 PUSH2 0x7D0 GAS SUB STATICCALL SWAP2 POP DUP2 PUSH3 0x96D JUMPI PUSH1 0x0 DUP1 MSTORE PUSH1 0x20 PUSH1 0x0 RETURN JUMPDEST DUP3 MLOAD PUSH1 0x40 DUP3 ADD MSTORE PUSH1 0x20 DUP4 ADD MLOAD PUSH1 0x60 DUP3 ADD MSTORE PUSH1 0x40 DUP4 PUSH1 0x80 DUP4 PUSH1 0x6 PUSH2 0x7D0 GAS SUB STATICCALL SWAP2 POP DUP2 PUSH3 0x99E JUMPI PUSH1 0x0 DUP1 MSTORE PUSH1 0x20 PUSH1 0x0 RETURN JUMPDEST POP POP POP POP POP POP JUMP JUMPDEST PUSH1 0x0 PUSH1 0x80 DUP7 ADD PUSH1 0x0 DUP8 ADD PUSH32 0xF9006886F6F20FF507615A18B97E3C01A4014043C38B27CDE5A7CDF7DAB0D7F DUP2 MSTORE PUSH32 0x1E92B1B255AC9824DD1EE75E42C910E057E6DD572DE9AAD0494189943D373EB1 PUSH1 0x20 DUP3 ADD MSTORE PUSH3 0xA4B PUSH1 0x0 DUP9 ADD CALLDATALOAD PUSH32 0x2CB53751205CF78A9CF5E100F215C610367178554C581286E82CE6894D769EE1 PUSH32 0x8C033375F7B9B4D4D21AB61CF95398B85CEAB592496FAC5E0278C847E674276 DUP5 PUSH3 0x939 JUMP JUMPDEST PUSH3 0xA9D PUSH1 0x20 DUP9 ADD CALLDATALOAD PUSH32 0x52490713E636A97E1FB031B2D3384C4AB2D6F6ED3AC9F459FAC2D2BA4A1B2E0 PUSH32 0x1FD7CD23534B84D17783C31E441AA2EB95A050B9127E37A9F5587A1751F71EB DUP5 PUSH3 0x939 JUMP JUMPDEST PUSH3 0xAEF PUSH1 0x40 DUP9 ADD CALLDATALOAD PUSH32 0x256616621649A845CB66BABD1F676BA44D689E683EB7EB53374E48B8E4C409B1 PUSH32 0xB228257AD0859000E38BDF38FF787E6B829B3CD0040AB92164D6171F3B085EA DUP5 PUSH3 0x939 JUMP JUMPDEST PUSH3 0xB41 PUSH1 0x60 DUP9 ADD CALLDATALOAD PUSH32 0x186E961F4C05F1671F7994E4500382EEFC07EA1DDC6A5A1A60F6EE347C7BE057 PUSH32 0x2979D724649FC184F1091ABDEDB64EA58401B0C0E54E9480A1C2EF5601C087E0 DUP5 PUSH3 0x939 JUMP JUMPDEST PUSH3 0xB93 PUSH1 0x80 DUP9 ADD CALLDATALOAD PUSH32 0x27081B7A953C3790BF751674A50A23821E7F3841D7B0418E61B5277D6AAA7CCC PUSH32 0x1FD8FFD81E555806FFDC9E0F034C1373AE012499E7E67D5EDC01582790D40993 DUP5 PUSH3 0x939 JUMP JUMPDEST PUSH3 0xBE5 PUSH1 0xA0 DUP9 ADD CALLDATALOAD PUSH32 0xE82363237A4DC55526E001EB1D695C3E9039986E9A2373455BA4B570ACC7264 PUSH32 0x13498910321D23EA90B409E45E90C40E837C70EEFFD5CA85A02ECCBCEADE6B53 DUP5 PUSH3 0x939 JUMP JUMPDEST PUSH3 0xC37 PUSH1 0xC0 DUP9 ADD CALLDATALOAD PUSH32 0x2E2315C45313E02591BA43319399B74BEDD9CED2793F602F6B22EAFE003F8B4A PUSH32 0x203A8F7D111AD941E485F2692C256680B752EDC3CD8CCD92E620CF17FF3534D2 DUP5 PUSH3 0x939 JUMP JUMPDEST PUSH3 0xC89 PUSH1 0xE0 DUP9 ADD CALLDATALOAD PUSH32 0x1E86FB929660FDAA69F10BE5714651ED0DE3DFD49F06238334F937D9D3E2733F PUSH32 0x21564B1E9DB2B247E0921254E9F0F75E3FCBE2D1D30A202B2BE65E4B18A152E0 DUP5 PUSH3 0x939 JUMP JUMPDEST PUSH3 0xCDC PUSH2 0x100 DUP9 ADD CALLDATALOAD PUSH32 0x16EC5DCB66E609A8D89E711444D32E586F662354E41084E2888EBB97F5B6722 PUSH32 0x1A71BFA4C37985B56863021A5C26E1A561CDD4CFA2F1AA9327F632B4670F5242 DUP5 PUSH3 0x939 JUMP JUMPDEST PUSH3 0xD2F PUSH2 0x120 DUP9 ADD CALLDATALOAD PUSH32 0x1831182339EB45624402AF0E2887A9A93B33ABC52C8D50096ACA373449396CD6 PUSH32 0x15E1F2D6B38CAE9960ACEAE8D832067AAC43565737B79C4875B6DD7A67D4BFC9 DUP5 PUSH3 0x939 JUMP JUMPDEST PUSH3 0xD82 PUSH2 0x140 DUP9 ADD CALLDATALOAD PUSH32 0x5DD559259952DAAD5AD52F86970C2FA050974D317CC2AD04DD58F59ECBC7E78 PUSH32 0x3020CDDE5EB7DF9C7AFD526EDB333A11DCDB1F271E3E7D31DAC1AD0DDC7B7553 DUP5 PUSH3 0x939 JUMP JUMPDEST PUSH3 0xDD5 PUSH2 0x160 DUP9 ADD CALLDATALOAD PUSH32 0x1F63433F4731866908A7FDD84E9A6A9CC5584C8E9A6C9541183C17E018660F01 PUSH32 0x176401669C60E015427C97B4F4E756E9B12A249FBC767240A1B95B6E90339AF8 DUP5 PUSH3 0x939 JUMP JUMPDEST PUSH3 0xE28 PUSH2 0x180 DUP9 ADD CALLDATALOAD PUSH32 0x1BECF90EF08F14887607386CF5C4AE46EAC76CC93F9B28E3DC6720F2A8636F72 PUSH32 0x266D92BB0C7CF54C13320EC43B304AAE7C1E68AB8C633F6BC079BECA7B83B8A8 DUP5 PUSH3 0x939 JUMP JUMPDEST PUSH3 0xE7B PUSH2 0x1A0 DUP9 ADD CALLDATALOAD PUSH32 0xF16BCA08D7672C2C6A70B097F780D92CB6ABE71231530AB38BE47EC4BB9F065 PUSH32 0x1ECEF5129F49F6C4F70856DB2437C3342D840EF55E7F674431B39235BB32A2E5 DUP5 PUSH3 0x939 JUMP JUMPDEST PUSH3 0xECE PUSH2 0x1C0 DUP9 ADD CALLDATALOAD PUSH32 0xE57EC4267B4DF8C79888D886080DDDD7330233A9EA5489DBE03A388741ADC65 PUSH32 0xF8BF7735DA92118F10B840163FC142A2F8C35C5DAF732D0375F30EC021C3822 DUP5 PUSH3 0x939 JUMP JUMPDEST PUSH3 0xF20 PUSH2 0x1E0 DUP9 ADD CALLDATALOAD PUSH32 0x25D3C509D8F46E27EF324E20DAD1BEFE8F5EF4C5698065D8B2EC025B80A4BDB9 PUSH31 0x128AE85C76FBC1214B05CC94ACB1A72E3F1FC009250A9A7C3EB907E1AAAB4A DUP5 PUSH3 0x939 JUMP JUMPDEST PUSH3 0xF73 PUSH2 0x200 DUP9 ADD CALLDATALOAD PUSH32 0x27529CF8C93CD529763FFA29D7B1B0BB845B2E4EE836BFA6FDC2A3F295A2A2A4 PUSH32 0xB61BD21284BFB3849DF98447BBA37FD83979043923DF5A5A1E2313F6C934FE7 DUP5 PUSH3 0x939 JUMP JUMPDEST PUSH3 0xFC6 PUSH2 0x220 DUP9 ADD CALLDATALOAD PUSH32 0x1D0690E56FD4EBDBEDDC2C36D146A581F1BADA3459FC0D22E6CF3A879D8E0BB2 PUSH32 0x2A4C8D4CE173DB6C3151FF95771E5BC600454BA8D8E77D73D691D3B788F1547C DUP5 PUSH3 0x939 JUMP JUMPDEST PUSH3 0x1019 PUSH2 0x240 DUP9 ADD CALLDATALOAD PUSH32 0x2197D9057BCD8512D8BD10D708F9B9B983E30AA4206D0D298B1BFDB22C03AF0D PUSH32 0x1F91C262234DB447C7A42E2AC865DFC25173698C81F7150C1FC6E3F521525174 DUP5 PUSH3 0x939 JUMP JUMPDEST PUSH3 0x106C PUSH2 0x260 DUP9 ADD CALLDATALOAD PUSH32 0xCCF58B5F8B38C4FB71107EB3141FD4CD8835C1AC98CE069D17F483FDA490213 PUSH32 0x160261B562BB1C2E1ADFBE16213AB10F1D65A9AF797FF9FDF33CBAFFDD8FF14A DUP5 PUSH3 0x939 JUMP JUMPDEST PUSH3 0x10BF PUSH2 0x280 DUP9 ADD CALLDATALOAD PUSH32 0x6070CD76564F60C5CD3189DFD49E1AED642613D7D2361E1A8E522FA39E2139B PUSH32 0x6D6CB60A85A184ED8560777B4D6EA19D81CB7A5C1F2DC6A485EDC4CEB40A260 DUP5 PUSH3 0x939 JUMP JUMPDEST PUSH3 0x1112 PUSH2 0x2A0 DUP9 ADD CALLDATALOAD PUSH32 0x2FC55313FC9E16E0DDA7103536E846EE999347ED86AD019229F031A19ED4634C PUSH32 0xBAAE891783D92C0D64D955D136CBCEBB2E38AE09DBFDE150FEEE3C0B882A865 DUP5 PUSH3 0x939 JUMP JUMPDEST PUSH3 0x1165 PUSH2 0x2C0 DUP9 ADD CALLDATALOAD PUSH32 0x1D7C06C0D99AC359B5EF4753B1BF87D1A8FCFFE2CE8CC05E92F39F1D027F43A4 PUSH32 0x65F3215077F26963B7171C9FF320DB50FDE64FB3DD2992595C11981B0BDA98B DUP5 PUSH3 0x939 JUMP JUMPDEST PUSH3 0x11B8 PUSH2 0x2E0 DUP9 ADD CALLDATALOAD PUSH32 0x6FEAD1C35303D414AB4AF9FDA1E1FD929EF117D2CB5DA0EFC04F42BC9C6F0BB PUSH32 0x2484E7BD73447C5F7CE18F9DF35F68977544BA54BA13A30555BBC0C11A8A427A DUP5 PUSH3 0x939 JUMP JUMPDEST PUSH3 0x120B PUSH2 0x300 DUP9 ADD CALLDATALOAD PUSH32 0x1A2F48B9B4D7D54E7533ECCE0C24385E6A2A65A9F073DA49B169AA83444A2C78 PUSH32 0x2F68633A8F3F177D4BE86B9E27B768B50CCE1A9E304D44055081D1CF878C922D DUP5 PUSH3 0x939 JUMP JUMPDEST PUSH3 0x125E PUSH2 0x320 DUP9 ADD CALLDATALOAD PUSH32 0x2A74EB84308BC8B3E745CB7869A3301E4F7C6376639D186606FF9A27BAD8CBD0 PUSH32 0x13EC3D5BD56285EF6AD6950716731C0347193D8CADD2B24F33B0BC49EA8B0027 DUP5 PUSH3 0x939 JUMP JUMPDEST PUSH3 0x12B1 PUSH2 0x340 DUP9 ADD CALLDATALOAD PUSH32 0x4A3A7A4B18F2E65B78613D067C00FC8E083E60AA927D230047343E15570C164 PUSH32 0x1B27AF4B6E4052E4C2820AA710903FC054CC14F34E5515D98F9DB79108E7197E DUP5 PUSH3 0x939 JUMP JUMPDEST PUSH3 0x1304 PUSH2 0x360 DUP9 ADD CALLDATALOAD PUSH32 0xA6A46CE4FF2FD7EC6B6BFF4233F44CAC59F12E27B2964AA4804A67B9CC17934 PUSH32 0x466B278EB0E5E3A1117C981EE45EAA3FC9B99A65422BAFC1AB3B2D35B25CB17 DUP5 PUSH3 0x939 JUMP JUMPDEST PUSH3 0x1357 PUSH2 0x380 DUP9 ADD CALLDATALOAD PUSH32 0x2A0A97C04405A1F7FEF7A27E4055BFFC61BFA9213790043F44A58C97808466CD PUSH32 0x2D02B829F9FCF0D926FF84F19ACD70EDD1E3CEBCB3D8992D08BB9ABF65CC0B5A DUP5 PUSH3 0x939 JUMP JUMPDEST PUSH3 0x13AA PUSH2 0x3A0 DUP9 ADD CALLDATALOAD PUSH32 0x199DC24B47A01774B2CA14C6EBB1D6DBEFD68F2910CEA07A6F52A39A51E821B3 PUSH32 0x2E2ACCA1C520DBC0C6669C66D83C51D43FF7623E6E47E8B682B4B53C27FBEE54 DUP5 PUSH3 0x939 JUMP JUMPDEST PUSH3 0x13FD PUSH2 0x3C0 DUP9 ADD CALLDATALOAD PUSH32 0x10D9BE99903AE31C2E662AF507AEAC7734DEA024CDFCA7D206AA20A47B893E70 PUSH32 0x15D021F30DFF2805C0C2699359E2C1E1FD31CCAF156D2D38BBC1E1E2B42D91F1 DUP5 PUSH3 0x939 JUMP JUMPDEST PUSH3 0x1450 PUSH2 0x3E0 DUP9 ADD CALLDATALOAD PUSH32 0x182F3AB3A4FF98F3885BD016F76EEEC476BA1B76C323B1653EF6B80768A5A16B PUSH32 0x1F03120F3F56B9035896158416BC21B1B55938CA68811E0713AB85D2FEEE2B3E DUP5 PUSH3 0x939 JUMP JUMPDEST PUSH3 0x14A3 PUSH2 0x400 DUP9 ADD CALLDATALOAD PUSH32 0xF86D0B5C22DCE1B3919696027D8A6E866726B44893E19CF1384544D66758F6B PUSH32 0x1218FCAD9B211671BC8484D52D665DF07D2A87FDCE5E2DF8C05C643A627A5321 DUP5 PUSH3 0x939 JUMP JUMPDEST PUSH3 0x14F6 PUSH2 0x420 DUP9 ADD CALLDATALOAD PUSH32 0x29FEAE1B5B40D3A967D3696B9503CECECDA9980A7A0B51E3386778862673ABD6 PUSH32 0x19ABD3B165A28E010C686149F039EA919508D9373ACA3096FE6FEE3E63717A6E DUP5 PUSH3 0x939 JUMP JUMPDEST PUSH3 0x1548 PUSH2 0x440 DUP9 ADD CALLDATALOAD PUSH32 0x2C3C0A78A37F4CD21F164FFD0133F5D4CB2C0AD3CA4CE260A04930DAC48CC520 PUSH31 0x7169C644575F01B354A6F7633C7BE48066117F6ADD439B6F745525017AC9C5 DUP5 PUSH3 0x939 JUMP JUMPDEST PUSH3 0x159A PUSH2 0x460 DUP9 ADD CALLDATALOAD PUSH32 0xB793CBA68E2710AFCDB131342860CEA217A60AB74F3F49BCF10BBF9AD78533B PUSH31 0xB9E02B1890ACC5F73AC202170EEB3D99AB5D849179DB2A443E20D5D71CFEB0 DUP5 PUSH3 0x939 JUMP JUMPDEST PUSH3 0x15ED PUSH2 0x480 DUP9 ADD CALLDATALOAD PUSH32 0x6F371FF234DBBE385A7B198EC02FE2C3114696D09A9BAACB27C91F2BEDD20AE PUSH32 0xD4ADB8A04CAE83CB1CD6867A50B8BB4E6F506B4F76DE88D66188A2CAEEE25FB DUP5 PUSH3 0x939 JUMP JUMPDEST PUSH3 0x1640 PUSH2 0x4A0 DUP9 ADD CALLDATALOAD PUSH32 0x2274D3006C7891D6FFA5005462D890C9A3F06C2740684F17D98F4FC749DC04DE PUSH32 0xE38EB2CC3FD05D81D7991331E43A9CB3A39825B841D3ABE9FBBA1D502694454 DUP5 PUSH3 0x939 JUMP JUMPDEST DUP4 CALLDATALOAD DUP3 MSTORE PUSH32 0x30644E72E131A029B85045B68181585D97816A916871CA8D3C208C16D87CFD47 PUSH1 0x20 DUP6 ADD CALLDATALOAD PUSH32 0x30644E72E131A029B85045B68181585D97816A916871CA8D3C208C16D87CFD47 SUB MOD PUSH1 0x20 DUP4 ADD MSTORE DUP5 CALLDATALOAD PUSH1 0x40 DUP4 ADD MSTORE PUSH1 0x20 DUP6 ADD CALLDATALOAD PUSH1 0x60 DUP4 ADD MSTORE PUSH1 0x40 DUP6 ADD CALLDATALOAD PUSH1 0x80 DUP4 ADD MSTORE PUSH1 0x60 DUP6 ADD CALLDATALOAD PUSH1 0xA0 DUP4 ADD MSTORE PUSH32 0x2D4D9AA7E302D9DF41749D5507949D05DBEA33FBB16C643B22F599A2BE6DF2E2 PUSH1 0xC0 DUP4 ADD MSTORE PUSH32 0x14BEDD503C37CEB061D8EC60209FE345CE89830A19230301F076CAFF004D1926 PUSH1 0xE0 DUP4 ADD MSTORE PUSH32 0x967032FCBF776D1AFC985F88877F182D38480A653F2DECAA9794CBC3BF3060C PUSH2 0x100 DUP4 ADD MSTORE PUSH32 0xE187847AD4C798374D0D6732BF501847DD68BC0E071241E0213BC7FC13DB7AB PUSH2 0x120 DUP4 ADD MSTORE PUSH32 0x304CFBD1E08A704A99F5E847D93F8C3CAAFDDEC46B7A0D379DA69A4D112346A7 PUSH2 0x140 DUP4 ADD MSTORE PUSH32 0x1739C1B1A457A8C7313123D24D2F9192F896B7C63EEA05A9D57F06547AD0CEC8 PUSH2 0x160 DUP4 ADD MSTORE PUSH1 0x0 DUP9 ADD MLOAD PUSH2 0x180 DUP4 ADD MSTORE PUSH1 0x20 PUSH1 0x0 ADD DUP9 ADD MLOAD PUSH2 0x1A0 DUP4 ADD MSTORE PUSH32 0x198E9393920D483A7260BFB731FB5D25F1AA493335A9E71297E485B7AEF312C2 PUSH2 0x1C0 DUP4 ADD MSTORE PUSH32 0x1800DEEF121F1E76426A00665E5C4479674322D4F75EDADD46DEBD5CD992F6ED PUSH2 0x1E0 DUP4 ADD MSTORE PUSH32 0x90689D0585FF075EC9E99AD690C3395BC4B313370B38EF355ACDADCD122975B PUSH2 0x200 DUP4 ADD MSTORE PUSH32 0x12C85EA5DB8C6DEB4AAB71808DCB408FE3D1E7690C43D37B4CE6CC0166FA7DAA PUSH2 0x220 DUP4 ADD MSTORE DUP6 CALLDATALOAD PUSH2 0x240 DUP4 ADD MSTORE PUSH1 0x20 DUP7 ADD CALLDATALOAD PUSH2 0x260 DUP4 ADD MSTORE PUSH32 0xA99859AA8393A5ECA66946B5015EAA847991F8BC375AA6CF49FA75656C614A6 PUSH2 0x280 DUP4 ADD MSTORE PUSH32 0x40455D90D2400B3BCCF9CE7DCF376258D8A89BFEF69A359795EE559E971CB43 PUSH2 0x2A0 DUP4 ADD MSTORE PUSH32 0xAA97E6E93AADCBB21D5B5E193976FC8EDEA5B4E5400D438EE722CE8B12416BF PUSH2 0x2C0 DUP4 ADD MSTORE PUSH32 0x1DF147CF091A2B6E12BEC09EA95CF9D90D8684D8C987B3041B6C08724A262AD2 PUSH2 0x2E0 DUP4 ADD MSTORE PUSH1 0x20 DUP3 PUSH2 0x300 DUP5 PUSH1 0x8 PUSH2 0x7D0 GAS SUB STATICCALL DUP3 MLOAD DUP2 AND SWAP4 POP POP POP POP SWAP6 SWAP5 POP POP POP POP POP JUMP JUMPDEST PUSH1 0x40 MLOAD PUSH2 0x380 DUP2 ADD PUSH1 0x40 MSTORE PUSH3 0x193E PUSH1 0x0 DUP5 ADD CALLDATALOAD PUSH3 0x904 JUMP JUMPDEST PUSH3 0x194D PUSH1 0x20 DUP5 ADD CALLDATALOAD PUSH3 0x904 JUMP JUMPDEST PUSH3 0x195C PUSH1 0x40 DUP5 ADD CALLDATALOAD PUSH3 0x904 JUMP JUMPDEST PUSH3 0x196B PUSH1 0x60 DUP5 ADD CALLDATALOAD PUSH3 0x904 JUMP JUMPDEST PUSH3 0x197A PUSH1 0x80 DUP5 ADD CALLDATALOAD PUSH3 0x904 JUMP JUMPDEST PUSH3 0x1989 PUSH1 0xA0 DUP5 ADD CALLDATALOAD PUSH3 0x904 JUMP JUMPDEST PUSH3 0x1998 PUSH1 0xC0 DUP5 ADD CALLDATALOAD PUSH3 0x904 JUMP JUMPDEST PUSH3 0x19A7 PUSH1 0xE0 DUP5 ADD CALLDATALOAD PUSH3 0x904 JUMP JUMPDEST PUSH3 0x19B7 PUSH2 0x100 DUP5 ADD CALLDATALOAD PUSH3 0x904 JUMP JUMPDEST PUSH3 0x19C7 PUSH2 0x120 DUP5 ADD CALLDATALOAD PUSH3 0x904 JUMP JUMPDEST PUSH3 0x19D7 PUSH2 0x140 DUP5 ADD CALLDATALOAD PUSH3 0x904 JUMP JUMPDEST PUSH3 0x19E7 PUSH2 0x160 DUP5 ADD CALLDATALOAD PUSH3 0x904 JUMP JUMPDEST PUSH3 0x19F7 PUSH2 0x180 DUP5 ADD CALLDATALOAD PUSH3 0x904 JUMP JUMPDEST PUSH3 0x1A07 PUSH2 0x1A0 DUP5 ADD CALLDATALOAD PUSH3 0x904 JUMP JUMPDEST PUSH3 0x1A17 PUSH2 0x1C0 DUP5 ADD CALLDATALOAD PUSH3 0x904 JUMP JUMPDEST PUSH3 0x1A27 PUSH2 0x1E0 DUP5 ADD CALLDATALOAD PUSH3 0x904 JUMP JUMPDEST PUSH3 0x1A37 PUSH2 0x200 DUP5 ADD CALLDATALOAD PUSH3 0x904 JUMP JUMPDEST PUSH3 0x1A47 PUSH2 0x220 DUP5 ADD CALLDATALOAD PUSH3 0x904 JUMP JUMPDEST PUSH3 0x1A57 PUSH2 0x240 DUP5 ADD CALLDATALOAD PUSH3 0x904 JUMP JUMPDEST PUSH3 0x1A67 PUSH2 0x260 DUP5 ADD CALLDATALOAD PUSH3 0x904 JUMP JUMPDEST PUSH3 0x1A77 PUSH2 0x280 DUP5 ADD CALLDATALOAD PUSH3 0x904 JUMP JUMPDEST PUSH3 0x1A87 PUSH2 0x2A0 DUP5 ADD CALLDATALOAD PUSH3 0x904 JUMP JUMPDEST PUSH3 0x1A97 PUSH2 0x2C0 DUP5 ADD CALLDATALOAD PUSH3 0x904 JUMP JUMPDEST PUSH3 0x1AA7 PUSH2 0x2E0 DUP5 ADD CALLDATALOAD PUSH3 0x904 JUMP JUMPDEST PUSH3 0x1AB7 PUSH2 0x300 DUP5 ADD CALLDATALOAD PUSH3 0x904 JUMP JUMPDEST PUSH3 0x1AC7 PUSH2 0x320 DUP5 ADD CALLDATALOAD PUSH3 0x904 JUMP JUMPDEST PUSH3 0x1AD7 PUSH2 0x340 DUP5 ADD CALLDATALOAD PUSH3 0x904 JUMP JUMPDEST PUSH3 0x1AE7 PUSH2 0x360 DUP5 ADD CALLDATALOAD PUSH3 0x904 JUMP JUMPDEST PUSH3 0x1AF7 PUSH2 0x380 DUP5 ADD CALLDATALOAD PUSH3 0x904 JUMP JUMPDEST PUSH3 0x1B07 PUSH2 0x3A0 DUP5 ADD CALLDATALOAD PUSH3 0x904 JUMP JUMPDEST PUSH3 0x1B17 PUSH2 0x3C0 DUP5 ADD CALLDATALOAD PUSH3 0x904 JUMP JUMPDEST PUSH3 0x1B27 PUSH2 0x3E0 DUP5 ADD CALLDATALOAD PUSH3 0x904 JUMP JUMPDEST PUSH3 0x1B37 PUSH2 0x400 DUP5 ADD CALLDATALOAD PUSH3 0x904 JUMP JUMPDEST PUSH3 0x1B47 PUSH2 0x420 DUP5 ADD CALLDATALOAD PUSH3 0x904 JUMP JUMPDEST PUSH3 0x1B57 PUSH2 0x440 DUP5 ADD CALLDATALOAD PUSH3 0x904 JUMP JUMPDEST PUSH3 0x1B67 PUSH2 0x460 DUP5 ADD CALLDATALOAD PUSH3 0x904 JUMP JUMPDEST PUSH3 0x1B77 PUSH2 0x480 DUP5 ADD CALLDATALOAD PUSH3 0x904 JUMP JUMPDEST PUSH3 0x1B87 PUSH2 0x4A0 DUP5 ADD CALLDATALOAD PUSH3 0x904 JUMP JUMPDEST PUSH3 0x1B97 PUSH2 0x4C0 DUP5 ADD CALLDATALOAD PUSH3 0x904 JUMP JUMPDEST PUSH3 0x1BA6 DUP2 DUP5 DUP7 DUP9 DUP11 PUSH3 0x9A6 JUMP JUMPDEST DUP1 PUSH1 0x0 MSTORE PUSH1 0x20 PUSH1 0x0 RETURN JUMPDEST PUSH3 0x1BBA PUSH3 0x25FD JUMP JUMPDEST PUSH3 0x1BC4 PUSH3 0x25FD JUMP JUMPDEST DUP3 PUSH1 0xD PUSH1 0x26 DUP2 LT PUSH3 0x1BDB JUMPI PUSH3 0x1BDA PUSH3 0x30AD JUMP JUMPDEST JUMPDEST PUSH1 0x20 MUL ADD MLOAD DUP2 PUSH1 0x0 PUSH1 0x2 DUP2 LT PUSH3 0x1BF7 JUMPI PUSH3 0x1BF6 PUSH3 0x30AD JUMP JUMPDEST JUMPDEST PUSH1 0x20 MUL ADD DUP2 DUP2 MSTORE POP POP DUP3 PUSH1 0xE PUSH1 0x26 DUP2 LT PUSH3 0x1C17 JUMPI PUSH3 0x1C16 PUSH3 0x30AD JUMP JUMPDEST JUMPDEST PUSH1 0x20 MUL ADD MLOAD DUP2 PUSH1 0x1 PUSH1 0x2 DUP2 LT PUSH3 0x1C33 JUMPI PUSH3 0x1C32 PUSH3 0x30AD JUMP JUMPDEST JUMPDEST PUSH1 0x20 MUL ADD DUP2 DUP2 MSTORE POP POP DUP1 SWAP2 POP POP SWAP2 SWAP1 POP JUMP JUMPDEST PUSH1 0x60 PUSH1 0x0 PUSH3 0x1C54 DUP6 PUSH3 0x4F6 JUMP JUMPDEST SWAP1 POP PUSH1 0x0 DUP1 PUSH3 0x1C66 DUP7 DUP7 DUP6 PUSH3 0x252F JUMP JUMPDEST SWAP2 POP SWAP2 POP PUSH1 0x0 DUP3 DUP3 PUSH3 0x1C7A SWAP2 SWAP1 PUSH3 0x36A3 JUMP JUMPDEST PUSH8 0xFFFFFFFFFFFFFFFF DUP2 GT ISZERO PUSH3 0x1C96 JUMPI PUSH3 0x1C95 PUSH3 0x27F2 JUMP JUMPDEST JUMPDEST PUSH1 0x40 MLOAD SWAP1 DUP1 DUP3 MSTORE DUP1 PUSH1 0x20 MUL PUSH1 0x20 ADD DUP3 ADD PUSH1 0x40 MSTORE DUP1 ISZERO PUSH3 0x1CD3 JUMPI DUP2 PUSH1 0x20 ADD JUMPDEST PUSH3 0x1CBF PUSH3 0x261F JUMP JUMPDEST DUP2 MSTORE PUSH1 0x20 ADD SWAP1 PUSH1 0x1 SWAP1 SUB SWAP1 DUP2 PUSH3 0x1CB5 JUMPI SWAP1 POP JUMPDEST POP SWAP1 POP PUSH1 0x0 DUP4 SWAP1 POP JUMPDEST DUP3 DUP2 LT ISZERO PUSH3 0x1E3E JUMPI PUSH1 0x5 PUSH1 0x0 PUSH1 0x3 PUSH1 0x0 DUP13 PUSH20 0xFFFFFFFFFFFFFFFFFFFFFFFFFFFFFFFFFFFFFFFF AND PUSH20 0xFFFFFFFFFFFFFFFFFFFFFFFFFFFFFFFFFFFFFFFF AND DUP2 MSTORE PUSH1 0x20 ADD SWAP1 DUP2 MSTORE PUSH1 0x20 ADD PUSH1 0x0 KECCAK256 PUSH1 0x0 DUP5 DUP2 MSTORE PUSH1 0x20 ADD SWAP1 DUP2 MSTORE PUSH1 0x20 ADD PUSH1 0x0 KECCAK256 PUSH1 0x0 SWAP1 SLOAD SWAP1 PUSH2 0x100 EXP SWAP1 DIV PUSH20 0xFFFFFFFFFFFFFFFFFFFFFFFFFFFFFFFFFFFFFFFF AND PUSH20 0xFFFFFFFFFFFFFFFFFFFFFFFFFFFFFFFFFFFFFFFF AND PUSH20 0xFFFFFFFFFFFFFFFFFFFFFFFFFFFFFFFFFFFFFFFF AND DUP2 MSTORE PUSH1 0x20 ADD SWAP1 DUP2 MSTORE PUSH1 0x20 ADD PUSH1 0x0 KECCAK256 PUSH1 0x40 MLOAD DUP1 PUSH1 0x60 ADD PUSH1 0x40 MSTORE SWAP1 DUP2 PUSH1 0x0 DUP3 ADD PUSH1 0x0 SWAP1 SLOAD SWAP1 PUSH2 0x100 EXP SWAP1 DIV PUSH20 0xFFFFFFFFFFFFFFFFFFFFFFFFFFFFFFFFFFFFFFFF AND PUSH20 0xFFFFFFFFFFFFFFFFFFFFFFFFFFFFFFFFFFFFFFFF AND PUSH20 0xFFFFFFFFFFFFFFFFFFFFFFFFFFFFFFFFFFFFFFFF AND DUP2 MSTORE PUSH1 0x20 ADD PUSH1 0x1 DUP3 ADD SLOAD DUP2 MSTORE PUSH1 0x20 ADD PUSH1 0x2 DUP3 ADD SLOAD DUP2 MSTORE POP POP DUP3 DUP3 DUP2 MLOAD DUP2 LT PUSH3 0x1E1F JUMPI PUSH3 0x1E1E PUSH3 0x30AD JUMP JUMPDEST JUMPDEST PUSH1 0x20 MUL PUSH1 0x20 ADD ADD DUP2 SWAP1 MSTORE POP DUP1 PUSH3 0x1E36 SWAP1 PUSH3 0x30DC JUMP JUMPDEST SWAP1 POP PUSH3 0x1CDC JUMP JUMPDEST POP DUP1 SWAP5 POP POP POP POP POP SWAP4 SWAP3 POP POP POP JUMP JUMPDEST PUSH3 0x1E57 PUSH3 0x261F JUMP JUMPDEST PUSH1 0x5 PUSH1 0x0 DUP4 PUSH20 0xFFFFFFFFFFFFFFFFFFFFFFFFFFFFFFFFFFFFFFFF AND PUSH20 0xFFFFFFFFFFFFFFFFFFFFFFFFFFFFFFFFFFFFFFFF AND DUP2 MSTORE PUSH1 0x20 ADD SWAP1 DUP2 MSTORE PUSH1 0x20 ADD PUSH1 0x0 KECCAK256 PUSH1 0x40 MLOAD DUP1 PUSH1 0x60 ADD PUSH1 0x40 MSTORE SWAP1 DUP2 PUSH1 0x0 DUP3 ADD PUSH1 0x0 SWAP1 SLOAD SWAP1 PUSH2 0x100 EXP SWAP1 DIV PUSH20 0xFFFFFFFFFFFFFFFFFFFFFFFFFFFFFFFFFFFFFFFF AND PUSH20 0xFFFFFFFFFFFFFFFFFFFFFFFFFFFFFFFFFFFFFFFF AND PUSH20 0xFFFFFFFFFFFFFFFFFFFFFFFFFFFFFFFFFFFFFFFF AND DUP2 MSTORE PUSH1 0x20 ADD PUSH1 0x1 DUP3 ADD SLOAD DUP2 MSTORE PUSH1 0x20 ADD PUSH1 0x2 DUP3 ADD SLOAD DUP2 MSTORE POP POP SWAP1 POP SWAP2 SWAP1 POP JUMP JUMPDEST PUSH1 0x60 PUSH1 0x0 PUSH1 0x4 DUP1 SLOAD SWAP1 POP SWAP1 POP PUSH1 0x0 DUP1 PUSH3 0x1F2E DUP7 DUP7 DUP6 PUSH3 0x252F JUMP JUMPDEST SWAP2 POP SWAP2 POP PUSH1 0x0 DUP3 DUP3 PUSH3 0x1F42 SWAP2 SWAP1 PUSH3 0x36A3 JUMP JUMPDEST PUSH8 0xFFFFFFFFFFFFFFFF DUP2 GT ISZERO PUSH3 0x1F5E JUMPI PUSH3 0x1F5D PUSH3 0x27F2 JUMP JUMPDEST JUMPDEST PUSH1 0x40 MLOAD SWAP1 DUP1 DUP3 MSTORE DUP1 PUSH1 0x20 MUL PUSH1 0x20 ADD DUP3 ADD PUSH1 0x40 MSTORE DUP1 ISZERO PUSH3 0x1F9B JUMPI DUP2 PUSH1 0x20 ADD JUMPDEST PUSH3 0x1F87 PUSH3 0x261F JUMP JUMPDEST DUP2 MSTORE PUSH1 0x20 ADD SWAP1 PUSH1 0x1 SWAP1 SUB SWAP1 DUP2 PUSH3 0x1F7D JUMPI SWAP1 POP JUMPDEST POP SWAP1 POP PUSH1 0x0 DUP4 SWAP1 POP JUMPDEST DUP3 DUP2 LT ISZERO PUSH3 0x20D7 JUMPI PUSH1 0x5 PUSH1 0x0 PUSH1 0x4 DUP4 DUP2 SLOAD DUP2 LT PUSH3 0x1FC8 JUMPI PUSH3 0x1FC7 PUSH3 0x30AD JUMP JUMPDEST JUMPDEST SWAP1 PUSH1 0x0 MSTORE PUSH1 0x20 PUSH1 0x0 KECCAK256 ADD PUSH1 0x0 SWAP1 SLOAD SWAP1 PUSH2 0x100 EXP SWAP1 DIV PUSH20 0xFFFFFFFFFFFFFFFFFFFFFFFFFFFFFFFFFFFFFFFF AND PUSH20 0xFFFFFFFFFFFFFFFFFFFFFFFFFFFFFFFFFFFFFFFF AND PUSH20 0xFFFFFFFFFFFFFFFFFFFFFFFFFFFFFFFFFFFFFFFF AND DUP2 MSTORE PUSH1 0x20 ADD SWAP1 DUP2 MSTORE PUSH1 0x20 ADD PUSH1 0x0 KECCAK256 PUSH1 0x40 MLOAD DUP1 PUSH1 0x60 ADD PUSH1 0x40 MSTORE SWAP1 DUP2 PUSH1 0x0 DUP3 ADD PUSH1 0x0 SWAP1 SLOAD SWAP1 PUSH2 0x100 EXP SWAP1 DIV PUSH20 0xFFFFFFFFFFFFFFFFFFFFFFFFFFFFFFFFFFFFFFFF AND PUSH20 0xFFFFFFFFFFFFFFFFFFFFFFFFFFFFFFFFFFFFFFFF AND PUSH20 0xFFFFFFFFFFFFFFFFFFFFFFFFFFFFFFFFFFFFFFFF AND DUP2 MSTORE PUSH1 0x20 ADD PUSH1 0x1 DUP3 ADD SLOAD DUP2 MSTORE PUSH1 0x20 ADD PUSH1 0x2 DUP3 ADD SLOAD DUP2 MSTORE POP POP DUP3 DUP3 DUP2 MLOAD DUP2 LT PUSH3 0x20B8 JUMPI PUSH3 0x20B7 PUSH3 0x30AD JUMP JUMPDEST JUMPDEST PUSH1 0x20 MUL PUSH1 0x20 ADD ADD DUP2 SWAP1 MSTORE POP DUP1 PUSH3 0x20CF SWAP1 PUSH3 0x30DC JUMP JUMPDEST SWAP1 POP PUSH3 0x1FA4 JUMP JUMPDEST POP DUP1 SWAP5 POP POP POP POP POP SWAP3 SWAP2 POP POP JUMP JUMPDEST PUSH1 0x2 PUSH1 0x0 SLOAD SUB PUSH3 0x212D JUMPI PUSH1 0x40 MLOAD PUSH32 0x8C379A000000000000000000000000000000000000000000000000000000000 DUP2 MSTORE PUSH1 0x4 ADD PUSH3 0x2124 SWAP1 PUSH3 0x372E JUMP JUMPDEST PUSH1 0x40 MLOAD DUP1 SWAP2 SUB SWAP1 REVERT JUMPDEST PUSH1 0x2 PUSH1 0x0 DUP2 SWAP1 SSTORE POP JUMP JUMPDEST PUSH1 0x0 PUSH3 0x2144 CALLER PUSH3 0x49E JUMP JUMPDEST ISZERO PUSH3 0x215A JUMPI PUSH1 0x14 CALLDATASIZE SUB CALLDATALOAD PUSH1 0x60 SHR SWAP1 POP PUSH3 0x216C JUMP JUMPDEST PUSH3 0x2164 PUSH3 0x25CC JUMP JUMPDEST SWAP1 POP PUSH3 0x216D JUMP JUMPDEST JUMPDEST SWAP1 JUMP JUMPDEST PUSH1 0x0 PUSH20 0xFFFFFFFFFFFFFFFFFFFFFFFFFFFFFFFFFFFFFFFF AND PUSH1 0x2 PUSH1 0x0 DUP4 PUSH20 0xFFFFFFFFFFFFFFFFFFFFFFFFFFFFFFFFFFFFFFFF AND PUSH20 0xFFFFFFFFFFFFFFFFFFFFFFFFFFFFFFFFFFFFFFFF AND DUP2 MSTORE PUSH1 0x20 ADD SWAP1 DUP2 MSTORE PUSH1 0x20 ADD PUSH1 0x0 KECCAK256 PUSH1 0x0 SWAP1 SLOAD SWAP1 PUSH2 0x100 EXP SWAP1 DIV PUSH20 0xFFFFFFFFFFFFFFFFFFFFFFFFFFFFFFFFFFFFFFFF AND PUSH20 0xFFFFFFFFFFFFFFFFFFFFFFFFFFFFFFFFFFFFFFFF AND EQ PUSH3 0x2241 JUMPI PUSH1 0x40 MLOAD PUSH32 0x8C379A000000000000000000000000000000000000000000000000000000000 DUP2 MSTORE PUSH1 0x4 ADD PUSH3 0x2238 SWAP1 PUSH3 0x37A0 JUMP JUMPDEST PUSH1 0x40 MLOAD DUP1 SWAP2 SUB SWAP1 REVERT JUMPDEST PUSH1 0x0 PUSH1 0x1 PUSH1 0x0 DUP5 PUSH20 0xFFFFFFFFFFFFFFFFFFFFFFFFFFFFFFFFFFFFFFFF AND PUSH20 0xFFFFFFFFFFFFFFFFFFFFFFFFFFFFFFFFFFFFFFFF AND DUP2 MSTORE PUSH1 0x20 ADD SWAP1 DUP2 MSTORE PUSH1 0x20 ADD PUSH1 0x0 KECCAK256 SLOAD SWAP1 POP PUSH1 0x0 PUSH1 0x4 DUP1 SLOAD SWAP1 POP SWAP1 POP DUP4 PUSH1 0x2 PUSH1 0x0 DUP6 PUSH20 0xFFFFFFFFFFFFFFFFFFFFFFFFFFFFFFFFFFFFFFFF AND PUSH20 0xFFFFFFFFFFFFFFFFFFFFFFFFFFFFFFFFFFFFFFFF AND DUP2 MSTORE PUSH1 0x20 ADD SWAP1 DUP2 MSTORE PUSH1 0x20 ADD PUSH1 0x0 KECCAK256 PUSH1 0x0 PUSH2 0x100 EXP DUP2 SLOAD DUP2 PUSH20 0xFFFFFFFFFFFFFFFFFFFFFFFFFFFFFFFFFFFFFFFF MUL NOT AND SWAP1 DUP4 PUSH20 0xFFFFFFFFFFFFFFFFFFFFFFFFFFFFFFFFFFFFFFFF AND MUL OR SWAP1 SSTORE POP PUSH1 0x4 DUP4 SWAP1 DUP1 PUSH1 0x1 DUP2 SLOAD ADD DUP1 DUP3 SSTORE DUP1 SWAP2 POP POP PUSH1 0x1 SWAP1 SUB SWAP1 PUSH1 0x0 MSTORE PUSH1 0x20 PUSH1 0x0 KECCAK256 ADD PUSH1 0x0 SWAP1 SWAP2 SWAP1 SWAP2 SWAP1 SWAP2 PUSH2 0x100 EXP DUP2 SLOAD DUP2 PUSH20 0xFFFFFFFFFFFFFFFFFFFFFFFFFFFFFFFFFFFFFFFF MUL NOT AND SWAP1 DUP4 PUSH20 0xFFFFFFFFFFFFFFFFFFFFFFFFFFFFFFFFFFFFFFFF AND MUL OR SWAP1 SSTORE POP DUP3 PUSH1 0x3 PUSH1 0x0 DUP7 PUSH20 0xFFFFFFFFFFFFFFFFFFFFFFFFFFFFFFFFFFFFFFFF AND PUSH20 0xFFFFFFFFFFFFFFFFFFFFFFFFFFFFFFFFFFFFFFFF AND DUP2 MSTORE PUSH1 0x20 ADD SWAP1 DUP2 MSTORE PUSH1 0x20 ADD PUSH1 0x0 KECCAK256 PUSH1 0x0 DUP5 DUP2 MSTORE PUSH1 0x20 ADD SWAP1 DUP2 MSTORE PUSH1 0x20 ADD PUSH1 0x0 KECCAK256 PUSH1 0x0 PUSH2 0x100 EXP DUP2 SLOAD DUP2 PUSH20 0xFFFFFFFFFFFFFFFFFFFFFFFFFFFFFFFFFFFFFFFF MUL NOT AND SWAP1 DUP4 PUSH20 0xFFFFFFFFFFFFFFFFFFFFFFFFFFFFFFFFFFFFFFFF AND MUL OR SWAP1 SSTORE POP PUSH1 0x40 MLOAD DUP1 PUSH1 0x60 ADD PUSH1 0x40 MSTORE DUP1 DUP5 PUSH20 0xFFFFFFFFFFFFFFFFFFFFFFFFFFFFFFFFFFFFFFFF AND DUP2 MSTORE PUSH1 0x20 ADD DUP4 DUP2 MSTORE PUSH1 0x20 ADD DUP3 DUP2 MSTORE POP PUSH1 0x5 PUSH1 0x0 DUP6 PUSH20 0xFFFFFFFFFFFFFFFFFFFFFFFFFFFFFFFFFFFFFFFF AND PUSH20 0xFFFFFFFFFFFFFFFFFFFFFFFFFFFFFFFFFFFFFFFF AND DUP2 MSTORE PUSH1 0x20 ADD SWAP1 DUP2 MSTORE PUSH1 0x20 ADD PUSH1 0x0 KECCAK256 PUSH1 0x0 DUP3 ADD MLOAD DUP2 PUSH1 0x0 ADD PUSH1 0x0 PUSH2 0x100 EXP DUP2 SLOAD DUP2 PUSH20 0xFFFFFFFFFFFFFFFFFFFFFFFFFFFFFFFFFFFFFFFF MUL NOT AND SWAP1 DUP4 PUSH20 0xFFFFFFFFFFFFFFFFFFFFFFFFFFFFFFFFFFFFFFFF AND MUL OR SWAP1 SSTORE POP PUSH1 0x20 DUP3 ADD MLOAD DUP2 PUSH1 0x1 ADD SSTORE PUSH1 0x40 DUP3 ADD MLOAD DUP2 PUSH1 0x2 ADD SSTORE SWAP1 POP POP DUP2 PUSH3 0x24D9 SWAP1 PUSH3 0x30DC JUMP JUMPDEST SWAP2 POP DUP2 PUSH1 0x1 PUSH1 0x0 DUP7 PUSH20 0xFFFFFFFFFFFFFFFFFFFFFFFFFFFFFFFFFFFFFFFF AND PUSH20 0xFFFFFFFFFFFFFFFFFFFFFFFFFFFFFFFFFFFFFFFF AND DUP2 MSTORE PUSH1 0x20 ADD SWAP1 DUP2 MSTORE PUSH1 0x20 ADD PUSH1 0x0 KECCAK256 DUP2 SWAP1 SSTORE POP POP POP POP POP JUMP JUMPDEST PUSH1 0x1 PUSH1 0x0 DUP2 SWAP1 SSTORE POP JUMP JUMPDEST PUSH1 0x0 DUP1 PUSH1 0x0 DUP6 DUP6 DUP8 PUSH3 0x2543 SWAP2 SWAP1 PUSH3 0x37C2 JUMP JUMPDEST PUSH3 0x254F SWAP2 SWAP1 PUSH3 0x36A3 JUMP JUMPDEST SWAP1 POP PUSH1 0x0 PUSH3 0x256C DUP7 DUP9 PUSH3 0x2565 SWAP2 SWAP1 PUSH3 0x37C2 JUMP JUMPDEST DUP7 PUSH3 0x25D4 JUMP JUMPDEST SWAP1 POP DUP5 DUP3 GT ISZERO PUSH3 0x25BC JUMPI PUSH1 0x0 PUSH3 0x25BB JUMPI PUSH1 0x40 MLOAD PUSH32 0x8C379A000000000000000000000000000000000000000000000000000000000 DUP2 MSTORE PUSH1 0x4 ADD PUSH3 0x25B2 SWAP1 PUSH3 0x385D JUMP JUMPDEST PUSH1 0x40 MLOAD DUP1 SWAP2 SUB SWAP1 REVERT JUMPDEST JUMPDEST DUP2 DUP2 SWAP4 POP SWAP4 POP POP POP SWAP4 POP SWAP4 SWAP2 POP POP JUMP JUMPDEST PUSH1 0x0 CALLER SWAP1 POP SWAP1 JUMP JUMPDEST PUSH1 0x0 DUP2 DUP4 LT PUSH3 0x25E5 JUMPI DUP2 PUSH3 0x25E7 JUMP JUMPDEST DUP3 JUMPDEST SWAP1 POP SWAP3 SWAP2 POP POP JUMP JUMPDEST PUSH2 0x4DD0 DUP1 PUSH3 0x3880 DUP4 CODECOPY ADD SWAP1 JUMP JUMPDEST PUSH1 0x40 MLOAD DUP1 PUSH1 0x40 ADD PUSH1 0x40 MSTORE DUP1 PUSH1 0x2 SWAP1 PUSH1 0x20 DUP3 MUL DUP1 CALLDATASIZE DUP4 CALLDATACOPY DUP1 DUP3 ADD SWAP2 POP POP SWAP1 POP POP SWAP1 JUMP JUMPDEST PUSH1 0x40 MLOAD DUP1 PUSH1 0x60 ADD PUSH1 0x40 MSTORE DUP1 PUSH1 0x0 PUSH20 0xFFFFFFFFFFFFFFFFFFFFFFFFFFFFFFFFFFFFFFFF AND DUP2 MSTORE PUSH1 0x20 ADD PUSH1 0x0 DUP2 MSTORE PUSH1 0x20 ADD PUSH1 0x0 DUP2 MSTORE POP SWAP1 JUMP JUMPDEST PUSH1 0x0 DUP2 MLOAD SWAP1 POP SWAP2 SWAP1 POP JUMP JUMPDEST PUSH1 0x0 DUP3 DUP3 MSTORE PUSH1 0x20 DUP3 ADD SWAP1 POP SWAP3 SWAP2 POP POP JUMP JUMPDEST PUSH1 0x0 JUMPDEST DUP4 DUP2 LT ISZERO PUSH3 0x2692 JUMPI DUP1 DUP3 ADD MLOAD DUP2 DUP5 ADD MSTORE PUSH1 0x20 DUP2 ADD SWAP1 POP PUSH3 0x2675 JUMP JUMPDEST PUSH1 0x0 DUP5 DUP5 ADD MSTORE POP POP POP POP JUMP JUMPDEST PUSH1 0x0 PUSH1 0x1F NOT PUSH1 0x1F DUP4 ADD AND SWAP1 POP SWAP2 SWAP1 POP JUMP JUMPDEST PUSH1 0x0 PUSH3 0x26BC DUP3 PUSH3 0x2656 JUMP JUMPDEST PUSH3 0x26C8 DUP2 DUP6 PUSH3 0x2661 JUMP JUMPDEST SWAP4 POP PUSH3 0x26DA DUP2 DUP6 PUSH1 0x20 DUP7 ADD PUSH3 0x2672 JUMP JUMPDEST PUSH3 0x26E5 DUP2 PUSH3 0x269E JUMP JUMPDEST DUP5 ADD SWAP2 POP POP SWAP3 SWAP2 POP POP JUMP JUMPDEST PUSH1 0x0 PUSH1 0x20 DUP3 ADD SWAP1 POP DUP2 DUP2 SUB PUSH1 0x0 DUP4 ADD MSTORE PUSH3 0x270C DUP2 DUP5 PUSH3 0x26AF JUMP JUMPDEST SWAP1 POP SWAP3 SWAP2 POP POP JUMP JUMPDEST PUSH1 0x0 PUSH1 0x40 MLOAD SWAP1 POP SWAP1 JUMP JUMPDEST PUSH1 0x0 DUP1 REVERT JUMPDEST PUSH1 0x0 DUP1 REVERT JUMPDEST PUSH1 0x0 PUSH20 0xFFFFFFFFFFFFFFFFFFFFFFFFFFFFFFFFFFFFFFFF DUP3 AND SWAP1 POP SWAP2 SWAP1 POP JUMP JUMPDEST PUSH1 0x0 PUSH3 0x2755 DUP3 PUSH3 0x2728 JUMP JUMPDEST SWAP1 POP SWAP2 SWAP1 POP JUMP JUMPDEST PUSH3 0x2767 DUP2 PUSH3 0x2748 JUMP JUMPDEST DUP2 EQ PUSH3 0x2773 JUMPI PUSH1 0x0 DUP1 REVERT JUMPDEST POP JUMP JUMPDEST PUSH1 0x0 DUP2 CALLDATALOAD SWAP1 POP PUSH3 0x2787 DUP2 PUSH3 0x275C JUMP JUMPDEST SWAP3 SWAP2 POP POP JUMP JUMPDEST PUSH1 0x0 PUSH1 0x20 DUP3 DUP5 SUB SLT ISZERO PUSH3 0x27A6 JUMPI PUSH3 0x27A5 PUSH3 0x271E JUMP JUMPDEST JUMPDEST PUSH1 0x0 PUSH3 0x27B6 DUP5 DUP3 DUP6 ADD PUSH3 0x2776 JUMP JUMPDEST SWAP2 POP POP SWAP3 SWAP2 POP POP JUMP JUMPDEST PUSH3 0x27CA DUP2 PUSH3 0x2748 JUMP JUMPDEST DUP3 MSTORE POP POP JUMP JUMPDEST PUSH1 0x0 PUSH1 0x20 DUP3 ADD SWAP1 POP PUSH3 0x27E7 PUSH1 0x0 DUP4 ADD DUP5 PUSH3 0x27BF JUMP JUMPDEST SWAP3 SWAP2 POP POP JUMP JUMPDEST PUSH1 0x0 DUP1 REVERT JUMPDEST PUSH32 0x4E487B7100000000000000000000000000000000000000000000000000000000 PUSH1 0x0 MSTORE PUSH1 0x41 PUSH1 0x4 MSTORE PUSH1 0x24 PUSH1 0x0 REVERT JUMPDEST PUSH3 0x282C DUP3 PUSH3 0x269E JUMP JUMPDEST DUP2 ADD DUP2 DUP2 LT PUSH8 0xFFFFFFFFFFFFFFFF DUP3 GT OR ISZERO PUSH3 0x284E JUMPI PUSH3 0x284D PUSH3 0x27F2 JUMP JUMPDEST JUMPDEST DUP1 PUSH1 0x40 MSTORE POP POP POP JUMP JUMPDEST PUSH1 0x0 PUSH3 0x2863 PUSH3 0x2714 JUMP JUMPDEST SWAP1 POP PUSH3 0x2871 DUP3 DUP3 PUSH3 0x2821 JUMP JUMPDEST SWAP2 SWAP1 POP JUMP JUMPDEST PUSH1 0x0 PUSH8 0xFFFFFFFFFFFFFFFF DUP3 GT ISZERO PUSH3 0x2894 JUMPI PUSH3 0x2893 PUSH3 0x27F2 JUMP JUMPDEST JUMPDEST PUSH1 0x20 DUP3 MUL SWAP1 POP SWAP2 SWAP1 POP JUMP JUMPDEST PUSH1 0x0 DUP1 REVERT JUMPDEST PUSH1 0x0 DUP2 SWAP1 POP SWAP2 SWAP1 POP JUMP JUMPDEST PUSH3 0x28B9 DUP2 PUSH3 0x28A4 JUMP JUMPDEST DUP2 EQ PUSH3 0x28C5 JUMPI PUSH1 0x0 DUP1 REVERT JUMPDEST POP JUMP JUMPDEST PUSH1 0x0 DUP2 CALLDATALOAD SWAP1 POP PUSH3 0x28D9 DUP2 PUSH3 0x28AE JUMP JUMPDEST SWAP3 SWAP2 POP POP JUMP JUMPDEST PUSH1 0x0 PUSH3 0x28F6 PUSH3 0x28F0 DUP5 PUSH3 0x2876 JUMP JUMPDEST PUSH3 0x2857 JUMP JUMPDEST SWAP1 POP DUP1 PUSH1 0x20 DUP5 MUL DUP4 ADD DUP6 DUP2 GT ISZERO PUSH3 0x2913 JUMPI PUSH3 0x2912 PUSH3 0x289F JUMP JUMPDEST JUMPDEST DUP4 JUMPDEST DUP2 DUP2 LT ISZERO PUSH3 0x2940 JUMPI DUP1 PUSH3 0x292B DUP9 DUP3 PUSH3 0x28C8 JUMP JUMPDEST DUP5 MSTORE PUSH1 0x20 DUP5 ADD SWAP4 POP POP PUSH1 0x20 DUP2 ADD SWAP1 POP PUSH3 0x2915 JUMP JUMPDEST POP POP POP SWAP4 SWAP3 POP POP POP JUMP JUMPDEST PUSH1 0x0 DUP3 PUSH1 0x1F DUP4 ADD SLT PUSH3 0x2962 JUMPI PUSH3 0x2961 PUSH3 0x27ED JUMP JUMPDEST JUMPDEST PUSH1 0x26 PUSH3 0x2971 DUP5 DUP3 DUP6 PUSH3 0x28DF JUMP JUMPDEST SWAP2 POP POP SWAP3 SWAP2 POP POP JUMP JUMPDEST PUSH1 0x0 PUSH2 0x4C0 DUP3 DUP5 SUB SLT ISZERO PUSH3 0x2994 JUMPI PUSH3 0x2993 PUSH3 0x271E JUMP JUMPDEST JUMPDEST PUSH1 0x0 PUSH3 0x29A4 DUP5 DUP3 DUP6 ADD PUSH3 0x294A JUMP JUMPDEST SWAP2 POP POP SWAP3 SWAP2 POP POP JUMP JUMPDEST PUSH1 0x0 DUP2 MLOAD SWAP1 POP SWAP2 SWAP1 POP JUMP JUMPDEST PUSH1 0x0 DUP3 DUP3 MSTORE PUSH1 0x20 DUP3 ADD SWAP1 POP SWAP3 SWAP2 POP POP JUMP JUMPDEST PUSH1 0x0 DUP2 SWAP1 POP PUSH1 0x20 DUP3 ADD SWAP1 POP SWAP2 SWAP1 POP JUMP JUMPDEST PUSH3 0x29E4 DUP2 PUSH3 0x28A4 JUMP JUMPDEST DUP3 MSTORE POP POP JUMP JUMPDEST PUSH1 0x0 PUSH3 0x29F8 DUP4 DUP4 PUSH3 0x29D9 JUMP JUMPDEST PUSH1 0x20 DUP4 ADD SWAP1 POP SWAP3 SWAP2 POP POP JUMP JUMPDEST PUSH1 0x0 PUSH1 0x20 DUP3 ADD SWAP1 POP SWAP2 SWAP1 POP JUMP JUMPDEST PUSH1 0x0 PUSH3 0x2A1E DUP3 PUSH3 0x29AD JUMP JUMPDEST PUSH3 0x2A2A DUP2 DUP6 PUSH3 0x29B8 JUMP JUMPDEST SWAP4 POP PUSH3 0x2A37 DUP4 PUSH3 0x29C9 JUMP JUMPDEST DUP1 PUSH1 0x0 JUMPDEST DUP4 DUP2 LT ISZERO PUSH3 0x2A6E JUMPI DUP2 MLOAD PUSH3 0x2A52 DUP9 DUP3 PUSH3 0x29EA JUMP JUMPDEST SWAP8 POP PUSH3 0x2A5F DUP4 PUSH3 0x2A04 JUMP JUMPDEST SWAP3 POP POP PUSH1 0x1 DUP2 ADD SWAP1 POP PUSH3 0x2A3B JUMP JUMPDEST POP DUP6 SWAP4 POP POP POP POP SWAP3 SWAP2 POP POP JUMP JUMPDEST PUSH1 0x0 PUSH1 0x20 DUP3 ADD SWAP1 POP DUP2 DUP2 SUB PUSH1 0x0 DUP4 ADD MSTORE PUSH3 0x2A97 DUP2 DUP5 PUSH3 0x2A11 JUMP JUMPDEST SWAP1 POP SWAP3 SWAP2 POP POP JUMP JUMPDEST PUSH3 0x2AAA DUP2 PUSH3 0x28A4 JUMP JUMPDEST DUP3 MSTORE POP POP JUMP JUMPDEST PUSH1 0x0 PUSH1 0x20 DUP3 ADD SWAP1 POP PUSH3 0x2AC7 PUSH1 0x0 DUP4 ADD DUP5 PUSH3 0x2A9F JUMP JUMPDEST SWAP3 SWAP2 POP POP JUMP JUMPDEST PUSH1 0x0 DUP2 ISZERO ISZERO SWAP1 POP SWAP2 SWAP1 POP JUMP JUMPDEST PUSH3 0x2AE4 DUP2 PUSH3 0x2ACD JUMP JUMPDEST DUP3 MSTORE POP POP JUMP JUMPDEST PUSH1 0x0 PUSH1 0x20 DUP3 ADD SWAP1 POP PUSH3 0x2B01 PUSH1 0x0 DUP4 ADD DUP5 PUSH3 0x2AD9 JUMP JUMPDEST SWAP3 SWAP2 POP POP JUMP JUMPDEST PUSH1 0x0 DUP1 REVERT JUMPDEST PUSH1 0x0 DUP1 DUP4 PUSH1 0x1F DUP5 ADD SLT PUSH3 0x2B25 JUMPI PUSH3 0x2B24 PUSH3 0x27ED JUMP JUMPDEST JUMPDEST DUP3 CALLDATALOAD SWAP1 POP PUSH8 0xFFFFFFFFFFFFFFFF DUP2 GT ISZERO PUSH3 0x2B45 JUMPI PUSH3 0x2B44 PUSH3 0x2B07 JUMP JUMPDEST JUMPDEST PUSH1 0x20 DUP4 ADD SWAP2 POP DUP4 PUSH1 0x1 DUP3 MUL DUP4 ADD GT ISZERO PUSH3 0x2B64 JUMPI PUSH3 0x2B63 PUSH3 0x289F JUMP JUMPDEST JUMPDEST SWAP3 POP SWAP3 SWAP1 POP JUMP JUMPDEST PUSH1 0x0 DUP1 REVERT JUMPDEST PUSH1 0x0 PUSH2 0x5C0 DUP3 DUP5 SUB SLT ISZERO PUSH3 0x2B8A JUMPI PUSH3 0x2B89 PUSH3 0x2B6B JUMP JUMPDEST JUMPDEST DUP2 SWAP1 POP SWAP3 SWAP2 POP POP JUMP JUMPDEST PUSH1 0x0 DUP1 PUSH1 0x0 DUP1 PUSH1 0x0 DUP1 PUSH1 0x0 PUSH2 0x620 DUP9 DUP11 SUB SLT ISZERO PUSH3 0x2BB6 JUMPI PUSH3 0x2BB5 PUSH3 0x271E JUMP JUMPDEST JUMPDEST PUSH1 0x0 DUP9 ADD CALLDATALOAD PUSH8 0xFFFFFFFFFFFFFFFF DUP2 GT ISZERO PUSH3 0x2BD7 JUMPI PUSH3 0x2BD6 PUSH3 0x2723 JUMP JUMPDEST JUMPDEST PUSH3 0x2BE5 DUP11 DUP3 DUP12 ADD PUSH3 0x2B0C JUMP JUMPDEST SWAP8 POP SWAP8 POP POP PUSH1 0x20 DUP9 ADD CALLDATALOAD PUSH8 0xFFFFFFFFFFFFFFFF DUP2 GT ISZERO PUSH3 0x2C0B JUMPI PUSH3 0x2C0A PUSH3 0x2723 JUMP JUMPDEST JUMPDEST PUSH3 0x2C19 DUP11 DUP3 DUP12 ADD PUSH3 0x2B0C JUMP JUMPDEST SWAP6 POP SWAP6 POP POP PUSH1 0x40 DUP9 ADD CALLDATALOAD PUSH8 0xFFFFFFFFFFFFFFFF DUP2 GT ISZERO PUSH3 0x2C3F JUMPI PUSH3 0x2C3E PUSH3 0x2723 JUMP JUMPDEST JUMPDEST PUSH3 0x2C4D DUP11 DUP3 DUP12 ADD PUSH3 0x2B0C JUMP JUMPDEST SWAP4 POP SWAP4 POP POP PUSH1 0x60 PUSH3 0x2C62 DUP11 DUP3 DUP12 ADD PUSH3 0x2B70 JUMP JUMPDEST SWAP2 POP POP SWAP3 SWAP6 SWAP9 SWAP2 SWAP5 SWAP8 POP SWAP3 SWAP6 POP JUMP JUMPDEST PUSH1 0x0 DUP2 SWAP1 POP DUP3 PUSH1 0x20 PUSH1 0x2 MUL DUP3 ADD GT ISZERO PUSH3 0x2C90 JUMPI PUSH3 0x2C8F PUSH3 0x289F JUMP JUMPDEST JUMPDEST SWAP3 SWAP2 POP POP JUMP JUMPDEST PUSH1 0x0 DUP2 SWAP1 POP DUP3 PUSH1 0x40 PUSH1 0x2 MUL DUP3 ADD GT ISZERO PUSH3 0x2CB5 JUMPI PUSH3 0x2CB4 PUSH3 0x289F JUMP JUMPDEST JUMPDEST SWAP3 SWAP2 POP POP JUMP JUMPDEST PUSH1 0x0 DUP2 SWAP1 POP DUP3 PUSH1 0x20 PUSH1 0x26 MUL DUP3 ADD GT ISZERO PUSH3 0x2CDA JUMPI PUSH3 0x2CD9 PUSH3 0x289F JUMP JUMPDEST JUMPDEST SWAP3 SWAP2 POP POP JUMP JUMPDEST PUSH1 0x0 DUP1 PUSH1 0x0 DUP1 PUSH2 0x5C0 DUP6 DUP8 SUB SLT ISZERO PUSH3 0x2CFE JUMPI PUSH3 0x2CFD PUSH3 0x271E JUMP JUMPDEST JUMPDEST PUSH1 0x0 PUSH3 0x2D0E DUP8 DUP3 DUP9 ADD PUSH3 0x2C71 JUMP JUMPDEST SWAP5 POP POP PUSH1 0x40 PUSH3 0x2D21 DUP8 DUP3 DUP9 ADD PUSH3 0x2C96 JUMP JUMPDEST SWAP4 POP POP PUSH1 0xC0 PUSH3 0x2D34 DUP8 DUP3 DUP9 ADD PUSH3 0x2C71 JUMP JUMPDEST SWAP3 POP POP PUSH2 0x100 PUSH3 0x2D48 DUP8 DUP3 DUP9 ADD PUSH3 0x2CBB JUMP JUMPDEST SWAP2 POP POP SWAP3 SWAP6 SWAP2 SWAP5 POP SWAP3 POP JUMP JUMPDEST PUSH1 0x0 PUSH1 0x2 SWAP1 POP SWAP2 SWAP1 POP JUMP JUMPDEST PUSH1 0x0 DUP2 SWAP1 POP SWAP3 SWAP2 POP POP JUMP JUMPDEST PUSH1 0x0 DUP2 SWAP1 POP SWAP2 SWAP1 POP JUMP JUMPDEST PUSH1 0x0 PUSH1 0x20 DUP3 ADD SWAP1 POP SWAP2 SWAP1 POP JUMP JUMPDEST PUSH3 0x2D8C DUP2 PUSH3 0x2D54 JUMP JUMPDEST PUSH3 0x2D98 DUP2 DUP5 PUSH3 0x2D5F JUMP JUMPDEST SWAP3 POP PUSH3 0x2DA5 DUP3 PUSH3 0x2D6A JUMP JUMPDEST DUP1 PUSH1 0x0 JUMPDEST DUP4 DUP2 LT ISZERO PUSH3 0x2DDC JUMPI DUP2 MLOAD PUSH3 0x2DC0 DUP8 DUP3 PUSH3 0x29EA JUMP JUMPDEST SWAP7 POP PUSH3 0x2DCD DUP4 PUSH3 0x2D74 JUMP JUMPDEST SWAP3 POP POP PUSH1 0x1 DUP2 ADD SWAP1 POP PUSH3 0x2DA9 JUMP JUMPDEST POP POP POP POP POP POP JUMP JUMPDEST PUSH1 0x0 PUSH1 0x40 DUP3 ADD SWAP1 POP PUSH3 0x2DFB PUSH1 0x0 DUP4 ADD DUP5 PUSH3 0x2D81 JUMP JUMPDEST SWAP3 SWAP2 POP POP JUMP JUMPDEST PUSH1 0x0 DUP1 PUSH1 0x0 PUSH1 0x60 DUP5 DUP7 SUB SLT ISZERO PUSH3 0x2E1D JUMPI PUSH3 0x2E1C PUSH3 0x271E JUMP JUMPDEST JUMPDEST PUSH1 0x0 PUSH3 0x2E2D DUP7 DUP3 DUP8 ADD PUSH3 0x2776 JUMP JUMPDEST SWAP4 POP POP PUSH1 0x20 PUSH3 0x2E40 DUP7 DUP3 DUP8 ADD PUSH3 0x28C8 JUMP JUMPDEST SWAP3 POP POP PUSH1 0x40 PUSH3 0x2E53 DUP7 DUP3 DUP8 ADD PUSH3 0x28C8 JUMP JUMPDEST SWAP2 POP POP SWAP3 POP SWAP3 POP SWAP3 JUMP JUMPDEST PUSH1 0x0 DUP2 MLOAD SWAP1 POP SWAP2 SWAP1 POP JUMP JUMPDEST PUSH1 0x0 DUP3 DUP3 MSTORE PUSH1 0x20 DUP3 ADD SWAP1 POP SWAP3 SWAP2 POP POP JUMP JUMPDEST PUSH1 0x0 DUP2 SWAP1 POP PUSH1 0x20 DUP3 ADD SWAP1 POP SWAP2 SWAP1 POP JUMP JUMPDEST PUSH3 0x2E94 DUP2 PUSH3 0x2748 JUMP JUMPDEST DUP3 MSTORE POP POP JUMP JUMPDEST PUSH1 0x60 DUP3 ADD PUSH1 0x0 DUP3 ADD MLOAD PUSH3 0x2EB2 PUSH1 0x0 DUP6 ADD DUP3 PUSH3 0x2E89 JUMP JUMPDEST POP PUSH1 0x20 DUP3 ADD MLOAD PUSH3 0x2EC7 PUSH1 0x20 DUP6 ADD DUP3 PUSH3 0x29D9 JUMP JUMPDEST POP PUSH1 0x40 DUP3 ADD MLOAD PUSH3 0x2EDC PUSH1 0x40 DUP6 ADD DUP3 PUSH3 0x29D9 JUMP JUMPDEST POP POP POP POP JUMP JUMPDEST PUSH1 0x0 PUSH3 0x2EF0 DUP4 DUP4 PUSH3 0x2E9A JUMP JUMPDEST PUSH1 0x60 DUP4 ADD SWAP1 POP SWAP3 SWAP2 POP POP JUMP JUMPDEST PUSH1 0x0 PUSH1 0x20 DUP3 ADD SWAP1 POP SWAP2 SWAP1 POP JUMP JUMPDEST PUSH1 0x0 PUSH3 0x2F16 DUP3 PUSH3 0x2E5D JUMP JUMPDEST PUSH3 0x2F22 DUP2 DUP6 PUSH3 0x2E68 JUMP JUMPDEST SWAP4 POP PUSH3 0x2F2F DUP4 PUSH3 0x2E79 JUMP JUMPDEST DUP1 PUSH1 0x0 JUMPDEST DUP4 DUP2 LT ISZERO PUSH3 0x2F66 JUMPI DUP2 MLOAD PUSH3 0x2F4A DUP9 DUP3 PUSH3 0x2EE2 JUMP JUMPDEST SWAP8 POP PUSH3 0x2F57 DUP4 PUSH3 0x2EFC JUMP JUMPDEST SWAP3 POP POP PUSH1 0x1 DUP2 ADD SWAP1 POP PUSH3 0x2F33 JUMP JUMPDEST POP DUP6 SWAP4 POP POP POP POP SWAP3 SWAP2 POP POP JUMP JUMPDEST PUSH1 0x0 PUSH1 0x20 DUP3 ADD SWAP1 POP DUP2 DUP2 SUB PUSH1 0x0 DUP4 ADD MSTORE PUSH3 0x2F8F DUP2 DUP5 PUSH3 0x2F09 JUMP JUMPDEST SWAP1 POP SWAP3 SWAP2 POP POP JUMP JUMPDEST PUSH1 0x60 DUP3 ADD PUSH1 0x0 DUP3 ADD MLOAD PUSH3 0x2FAF PUSH1 0x0 DUP6 ADD DUP3 PUSH3 0x2E89 JUMP JUMPDEST POP PUSH1 0x20 DUP3 ADD MLOAD PUSH3 0x2FC4 PUSH1 0x20 DUP6 ADD DUP3 PUSH3 0x29D9 JUMP JUMPDEST POP PUSH1 0x40 DUP3 ADD MLOAD PUSH3 0x2FD9 PUSH1 0x40 DUP6 ADD DUP3 PUSH3 0x29D9 JUMP JUMPDEST POP POP POP POP JUMP JUMPDEST PUSH1 0x0 PUSH1 0x60 DUP3 ADD SWAP1 POP PUSH3 0x2FF6 PUSH1 0x0 DUP4 ADD DUP5 PUSH3 0x2F97 JUMP JUMPDEST SWAP3 SWAP2 POP POP JUMP JUMPDEST PUSH1 0x0 DUP1 PUSH1 0x40 DUP4 DUP6 SUB SLT ISZERO PUSH3 0x3016 JUMPI PUSH3 0x3015 PUSH3 0x271E JUMP JUMPDEST JUMPDEST PUSH1 0x0 PUSH3 0x3026 DUP6 DUP3 DUP7 ADD PUSH3 0x28C8 JUMP JUMPDEST SWAP3 POP POP PUSH1 0x20 PUSH3 0x3039 DUP6 DUP3 DUP7 ADD PUSH3 0x28C8 JUMP JUMPDEST SWAP2 POP POP SWAP3 POP SWAP3 SWAP1 POP JUMP JUMPDEST PUSH32 0x4E487B7100000000000000000000000000000000000000000000000000000000 PUSH1 0x0 MSTORE PUSH1 0x11 PUSH1 0x4 MSTORE PUSH1 0x24 PUSH1 0x0 REVERT JUMPDEST PUSH1 0x0 PUSH3 0x307F DUP3 PUSH3 0x28A4 JUMP JUMPDEST SWAP2 POP PUSH3 0x308C DUP4 PUSH3 0x28A4 JUMP JUMPDEST SWAP3 POP DUP3 DUP3 ADD SWAP1 POP DUP1 DUP3 GT ISZERO PUSH3 0x30A7 JUMPI PUSH3 0x30A6 PUSH3 0x3043 JUMP JUMPDEST JUMPDEST SWAP3 SWAP2 POP POP JUMP JUMPDEST PUSH32 0x4E487B7100000000000000000000000000000000000000000000000000000000 PUSH1 0x0 MSTORE PUSH1 0x32 PUSH1 0x4 MSTORE PUSH1 0x24 PUSH1 0x0 REVERT JUMPDEST PUSH1 0x0 PUSH3 0x30E9 DUP3 PUSH3 0x28A4 JUMP JUMPDEST SWAP2 POP PUSH32 0xFFFFFFFFFFFFFFFFFFFFFFFFFFFFFFFFFFFFFFFFFFFFFFFFFFFFFFFFFFFFFFFF DUP3 SUB PUSH3 0x311E JUMPI PUSH3 0x311D PUSH3 0x3043 JUMP JUMPDEST JUMPDEST PUSH1 0x1 DUP3 ADD SWAP1 POP SWAP2 SWAP1 POP JUMP JUMPDEST DUP3 DUP2 DUP4 CALLDATACOPY POP POP POP JUMP JUMPDEST PUSH3 0x3140 PUSH1 0x40 DUP4 DUP4 PUSH3 0x3129 JUMP JUMPDEST POP POP JUMP JUMPDEST PUSH1 0x0 PUSH1 0x2 SWAP1 POP SWAP2 SWAP1 POP JUMP JUMPDEST PUSH1 0x0 DUP2 SWAP1 POP SWAP3 SWAP2 POP POP JUMP JUMPDEST PUSH1 0x0 DUP2 SWAP1 POP SWAP2 SWAP1 POP JUMP JUMPDEST PUSH3 0x3172 PUSH1 0x40 DUP4 DUP4 PUSH3 0x3129 JUMP JUMPDEST POP POP JUMP JUMPDEST PUSH1 0x0 PUSH3 0x3184 DUP4 DUP4 PUSH3 0x3164 JUMP JUMPDEST PUSH1 0x40 DUP4 ADD SWAP1 POP SWAP3 SWAP2 POP POP JUMP JUMPDEST PUSH1 0x0 DUP3 SWAP1 POP SWAP3 SWAP2 POP POP JUMP JUMPDEST PUSH1 0x0 PUSH1 0x40 DUP3 ADD SWAP1 POP SWAP2 SWAP1 POP JUMP JUMPDEST PUSH3 0x31B3 DUP2 PUSH3 0x3144 JUMP JUMPDEST PUSH3 0x31BF DUP2 DUP5 PUSH3 0x314F JUMP JUMPDEST SWAP3 POP PUSH3 0x31CC DUP3 PUSH3 0x315A JUMP JUMPDEST DUP1 PUSH1 0x0 JUMPDEST DUP4 DUP2 LT ISZERO PUSH3 0x320D JUMPI PUSH3 0x31E5 DUP3 DUP5 PUSH3 0x3190 JUMP JUMPDEST PUSH3 0x31F1 DUP8 DUP3 PUSH3 0x3176 JUMP JUMPDEST SWAP7 POP PUSH3 0x31FE DUP4 PUSH3 0x319B JUMP JUMPDEST SWAP3 POP POP PUSH1 0x1 DUP2 ADD SWAP1 POP PUSH3 0x31D0 JUMP JUMPDEST POP POP POP POP POP POP JUMP JUMPDEST PUSH3 0x3224 PUSH2 0x4C0 DUP4 DUP4 PUSH3 0x3129 JUMP JUMPDEST POP POP JUMP JUMPDEST PUSH1 0x0 PUSH2 0x5C0 DUP3 ADD SWAP1 POP PUSH3 0x3240 PUSH1 0x0 DUP4 ADD DUP8 PUSH3 0x3132 JUMP JUMPDEST PUSH3 0x324F PUSH1 0x40 DUP4 ADD DUP7 PUSH3 0x31A8 JUMP JUMPDEST PUSH3 0x325E PUSH1 0xC0 DUP4 ADD DUP6 PUSH3 0x3132 JUMP JUMPDEST PUSH3 0x326E PUSH2 0x100 DUP4 ADD DUP5 PUSH3 0x3215 JUMP JUMPDEST SWAP6 SWAP5 POP POP POP POP POP JUMP JUMPDEST PUSH3 0x3282 DUP2 PUSH3 0x2ACD JUMP JUMPDEST DUP2 EQ PUSH3 0x328E JUMPI PUSH1 0x0 DUP1 REVERT JUMPDEST POP JUMP JUMPDEST PUSH1 0x0 DUP2 MLOAD SWAP1 POP PUSH3 0x32A2 DUP2 PUSH3 0x3277 JUMP JUMPDEST SWAP3 SWAP2 POP POP JUMP JUMPDEST PUSH1 0x0 PUSH1 0x20 DUP3 DUP5 SUB SLT ISZERO PUSH3 0x32C1 JUMPI PUSH3 0x32C0 PUSH3 0x271E JUMP JUMPDEST JUMPDEST PUSH1 0x0 PUSH3 0x32D1 DUP5 DUP3 DUP6 ADD PUSH3 0x3291 JUMP JUMPDEST SWAP2 POP POP SWAP3 SWAP2 POP POP JUMP JUMPDEST PUSH32 0x496E76616C69642070726F6F6600000000000000000000000000000000000000 PUSH1 0x0 DUP3 ADD MSTORE POP JUMP JUMPDEST PUSH1 0x0 PUSH3 0x3312 PUSH1 0xD DUP4 PUSH3 0x2661 JUMP JUMPDEST SWAP2 POP PUSH3 0x331F DUP3 PUSH3 0x32DA JUMP JUMPDEST PUSH1 0x20 DUP3 ADD SWAP1 POP SWAP2 SWAP1 POP JUMP JUMPDEST PUSH1 0x0 PUSH1 0x20 DUP3 ADD SWAP1 POP DUP2 DUP2 SUB PUSH1 0x0 DUP4 ADD MSTORE PUSH3 0x3345 DUP2 PUSH3 0x3303 JUMP JUMPDEST SWAP1 POP SWAP2 SWAP1 POP JUMP JUMPDEST PUSH1 0x0 PUSH1 0x1 SWAP1 POP SWAP2 SWAP1 POP JUMP JUMPDEST PUSH1 0x0 DUP2 SWAP1 POP SWAP3 SWAP2 POP POP JUMP JUMPDEST PUSH1 0x0 DUP2 SWAP1 POP SWAP2 SWAP1 POP JUMP JUMPDEST PUSH3 0x3377 DUP2 PUSH3 0x28A4 JUMP JUMPDEST DUP3 MSTORE POP POP JUMP JUMPDEST PUSH1 0x0 PUSH3 0x338B DUP4 DUP4 PUSH3 0x336C JUMP JUMPDEST PUSH1 0x20 DUP4 ADD SWAP1 POP SWAP3 SWAP2 POP POP JUMP JUMPDEST PUSH1 0x0 DUP2 PUSH1 0x0 SHR SWAP1 POP SWAP2 SWAP1 POP JUMP JUMPDEST PUSH1 0x0 DUP2 SWAP1 POP SWAP2 SWAP1 POP JUMP JUMPDEST PUSH1 0x0 PUSH3 0x33C5 PUSH3 0x33BF DUP4 PUSH3 0x3397 JUMP JUMPDEST PUSH3 0x33A4 JUMP JUMPDEST SWAP1 POP SWAP2 SWAP1 POP JUMP JUMPDEST PUSH1 0x0 PUSH3 0x33DA DUP3 SLOAD PUSH3 0x33AE JUMP JUMPDEST SWAP1 POP SWAP2 SWAP1 POP JUMP JUMPDEST PUSH1 0x0 PUSH1 0x1 DUP3 ADD SWAP1 POP SWAP2 SWAP1 POP JUMP JUMPDEST PUSH3 0x33F9 DUP2 PUSH3 0x334C JUMP JUMPDEST PUSH3 0x3405 DUP2 DUP5 PUSH3 0x3357 JUMP JUMPDEST SWAP3 POP PUSH3 0x3412 DUP3 PUSH3 0x3362 JUMP JUMPDEST DUP1 PUSH1 0x0 JUMPDEST DUP4 DUP2 LT ISZERO PUSH3 0x3452 JUMPI PUSH3 0x342A DUP3 PUSH3 0x33CC JUMP JUMPDEST PUSH3 0x3436 DUP8 DUP3 PUSH3 0x337D JUMP JUMPDEST SWAP7 POP PUSH3 0x3443 DUP4 PUSH3 0x33E1 JUMP JUMPDEST SWAP3 POP POP PUSH1 0x1 DUP2 ADD SWAP1 POP PUSH3 0x3416 JUMP JUMPDEST POP POP POP POP POP POP JUMP JUMPDEST PUSH1 0x0 PUSH3 0x3468 DUP3 DUP5 PUSH3 0x33EE JUMP JUMPDEST PUSH1 0x20 DUP3 ADD SWAP2 POP DUP2 SWAP1 POP SWAP3 SWAP2 POP POP JUMP JUMPDEST PUSH1 0x0 DUP2 SWAP1 POP SWAP3 SWAP2 POP POP JUMP JUMPDEST PUSH1 0x0 PUSH3 0x348F DUP3 PUSH3 0x29AD JUMP JUMPDEST PUSH3 0x349B DUP2 DUP6 PUSH3 0x3477 JUMP JUMPDEST SWAP4 POP PUSH3 0x34A8 DUP4 PUSH3 0x29C9 JUMP JUMPDEST DUP1 PUSH1 0x0 JUMPDEST DUP4 DUP2 LT ISZERO PUSH3 0x34DF JUMPI DUP2 MLOAD PUSH3 0x34C3 DUP9 DUP3 PUSH3 0x337D JUMP JUMPDEST SWAP8 POP PUSH3 0x34D0 DUP4 PUSH3 0x2A04 JUMP JUMPDEST SWAP3 POP POP PUSH1 0x1 DUP2 ADD SWAP1 POP PUSH3 0x34AC JUMP JUMPDEST POP DUP6 SWAP4 POP POP POP POP SWAP3 SWAP2 POP POP JUMP JUMPDEST PUSH1 0x0 PUSH3 0x34FA DUP3 DUP5 PUSH3 0x3482 JUMP JUMPDEST SWAP2 POP DUP2 SWAP1 POP SWAP3 SWAP2 POP POP JUMP JUMPDEST PUSH32 0x496E76616C6964206576656E7420696473000000000000000000000000000000 PUSH1 0x0 DUP3 ADD MSTORE POP JUMP JUMPDEST PUSH1 0x0 PUSH3 0x353D PUSH1 0x11 DUP4 PUSH3 0x2661 JUMP JUMPDEST SWAP2 POP PUSH3 0x354A DUP3 PUSH3 0x3505 JUMP JUMPDEST PUSH1 0x20 DUP3 ADD SWAP1 POP SWAP2 SWAP1 POP JUMP JUMPDEST PUSH1 0x0 PUSH1 0x20 DUP3 ADD SWAP1 POP DUP2 DUP2 SUB PUSH1 0x0 DUP4 ADD MSTORE PUSH3 0x3570 DUP2 PUSH3 0x352E JUMP JUMPDEST SWAP1 POP SWAP2 SWAP1 POP JUMP JUMPDEST PUSH32 0x496E76616C6964207369676E6572000000000000000000000000000000000000 PUSH1 0x0 DUP3 ADD MSTORE POP JUMP JUMPDEST PUSH1 0x0 PUSH3 0x35AF PUSH1 0xE DUP4 PUSH3 0x2661 JUMP JUMPDEST SWAP2 POP PUSH3 0x35BC DUP3 PUSH3 0x3577 JUMP JUMPDEST PUSH1 0x20 DUP3 ADD SWAP1 POP SWAP2 SWAP1 POP JUMP JUMPDEST PUSH1 0x0 PUSH1 0x20 DUP3 ADD SWAP1 POP DUP2 DUP2 SUB PUSH1 0x0 DUP4 ADD MSTORE PUSH3 0x35E2 DUP2 PUSH3 0x35A0 JUMP JUMPDEST SWAP1 POP SWAP2 SWAP1 POP JUMP JUMPDEST DUP3 DUP2 DUP4 CALLDATACOPY PUSH1 0x0 DUP4 DUP4 ADD MSTORE POP POP POP JUMP JUMPDEST PUSH1 0x0 PUSH3 0x3606 DUP4 DUP6 PUSH3 0x2661 JUMP JUMPDEST SWAP4 POP PUSH3 0x3615 DUP4 DUP6 DUP5 PUSH3 0x35E9 JUMP JUMPDEST PUSH3 0x3620 DUP4 PUSH3 0x269E JUMP JUMPDEST DUP5 ADD SWAP1 POP SWAP4 SWAP3 POP POP POP JUMP JUMPDEST PUSH1 0x0 PUSH1 0xA0 DUP3 ADD SWAP1 POP DUP2 DUP2 SUB PUSH1 0x0 DUP4 ADD MSTORE PUSH3 0x3648 DUP2 DUP11 DUP13 PUSH3 0x35F8 JUMP JUMPDEST SWAP1 POP DUP2 DUP2 SUB PUSH1 0x20 DUP4 ADD MSTORE PUSH3 0x365F DUP2 DUP9 DUP11 PUSH3 0x35F8 JUMP JUMPDEST SWAP1 POP DUP2 DUP2 SUB PUSH1 0x40 DUP4 ADD MSTORE PUSH3 0x3676 DUP2 DUP7 DUP9 PUSH3 0x35F8 JUMP JUMPDEST SWAP1 POP PUSH3 0x3687 PUSH1 0x60 DUP4 ADD DUP6 PUSH3 0x27BF JUMP JUMPDEST PUSH3 0x3696 PUSH1 0x80 DUP4 ADD DUP5 PUSH3 0x27BF JUMP JUMPDEST SWAP10 SWAP9 POP POP POP POP POP POP POP POP POP JUMP JUMPDEST PUSH1 0x0 PUSH3 0x36B0 DUP3 PUSH3 0x28A4 JUMP JUMPDEST SWAP2 POP PUSH3 0x36BD DUP4 PUSH3 0x28A4 JUMP JUMPDEST SWAP3 POP DUP3 DUP3 SUB SWAP1 POP DUP2 DUP2 GT ISZERO PUSH3 0x36D8 JUMPI PUSH3 0x36D7 PUSH3 0x3043 JUMP JUMPDEST JUMPDEST SWAP3 SWAP2 POP POP JUMP JUMPDEST PUSH32 0x5265656E7472616E637947756172643A207265656E7472616E742063616C6C00 PUSH1 0x0 DUP3 ADD MSTORE POP JUMP JUMPDEST PUSH1 0x0 PUSH3 0x3716 PUSH1 0x1F DUP4 PUSH3 0x2661 JUMP JUMPDEST SWAP2 POP PUSH3 0x3723 DUP3 PUSH3 0x36DE JUMP JUMPDEST PUSH1 0x20 DUP3 ADD SWAP1 POP SWAP2 SWAP1 POP JUMP JUMPDEST PUSH1 0x0 PUSH1 0x20 DUP3 ADD SWAP1 POP DUP2 DUP2 SUB PUSH1 0x0 DUP4 ADD MSTORE PUSH3 0x3749 DUP2 PUSH3 0x3707 JUMP JUMPDEST SWAP1 POP SWAP2 SWAP1 POP JUMP JUMPDEST PUSH32 0x4656323030000000000000000000000000000000000000000000000000000000 PUSH1 0x0 DUP3 ADD MSTORE POP JUMP JUMPDEST PUSH1 0x0 PUSH3 0x3788 PUSH1 0x5 DUP4 PUSH3 0x2661 JUMP JUMPDEST SWAP2 POP PUSH3 0x3795 DUP3 PUSH3 0x3750 JUMP JUMPDEST PUSH1 0x20 DUP3 ADD SWAP1 POP SWAP2 SWAP1 POP JUMP JUMPDEST PUSH1 0x0 PUSH1 0x20 DUP3 ADD SWAP1 POP DUP2 DUP2 SUB PUSH1 0x0 DUP4 ADD MSTORE PUSH3 0x37BB DUP2 PUSH3 0x3779 JUMP JUMPDEST SWAP1 POP SWAP2 SWAP1 POP JUMP JUMPDEST PUSH1 0x0 PUSH3 0x37CF DUP3 PUSH3 0x28A4 JUMP JUMPDEST SWAP2 POP PUSH3 0x37DC DUP4 PUSH3 0x28A4 JUMP JUMPDEST SWAP3 POP DUP3 DUP3 MUL PUSH3 0x37EC DUP2 PUSH3 0x28A4 JUMP JUMPDEST SWAP2 POP DUP3 DUP3 DIV DUP5 EQ DUP4 ISZERO OR PUSH3 0x3806 JUMPI PUSH3 0x3805 PUSH3 0x3043 JUMP JUMPDEST JUMPDEST POP SWAP3 SWAP2 POP POP JUMP JUMPDEST PUSH32 0x4656323132000000000000000000000000000000000000000000000000000000 PUSH1 0x0 DUP3 ADD MSTORE POP JUMP JUMPDEST PUSH1 0x0 PUSH3 0x3845 PUSH1 0x5 DUP4 PUSH3 0x2661 JUMP JUMPDEST SWAP2 POP PUSH3 0x3852 DUP3 PUSH3 0x380D JUMP JUMPDEST PUSH1 0x20 DUP3 ADD SWAP1 POP SWAP2 SWAP1 POP JUMP JUMPDEST PUSH1 0x0 PUSH1 0x20 DUP3 ADD SWAP1 POP DUP2 DUP2 SUB PUSH1 0x0 DUP4 ADD MSTORE PUSH3 0x3878 DUP2 PUSH3 0x3836 JUMP JUMPDEST SWAP1 POP SWAP2 SWAP1 POP JUMP INVALID PUSH1 0xA0 PUSH1 0x40 MSTORE CALLVALUE DUP1 ISZERO PUSH3 0x11 JUMPI PUSH1 0x0 DUP1 REVERT JUMPDEST POP PUSH1 0x40 MLOAD PUSH3 0x4DD0 CODESIZE SUB DUP1 PUSH3 0x4DD0 DUP4 CODECOPY DUP2 DUP2 ADD PUSH1 0x40 MSTORE DUP2 ADD SWAP1 PUSH3 0x37 SWAP2 SWAP1 PUSH3 0xCB8 JUMP JUMPDEST DUP1 DUP1 PUSH20 0xFFFFFFFFFFFFFFFFFFFFFFFFFFFFFFFFFFFFFFFF AND PUSH1 0x80 DUP2 PUSH20 0xFFFFFFFFFFFFFFFFFFFFFFFFFFFFFFFFFFFFFFFF AND DUP2 MSTORE POP POP POP PUSH3 0x8D PUSH3 0x81 PUSH3 0x1D3 PUSH1 0x20 SHL PUSH1 0x20 SHR JUMP JUMPDEST PUSH3 0x1EF PUSH1 0x20 SHL PUSH1 0x20 SHR JUMP JUMPDEST PUSH1 0x0 PUSH20 0xFFFFFFFFFFFFFFFFFFFFFFFFFFFFFFFFFFFFFFFF AND DUP3 PUSH20 0xFFFFFFFFFFFFFFFFFFFFFFFFFFFFFFFFFFFFFFFF AND SUB PUSH3 0xFF JUMPI PUSH1 0x40 MLOAD PUSH32 0x8C379A000000000000000000000000000000000000000000000000000000000 DUP2 MSTORE PUSH1 0x4 ADD PUSH3 0xF6 SWAP1 PUSH3 0xDFE JUMP JUMPDEST PUSH1 0x40 MLOAD DUP1 SWAP2 SUB SWAP1 REVERT JUMPDEST PUSH1 0x0 PUSH20 0xFFFFFFFFFFFFFFFFFFFFFFFFFFFFFFFFFFFFFFFF AND DUP2 PUSH20 0xFFFFFFFFFFFFFFFFFFFFFFFFFFFFFFFFFFFFFFFF AND SUB PUSH3 0x171 JUMPI PUSH1 0x40 MLOAD PUSH32 0x8C379A000000000000000000000000000000000000000000000000000000000 DUP2 MSTORE PUSH1 0x4 ADD PUSH3 0x168 SWAP1 PUSH3 0xDFE JUMP JUMPDEST PUSH1 0x40 MLOAD DUP1 SWAP2 SUB SWAP1 REVERT JUMPDEST DUP5 PUSH1 0x2 SWAP1 DUP2 PUSH3 0x182 SWAP2 SWAP1 PUSH3 0x106B JUMP JUMPDEST POP PUSH3 0x194 DUP3 PUSH3 0x1EF PUSH1 0x20 SHL PUSH1 0x20 SHR JUMP JUMPDEST PUSH3 0x1A4 PUSH3 0x22D PUSH1 0x20 SHL PUSH1 0x20 SHR JUMP JUMPDEST PUSH3 0x1B5 DUP3 PUSH3 0x2AF PUSH1 0x20 SHL PUSH1 0x20 SHR JUMP JUMPDEST PUSH3 0x1C8 DUP3 DUP6 DUP6 PUSH3 0x5DE PUSH1 0x20 SHL PUSH1 0x20 SHR JUMP JUMPDEST POP POP POP POP POP PUSH3 0x13D1 JUMP JUMPDEST PUSH1 0x0 PUSH3 0x1EA PUSH3 0x970 PUSH1 0x20 SHL PUSH3 0x1A9C OR PUSH1 0x20 SHR JUMP JUMPDEST SWAP1 POP SWAP1 JUMP JUMPDEST PUSH1 0x1 PUSH1 0x0 PUSH2 0x100 EXP DUP2 SLOAD SWAP1 PUSH20 0xFFFFFFFFFFFFFFFFFFFFFFFFFFFFFFFFFFFFFFFF MUL NOT AND SWAP1 SSTORE PUSH3 0x22A DUP2 PUSH3 0x9BA PUSH1 0x20 SHL PUSH3 0x1ACE OR PUSH1 0x20 SHR JUMP JUMPDEST POP JUMP JUMPDEST PUSH1 0x1 PUSH1 0x3 PUSH1 0x0 PUSH1 0x1 PUSH20 0xFFFFFFFFFFFFFFFFFFFFFFFFFFFFFFFFFFFFFFFF AND PUSH20 0xFFFFFFFFFFFFFFFFFFFFFFFFFFFFFFFFFFFFFFFF AND DUP2 MSTORE PUSH1 0x20 ADD SWAP1 DUP2 MSTORE PUSH1 0x20 ADD PUSH1 0x0 KECCAK256 PUSH1 0x0 PUSH2 0x100 EXP DUP2 SLOAD DUP2 PUSH20 0xFFFFFFFFFFFFFFFFFFFFFFFFFFFFFFFFFFFFFFFF MUL NOT AND SWAP1 DUP4 PUSH20 0xFFFFFFFFFFFFFFFFFFFFFFFFFFFFFFFFFFFFFFFF AND MUL OR SWAP1 SSTORE POP JUMP JUMPDEST PUSH1 0x0 PUSH20 0xFFFFFFFFFFFFFFFFFFFFFFFFFFFFFFFFFFFFFFFF AND DUP2 PUSH20 0xFFFFFFFFFFFFFFFFFFFFFFFFFFFFFFFFFFFFFFFF AND EQ ISZERO DUP1 ISZERO PUSH3 0x31A JUMPI POP PUSH1 0x1 PUSH20 0xFFFFFFFFFFFFFFFFFFFFFFFFFFFFFFFFFFFFFFFF AND DUP2 PUSH20 0xFFFFFFFFFFFFFFFFFFFFFFFFFFFFFFFFFFFFFFFF AND EQ ISZERO JUMPDEST DUP1 ISZERO PUSH3 0x353 JUMPI POP ADDRESS PUSH20 0xFFFFFFFFFFFFFFFFFFFFFFFFFFFFFFFFFFFFFFFF AND DUP2 PUSH20 0xFFFFFFFFFFFFFFFFFFFFFFFFFFFFFFFFFFFFFFFF AND EQ ISZERO JUMPDEST PUSH3 0x395 JUMPI PUSH1 0x40 MLOAD PUSH32 0x8C379A000000000000000000000000000000000000000000000000000000000 DUP2 MSTORE PUSH1 0x4 ADD PUSH3 0x38C SWAP1 PUSH3 0x11A2 JUMP JUMPDEST PUSH1 0x40 MLOAD DUP1 SWAP2 SUB SWAP1 REVERT JUMPDEST PUSH1 0x0 PUSH20 0xFFFFFFFFFFFFFFFFFFFFFFFFFFFFFFFFFFFFFFFF AND PUSH1 0x3 PUSH1 0x0 DUP4 PUSH20 0xFFFFFFFFFFFFFFFFFFFFFFFFFFFFFFFFFFFFFFFF AND PUSH20 0xFFFFFFFFFFFFFFFFFFFFFFFFFFFFFFFFFFFFFFFF AND DUP2 MSTORE PUSH1 0x20 ADD SWAP1 DUP2 MSTORE PUSH1 0x20 ADD PUSH1 0x0 KECCAK256 PUSH1 0x0 SWAP1 SLOAD SWAP1 PUSH2 0x100 EXP SWAP1 DIV PUSH20 0xFFFFFFFFFFFFFFFFFFFFFFFFFFFFFFFFFFFFFFFF AND PUSH20 0xFFFFFFFFFFFFFFFFFFFFFFFFFFFFFFFFFFFFFFFF AND EQ PUSH3 0x466 JUMPI PUSH1 0x40 MLOAD PUSH32 0x8C379A000000000000000000000000000000000000000000000000000000000 DUP2 MSTORE PUSH1 0x4 ADD PUSH3 0x45D SWAP1 PUSH3 0x1214 JUMP JUMPDEST PUSH1 0x40 MLOAD DUP1 SWAP2 SUB SWAP1 REVERT JUMPDEST PUSH1 0x3 PUSH1 0x0 PUSH1 0x1 PUSH20 0xFFFFFFFFFFFFFFFFFFFFFFFFFFFFFFFFFFFFFFFF AND PUSH20 0xFFFFFFFFFFFFFFFFFFFFFFFFFFFFFFFFFFFFFFFF AND DUP2 MSTORE PUSH1 0x20 ADD SWAP1 DUP2 MSTORE PUSH1 0x20 ADD PUSH1 0x0 KECCAK256 PUSH1 0x0 SWAP1 SLOAD SWAP1 PUSH2 0x100 EXP SWAP1 DIV PUSH20 0xFFFFFFFFFFFFFFFFFFFFFFFFFFFFFFFFFFFFFFFF AND PUSH1 0x3 PUSH1 0x0 DUP4 PUSH20 0xFFFFFFFFFFFFFFFFFFFFFFFFFFFFFFFFFFFFFFFF AND PUSH20 0xFFFFFFFFFFFFFFFFFFFFFFFFFFFFFFFFFFFFFFFF AND DUP2 MSTORE PUSH1 0x20 ADD SWAP1 DUP2 MSTORE PUSH1 0x20 ADD PUSH1 0x0 KECCAK256 PUSH1 0x0 PUSH2 0x100 EXP DUP2 SLOAD DUP2 PUSH20 0xFFFFFFFFFFFFFFFFFFFFFFFFFFFFFFFFFFFFFFFF MUL NOT AND SWAP1 DUP4 PUSH20 0xFFFFFFFFFFFFFFFFFFFFFFFFFFFFFFFFFFFFFFFF AND MUL OR SWAP1 SSTORE POP DUP1 PUSH1 0x3 PUSH1 0x0 PUSH1 0x1 PUSH20 0xFFFFFFFFFFFFFFFFFFFFFFFFFFFFFFFFFFFFFFFF AND PUSH20 0xFFFFFFFFFFFFFFFFFFFFFFFFFFFFFFFFFFFFFFFF AND DUP2 MSTORE PUSH1 0x20 ADD SWAP1 DUP2 MSTORE PUSH1 0x20 ADD PUSH1 0x0 KECCAK256 PUSH1 0x0 PUSH2 0x100 EXP DUP2 SLOAD DUP2 PUSH20 0xFFFFFFFFFFFFFFFFFFFFFFFFFFFFFFFFFFFFFFFF MUL NOT AND SWAP1 DUP4 PUSH20 0xFFFFFFFFFFFFFFFFFFFFFFFFFFFFFFFFFFFFFFFF AND MUL OR SWAP1 SSTORE POP PUSH1 0x4 PUSH1 0x0 DUP2 SLOAD PUSH3 0x5D4 SWAP1 PUSH3 0x1265 JUMP JUMPDEST SWAP2 SWAP1 POP DUP2 SWAP1 SSTORE POP POP JUMP JUMPDEST PUSH1 0x0 DUP3 MLOAD SUB PUSH3 0x625 JUMPI PUSH1 0x40 MLOAD PUSH32 0x8C379A000000000000000000000000000000000000000000000000000000000 DUP2 MSTORE PUSH1 0x4 ADD PUSH3 0x61C SWAP1 PUSH3 0x1302 JUMP JUMPDEST PUSH1 0x40 MLOAD DUP1 SWAP2 SUB SWAP1 REVERT JUMPDEST PUSH1 0x0 DUP2 MLOAD SUB PUSH3 0x66C JUMPI PUSH1 0x40 MLOAD PUSH32 0x8C379A000000000000000000000000000000000000000000000000000000000 DUP2 MSTORE PUSH1 0x4 ADD PUSH3 0x663 SWAP1 PUSH3 0x1302 JUMP JUMPDEST PUSH1 0x40 MLOAD DUP1 SWAP2 SUB SWAP1 REVERT JUMPDEST PUSH1 0x0 PUSH1 0x6 PUSH1 0x0 DUP6 PUSH20 0xFFFFFFFFFFFFFFFFFFFFFFFFFFFFFFFFFFFFFFFF AND PUSH20 0xFFFFFFFFFFFFFFFFFFFFFFFFFFFFFFFFFFFFFFFF AND DUP2 MSTORE PUSH1 0x20 ADD SWAP1 DUP2 MSTORE PUSH1 0x20 ADD PUSH1 0x0 KECCAK256 PUSH1 0x40 MLOAD DUP1 PUSH1 0x40 ADD PUSH1 0x40 MSTORE SWAP1 DUP2 PUSH1 0x0 DUP3 ADD DUP1 SLOAD PUSH3 0x6CA SWAP1 PUSH3 0xE5A JUMP JUMPDEST DUP1 PUSH1 0x1F ADD PUSH1 0x20 DUP1 SWAP2 DIV MUL PUSH1 0x20 ADD PUSH1 0x40 MLOAD SWAP1 DUP2 ADD PUSH1 0x40 MSTORE DUP1 SWAP3 SWAP2 SWAP1 DUP2 DUP2 MSTORE PUSH1 0x20 ADD DUP3 DUP1 SLOAD PUSH3 0x6F8 SWAP1 PUSH3 0xE5A JUMP JUMPDEST DUP1 ISZERO PUSH3 0x749 JUMPI DUP1 PUSH1 0x1F LT PUSH3 0x71D JUMPI PUSH2 0x100 DUP1 DUP4 SLOAD DIV MUL DUP4 MSTORE SWAP2 PUSH1 0x20 ADD SWAP2 PUSH3 0x749 JUMP JUMPDEST DUP3 ADD SWAP2 SWAP1 PUSH1 0x0 MSTORE PUSH1 0x20 PUSH1 0x0 KECCAK256 SWAP1 JUMPDEST DUP2 SLOAD DUP2 MSTORE SWAP1 PUSH1 0x1 ADD SWAP1 PUSH1 0x20 ADD DUP1 DUP4 GT PUSH3 0x72B JUMPI DUP3 SWAP1 SUB PUSH1 0x1F AND DUP3 ADD SWAP2 JUMPDEST POP POP POP POP POP DUP2 MSTORE PUSH1 0x20 ADD PUSH1 0x1 DUP3 ADD DUP1 SLOAD PUSH3 0x764 SWAP1 PUSH3 0xE5A JUMP JUMPDEST DUP1 PUSH1 0x1F ADD PUSH1 0x20 DUP1 SWAP2 DIV MUL PUSH1 0x20 ADD PUSH1 0x40 MLOAD SWAP1 DUP2 ADD PUSH1 0x40 MSTORE DUP1 SWAP3 SWAP2 SWAP1 DUP2 DUP2 MSTORE PUSH1 0x20 ADD DUP3 DUP1 SLOAD PUSH3 0x792 SWAP1 PUSH3 0xE5A JUMP JUMPDEST DUP1 ISZERO PUSH3 0x7E3 JUMPI DUP1 PUSH1 0x1F LT PUSH3 0x7B7 JUMPI PUSH2 0x100 DUP1 DUP4 SLOAD DIV MUL DUP4 MSTORE SWAP2 PUSH1 0x20 ADD SWAP2 PUSH3 0x7E3 JUMP JUMPDEST DUP3 ADD SWAP2 SWAP1 PUSH1 0x0 MSTORE PUSH1 0x20 PUSH1 0x0 KECCAK256 SWAP1 JUMPDEST DUP2 SLOAD DUP2 MSTORE SWAP1 PUSH1 0x1 ADD SWAP1 PUSH1 0x20 ADD DUP1 DUP4 GT PUSH3 0x7C5 JUMPI DUP3 SWAP1 SUB PUSH1 0x1F AND DUP3 ADD SWAP2 JUMPDEST POP POP POP POP POP DUP2 MSTORE POP POP SWAP1 POP PUSH1 0x0 DUP2 PUSH1 0x0 ADD MLOAD MLOAD EQ PUSH3 0x839 JUMPI PUSH1 0x40 MLOAD PUSH32 0x8C379A000000000000000000000000000000000000000000000000000000000 DUP2 MSTORE PUSH1 0x4 ADD PUSH3 0x830 SWAP1 PUSH3 0x1374 JUMP JUMPDEST PUSH1 0x40 MLOAD DUP1 SWAP2 SUB SWAP1 REVERT JUMPDEST PUSH1 0x0 DUP2 PUSH1 0x20 ADD MLOAD MLOAD EQ PUSH3 0x884 JUMPI PUSH1 0x40 MLOAD PUSH32 0x8C379A000000000000000000000000000000000000000000000000000000000 DUP2 MSTORE PUSH1 0x4 ADD PUSH3 0x87B SWAP1 PUSH3 0x1374 JUMP JUMPDEST PUSH1 0x40 MLOAD DUP1 SWAP2 SUB SWAP1 REVERT JUMPDEST PUSH1 0x40 MLOAD DUP1 PUSH1 0x40 ADD PUSH1 0x40 MSTORE DUP1 DUP5 DUP2 MSTORE PUSH1 0x20 ADD DUP4 DUP2 MSTORE POP PUSH1 0x6 PUSH1 0x0 DUP7 PUSH20 0xFFFFFFFFFFFFFFFFFFFFFFFFFFFFFFFFFFFFFFFF AND PUSH20 0xFFFFFFFFFFFFFFFFFFFFFFFFFFFFFFFFFFFFFFFF AND DUP2 MSTORE PUSH1 0x20 ADD SWAP1 DUP2 MSTORE PUSH1 0x20 ADD PUSH1 0x0 KECCAK256 PUSH1 0x0 DUP3 ADD MLOAD DUP2 PUSH1 0x0 ADD SWAP1 DUP2 PUSH3 0x8EF SWAP2 SWAP1 PUSH3 0x106B JUMP JUMPDEST POP PUSH1 0x20 DUP3 ADD MLOAD DUP2 PUSH1 0x1 ADD SWAP1 DUP2 PUSH3 0x907 SWAP2 SWAP1 PUSH3 0x106B JUMP JUMPDEST POP SWAP1 POP POP PUSH1 0x1 PUSH1 0x7 PUSH1 0x0 DUP3 DUP3 SLOAD PUSH3 0x920 SWAP2 SWAP1 PUSH3 0x1396 JUMP JUMPDEST SWAP3 POP POP DUP2 SWAP1 SSTORE POP DUP4 PUSH20 0xFFFFFFFFFFFFFFFFFFFFFFFFFFFFFFFFFFFFFFFF AND PUSH32 0x402D924B9BD03718220C51647BE3AD8F7DA00914B8ABA403753CAA37F4944A02 PUSH1 0x40 MLOAD PUSH1 0x40 MLOAD DUP1 SWAP2 SUB SWAP1 LOG2 POP POP POP POP JUMP JUMPDEST PUSH1 0x0 PUSH3 0x983 CALLER PUSH3 0xA7E PUSH1 0x20 SHL PUSH1 0x20 SHR JUMP JUMPDEST ISZERO PUSH3 0x999 JUMPI PUSH1 0x14 CALLDATASIZE SUB CALLDATALOAD PUSH1 0x60 SHR SWAP1 POP PUSH3 0x9B6 JUMP JUMPDEST PUSH3 0x9AE PUSH3 0xAB8 PUSH1 0x20 SHL PUSH3 0x1B92 OR PUSH1 0x20 SHR JUMP JUMPDEST SWAP1 POP PUSH3 0x9B7 JUMP JUMPDEST JUMPDEST SWAP1 JUMP JUMPDEST PUSH1 0x0 DUP1 PUSH1 0x0 SWAP1 SLOAD SWAP1 PUSH2 0x100 EXP SWAP1 DIV PUSH20 0xFFFFFFFFFFFFFFFFFFFFFFFFFFFFFFFFFFFFFFFF AND SWAP1 POP DUP2 PUSH1 0x0 DUP1 PUSH2 0x100 EXP DUP2 SLOAD DUP2 PUSH20 0xFFFFFFFFFFFFFFFFFFFFFFFFFFFFFFFFFFFFFFFF MUL NOT AND SWAP1 DUP4 PUSH20 0xFFFFFFFFFFFFFFFFFFFFFFFFFFFFFFFFFFFFFFFF AND MUL OR SWAP1 SSTORE POP DUP2 PUSH20 0xFFFFFFFFFFFFFFFFFFFFFFFFFFFFFFFFFFFFFFFF AND DUP2 PUSH20 0xFFFFFFFFFFFFFFFFFFFFFFFFFFFFFFFFFFFFFFFF AND PUSH32 0x8BE0079C531659141344CD1FD0A4F28419497F9722A3DAAFE3B4186F6B6457E0 PUSH1 0x40 MLOAD PUSH1 0x40 MLOAD DUP1 SWAP2 SUB SWAP1 LOG3 POP POP JUMP JUMPDEST PUSH1 0x0 PUSH1 0x80 MLOAD PUSH20 0xFFFFFFFFFFFFFFFFFFFFFFFFFFFFFFFFFFFFFFFF AND DUP3 PUSH20 0xFFFFFFFFFFFFFFFFFFFFFFFFFFFFFFFFFFFFFFFF AND EQ SWAP1 POP SWAP2 SWAP1 POP JUMP JUMPDEST PUSH1 0x0 CALLER SWAP1 POP SWAP1 JUMP JUMPDEST PUSH1 0x0 PUSH1 0x40 MLOAD SWAP1 POP SWAP1 JUMP JUMPDEST PUSH1 0x0 DUP1 REVERT JUMPDEST PUSH1 0x0 DUP1 REVERT JUMPDEST PUSH1 0x0 DUP1 REVERT JUMPDEST PUSH1 0x0 DUP1 REVERT JUMPDEST PUSH1 0x0 PUSH1 0x1F NOT PUSH1 0x1F DUP4 ADD AND SWAP1 POP SWAP2 SWAP1 POP JUMP JUMPDEST PUSH32 0x4E487B7100000000000000000000000000000000000000000000000000000000 PUSH1 0x0 MSTORE PUSH1 0x41 PUSH1 0x4 MSTORE PUSH1 0x24 PUSH1 0x0 REVERT JUMPDEST PUSH3 0xB29 DUP3 PUSH3 0xADE JUMP JUMPDEST DUP2 ADD DUP2 DUP2 LT PUSH8 0xFFFFFFFFFFFFFFFF DUP3 GT OR ISZERO PUSH3 0xB4B JUMPI PUSH3 0xB4A PUSH3 0xAEF JUMP JUMPDEST JUMPDEST DUP1 PUSH1 0x40 MSTORE POP POP POP JUMP JUMPDEST PUSH1 0x0 PUSH3 0xB60 PUSH3 0xAC0 JUMP JUMPDEST SWAP1 POP PUSH3 0xB6E DUP3 DUP3 PUSH3 0xB1E JUMP JUMPDEST SWAP2 SWAP1 POP JUMP JUMPDEST PUSH1 0x0 PUSH8 0xFFFFFFFFFFFFFFFF DUP3 GT ISZERO PUSH3 0xB91 JUMPI PUSH3 0xB90 PUSH3 0xAEF JUMP JUMPDEST JUMPDEST PUSH3 0xB9C DUP3 PUSH3 0xADE JUMP JUMPDEST SWAP1 POP PUSH1 0x20 DUP2 ADD SWAP1 POP SWAP2 SWAP1 POP JUMP JUMPDEST PUSH1 0x0 JUMPDEST DUP4 DUP2 LT ISZERO PUSH3 0xBC9 JUMPI DUP1 DUP3 ADD MLOAD DUP2 DUP5 ADD MSTORE PUSH1 0x20 DUP2 ADD SWAP1 POP PUSH3 0xBAC JUMP JUMPDEST PUSH1 0x0 DUP5 DUP5 ADD MSTORE POP POP POP POP JUMP JUMPDEST PUSH1 0x0 PUSH3 0xBEC PUSH3 0xBE6 DUP5 PUSH3 0xB73 JUMP JUMPDEST PUSH3 0xB54 JUMP JUMPDEST SWAP1 POP DUP3 DUP2 MSTORE PUSH1 0x20 DUP2 ADD DUP5 DUP5 DUP5 ADD GT ISZERO PUSH3 0xC0B JUMPI PUSH3 0xC0A PUSH3 0xAD9 JUMP JUMPDEST JUMPDEST PUSH3 0xC18 DUP5 DUP3 DUP6 PUSH3 0xBA9 JUMP JUMPDEST POP SWAP4 SWAP3 POP POP POP JUMP JUMPDEST PUSH1 0x0 DUP3 PUSH1 0x1F DUP4 ADD SLT PUSH3 0xC38 JUMPI PUSH3 0xC37 PUSH3 0xAD4 JUMP JUMPDEST JUMPDEST DUP2 MLOAD PUSH3 0xC4A DUP5 DUP3 PUSH1 0x20 DUP7 ADD PUSH3 0xBD5 JUMP JUMPDEST SWAP2 POP POP SWAP3 SWAP2 POP POP JUMP JUMPDEST PUSH1 0x0 PUSH20 0xFFFFFFFFFFFFFFFFFFFFFFFFFFFFFFFFFFFFFFFF DUP3 AND SWAP1 POP SWAP2 SWAP1 POP JUMP JUMPDEST PUSH1 0x0 PUSH3 0xC80 DUP3 PUSH3 0xC53 JUMP JUMPDEST SWAP1 POP SWAP2 SWAP1 POP JUMP JUMPDEST PUSH3 0xC92 DUP2 PUSH3 0xC73 JUMP JUMPDEST DUP2 EQ PUSH3 0xC9E JUMPI PUSH1 0x0 DUP1 REVERT JUMPDEST POP JUMP JUMPDEST PUSH1 0x0 DUP2 MLOAD SWAP1 POP PUSH3 0xCB2 DUP2 PUSH3 0xC87 JUMP JUMPDEST SWAP3 SWAP2 POP POP JUMP JUMPDEST PUSH1 0x0 DUP1 PUSH1 0x0 DUP1 PUSH1 0x0 PUSH1 0xA0 DUP7 DUP9 SUB SLT ISZERO PUSH3 0xCD7 JUMPI PUSH3 0xCD6 PUSH3 0xACA JUMP JUMPDEST JUMPDEST PUSH1 0x0 DUP7 ADD MLOAD PUSH8 0xFFFFFFFFFFFFFFFF DUP2 GT ISZERO PUSH3 0xCF8 JUMPI PUSH3 0xCF7 PUSH3 0xACF JUMP JUMPDEST JUMPDEST PUSH3 0xD06 DUP9 DUP3 DUP10 ADD PUSH3 0xC20 JUMP JUMPDEST SWAP6 POP POP PUSH1 0x20 DUP7 ADD MLOAD PUSH8 0xFFFFFFFFFFFFFFFF DUP2 GT ISZERO PUSH3 0xD2A JUMPI PUSH3 0xD29 PUSH3 0xACF JUMP JUMPDEST JUMPDEST PUSH3 0xD38 DUP9 DUP3 DUP10 ADD PUSH3 0xC20 JUMP JUMPDEST SWAP5 POP POP PUSH1 0x40 DUP7 ADD MLOAD PUSH8 0xFFFFFFFFFFFFFFFF DUP2 GT ISZERO PUSH3 0xD5C JUMPI PUSH3 0xD5B PUSH3 0xACF JUMP JUMPDEST JUMPDEST PUSH3 0xD6A DUP9 DUP3 DUP10 ADD PUSH3 0xC20 JUMP JUMPDEST SWAP4 POP POP PUSH1 0x60 PUSH3 0xD7D DUP9 DUP3 DUP10 ADD PUSH3 0xCA1 JUMP JUMPDEST SWAP3 POP POP PUSH1 0x80 PUSH3 0xD90 DUP9 DUP3 DUP10 ADD PUSH3 0xCA1 JUMP JUMPDEST SWAP2 POP POP SWAP3 SWAP6 POP SWAP3 SWAP6 SWAP1 SWAP4 POP JUMP JUMPDEST PUSH1 0x0 DUP3 DUP3 MSTORE PUSH1 0x20 DUP3 ADD SWAP1 POP SWAP3 SWAP2 POP POP JUMP JUMPDEST PUSH32 0x4656323131000000000000000000000000000000000000000000000000000000 PUSH1 0x0 DUP3 ADD MSTORE POP JUMP JUMPDEST PUSH1 0x0 PUSH3 0xDE6 PUSH1 0x5 DUP4 PUSH3 0xD9D JUMP JUMPDEST SWAP2 POP PUSH3 0xDF3 DUP3 PUSH3 0xDAE JUMP JUMPDEST PUSH1 0x20 DUP3 ADD SWAP1 POP SWAP2 SWAP1 POP JUMP JUMPDEST PUSH1 0x0 PUSH1 0x20 DUP3 ADD SWAP1 POP DUP2 DUP2 SUB PUSH1 0x0 DUP4 ADD MSTORE PUSH3 0xE19 DUP2 PUSH3 0xDD7 JUMP JUMPDEST SWAP1 POP SWAP2 SWAP1 POP JUMP JUMPDEST PUSH1 0x0 DUP2 MLOAD SWAP1 POP SWAP2 SWAP1 POP JUMP JUMPDEST PUSH32 0x4E487B7100000000000000000000000000000000000000000000000000000000 PUSH1 0x0 MSTORE PUSH1 0x22 PUSH1 0x4 MSTORE PUSH1 0x24 PUSH1 0x0 REVERT JUMPDEST PUSH1 0x0 PUSH1 0x2 DUP3 DIV SWAP1 POP PUSH1 0x1 DUP3 AND DUP1 PUSH3 0xE73 JUMPI PUSH1 0x7F DUP3 AND SWAP2 POP JUMPDEST PUSH1 0x20 DUP3 LT DUP2 SUB PUSH3 0xE89 JUMPI PUSH3 0xE88 PUSH3 0xE2B JUMP JUMPDEST JUMPDEST POP SWAP2 SWAP1 POP JUMP JUMPDEST PUSH1 0x0 DUP2 SWAP1 POP DUP2 PUSH1 0x0 MSTORE PUSH1 0x20 PUSH1 0x0 KECCAK256 SWAP1 POP SWAP2 SWAP1 POP JUMP JUMPDEST PUSH1 0x0 PUSH1 0x20 PUSH1 0x1F DUP4 ADD DIV SWAP1 POP SWAP2 SWAP1 POP JUMP JUMPDEST PUSH1 0x0 DUP3 DUP3 SHL SWAP1 POP SWAP3 SWAP2 POP POP JUMP JUMPDEST PUSH1 0x0 PUSH1 0x8 DUP4 MUL PUSH3 0xEF3 PUSH32 0xFFFFFFFFFFFFFFFFFFFFFFFFFFFFFFFFFFFFFFFFFFFFFFFFFFFFFFFFFFFFFFFF DUP3 PUSH3 0xEB4 JUMP JUMPDEST PUSH3 0xEFF DUP7 DUP4 PUSH3 0xEB4 JUMP JUMPDEST SWAP6 POP DUP1 NOT DUP5 AND SWAP4 POP DUP1 DUP7 AND DUP5 OR SWAP3 POP POP POP SWAP4 SWAP3 POP POP POP JUMP JUMPDEST PUSH1 0x0 DUP2 SWAP1 POP SWAP2 SWAP1 POP JUMP JUMPDEST PUSH1 0x0 DUP2 SWAP1 POP SWAP2 SWAP1 POP JUMP JUMPDEST PUSH1 0x0 PUSH3 0xF4C PUSH3 0xF46 PUSH3 0xF40 DUP5 PUSH3 0xF17 JUMP JUMPDEST PUSH3 0xF21 JUMP JUMPDEST PUSH3 0xF17 JUMP JUMPDEST SWAP1 POP SWAP2 SWAP1 POP JUMP JUMPDEST PUSH1 0x0 DUP2 SWAP1 POP SWAP2 SWAP1 POP JUMP JUMPDEST PUSH3 0xF68 DUP4 PUSH3 0xF2B JUMP JUMPDEST PUSH3 0xF80 PUSH3 0xF77 DUP3 PUSH3 0xF53 JUMP JUMPDEST DUP5 DUP5 SLOAD PUSH3 0xEC1 JUMP JUMPDEST DUP3 SSTORE POP POP POP POP JUMP JUMPDEST PUSH1 0x0 SWAP1 JUMP JUMPDEST PUSH3 0xF97 PUSH3 0xF88 JUMP JUMPDEST PUSH3 0xFA4 DUP2 DUP5 DUP5 PUSH3 0xF5D JUMP JUMPDEST POP POP POP JUMP JUMPDEST JUMPDEST DUP2 DUP2 LT ISZERO PUSH3 0xFCC JUMPI PUSH3 0xFC0 PUSH1 0x0 DUP3 PUSH3 0xF8D JUMP JUMPDEST PUSH1 0x1 DUP2 ADD SWAP1 POP PUSH3 0xFAA JUMP JUMPDEST POP POP JUMP JUMPDEST PUSH1 0x1F DUP3 GT ISZERO PUSH3 0x101B JUMPI PUSH3 0xFE5 DUP2 PUSH3 0xE8F JUMP JUMPDEST PUSH3 0xFF0 DUP5 PUSH3 0xEA4 JUMP JUMPDEST DUP2 ADD PUSH1 0x20 DUP6 LT ISZERO PUSH3 0x1000 JUMPI DUP2 SWAP1 POP JUMPDEST PUSH3 0x1018 PUSH3 0x100F DUP6 PUSH3 0xEA4 JUMP JUMPDEST DUP4 ADD DUP3 PUSH3 0xFA9 JUMP JUMPDEST POP POP JUMPDEST POP POP POP JUMP JUMPDEST PUSH1 0x0 DUP3 DUP3 SHR SWAP1 POP SWAP3 SWAP2 POP POP JUMP JUMPDEST PUSH1 0x0 PUSH3 0x1040 PUSH1 0x0 NOT DUP5 PUSH1 0x8 MUL PUSH3 0x1020 JUMP JUMPDEST NOT DUP1 DUP4 AND SWAP2 POP POP SWAP3 SWAP2 POP POP JUMP JUMPDEST PUSH1 0x0 PUSH3 0x105B DUP4 DUP4 PUSH3 0x102D JUMP JUMPDEST SWAP2 POP DUP3 PUSH1 0x2 MUL DUP3 OR SWAP1 POP SWAP3 SWAP2 POP POP JUMP JUMPDEST PUSH3 0x1076 DUP3 PUSH3 0xE20 JUMP JUMPDEST PUSH8 0xFFFFFFFFFFFFFFFF DUP2 GT ISZERO PUSH3 0x1092 JUMPI PUSH3 0x1091 PUSH3 0xAEF JUMP JUMPDEST JUMPDEST PUSH3 0x109E DUP3 SLOAD PUSH3 0xE5A JUMP JUMPDEST PUSH3 0x10AB DUP3 DUP3 DUP6 PUSH3 0xFD0 JUMP JUMPDEST PUSH1 0x0 PUSH1 0x20 SWAP1 POP PUSH1 0x1F DUP4 GT PUSH1 0x1 DUP2 EQ PUSH3 0x10E3 JUMPI PUSH1 0x0 DUP5 ISZERO PUSH3 0x10CE JUMPI DUP3 DUP8 ADD MLOAD SWAP1 POP JUMPDEST PUSH3 0x10DA DUP6 DUP3 PUSH3 0x104D JUMP JUMPDEST DUP7 SSTORE POP PUSH3 0x114A JUMP JUMPDEST PUSH1 0x1F NOT DUP5 AND PUSH3 0x10F3 DUP7 PUSH3 0xE8F JUMP JUMPDEST PUSH1 0x0 JUMPDEST DUP3 DUP2 LT ISZERO PUSH3 0x111D JUMPI DUP5 DUP10 ADD MLOAD DUP3 SSTORE PUSH1 0x1 DUP3 ADD SWAP2 POP PUSH1 0x20 DUP6 ADD SWAP5 POP PUSH1 0x20 DUP2 ADD SWAP1 POP PUSH3 0x10F6 JUMP JUMPDEST DUP7 DUP4 LT ISZERO PUSH3 0x113D JUMPI DUP5 DUP10 ADD MLOAD PUSH3 0x1139 PUSH1 0x1F DUP10 AND DUP3 PUSH3 0x102D JUMP JUMPDEST DUP4 SSTORE POP JUMPDEST PUSH1 0x1 PUSH1 0x2 DUP9 MUL ADD DUP9 SSTORE POP POP POP JUMPDEST POP POP POP POP POP POP JUMP JUMPDEST PUSH32 0x4656323033000000000000000000000000000000000000000000000000000000 PUSH1 0x0 DUP3 ADD MSTORE POP JUMP JUMPDEST PUSH1 0x0 PUSH3 0x118A PUSH1 0x5 DUP4 PUSH3 0xD9D JUMP JUMPDEST SWAP2 POP PUSH3 0x1197 DUP3 PUSH3 0x1152 JUMP JUMPDEST PUSH1 0x20 DUP3 ADD SWAP1 POP SWAP2 SWAP1 POP JUMP JUMPDEST PUSH1 0x0 PUSH1 0x20 DUP3 ADD SWAP1 POP DUP2 DUP2 SUB PUSH1 0x0 DUP4 ADD MSTORE PUSH3 0x11BD DUP2 PUSH3 0x117B JUMP JUMPDEST SWAP1 POP SWAP2 SWAP1 POP JUMP JUMPDEST PUSH32 0x4656323034000000000000000000000000000000000000000000000000000000 PUSH1 0x0 DUP3 ADD MSTORE POP JUMP JUMPDEST PUSH1 0x0 PUSH3 0x11FC PUSH1 0x5 DUP4 PUSH3 0xD9D JUMP JUMPDEST SWAP2 POP PUSH3 0x1209 DUP3 PUSH3 0x11C4 JUMP JUMPDEST PUSH1 0x20 DUP3 ADD SWAP1 POP SWAP2 SWAP1 POP JUMP JUMPDEST PUSH1 0x0 PUSH1 0x20 DUP3 ADD SWAP1 POP DUP2 DUP2 SUB PUSH1 0x0 DUP4 ADD MSTORE PUSH3 0x122F DUP2 PUSH3 0x11ED JUMP JUMPDEST SWAP1 POP SWAP2 SWAP1 POP JUMP JUMPDEST PUSH32 0x4E487B7100000000000000000000000000000000000000000000000000000000 PUSH1 0x0 MSTORE PUSH1 0x11 PUSH1 0x4 MSTORE PUSH1 0x24 PUSH1 0x0 REVERT JUMPDEST PUSH1 0x0 PUSH3 0x1272 DUP3 PUSH3 0xF17 JUMP JUMPDEST SWAP2 POP PUSH32 0xFFFFFFFFFFFFFFFFFFFFFFFFFFFFFFFFFFFFFFFFFFFFFFFFFFFFFFFFFFFFFFFF DUP3 SUB PUSH3 0x12A7 JUMPI PUSH3 0x12A6 PUSH3 0x1236 JUMP JUMPDEST JUMPDEST PUSH1 0x1 DUP3 ADD SWAP1 POP SWAP2 SWAP1 POP JUMP JUMPDEST PUSH32 0x4656323031000000000000000000000000000000000000000000000000000000 PUSH1 0x0 DUP3 ADD MSTORE POP JUMP JUMPDEST PUSH1 0x0 PUSH3 0x12EA PUSH1 0x5 DUP4 PUSH3 0xD9D JUMP JUMPDEST SWAP2 POP PUSH3 0x12F7 DUP3 PUSH3 0x12B2 JUMP JUMPDEST PUSH1 0x20 DUP3 ADD SWAP1 POP SWAP2 SWAP1 POP JUMP JUMPDEST PUSH1 0x0 PUSH1 0x20 DUP3 ADD SWAP1 POP DUP2 DUP2 SUB PUSH1 0x0 DUP4 ADD MSTORE PUSH3 0x131D DUP2 PUSH3 0x12DB JUMP JUMPDEST SWAP1 POP SWAP2 SWAP1 POP JUMP JUMPDEST PUSH32 0x4656323039000000000000000000000000000000000000000000000000000000 PUSH1 0x0 DUP3 ADD MSTORE POP JUMP JUMPDEST PUSH1 0x0 PUSH3 0x135C PUSH1 0x5 DUP4 PUSH3 0xD9D JUMP JUMPDEST SWAP2 POP PUSH3 0x1369 DUP3 PUSH3 0x1324 JUMP JUMPDEST PUSH1 0x20 DUP3 ADD SWAP1 POP SWAP2 SWAP1 POP JUMP JUMPDEST PUSH1 0x0 PUSH1 0x20 DUP3 ADD SWAP1 POP DUP2 DUP2 SUB PUSH1 0x0 DUP4 ADD MSTORE PUSH3 0x138F DUP2 PUSH3 0x134D JUMP JUMPDEST SWAP1 POP SWAP2 SWAP1 POP JUMP JUMPDEST PUSH1 0x0 PUSH3 0x13A3 DUP3 PUSH3 0xF17 JUMP JUMPDEST SWAP2 POP PUSH3 0x13B0 DUP4 PUSH3 0xF17 JUMP JUMPDEST SWAP3 POP DUP3 DUP3 ADD SWAP1 POP DUP1 DUP3 GT ISZERO PUSH3 0x13CB JUMPI PUSH3 0x13CA PUSH3 0x1236 JUMP JUMPDEST JUMPDEST SWAP3 SWAP2 POP POP JUMP JUMPDEST PUSH1 0x80 MLOAD PUSH2 0x39E3 PUSH3 0x13ED PUSH1 0x0 CODECOPY PUSH1 0x0 PUSH2 0x72D ADD MSTORE PUSH2 0x39E3 PUSH1 0x0 RETURN INVALID PUSH1 0x80 PUSH1 0x40 MSTORE CALLVALUE DUP1 ISZERO PUSH2 0x10 JUMPI PUSH1 0x0 DUP1 REVERT JUMPDEST POP PUSH1 0x4 CALLDATASIZE LT PUSH2 0x137 JUMPI PUSH1 0x0 CALLDATALOAD PUSH1 0xE0 SHR DUP1 PUSH4 0x93CE2036 GT PUSH2 0xB8 JUMPI DUP1 PUSH4 0xCFD9E0C1 GT PUSH2 0x7C JUMPI DUP1 PUSH4 0xCFD9E0C1 EQ PUSH2 0x303 JUMPI DUP1 PUSH4 0xDE729317 EQ PUSH2 0x31F JUMPI DUP1 PUSH4 0xE30C3978 EQ PUSH2 0x329 JUMPI DUP1 PUSH4 0xF2FDE38B EQ PUSH2 0x347 JUMPI DUP1 PUSH4 0xF4C714B4 EQ PUSH2 0x363 JUMPI DUP1 PUSH4 0xFFAD0FC6 EQ PUSH2 0x397 JUMPI PUSH2 0x137 JUMP JUMPDEST DUP1 PUSH4 0x93CE2036 EQ PUSH2 0x271 JUMPI DUP1 PUSH4 0xA2425927 EQ PUSH2 0x28F JUMPI DUP1 PUSH4 0xB4D266BC EQ PUSH2 0x2AD JUMPI DUP1 PUSH4 0xBAB50CC9 EQ PUSH2 0x2C9 JUMPI DUP1 PUSH4 0xCCDBE6A6 EQ PUSH2 0x2E7 JUMPI PUSH2 0x137 JUMP JUMPDEST DUP1 PUSH4 0x715018A6 GT PUSH2 0xFF JUMPI DUP1 PUSH4 0x715018A6 EQ PUSH2 0x1F2 JUMPI DUP1 PUSH4 0x79BA5097 EQ PUSH2 0x1FC JUMPI DUP1 PUSH4 0x876DBEC4 EQ PUSH2 0x206 JUMPI DUP1 PUSH4 0x8DA5CB5B EQ PUSH2 0x237 JUMPI DUP1 PUSH4 0x918B5BE1 EQ PUSH2 0x255 JUMPI PUSH2 0x137 JUMP JUMPDEST DUP1 PUSH4 0x3BF1BDAD EQ PUSH2 0x13C JUMPI DUP1 PUSH4 0x572B6C05 EQ PUSH2 0x158 JUMPI DUP1 PUSH4 0x5EB1CF8F EQ PUSH2 0x188 JUMPI DUP1 PUSH4 0x66CC227D EQ PUSH2 0x1A4 JUMPI DUP1 PUSH4 0x6AF8C4E7 EQ PUSH2 0x1C2 JUMPI JUMPDEST PUSH1 0x0 DUP1 REVERT JUMPDEST PUSH2 0x156 PUSH1 0x4 DUP1 CALLDATASIZE SUB DUP2 ADD SWAP1 PUSH2 0x151 SWAP2 SWAP1 PUSH2 0x274E JUMP JUMPDEST PUSH2 0x3B5 JUMP JUMPDEST STOP JUMPDEST PUSH2 0x172 PUSH1 0x4 DUP1 CALLDATASIZE SUB DUP2 ADD SWAP1 PUSH2 0x16D SWAP2 SWAP1 PUSH2 0x2888 JUMP JUMPDEST PUSH2 0x729 JUMP JUMPDEST PUSH1 0x40 MLOAD PUSH2 0x17F SWAP2 SWAP1 PUSH2 0x28D0 JUMP JUMPDEST PUSH1 0x40 MLOAD DUP1 SWAP2 SUB SWAP1 RETURN JUMPDEST PUSH2 0x1A2 PUSH1 0x4 DUP1 CALLDATASIZE SUB DUP2 ADD SWAP1 PUSH2 0x19D SWAP2 SWAP1 PUSH2 0x28EB JUMP JUMPDEST PUSH2 0x781 JUMP JUMPDEST STOP JUMPDEST PUSH2 0x1AC PUSH2 0xB2F JUMP JUMPDEST PUSH1 0x40 MLOAD PUSH2 0x1B9 SWAP2 SWAP1 PUSH2 0x29E9 JUMP JUMPDEST PUSH1 0x40 MLOAD DUP1 SWAP2 SUB SWAP1 RETURN JUMPDEST PUSH2 0x1DC PUSH1 0x4 DUP1 CALLDATASIZE SUB DUP2 ADD SWAP1 PUSH2 0x1D7 SWAP2 SWAP1 PUSH2 0x2888 JUMP JUMPDEST PUSH2 0xB39 JUMP JUMPDEST PUSH1 0x40 MLOAD PUSH2 0x1E9 SWAP2 SWAP1 PUSH2 0x28D0 JUMP JUMPDEST PUSH1 0x40 MLOAD DUP1 SWAP2 SUB SWAP1 RETURN JUMPDEST PUSH2 0x1FA PUSH2 0xC0B JUMP JUMPDEST STOP JUMPDEST PUSH2 0x204 PUSH2 0xC15 JUMP JUMPDEST STOP JUMPDEST PUSH2 0x220 PUSH1 0x4 DUP1 CALLDATASIZE SUB DUP2 ADD SWAP1 PUSH2 0x21B SWAP2 SWAP1 PUSH2 0x2888 JUMP JUMPDEST PUSH2 0xCA2 JUMP JUMPDEST PUSH1 0x40 MLOAD PUSH2 0x22E SWAP3 SWAP2 SWAP1 PUSH2 0x2A94 JUMP JUMPDEST PUSH1 0x40 MLOAD DUP1 SWAP2 SUB SWAP1 RETURN JUMPDEST PUSH2 0x23F PUSH2 0xDD6 JUMP JUMPDEST PUSH1 0x40 MLOAD PUSH2 0x24C SWAP2 SWAP1 PUSH2 0x2ADA JUMP JUMPDEST PUSH1 0x40 MLOAD DUP1 SWAP2 SUB SWAP1 RETURN JUMPDEST PUSH2 0x26F PUSH1 0x4 DUP1 CALLDATASIZE SUB DUP2 ADD SWAP1 PUSH2 0x26A SWAP2 SWAP1 PUSH2 0x2C25 JUMP JUMPDEST PUSH2 0xDFF JUMP JUMPDEST STOP JUMPDEST PUSH2 0x279 PUSH2 0xEB4 JUMP JUMPDEST PUSH1 0x40 MLOAD PUSH2 0x286 SWAP2 SWAP1 PUSH2 0x2C6E JUMP JUMPDEST PUSH1 0x40 MLOAD DUP1 SWAP2 SUB SWAP1 RETURN JUMPDEST PUSH2 0x297 PUSH2 0xF42 JUMP JUMPDEST PUSH1 0x40 MLOAD PUSH2 0x2A4 SWAP2 SWAP1 PUSH2 0x29E9 JUMP JUMPDEST PUSH1 0x40 MLOAD DUP1 SWAP2 SUB SWAP1 RETURN JUMPDEST PUSH2 0x2C7 PUSH1 0x4 DUP1 CALLDATASIZE SUB DUP2 ADD SWAP1 PUSH2 0x2C2 SWAP2 SWAP1 PUSH2 0x2C90 JUMP JUMPDEST PUSH2 0xF4C JUMP JUMPDEST STOP JUMPDEST PUSH2 0x2D1 PUSH2 0x14CE JUMP JUMPDEST PUSH1 0x40 MLOAD PUSH2 0x2DE SWAP2 SWAP1 PUSH2 0x29E9 JUMP JUMPDEST PUSH1 0x40 MLOAD DUP1 SWAP2 SUB SWAP1 RETURN JUMPDEST PUSH2 0x301 PUSH1 0x4 DUP1 CALLDATASIZE SUB DUP2 ADD SWAP1 PUSH2 0x2FC SWAP2 SWAP1 PUSH2 0x2888 JUMP JUMPDEST PUSH2 0x14DF JUMP JUMPDEST STOP JUMPDEST PUSH2 0x31D PUSH1 0x4 DUP1 CALLDATASIZE SUB DUP2 ADD SWAP1 PUSH2 0x318 SWAP2 SWAP1 PUSH2 0x2CD0 JUMP JUMPDEST PUSH2 0x1554 JUMP JUMPDEST STOP JUMPDEST PUSH2 0x327 PUSH2 0x160A JUMP JUMPDEST STOP JUMPDEST PUSH2 0x331 PUSH2 0x1632 JUMP JUMPDEST PUSH1 0x40 MLOAD PUSH2 0x33E SWAP2 SWAP1 PUSH2 0x2ADA JUMP JUMPDEST PUSH1 0x40 MLOAD DUP1 SWAP2 SUB SWAP1 RETURN JUMPDEST PUSH2 0x361 PUSH1 0x4 DUP1 CALLDATASIZE SUB DUP2 ADD SWAP1 PUSH2 0x35C SWAP2 SWAP1 PUSH2 0x2888 JUMP JUMPDEST PUSH2 0x165C JUMP JUMPDEST STOP JUMPDEST PUSH2 0x37D PUSH1 0x4 DUP1 CALLDATASIZE SUB DUP2 ADD SWAP1 PUSH2 0x378 SWAP2 SWAP1 PUSH2 0x2D51 JUMP JUMPDEST PUSH2 0x1709 JUMP JUMPDEST PUSH1 0x40 MLOAD PUSH2 0x38E SWAP6 SWAP5 SWAP4 SWAP3 SWAP2 SWAP1 PUSH2 0x2DF5 JUMP JUMPDEST PUSH1 0x40 MLOAD DUP1 SWAP2 SUB SWAP1 RETURN JUMPDEST PUSH2 0x39F PUSH2 0x18E4 JUMP JUMPDEST PUSH1 0x40 MLOAD PUSH2 0x3AC SWAP2 SWAP1 PUSH2 0x2F1B JUMP JUMPDEST PUSH1 0x40 MLOAD DUP1 SWAP2 SUB SWAP1 RETURN JUMPDEST PUSH2 0x3C5 PUSH2 0x3C0 PUSH2 0x1B9A JUMP JUMPDEST PUSH2 0x1BA9 JUMP JUMPDEST PUSH1 0x0 DUP9 DUP9 SWAP1 POP SUB PUSH2 0x40B JUMPI PUSH1 0x40 MLOAD PUSH32 0x8C379A000000000000000000000000000000000000000000000000000000000 DUP2 MSTORE PUSH1 0x4 ADD PUSH2 0x402 SWAP1 PUSH2 0x2F89 JUMP JUMPDEST PUSH1 0x40 MLOAD DUP1 SWAP2 SUB SWAP1 REVERT JUMPDEST PUSH1 0x0 DUP7 DUP7 SWAP1 POP SUB PUSH2 0x451 JUMPI PUSH1 0x40 MLOAD PUSH32 0x8C379A000000000000000000000000000000000000000000000000000000000 DUP2 MSTORE PUSH1 0x4 ADD PUSH2 0x448 SWAP1 PUSH2 0x2F89 JUMP JUMPDEST PUSH1 0x40 MLOAD DUP1 SWAP2 SUB SWAP1 REVERT JUMPDEST PUSH1 0x2 PUSH1 0x3 DUP2 GT ISZERO PUSH2 0x465 JUMPI PUSH2 0x464 PUSH2 0x2D7E JUMP JUMPDEST JUMPDEST DUP3 PUSH1 0x3 DUP2 GT ISZERO PUSH2 0x478 JUMPI PUSH2 0x477 PUSH2 0x2D7E JUMP JUMPDEST JUMPDEST SUB PUSH2 0x4C8 JUMPI PUSH1 0x0 DUP5 DUP5 SWAP1 POP SUB PUSH2 0x4C3 JUMPI PUSH1 0x40 MLOAD PUSH32 0x8C379A000000000000000000000000000000000000000000000000000000000 DUP2 MSTORE PUSH1 0x4 ADD PUSH2 0x4BA SWAP1 PUSH2 0x2FF5 JUMP JUMPDEST PUSH1 0x40 MLOAD DUP1 SWAP2 SUB SWAP1 REVERT JUMPDEST PUSH2 0x50F JUMP JUMPDEST PUSH1 0x0 DUP5 DUP5 SWAP1 POP EQ PUSH2 0x50E JUMPI PUSH1 0x40 MLOAD PUSH32 0x8C379A000000000000000000000000000000000000000000000000000000000 DUP2 MSTORE PUSH1 0x4 ADD PUSH2 0x505 SWAP1 PUSH2 0x3061 JUMP JUMPDEST PUSH1 0x40 MLOAD DUP1 SWAP2 SUB SWAP1 REVERT JUMPDEST JUMPDEST PUSH1 0x0 PUSH2 0x51B PUSH1 0x5 PUSH2 0x1BF4 JUMP JUMPDEST SWAP1 POP PUSH2 0x527 PUSH1 0x5 PUSH2 0x1C02 JUMP JUMPDEST PUSH1 0x40 MLOAD DUP1 PUSH1 0xA0 ADD PUSH1 0x40 MSTORE DUP1 DUP11 DUP11 DUP1 DUP1 PUSH1 0x1F ADD PUSH1 0x20 DUP1 SWAP2 DIV MUL PUSH1 0x20 ADD PUSH1 0x40 MLOAD SWAP1 DUP2 ADD PUSH1 0x40 MSTORE DUP1 SWAP4 SWAP3 SWAP2 SWAP1 DUP2 DUP2 MSTORE PUSH1 0x20 ADD DUP4 DUP4 DUP1 DUP3 DUP5 CALLDATACOPY PUSH1 0x0 DUP2 DUP5 ADD MSTORE PUSH1 0x1F NOT PUSH1 0x1F DUP3 ADD AND SWAP1 POP DUP1 DUP4 ADD SWAP3 POP POP POP POP POP POP POP DUP2 MSTORE PUSH1 0x20 ADD DUP9 DUP9 DUP1 DUP1 PUSH1 0x1F ADD PUSH1 0x20 DUP1 SWAP2 DIV MUL PUSH1 0x20 ADD PUSH1 0x40 MLOAD SWAP1 DUP2 ADD PUSH1 0x40 MSTORE DUP1 SWAP4 SWAP3 SWAP2 SWAP1 DUP2 DUP2 MSTORE PUSH1 0x20 ADD DUP4 DUP4 DUP1 DUP3 DUP5 CALLDATACOPY PUSH1 0x0 DUP2 DUP5 ADD MSTORE PUSH1 0x1F NOT PUSH1 0x1F DUP3 ADD AND SWAP1 POP DUP1 DUP4 ADD SWAP3 POP POP POP POP POP POP POP DUP2 MSTORE PUSH1 0x20 ADD DUP7 DUP7 DUP1 DUP1 PUSH1 0x1F ADD PUSH1 0x20 DUP1 SWAP2 DIV MUL PUSH1 0x20 ADD PUSH1 0x40 MLOAD SWAP1 DUP2 ADD PUSH1 0x40 MSTORE DUP1 SWAP4 SWAP3 SWAP2 SWAP1 DUP2 DUP2 MSTORE PUSH1 0x20 ADD DUP4 DUP4 DUP1 DUP3 DUP5 CALLDATACOPY PUSH1 0x0 DUP2 DUP5 ADD MSTORE PUSH1 0x1F NOT PUSH1 0x1F DUP3 ADD AND SWAP1 POP DUP1 DUP4 ADD SWAP3 POP POP POP POP POP POP POP DUP2 MSTORE PUSH1 0x20 ADD DUP5 PUSH1 0x3 DUP2 GT ISZERO PUSH2 0x623 JUMPI PUSH2 0x622 PUSH2 0x2D7E JUMP JUMPDEST JUMPDEST DUP2 MSTORE PUSH1 0x20 ADD DUP4 DUP2 MSTORE POP PUSH1 0x8 PUSH1 0x0 DUP4 DUP2 MSTORE PUSH1 0x20 ADD SWAP1 DUP2 MSTORE PUSH1 0x20 ADD PUSH1 0x0 KECCAK256 PUSH1 0x0 DUP3 ADD MLOAD DUP2 PUSH1 0x0 ADD SWAP1 DUP2 PUSH2 0x654 SWAP2 SWAP1 PUSH2 0x328D JUMP JUMPDEST POP PUSH1 0x20 DUP3 ADD MLOAD DUP2 PUSH1 0x1 ADD SWAP1 DUP2 PUSH2 0x66A SWAP2 SWAP1 PUSH2 0x328D JUMP JUMPDEST POP PUSH1 0x40 DUP3 ADD MLOAD DUP2 PUSH1 0x2 ADD SWAP1 DUP2 PUSH2 0x680 SWAP2 SWAP1 PUSH2 0x328D JUMP JUMPDEST POP PUSH1 0x60 DUP3 ADD MLOAD DUP2 PUSH1 0x3 ADD PUSH1 0x0 PUSH2 0x100 EXP DUP2 SLOAD DUP2 PUSH1 0xFF MUL NOT AND SWAP1 DUP4 PUSH1 0x3 DUP2 GT ISZERO PUSH2 0x6AC JUMPI PUSH2 0x6AB PUSH2 0x2D7E JUMP JUMPDEST JUMPDEST MUL OR SWAP1 SSTORE POP PUSH1 0x80 DUP3 ADD MLOAD DUP2 PUSH1 0x4 ADD SSTORE SWAP1 POP POP PUSH2 0x6C6 PUSH2 0x1B9A JUMP JUMPDEST PUSH20 0xFFFFFFFFFFFFFFFFFFFFFFFFFFFFFFFFFFFFFFFF AND DUP2 PUSH32 0x7C868B0D1657677F41EBC5D6A76E66B11862720A3800B9B0895B9457C181D8D9 DUP12 DUP12 DUP12 DUP12 DUP12 DUP12 PUSH1 0x40 MLOAD PUSH2 0x716 SWAP7 SWAP6 SWAP5 SWAP4 SWAP3 SWAP2 SWAP1 PUSH2 0x338C JUMP JUMPDEST PUSH1 0x40 MLOAD DUP1 SWAP2 SUB SWAP1 LOG3 POP POP POP POP POP POP POP POP POP JUMP JUMPDEST PUSH1 0x0 PUSH32 0x0 PUSH20 0xFFFFFFFFFFFFFFFFFFFFFFFFFFFFFFFFFFFFFFFF AND DUP3 PUSH20 0xFFFFFFFFFFFFFFFFFFFFFFFFFFFFFFFFFFFFFFFF AND EQ SWAP1 POP SWAP2 SWAP1 POP JUMP JUMPDEST PUSH2 0x791 PUSH2 0x78C PUSH2 0x1B9A JUMP JUMPDEST PUSH2 0x1BA9 JUMP JUMPDEST PUSH1 0x0 DUP9 DUP9 SWAP1 POP SUB PUSH2 0x7D7 JUMPI PUSH1 0x40 MLOAD PUSH32 0x8C379A000000000000000000000000000000000000000000000000000000000 DUP2 MSTORE PUSH1 0x4 ADD PUSH2 0x7CE SWAP1 PUSH2 0x2F89 JUMP JUMPDEST PUSH1 0x40 MLOAD DUP1 SWAP2 SUB SWAP1 REVERT JUMPDEST PUSH1 0x0 DUP7 DUP7 SWAP1 POP SUB PUSH2 0x81D JUMPI PUSH1 0x40 MLOAD PUSH32 0x8C379A000000000000000000000000000000000000000000000000000000000 DUP2 MSTORE PUSH1 0x4 ADD PUSH2 0x814 SWAP1 PUSH2 0x2F89 JUMP JUMPDEST PUSH1 0x40 MLOAD DUP1 SWAP2 SUB SWAP1 REVERT JUMPDEST PUSH1 0x2 PUSH1 0x3 DUP2 GT ISZERO PUSH2 0x831 JUMPI PUSH2 0x830 PUSH2 0x2D7E JUMP JUMPDEST JUMPDEST DUP3 PUSH1 0x3 DUP2 GT ISZERO PUSH2 0x844 JUMPI PUSH2 0x843 PUSH2 0x2D7E JUMP JUMPDEST JUMPDEST SUB PUSH2 0x894 JUMPI PUSH1 0x0 DUP5 DUP5 SWAP1 POP SUB PUSH2 0x88F JUMPI PUSH1 0x40 MLOAD PUSH32 0x8C379A000000000000000000000000000000000000000000000000000000000 DUP2 MSTORE PUSH1 0x4 ADD PUSH2 0x886 SWAP1 PUSH2 0x2FF5 JUMP JUMPDEST PUSH1 0x40 MLOAD DUP1 SWAP2 SUB SWAP1 REVERT JUMPDEST PUSH2 0x8DB JUMP JUMPDEST PUSH1 0x0 DUP5 DUP5 SWAP1 POP EQ PUSH2 0x8DA JUMPI PUSH1 0x40 MLOAD PUSH32 0x8C379A000000000000000000000000000000000000000000000000000000000 DUP2 MSTORE PUSH1 0x4 ADD PUSH2 0x8D1 SWAP1 PUSH2 0x3061 JUMP JUMPDEST PUSH1 0x40 MLOAD DUP1 SWAP2 SUB SWAP1 REVERT JUMPDEST JUMPDEST PUSH2 0x8E5 PUSH1 0x5 PUSH2 0x1BF4 JUMP JUMPDEST DUP10 LT PUSH2 0x92D JUMPI PUSH1 0x0 PUSH2 0x92C JUMPI PUSH1 0x40 MLOAD PUSH32 0x8C379A000000000000000000000000000000000000000000000000000000000 DUP2 MSTORE PUSH1 0x4 ADD PUSH2 0x923 SWAP1 PUSH2 0x342A JUMP JUMPDEST PUSH1 0x40 MLOAD DUP1 SWAP2 SUB SWAP1 REVERT JUMPDEST JUMPDEST PUSH1 0x40 MLOAD DUP1 PUSH1 0xA0 ADD PUSH1 0x40 MSTORE DUP1 DUP10 DUP10 DUP1 DUP1 PUSH1 0x1F ADD PUSH1 0x20 DUP1 SWAP2 DIV MUL PUSH1 0x20 ADD PUSH1 0x40 MLOAD SWAP1 DUP2 ADD PUSH1 0x40 MSTORE DUP1 SWAP4 SWAP3 SWAP2 SWAP1 DUP2 DUP2 MSTORE PUSH1 0x20 ADD DUP4 DUP4 DUP1 DUP3 DUP5 CALLDATACOPY PUSH1 0x0 DUP2 DUP5 ADD MSTORE PUSH1 0x1F NOT PUSH1 0x1F DUP3 ADD AND SWAP1 POP DUP1 DUP4 ADD SWAP3 POP POP POP POP POP POP POP DUP2 MSTORE PUSH1 0x20 ADD DUP8 DUP8 DUP1 DUP1 PUSH1 0x1F ADD PUSH1 0x20 DUP1 SWAP2 DIV MUL PUSH1 0x20 ADD PUSH1 0x40 MLOAD SWAP1 DUP2 ADD PUSH1 0x40 MSTORE DUP1 SWAP4 SWAP3 SWAP2 SWAP1 DUP2 DUP2 MSTORE PUSH1 0x20 ADD DUP4 DUP4 DUP1 DUP3 DUP5 CALLDATACOPY PUSH1 0x0 DUP2 DUP5 ADD MSTORE PUSH1 0x1F NOT PUSH1 0x1F DUP3 ADD AND SWAP1 POP DUP1 DUP4 ADD SWAP3 POP POP POP POP POP POP POP DUP2 MSTORE PUSH1 0x20 ADD DUP6 DUP6 DUP1 DUP1 PUSH1 0x1F ADD PUSH1 0x20 DUP1 SWAP2 DIV MUL PUSH1 0x20 ADD PUSH1 0x40 MLOAD SWAP1 DUP2 ADD PUSH1 0x40 MSTORE DUP1 SWAP4 SWAP3 SWAP2 SWAP1 DUP2 DUP2 MSTORE PUSH1 0x20 ADD DUP4 DUP4 DUP1 DUP3 DUP5 CALLDATACOPY PUSH1 0x0 DUP2 DUP5 ADD MSTORE PUSH1 0x1F NOT PUSH1 0x1F DUP3 ADD AND SWAP1 POP DUP1 DUP4 ADD SWAP3 POP POP POP POP POP POP POP DUP2 MSTORE PUSH1 0x20 ADD DUP4 PUSH1 0x3 DUP2 GT ISZERO PUSH2 0xA29 JUMPI PUSH2 0xA28 PUSH2 0x2D7E JUMP JUMPDEST JUMPDEST DUP2 MSTORE PUSH1 0x20 ADD DUP3 DUP2 MSTORE POP PUSH1 0x8 PUSH1 0x0 DUP12 DUP2 MSTORE PUSH1 0x20 ADD SWAP1 DUP2 MSTORE PUSH1 0x20 ADD PUSH1 0x0 KECCAK256 PUSH1 0x0 DUP3 ADD MLOAD DUP2 PUSH1 0x0 ADD SWAP1 DUP2 PUSH2 0xA5A SWAP2 SWAP1 PUSH2 0x328D JUMP JUMPDEST POP PUSH1 0x20 DUP3 ADD MLOAD DUP2 PUSH1 0x1 ADD SWAP1 DUP2 PUSH2 0xA70 SWAP2 SWAP1 PUSH2 0x328D JUMP JUMPDEST POP PUSH1 0x40 DUP3 ADD MLOAD DUP2 PUSH1 0x2 ADD SWAP1 DUP2 PUSH2 0xA86 SWAP2 SWAP1 PUSH2 0x328D JUMP JUMPDEST POP PUSH1 0x60 DUP3 ADD MLOAD DUP2 PUSH1 0x3 ADD PUSH1 0x0 PUSH2 0x100 EXP DUP2 SLOAD DUP2 PUSH1 0xFF MUL NOT AND SWAP1 DUP4 PUSH1 0x3 DUP2 GT ISZERO PUSH2 0xAB2 JUMPI PUSH2 0xAB1 PUSH2 0x2D7E JUMP JUMPDEST JUMPDEST MUL OR SWAP1 SSTORE POP PUSH1 0x80 DUP3 ADD MLOAD DUP2 PUSH1 0x4 ADD SSTORE SWAP1 POP POP PUSH2 0xACC PUSH2 0x1B9A JUMP JUMPDEST PUSH20 0xFFFFFFFFFFFFFFFFFFFFFFFFFFFFFFFFFFFFFFFF AND DUP10 PUSH32 0x38BF72A38023435F249F01545D426EBCCB3348739AAB6415949426E9C5B1CA0 DUP11 DUP11 DUP11 DUP11 DUP11 DUP11 PUSH1 0x40 MLOAD PUSH2 0xB1C SWAP7 SWAP6 SWAP5 SWAP4 SWAP3 SWAP2 SWAP1 PUSH2 0x338C JUMP JUMPDEST PUSH1 0x40 MLOAD DUP1 SWAP2 SUB SWAP1 LOG3 POP POP POP POP POP POP POP POP POP JUMP JUMPDEST PUSH1 0x0 PUSH1 0x7 SLOAD SWAP1 POP SWAP1 JUMP JUMPDEST PUSH1 0x0 PUSH1 0x1 PUSH20 0xFFFFFFFFFFFFFFFFFFFFFFFFFFFFFFFFFFFFFFFF AND DUP3 PUSH20 0xFFFFFFFFFFFFFFFFFFFFFFFFFFFFFFFFFFFFFFFF AND EQ ISZERO DUP1 ISZERO PUSH2 0xC04 JUMPI POP PUSH1 0x0 PUSH20 0xFFFFFFFFFFFFFFFFFFFFFFFFFFFFFFFFFFFFFFFF AND PUSH1 0x3 PUSH1 0x0 DUP5 PUSH20 0xFFFFFFFFFFFFFFFFFFFFFFFFFFFFFFFFFFFFFFFF AND PUSH20 0xFFFFFFFFFFFFFFFFFFFFFFFFFFFFFFFFFFFFFFFF AND DUP2 MSTORE PUSH1 0x20 ADD SWAP1 DUP2 MSTORE PUSH1 0x20 ADD PUSH1 0x0 KECCAK256 PUSH1 0x0 SWAP1 SLOAD SWAP1 PUSH2 0x100 EXP SWAP1 DIV PUSH20 0xFFFFFFFFFFFFFFFFFFFFFFFFFFFFFFFFFFFFFFFF AND PUSH20 0xFFFFFFFFFFFFFFFFFFFFFFFFFFFFFFFFFFFFFFFF AND EQ ISZERO JUMPDEST SWAP1 POP SWAP2 SWAP1 POP JUMP JUMPDEST PUSH2 0xC13 PUSH2 0x1C18 JUMP JUMPDEST JUMP JUMPDEST PUSH1 0x0 PUSH2 0xC1F PUSH2 0x1B9A JUMP JUMPDEST SWAP1 POP DUP1 PUSH20 0xFFFFFFFFFFFFFFFFFFFFFFFFFFFFFFFFFFFFFFFF AND PUSH2 0xC40 PUSH2 0x1632 JUMP JUMPDEST PUSH20 0xFFFFFFFFFFFFFFFFFFFFFFFFFFFFFFFFFFFFFFFF AND EQ PUSH2 0xC96 JUMPI PUSH1 0x40 MLOAD PUSH32 0x8C379A000000000000000000000000000000000000000000000000000000000 DUP2 MSTORE PUSH1 0x4 ADD PUSH2 0xC8D SWAP1 PUSH2 0x34BC JUMP JUMPDEST PUSH1 0x40 MLOAD DUP1 SWAP2 SUB SWAP1 REVERT JUMPDEST PUSH2 0xC9F DUP2 PUSH2 0x1C96 JUMP JUMPDEST POP JUMP JUMPDEST PUSH1 0x6 PUSH1 0x20 MSTORE DUP1 PUSH1 0x0 MSTORE PUSH1 0x40 PUSH1 0x0 KECCAK256 PUSH1 0x0 SWAP2 POP SWAP1 POP DUP1 PUSH1 0x0 ADD DUP1 SLOAD PUSH2 0xCC5 SWAP1 PUSH2 0x30B0 JUMP JUMPDEST DUP1 PUSH1 0x1F ADD PUSH1 0x20 DUP1 SWAP2 DIV MUL PUSH1 0x20 ADD PUSH1 0x40 MLOAD SWAP1 DUP2 ADD PUSH1 0x40 MSTORE DUP1 SWAP3 SWAP2 SWAP1 DUP2 DUP2 MSTORE PUSH1 0x20 ADD DUP3 DUP1 SLOAD PUSH2 0xCF1 SWAP1 PUSH2 0x30B0 JUMP JUMPDEST DUP1 ISZERO PUSH2 0xD3E JUMPI DUP1 PUSH1 0x1F LT PUSH2 0xD13 JUMPI PUSH2 0x100 DUP1 DUP4 SLOAD DIV MUL DUP4 MSTORE SWAP2 PUSH1 0x20 ADD SWAP2 PUSH2 0xD3E JUMP JUMPDEST DUP3 ADD SWAP2 SWAP1 PUSH1 0x0 MSTORE PUSH1 0x20 PUSH1 0x0 KECCAK256 SWAP1 JUMPDEST DUP2 SLOAD DUP2 MSTORE SWAP1 PUSH1 0x1 ADD SWAP1 PUSH1 0x20 ADD DUP1 DUP4 GT PUSH2 0xD21 JUMPI DUP3 SWAP1 SUB PUSH1 0x1F AND DUP3 ADD SWAP2 JUMPDEST POP POP POP POP POP SWAP1 DUP1 PUSH1 0x1 ADD DUP1 SLOAD PUSH2 0xD53 SWAP1 PUSH2 0x30B0 JUMP JUMPDEST DUP1 PUSH1 0x1F ADD PUSH1 0x20 DUP1 SWAP2 DIV MUL PUSH1 0x20 ADD PUSH1 0x40 MLOAD SWAP1 DUP2 ADD PUSH1 0x40 MSTORE DUP1 SWAP3 SWAP2 SWAP1 DUP2 DUP2 MSTORE PUSH1 0x20 ADD DUP3 DUP1 SLOAD PUSH2 0xD7F SWAP1 PUSH2 0x30B0 JUMP JUMPDEST DUP1 ISZERO PUSH2 0xDCC JUMPI DUP1 PUSH1 0x1F LT PUSH2 0xDA1 JUMPI PUSH2 0x100 DUP1 DUP4 SLOAD DIV MUL DUP4 MSTORE SWAP2 PUSH1 0x20 ADD SWAP2 PUSH2 0xDCC JUMP JUMPDEST DUP3 ADD SWAP2 SWAP1 PUSH1 0x0 MSTORE PUSH1 0x20 PUSH1 0x0 KECCAK256 SWAP1 JUMPDEST DUP2 SLOAD DUP2 MSTORE SWAP1 PUSH1 0x1 ADD SWAP1 PUSH1 0x20 ADD DUP1 DUP4 GT PUSH2 0xDAF JUMPI DUP3 SWAP1 SUB PUSH1 0x1F AND DUP3 ADD SWAP2 JUMPDEST POP POP POP POP POP SWAP1 POP DUP3 JUMP JUMPDEST PUSH1 0x0 DUP1 PUSH1 0x0 SWAP1 SLOAD SWAP1 PUSH2 0x100 EXP SWAP1 DIV PUSH20 0xFFFFFFFFFFFFFFFFFFFFFFFFFFFFFFFFFFFFFFFF AND SWAP1 POP SWAP1 JUMP JUMPDEST PUSH2 0xE07 PUSH2 0x1C18 JUMP JUMPDEST PUSH1 0x0 DUP2 MLOAD SUB PUSH2 0xE4B JUMPI PUSH1 0x40 MLOAD PUSH32 0x8C379A000000000000000000000000000000000000000000000000000000000 DUP2 MSTORE PUSH1 0x4 ADD PUSH2 0xE42 SWAP1 PUSH2 0x2F89 JUMP JUMPDEST PUSH1 0x40 MLOAD DUP1 SWAP2 SUB SWAP1 REVERT JUMPDEST DUP1 PUSH1 0x2 SWAP1 DUP2 PUSH2 0xE5A SWAP2 SWAP1 PUSH2 0x328D JUMP JUMPDEST POP PUSH2 0xE63 PUSH2 0x1B9A JUMP JUMPDEST PUSH20 0xFFFFFFFFFFFFFFFFFFFFFFFFFFFFFFFFFFFFFFFF AND PUSH32 0xF7E4F835D77656F8760A2C1A3E841FD8A50759E50C615130349625666A46ACD5 PUSH1 0x2 PUSH1 0x40 MLOAD PUSH2 0xEA9 SWAP2 SWAP1 PUSH2 0x3560 JUMP JUMPDEST PUSH1 0x40 MLOAD DUP1 SWAP2 SUB SWAP1 LOG2 POP JUMP JUMPDEST PUSH1 0x2 DUP1 SLOAD PUSH2 0xEC1 SWAP1 PUSH2 0x30B0 JUMP JUMPDEST DUP1 PUSH1 0x1F ADD PUSH1 0x20 DUP1 SWAP2 DIV MUL PUSH1 0x20 ADD PUSH1 0x40 MLOAD SWAP1 DUP2 ADD PUSH1 0x40 MSTORE DUP1 SWAP3 SWAP2 SWAP1 DUP2 DUP2 MSTORE PUSH1 0x20 ADD DUP3 DUP1 SLOAD PUSH2 0xEED SWAP1 PUSH2 0x30B0 JUMP JUMPDEST DUP1 ISZERO PUSH2 0xF3A JUMPI DUP1 PUSH1 0x1F LT PUSH2 0xF0F JUMPI PUSH2 0x100 DUP1 DUP4 SLOAD DIV MUL DUP4 MSTORE SWAP2 PUSH1 0x20 ADD SWAP2 PUSH2 0xF3A JUMP JUMPDEST DUP3 ADD SWAP2 SWAP1 PUSH1 0x0 MSTORE PUSH1 0x20 PUSH1 0x0 KECCAK256 SWAP1 JUMPDEST DUP2 SLOAD DUP2 MSTORE SWAP1 PUSH1 0x1 ADD SWAP1 PUSH1 0x20 ADD DUP1 DUP4 GT PUSH2 0xF1D JUMPI DUP3 SWAP1 SUB PUSH1 0x1F AND DUP3 ADD SWAP2 JUMPDEST POP POP POP POP POP DUP2 JUMP JUMPDEST PUSH1 0x0 PUSH1 0x4 SLOAD SWAP1 POP SWAP1 JUMP JUMPDEST PUSH2 0xF54 PUSH2 0x1C18 JUMP JUMPDEST PUSH1 0x0 PUSH1 0x1 PUSH1 0x4 SLOAD PUSH2 0xF65 SWAP2 SWAP1 PUSH2 0x35B1 JUMP JUMPDEST SUB PUSH2 0xFAC JUMPI PUSH1 0x0 PUSH2 0xFAB JUMPI PUSH1 0x40 MLOAD PUSH32 0x8C379A000000000000000000000000000000000000000000000000000000000 DUP2 MSTORE PUSH1 0x4 ADD PUSH2 0xFA2 SWAP1 PUSH2 0x3631 JUMP JUMPDEST PUSH1 0x40 MLOAD DUP1 SWAP2 SUB SWAP1 REVERT JUMPDEST JUMPDEST PUSH1 0x0 PUSH20 0xFFFFFFFFFFFFFFFFFFFFFFFFFFFFFFFFFFFFFFFF AND DUP2 PUSH20 0xFFFFFFFFFFFFFFFFFFFFFFFFFFFFFFFFFFFFFFFF AND EQ ISZERO DUP1 ISZERO PUSH2 0x1016 JUMPI POP PUSH1 0x1 PUSH20 0xFFFFFFFFFFFFFFFFFFFFFFFFFFFFFFFFFFFFFFFF AND DUP2 PUSH20 0xFFFFFFFFFFFFFFFFFFFFFFFFFFFFFFFFFFFFFFFF AND EQ ISZERO JUMPDEST DUP1 ISZERO PUSH2 0x104E JUMPI POP ADDRESS PUSH20 0xFFFFFFFFFFFFFFFFFFFFFFFFFFFFFFFFFFFFFFFF AND DUP2 PUSH20 0xFFFFFFFFFFFFFFFFFFFFFFFFFFFFFFFFFFFFFFFF AND EQ ISZERO JUMPDEST PUSH2 0x108D JUMPI PUSH1 0x40 MLOAD PUSH32 0x8C379A000000000000000000000000000000000000000000000000000000000 DUP2 MSTORE PUSH1 0x4 ADD PUSH2 0x1084 SWAP1 PUSH2 0x369D JUMP JUMPDEST PUSH1 0x40 MLOAD DUP1 SWAP2 SUB SWAP1 REVERT JUMPDEST DUP1 PUSH20 0xFFFFFFFFFFFFFFFFFFFFFFFFFFFFFFFFFFFFFFFF AND PUSH1 0x3 PUSH1 0x0 DUP5 PUSH20 0xFFFFFFFFFFFFFFFFFFFFFFFFFFFFFFFFFFFFFFFF AND PUSH20 0xFFFFFFFFFFFFFFFFFFFFFFFFFFFFFFFFFFFFFFFF AND DUP2 MSTORE PUSH1 0x20 ADD SWAP1 DUP2 MSTORE PUSH1 0x20 ADD PUSH1 0x0 KECCAK256 PUSH1 0x0 SWAP1 SLOAD SWAP1 PUSH2 0x100 EXP SWAP1 DIV PUSH20 0xFFFFFFFFFFFFFFFFFFFFFFFFFFFFFFFFFFFFFFFF AND PUSH20 0xFFFFFFFFFFFFFFFFFFFFFFFFFFFFFFFFFFFFFFFF AND EQ PUSH2 0x115A JUMPI PUSH1 0x40 MLOAD PUSH32 0x8C379A000000000000000000000000000000000000000000000000000000000 DUP2 MSTORE PUSH1 0x4 ADD PUSH2 0x1151 SWAP1 PUSH2 0x3709 JUMP JUMPDEST PUSH1 0x40 MLOAD DUP1 SWAP2 SUB SWAP1 REVERT JUMPDEST PUSH1 0x0 PUSH1 0x6 PUSH1 0x0 DUP4 PUSH20 0xFFFFFFFFFFFFFFFFFFFFFFFFFFFFFFFFFFFFFFFF AND PUSH20 0xFFFFFFFFFFFFFFFFFFFFFFFFFFFFFFFFFFFFFFFF AND DUP2 MSTORE PUSH1 0x20 ADD SWAP1 DUP2 MSTORE PUSH1 0x20 ADD PUSH1 0x0 KECCAK256 PUSH1 0x40 MLOAD DUP1 PUSH1 0x40 ADD PUSH1 0x40 MSTORE SWAP1 DUP2 PUSH1 0x0 DUP3 ADD DUP1 SLOAD PUSH2 0x11B6 SWAP1 PUSH2 0x30B0 JUMP JUMPDEST DUP1 PUSH1 0x1F ADD PUSH1 0x20 DUP1 SWAP2 DIV MUL PUSH1 0x20 ADD PUSH1 0x40 MLOAD SWAP1 DUP2 ADD PUSH1 0x40 MSTORE DUP1 SWAP3 SWAP2 SWAP1 DUP2 DUP2 MSTORE PUSH1 0x20 ADD DUP3 DUP1 SLOAD PUSH2 0x11E2 SWAP1 PUSH2 0x30B0 JUMP JUMPDEST DUP1 ISZERO PUSH2 0x122F JUMPI DUP1 PUSH1 0x1F LT PUSH2 0x1204 JUMPI PUSH2 0x100 DUP1 DUP4 SLOAD DIV MUL DUP4 MSTORE SWAP2 PUSH1 0x20 ADD SWAP2 PUSH2 0x122F JUMP JUMPDEST DUP3 ADD SWAP2 SWAP1 PUSH1 0x0 MSTORE PUSH1 0x20 PUSH1 0x0 KECCAK256 SWAP1 JUMPDEST DUP2 SLOAD DUP2 MSTORE SWAP1 PUSH1 0x1 ADD SWAP1 PUSH1 0x20 ADD DUP1 DUP4 GT PUSH2 0x1212 JUMPI DUP3 SWAP1 SUB PUSH1 0x1F AND DUP3 ADD SWAP2 JUMPDEST POP POP POP POP POP DUP2 MSTORE PUSH1 0x20 ADD PUSH1 0x1 DUP3 ADD DUP1 SLOAD PUSH2 0x1248 SWAP1 PUSH2 0x30B0 JUMP JUMPDEST DUP1 PUSH1 0x1F ADD PUSH1 0x20 DUP1 SWAP2 DIV MUL PUSH1 0x20 ADD PUSH1 0x40 MLOAD SWAP1 DUP2 ADD PUSH1 0x40 MSTORE DUP1 SWAP3 SWAP2 SWAP1 DUP2 DUP2 MSTORE PUSH1 0x20 ADD DUP3 DUP1 SLOAD PUSH2 0x1274 SWAP1 PUSH2 0x30B0 JUMP JUMPDEST DUP1 ISZERO PUSH2 0x12C1 JUMPI DUP1 PUSH1 0x1F LT PUSH2 0x1296 JUMPI PUSH2 0x100 DUP1 DUP4 SLOAD DIV MUL DUP4 MSTORE SWAP2 PUSH1 0x20 ADD SWAP2 PUSH2 0x12C1 JUMP JUMPDEST DUP3 ADD SWAP2 SWAP1 PUSH1 0x0 MSTORE PUSH1 0x20 PUSH1 0x0 KECCAK256 SWAP1 JUMPDEST DUP2 SLOAD DUP2 MSTORE SWAP1 PUSH1 0x1 ADD SWAP1 PUSH1 0x20 ADD DUP1 DUP4 GT PUSH2 0x12A4 JUMPI DUP3 SWAP1 SUB PUSH1 0x1F AND DUP3 ADD SWAP2 JUMPDEST POP POP POP POP POP DUP2 MSTORE POP POP SWAP1 POP PUSH1 0x3 PUSH1 0x0 DUP4 PUSH20 0xFFFFFFFFFFFFFFFFFFFFFFFFFFFFFFFFFFFFFFFF AND PUSH20 0xFFFFFFFFFFFFFFFFFFFFFFFFFFFFFFFFFFFFFFFF AND DUP2 MSTORE PUSH1 0x20 ADD SWAP1 DUP2 MSTORE PUSH1 0x20 ADD PUSH1 0x0 KECCAK256 PUSH1 0x0 SWAP1 SLOAD SWAP1 PUSH2 0x100 EXP SWAP1 DIV PUSH20 0xFFFFFFFFFFFFFFFFFFFFFFFFFFFFFFFFFFFFFFFF AND PUSH1 0x3 PUSH1 0x0 DUP6 PUSH20 0xFFFFFFFFFFFFFFFFFFFFFFFFFFFFFFFFFFFFFFFF AND PUSH20 0xFFFFFFFFFFFFFFFFFFFFFFFFFFFFFFFFFFFFFFFF AND DUP2 MSTORE PUSH1 0x20 ADD SWAP1 DUP2 MSTORE PUSH1 0x20 ADD PUSH1 0x0 KECCAK256 PUSH1 0x0 PUSH2 0x100 EXP DUP2 SLOAD DUP2 PUSH20 0xFFFFFFFFFFFFFFFFFFFFFFFFFFFFFFFFFFFFFFFF MUL NOT AND SWAP1 DUP4 PUSH20 0xFFFFFFFFFFFFFFFFFFFFFFFFFFFFFFFFFFFFFFFF AND MUL OR SWAP1 SSTORE POP PUSH1 0x0 PUSH1 0x3 PUSH1 0x0 DUP5 PUSH20 0xFFFFFFFFFFFFFFFFFFFFFFFFFFFFFFFFFFFFFFFF AND PUSH20 0xFFFFFFFFFFFFFFFFFFFFFFFFFFFFFFFFFFFFFFFF AND DUP2 MSTORE PUSH1 0x20 ADD SWAP1 DUP2 MSTORE PUSH1 0x20 ADD PUSH1 0x0 KECCAK256 PUSH1 0x0 PUSH2 0x100 EXP DUP2 SLOAD DUP2 PUSH20 0xFFFFFFFFFFFFFFFFFFFFFFFFFFFFFFFFFFFFFFFF MUL NOT AND SWAP1 DUP4 PUSH20 0xFFFFFFFFFFFFFFFFFFFFFFFFFFFFFFFFFFFFFFFF AND MUL OR SWAP1 SSTORE POP PUSH1 0x4 PUSH1 0x0 DUP2 SLOAD DUP1 SWAP3 SWAP2 SWAP1 PUSH2 0x143B SWAP1 PUSH2 0x3729 JUMP JUMPDEST SWAP2 SWAP1 POP SSTORE POP PUSH1 0x0 DUP2 PUSH1 0x0 ADD MLOAD MLOAD GT DUP1 PUSH2 0x1459 JUMPI POP PUSH1 0x0 DUP2 PUSH1 0x20 ADD MLOAD MLOAD GT JUMPDEST ISZERO PUSH2 0x1468 JUMPI PUSH2 0x1467 DUP3 PUSH2 0x1CC7 JUMP JUMPDEST JUMPDEST PUSH2 0x1470 PUSH2 0x1B9A JUMP JUMPDEST PUSH20 0xFFFFFFFFFFFFFFFFFFFFFFFFFFFFFFFFFFFFFFFF AND DUP3 PUSH20 0xFFFFFFFFFFFFFFFFFFFFFFFFFFFFFFFFFFFFFFFF AND PUSH32 0xA3CF1C45BA4D2D0A3D4D7A5FDD2A75B6FEEC8D0902C676A228FBB2CADA34C318 PUSH1 0x40 MLOAD PUSH1 0x40 MLOAD DUP1 SWAP2 SUB SWAP1 LOG3 POP POP POP JUMP JUMPDEST PUSH1 0x0 PUSH2 0x14DA PUSH1 0x5 PUSH2 0x1BF4 JUMP JUMPDEST SWAP1 POP SWAP1 JUMP JUMPDEST PUSH2 0x14E7 PUSH2 0x1C18 JUMP JUMPDEST PUSH2 0x14F0 DUP2 PUSH2 0x1F88 JUMP JUMPDEST PUSH2 0x14F8 PUSH2 0x1B9A JUMP JUMPDEST PUSH20 0xFFFFFFFFFFFFFFFFFFFFFFFFFFFFFFFFFFFFFFFF AND DUP2 PUSH20 0xFFFFFFFFFFFFFFFFFFFFFFFFFFFFFFFFFFFFFFFF AND PUSH32 0xCE61B8B5DD5DE3BC40E91F97638290BA020C1F9267272522A018D616F077B166 PUSH1 0x40 MLOAD PUSH1 0x40 MLOAD DUP1 SWAP2 SUB SWAP1 LOG3 POP JUMP JUMPDEST PUSH2 0x1564 PUSH2 0x155F PUSH2 0x1B9A JUMP JUMPDEST PUSH2 0x1BA9 JUMP JUMPDEST PUSH1 0x0 PUSH2 0x156E PUSH2 0x1B9A JUMP JUMPDEST SWAP1 POP PUSH2 0x1603 DUP2 DUP7 DUP7 DUP1 DUP1 PUSH1 0x1F ADD PUSH1 0x20 DUP1 SWAP2 DIV MUL PUSH1 0x20 ADD PUSH1 0x40 MLOAD SWAP1 DUP2 ADD PUSH1 0x40 MSTORE DUP1 SWAP4 SWAP3 SWAP2 SWAP1 DUP2 DUP2 MSTORE PUSH1 0x20 ADD DUP4 DUP4 DUP1 DUP3 DUP5 CALLDATACOPY PUSH1 0x0 DUP2 DUP5 ADD MSTORE PUSH1 0x1F NOT PUSH1 0x1F DUP3 ADD AND SWAP1 POP DUP1 DUP4 ADD SWAP3 POP POP POP POP POP POP POP DUP6 DUP6 DUP1 DUP1 PUSH1 0x1F ADD PUSH1 0x20 DUP1 SWAP2 DIV MUL PUSH1 0x20 ADD PUSH1 0x40 MLOAD SWAP1 DUP2 ADD PUSH1 0x40 MSTORE DUP1 SWAP4 SWAP3 SWAP2 SWAP1 DUP2 DUP2 MSTORE PUSH1 0x20 ADD DUP4 DUP4 DUP1 DUP3 DUP5 CALLDATACOPY PUSH1 0x0 DUP2 DUP5 ADD MSTORE PUSH1 0x1F NOT PUSH1 0x1F DUP3 ADD AND SWAP1 POP DUP1 DUP4 ADD SWAP3 POP POP POP POP POP POP POP PUSH2 0x22AD JUMP JUMPDEST POP POP POP POP POP JUMP JUMPDEST PUSH2 0x161A PUSH2 0x1615 PUSH2 0x1B9A JUMP JUMPDEST PUSH2 0x1BA9 JUMP JUMPDEST PUSH1 0x0 PUSH2 0x1624 PUSH2 0x1B9A JUMP JUMPDEST SWAP1 POP PUSH2 0x162F DUP2 PUSH2 0x1CC7 JUMP JUMPDEST POP JUMP JUMPDEST PUSH1 0x0 PUSH1 0x1 PUSH1 0x0 SWAP1 SLOAD SWAP1 PUSH2 0x100 EXP SWAP1 DIV PUSH20 0xFFFFFFFFFFFFFFFFFFFFFFFFFFFFFFFFFFFFFFFF AND SWAP1 POP SWAP1 JUMP JUMPDEST PUSH2 0x1664 PUSH2 0x1C18 JUMP JUMPDEST DUP1 PUSH1 0x1 PUSH1 0x0 PUSH2 0x100 EXP DUP2 SLOAD DUP2 PUSH20 0xFFFFFFFFFFFFFFFFFFFFFFFFFFFFFFFFFFFFFFFF MUL NOT AND SWAP1 DUP4 PUSH20 0xFFFFFFFFFFFFFFFFFFFFFFFFFFFFFFFFFFFFFFFF AND MUL OR SWAP1 SSTORE POP DUP1 PUSH20 0xFFFFFFFFFFFFFFFFFFFFFFFFFFFFFFFFFFFFFFFF AND PUSH2 0x16C4 PUSH2 0xDD6 JUMP JUMPDEST PUSH20 0xFFFFFFFFFFFFFFFFFFFFFFFFFFFFFFFFFFFFFFFF AND PUSH32 0x38D16B8CAC22D99FC7C124B9CD0DE2D3FA1FAEF420BFE791D8C362D765E22700 PUSH1 0x40 MLOAD PUSH1 0x40 MLOAD DUP1 SWAP2 SUB SWAP1 LOG3 POP JUMP JUMPDEST PUSH1 0x8 PUSH1 0x20 MSTORE DUP1 PUSH1 0x0 MSTORE PUSH1 0x40 PUSH1 0x0 KECCAK256 PUSH1 0x0 SWAP2 POP SWAP1 POP DUP1 PUSH1 0x0 ADD DUP1 SLOAD PUSH2 0x172C SWAP1 PUSH2 0x30B0 JUMP JUMPDEST DUP1 PUSH1 0x1F ADD PUSH1 0x20 DUP1 SWAP2 DIV MUL PUSH1 0x20 ADD PUSH1 0x40 MLOAD SWAP1 DUP2 ADD PUSH1 0x40 MSTORE DUP1 SWAP3 SWAP2 SWAP1 DUP2 DUP2 MSTORE PUSH1 0x20 ADD DUP3 DUP1 SLOAD PUSH2 0x1758 SWAP1 PUSH2 0x30B0 JUMP JUMPDEST DUP1 ISZERO PUSH2 0x17A5 JUMPI DUP1 PUSH1 0x1F LT PUSH2 0x177A JUMPI PUSH2 0x100 DUP1 DUP4 SLOAD DIV MUL DUP4 MSTORE SWAP2 PUSH1 0x20 ADD SWAP2 PUSH2 0x17A5 JUMP JUMPDEST DUP3 ADD SWAP2 SWAP1 PUSH1 0x0 MSTORE PUSH1 0x20 PUSH1 0x0 KECCAK256 SWAP1 JUMPDEST DUP2 SLOAD DUP2 MSTORE SWAP1 PUSH1 0x1 ADD SWAP1 PUSH1 0x20 ADD DUP1 DUP4 GT PUSH2 0x1788 JUMPI DUP3 SWAP1 SUB PUSH1 0x1F AND DUP3 ADD SWAP2 JUMPDEST POP POP POP POP POP SWAP1 DUP1 PUSH1 0x1 ADD DUP1 SLOAD PUSH2 0x17BA SWAP1 PUSH2 0x30B0 JUMP JUMPDEST DUP1 PUSH1 0x1F ADD PUSH1 0x20 DUP1 SWAP2 DIV MUL PUSH1 0x20 ADD PUSH1 0x40 MLOAD SWAP1 DUP2 ADD PUSH1 0x40 MSTORE DUP1 SWAP3 SWAP2 SWAP1 DUP2 DUP2 MSTORE PUSH1 0x20 ADD DUP3 DUP1 SLOAD PUSH2 0x17E6 SWAP1 PUSH2 0x30B0 JUMP JUMPDEST DUP1 ISZERO PUSH2 0x1833 JUMPI DUP1 PUSH1 0x1F LT PUSH2 0x1808 JUMPI PUSH2 0x100 DUP1 DUP4 SLOAD DIV MUL DUP4 MSTORE SWAP2 PUSH1 0x20 ADD SWAP2 PUSH2 0x1833 JUMP JUMPDEST DUP3 ADD SWAP2 SWAP1 PUSH1 0x0 MSTORE PUSH1 0x20 PUSH1 0x0 KECCAK256 SWAP1 JUMPDEST DUP2 SLOAD DUP2 MSTORE SWAP1 PUSH1 0x1 ADD SWAP1 PUSH1 0x20 ADD DUP1 DUP4 GT PUSH2 0x1816 JUMPI DUP3 SWAP1 SUB PUSH1 0x1F AND DUP3 ADD SWAP2 JUMPDEST POP POP POP POP POP SWAP1 DUP1 PUSH1 0x2 ADD DUP1 SLOAD PUSH2 0x1848 SWAP1 PUSH2 0x30B0 JUMP JUMPDEST DUP1 PUSH1 0x1F ADD PUSH1 0x20 DUP1 SWAP2 DIV MUL PUSH1 0x20 ADD PUSH1 0x40 MLOAD SWAP1 DUP2 ADD PUSH1 0x40 MSTORE DUP1 SWAP3 SWAP2 SWAP1 DUP2 DUP2 MSTORE PUSH1 0x20 ADD DUP3 DUP1 SLOAD PUSH2 0x1874 SWAP1 PUSH2 0x30B0 JUMP JUMPDEST DUP1 ISZERO PUSH2 0x18C1 JUMPI DUP1 PUSH1 0x1F LT PUSH2 0x1896 JUMPI PUSH2 0x100 DUP1 DUP4 SLOAD DIV MUL DUP4 MSTORE SWAP2 PUSH1 0x20 ADD SWAP2 PUSH2 0x18C1 JUMP JUMPDEST DUP3 ADD SWAP2 SWAP1 PUSH1 0x0 MSTORE PUSH1 0x20 PUSH1 0x0 KECCAK256 SWAP1 JUMPDEST DUP2 SLOAD DUP2 MSTORE SWAP1 PUSH1 0x1 ADD SWAP1 PUSH1 0x20 ADD DUP1 DUP4 GT PUSH2 0x18A4 JUMPI DUP3 SWAP1 SUB PUSH1 0x1F AND DUP3 ADD SWAP2 JUMPDEST POP POP POP POP POP SWAP1 DUP1 PUSH1 0x3 ADD PUSH1 0x0 SWAP1 SLOAD SWAP1 PUSH2 0x100 EXP SWAP1 DIV PUSH1 0xFF AND SWAP1 DUP1 PUSH1 0x4 ADD SLOAD SWAP1 POP DUP6 JUMP JUMPDEST PUSH1 0x60 PUSH1 0x0 PUSH1 0x4 SLOAD PUSH8 0xFFFFFFFFFFFFFFFF DUP2 GT ISZERO PUSH2 0x1904 JUMPI PUSH2 0x1903 PUSH2 0x2AFA JUMP JUMPDEST JUMPDEST PUSH1 0x40 MLOAD SWAP1 DUP1 DUP3 MSTORE DUP1 PUSH1 0x20 MUL PUSH1 0x20 ADD DUP3 ADD PUSH1 0x40 MSTORE DUP1 ISZERO PUSH2 0x1932 JUMPI DUP2 PUSH1 0x20 ADD PUSH1 0x20 DUP3 MUL DUP1 CALLDATASIZE DUP4 CALLDATACOPY DUP1 DUP3 ADD SWAP2 POP POP SWAP1 POP JUMPDEST POP SWAP1 POP PUSH1 0x0 DUP1 PUSH1 0x3 PUSH1 0x0 PUSH1 0x1 PUSH20 0xFFFFFFFFFFFFFFFFFFFFFFFFFFFFFFFFFFFFFFFF AND PUSH20 0xFFFFFFFFFFFFFFFFFFFFFFFFFFFFFFFFFFFFFFFF AND DUP2 MSTORE PUSH1 0x20 ADD SWAP1 DUP2 MSTORE PUSH1 0x20 ADD PUSH1 0x0 KECCAK256 PUSH1 0x0 SWAP1 SLOAD SWAP1 PUSH2 0x100 EXP SWAP1 DIV PUSH20 0xFFFFFFFFFFFFFFFFFFFFFFFFFFFFFFFFFFFFFFFF AND SWAP1 POP JUMPDEST PUSH1 0x1 PUSH20 0xFFFFFFFFFFFFFFFFFFFFFFFFFFFFFFFFFFFFFFFF AND DUP2 PUSH20 0xFFFFFFFFFFFFFFFFFFFFFFFFFFFFFFFFFFFFFFFF AND EQ PUSH2 0x1A93 JUMPI DUP1 DUP4 DUP4 DUP2 MLOAD DUP2 LT PUSH2 0x19E4 JUMPI PUSH2 0x19E3 PUSH2 0x3752 JUMP JUMPDEST JUMPDEST PUSH1 0x20 MUL PUSH1 0x20 ADD ADD SWAP1 PUSH20 0xFFFFFFFFFFFFFFFFFFFFFFFFFFFFFFFFFFFFFFFF AND SWAP1 DUP2 PUSH20 0xFFFFFFFFFFFFFFFFFFFFFFFFFFFFFFFFFFFFFFFF AND DUP2 MSTORE POP POP PUSH1 0x3 PUSH1 0x0 DUP3 PUSH20 0xFFFFFFFFFFFFFFFFFFFFFFFFFFFFFFFFFFFFFFFF AND PUSH20 0xFFFFFFFFFFFFFFFFFFFFFFFFFFFFFFFFFFFFFFFF AND DUP2 MSTORE PUSH1 0x20 ADD SWAP1 DUP2 MSTORE PUSH1 0x20 ADD PUSH1 0x0 KECCAK256 PUSH1 0x0 SWAP1 SLOAD SWAP1 PUSH2 0x100 EXP SWAP1 DIV PUSH20 0xFFFFFFFFFFFFFFFFFFFFFFFFFFFFFFFFFFFFFFFF AND SWAP1 POP DUP2 DUP1 PUSH2 0x1A8B SWAP1 PUSH2 0x3781 JUMP JUMPDEST SWAP3 POP POP PUSH2 0x199C JUMP JUMPDEST DUP3 SWAP4 POP POP POP POP SWAP1 JUMP JUMPDEST PUSH1 0x0 PUSH2 0x1AA7 CALLER PUSH2 0x729 JUMP JUMPDEST ISZERO PUSH2 0x1ABB JUMPI PUSH1 0x14 CALLDATASIZE SUB CALLDATALOAD PUSH1 0x60 SHR SWAP1 POP PUSH2 0x1ACA JUMP JUMPDEST PUSH2 0x1AC3 PUSH2 0x1B92 JUMP JUMPDEST SWAP1 POP PUSH2 0x1ACB JUMP JUMPDEST JUMPDEST SWAP1 JUMP JUMPDEST PUSH1 0x0 DUP1 PUSH1 0x0 SWAP1 SLOAD SWAP1 PUSH2 0x100 EXP SWAP1 DIV PUSH20 0xFFFFFFFFFFFFFFFFFFFFFFFFFFFFFFFFFFFFFFFF AND SWAP1 POP DUP2 PUSH1 0x0 DUP1 PUSH2 0x100 EXP DUP2 SLOAD DUP2 PUSH20 0xFFFFFFFFFFFFFFFFFFFFFFFFFFFFFFFFFFFFFFFF MUL NOT AND SWAP1 DUP4 PUSH20 0xFFFFFFFFFFFFFFFFFFFFFFFFFFFFFFFFFFFFFFFF AND MUL OR SWAP1 SSTORE POP DUP2 PUSH20 0xFFFFFFFFFFFFFFFFFFFFFFFFFFFFFFFFFFFFFFFF AND DUP2 PUSH20 0xFFFFFFFFFFFFFFFFFFFFFFFFFFFFFFFFFFFFFFFF AND PUSH32 0x8BE0079C531659141344CD1FD0A4F28419497F9722A3DAAFE3B4186F6B6457E0 PUSH1 0x40 MLOAD PUSH1 0x40 MLOAD DUP1 SWAP2 SUB SWAP1 LOG3 POP POP JUMP JUMPDEST PUSH1 0x0 CALLER SWAP1 POP SWAP1 JUMP JUMPDEST PUSH1 0x0 PUSH2 0x1BA4 PUSH2 0x1A9C JUMP JUMPDEST SWAP1 POP SWAP1 JUMP JUMPDEST PUSH2 0x1BB2 DUP2 PUSH2 0xB39 JUMP JUMPDEST PUSH2 0x1BF1 JUMPI PUSH1 0x40 MLOAD PUSH32 0x8C379A000000000000000000000000000000000000000000000000000000000 DUP2 MSTORE PUSH1 0x4 ADD PUSH2 0x1BE8 SWAP1 PUSH2 0x3815 JUMP JUMPDEST PUSH1 0x40 MLOAD DUP1 SWAP2 SUB SWAP1 REVERT JUMPDEST POP JUMP JUMPDEST PUSH1 0x0 DUP2 PUSH1 0x0 ADD SLOAD SWAP1 POP SWAP2 SWAP1 POP JUMP JUMPDEST PUSH1 0x1 DUP2 PUSH1 0x0 ADD PUSH1 0x0 DUP3 DUP3 SLOAD ADD SWAP3 POP POP DUP2 SWAP1 SSTORE POP POP JUMP JUMPDEST PUSH2 0x1C20 PUSH2 0x1B9A JUMP JUMPDEST PUSH20 0xFFFFFFFFFFFFFFFFFFFFFFFFFFFFFFFFFFFFFFFF AND PUSH2 0x1C3E PUSH2 0xDD6 JUMP JUMPDEST PUSH20 0xFFFFFFFFFFFFFFFFFFFFFFFFFFFFFFFFFFFFFFFF AND EQ PUSH2 0x1C94 JUMPI PUSH1 0x40 MLOAD PUSH32 0x8C379A000000000000000000000000000000000000000000000000000000000 DUP2 MSTORE PUSH1 0x4 ADD PUSH2 0x1C8B SWAP1 PUSH2 0x3881 JUMP JUMPDEST PUSH1 0x40 MLOAD DUP1 SWAP2 SUB SWAP1 REVERT JUMPDEST JUMP JUMPDEST PUSH1 0x1 PUSH1 0x0 PUSH2 0x100 EXP DUP2 SLOAD SWAP1 PUSH20 0xFFFFFFFFFFFFFFFFFFFFFFFFFFFFFFFFFFFFFFFF MUL NOT AND SWAP1 SSTORE PUSH2 0x1CC4 DUP2 PUSH2 0x1ACE JUMP JUMPDEST POP JUMP JUMPDEST PUSH1 0x0 PUSH1 0x6 PUSH1 0x0 DUP4 PUSH20 0xFFFFFFFFFFFFFFFFFFFFFFFFFFFFFFFFFFFFFFFF AND PUSH20 0xFFFFFFFFFFFFFFFFFFFFFFFFFFFFFFFFFFFFFFFF AND DUP2 MSTORE PUSH1 0x20 ADD SWAP1 DUP2 MSTORE PUSH1 0x20 ADD PUSH1 0x0 KECCAK256 PUSH1 0x40 MLOAD DUP1 PUSH1 0x40 ADD PUSH1 0x40 MSTORE SWAP1 DUP2 PUSH1 0x0 DUP3 ADD DUP1 SLOAD PUSH2 0x1D23 SWAP1 PUSH2 0x30B0 JUMP JUMPDEST DUP1 PUSH1 0x1F ADD PUSH1 0x20 DUP1 SWAP2 DIV MUL PUSH1 0x20 ADD PUSH1 0x40 MLOAD SWAP1 DUP2 ADD PUSH1 0x40 MSTORE DUP1 SWAP3 SWAP2 SWAP1 DUP2 DUP2 MSTORE PUSH1 0x20 ADD DUP3 DUP1 SLOAD PUSH2 0x1D4F SWAP1 PUSH2 0x30B0 JUMP JUMPDEST DUP1 ISZERO PUSH2 0x1D9C JUMPI DUP1 PUSH1 0x1F LT PUSH2 0x1D71 JUMPI PUSH2 0x100 DUP1 DUP4 SLOAD DIV MUL DUP4 MSTORE SWAP2 PUSH1 0x20 ADD SWAP2 PUSH2 0x1D9C JUMP JUMPDEST DUP3 ADD SWAP2 SWAP1 PUSH1 0x0 MSTORE PUSH1 0x20 PUSH1 0x0 KECCAK256 SWAP1 JUMPDEST DUP2 SLOAD DUP2 MSTORE SWAP1 PUSH1 0x1 ADD SWAP1 PUSH1 0x20 ADD DUP1 DUP4 GT PUSH2 0x1D7F JUMPI DUP3 SWAP1 SUB PUSH1 0x1F AND DUP3 ADD SWAP2 JUMPDEST POP POP POP POP POP DUP2 MSTORE PUSH1 0x20 ADD PUSH1 0x1 DUP3 ADD DUP1 SLOAD PUSH2 0x1DB5 SWAP1 PUSH2 0x30B0 JUMP JUMPDEST DUP1 PUSH1 0x1F ADD PUSH1 0x20 DUP1 SWAP2 DIV MUL PUSH1 0x20 ADD PUSH1 0x40 MLOAD SWAP1 DUP2 ADD PUSH1 0x40 MSTORE DUP1 SWAP3 SWAP2 SWAP1 DUP2 DUP2 MSTORE PUSH1 0x20 ADD DUP3 DUP1 SLOAD PUSH2 0x1DE1 SWAP1 PUSH2 0x30B0 JUMP JUMPDEST DUP1 ISZERO PUSH2 0x1E2E JUMPI DUP1 PUSH1 0x1F LT PUSH2 0x1E03 JUMPI PUSH2 0x100 DUP1 DUP4 SLOAD DIV MUL DUP4 MSTORE SWAP2 PUSH1 0x20 ADD SWAP2 PUSH2 0x1E2E JUMP JUMPDEST DUP3 ADD SWAP2 SWAP1 PUSH1 0x0 MSTORE PUSH1 0x20 PUSH1 0x0 KECCAK256 SWAP1 JUMPDEST DUP2 SLOAD DUP2 MSTORE SWAP1 PUSH1 0x1 ADD SWAP1 PUSH1 0x20 ADD DUP1 DUP4 GT PUSH2 0x1E11 JUMPI DUP3 SWAP1 SUB PUSH1 0x1F AND DUP3 ADD SWAP2 JUMPDEST POP POP POP POP POP DUP2 MSTORE POP POP SWAP1 POP PUSH1 0x0 DUP2 PUSH1 0x0 ADD MLOAD MLOAD GT PUSH2 0x1E81 JUMPI PUSH1 0x40 MLOAD PUSH32 0x8C379A000000000000000000000000000000000000000000000000000000000 DUP2 MSTORE PUSH1 0x4 ADD PUSH2 0x1E78 SWAP1 PUSH2 0x38ED JUMP JUMPDEST PUSH1 0x40 MLOAD DUP1 SWAP2 SUB SWAP1 REVERT JUMPDEST PUSH1 0x0 DUP2 PUSH1 0x20 ADD MLOAD MLOAD GT PUSH2 0x1EC9 JUMPI PUSH1 0x40 MLOAD PUSH32 0x8C379A000000000000000000000000000000000000000000000000000000000 DUP2 MSTORE PUSH1 0x4 ADD PUSH2 0x1EC0 SWAP1 PUSH2 0x38ED JUMP JUMPDEST PUSH1 0x40 MLOAD DUP1 SWAP2 SUB SWAP1 REVERT JUMPDEST PUSH1 0x6 PUSH1 0x0 DUP4 PUSH20 0xFFFFFFFFFFFFFFFFFFFFFFFFFFFFFFFFFFFFFFFF AND PUSH20 0xFFFFFFFFFFFFFFFFFFFFFFFFFFFFFFFFFFFFFFFF AND DUP2 MSTORE PUSH1 0x20 ADD SWAP1 DUP2 MSTORE PUSH1 0x20 ADD PUSH1 0x0 KECCAK256 PUSH1 0x0 DUP1 DUP3 ADD PUSH1 0x0 PUSH2 0x1F19 SWAP2 SWAP1 PUSH2 0x261D JUMP JUMPDEST PUSH1 0x1 DUP3 ADD PUSH1 0x0 PUSH2 0x1F29 SWAP2 SWAP1 PUSH2 0x261D JUMP JUMPDEST POP POP PUSH1 0x7 PUSH1 0x0 DUP2 SLOAD PUSH2 0x1F3A SWAP1 PUSH2 0x3729 JUMP JUMPDEST SWAP2 SWAP1 POP DUP2 SWAP1 SSTORE POP DUP2 PUSH20 0xFFFFFFFFFFFFFFFFFFFFFFFFFFFFFFFFFFFFFFFF AND PUSH32 0xE43263E34FD2C5F045A6BB8F67FC65B9BDFD615BEB14B6036A76AEDF940E1876 PUSH1 0x40 MLOAD PUSH1 0x40 MLOAD DUP1 SWAP2 SUB SWAP1 LOG2 POP POP JUMP JUMPDEST PUSH1 0x0 PUSH20 0xFFFFFFFFFFFFFFFFFFFFFFFFFFFFFFFFFFFFFFFF AND DUP2 PUSH20 0xFFFFFFFFFFFFFFFFFFFFFFFFFFFFFFFFFFFFFFFF AND EQ ISZERO DUP1 ISZERO PUSH2 0x1FF2 JUMPI POP PUSH1 0x1 PUSH20 0xFFFFFFFFFFFFFFFFFFFFFFFFFFFFFFFFFFFFFFFF AND DUP2 PUSH20 0xFFFFFFFFFFFFFFFFFFFFFFFFFFFFFFFFFFFFFFFF AND EQ ISZERO JUMPDEST DUP1 ISZERO PUSH2 0x202A JUMPI POP ADDRESS PUSH20 0xFFFFFFFFFFFFFFFFFFFFFFFFFFFFFFFFFFFFFFFF AND DUP2 PUSH20 0xFFFFFFFFFFFFFFFFFFFFFFFFFFFFFFFFFFFFFFFF AND EQ ISZERO JUMPDEST PUSH2 0x2069 JUMPI PUSH1 0x40 MLOAD PUSH32 0x8C379A000000000000000000000000000000000000000000000000000000000 DUP2 MSTORE PUSH1 0x4 ADD PUSH2 0x2060 SWAP1 PUSH2 0x369D JUMP JUMPDEST PUSH1 0x40 MLOAD DUP1 SWAP2 SUB SWAP1 REVERT JUMPDEST PUSH1 0x0 PUSH20 0xFFFFFFFFFFFFFFFFFFFFFFFFFFFFFFFFFFFFFFFF AND PUSH1 0x3 PUSH1 0x0 DUP4 PUSH20 0xFFFFFFFFFFFFFFFFFFFFFFFFFFFFFFFFFFFFFFFF AND PUSH20 0xFFFFFFFFFFFFFFFFFFFFFFFFFFFFFFFFFFFFFFFF AND DUP2 MSTORE PUSH1 0x20 ADD SWAP1 DUP2 MSTORE PUSH1 0x20 ADD PUSH1 0x0 KECCAK256 PUSH1 0x0 SWAP1 SLOAD SWAP1 PUSH2 0x100 EXP SWAP1 DIV PUSH20 0xFFFFFFFFFFFFFFFFFFFFFFFFFFFFFFFFFFFFFFFF AND PUSH20 0xFFFFFFFFFFFFFFFFFFFFFFFFFFFFFFFFFFFFFFFF AND EQ PUSH2 0x2137 JUMPI PUSH1 0x40 MLOAD PUSH32 0x8C379A000000000000000000000000000000000000000000000000000000000 DUP2 MSTORE PUSH1 0x4 ADD PUSH2 0x212E SWAP1 PUSH2 0x3709 JUMP JUMPDEST PUSH1 0x40 MLOAD DUP1 SWAP2 SUB SWAP1 REVERT JUMPDEST PUSH1 0x3 PUSH1 0x0 PUSH1 0x1 PUSH20 0xFFFFFFFFFFFFFFFFFFFFFFFFFFFFFFFFFFFFFFFF AND PUSH20 0xFFFFFFFFFFFFFFFFFFFFFFFFFFFFFFFFFFFFFFFF AND DUP2 MSTORE PUSH1 0x20 ADD SWAP1 DUP2 MSTORE PUSH1 0x20 ADD PUSH1 0x0 KECCAK256 PUSH1 0x0 SWAP1 SLOAD SWAP1 PUSH2 0x100 EXP SWAP1 DIV PUSH20 0xFFFFFFFFFFFFFFFFFFFFFFFFFFFFFFFFFFFFFFFF AND PUSH1 0x3 PUSH1 0x0 DUP4 PUSH20 0xFFFFFFFFFFFFFFFFFFFFFFFFFFFFFFFFFFFFFFFF AND PUSH20 0xFFFFFFFFFFFFFFFFFFFFFFFFFFFFFFFFFFFFFFFF AND DUP2 MSTORE PUSH1 0x20 ADD SWAP1 DUP2 MSTORE PUSH1 0x20 ADD PUSH1 0x0 KECCAK256 PUSH1 0x0 PUSH2 0x100 EXP DUP2 SLOAD DUP2 PUSH20 0xFFFFFFFFFFFFFFFFFFFFFFFFFFFFFFFFFFFFFFFF MUL NOT AND SWAP1 DUP4 PUSH20 0xFFFFFFFFFFFFFFFFFFFFFFFFFFFFFFFFFFFFFFFF AND MUL OR SWAP1 SSTORE POP DUP1 PUSH1 0x3 PUSH1 0x0 PUSH1 0x1 PUSH20 0xFFFFFFFFFFFFFFFFFFFFFFFFFFFFFFFFFFFFFFFF AND PUSH20 0xFFFFFFFFFFFFFFFFFFFFFFFFFFFFFFFFFFFFFFFF AND DUP2 MSTORE PUSH1 0x20 ADD SWAP1 DUP2 MSTORE PUSH1 0x20 ADD PUSH1 0x0 KECCAK256 PUSH1 0x0 PUSH2 0x100 EXP DUP2 SLOAD DUP2 PUSH20 0xFFFFFFFFFFFFFFFFFFFFFFFFFFFFFFFFFFFFFFFF MUL NOT AND SWAP1 DUP4 PUSH20 0xFFFFFFFFFFFFFFFFFFFFFFFFFFFFFFFFFFFFFFFF AND MUL OR SWAP1 SSTORE POP PUSH1 0x4 PUSH1 0x0 DUP2 SLOAD PUSH2 0x22A3 SWAP1 PUSH2 0x3781 JUMP JUMPDEST SWAP2 SWAP1 POP DUP2 SWAP1 SSTORE POP POP JUMP JUMPDEST PUSH1 0x0 DUP3 MLOAD SUB PUSH2 0x22F1 JUMPI PUSH1 0x40 MLOAD PUSH32 0x8C379A000000000000000000000000000000000000000000000000000000000 DUP2 MSTORE PUSH1 0x4 ADD PUSH2 0x22E8 SWAP1 PUSH2 0x3959 JUMP JUMPDEST PUSH1 0x40 MLOAD DUP1 SWAP2 SUB SWAP1 REVERT JUMPDEST PUSH1 0x0 DUP2 MLOAD SUB PUSH2 0x2335 JUMPI PUSH1 0x40 MLOAD PUSH32 0x8C379A000000000000000000000000000000000000000000000000000000000 DUP2 MSTORE PUSH1 0x4 ADD PUSH2 0x232C SWAP1 PUSH2 0x3959 JUMP JUMPDEST PUSH1 0x40 MLOAD DUP1 SWAP2 SUB SWAP1 REVERT JUMPDEST PUSH1 0x0 PUSH1 0x6 PUSH1 0x0 DUP6 PUSH20 0xFFFFFFFFFFFFFFFFFFFFFFFFFFFFFFFFFFFFFFFF AND PUSH20 0xFFFFFFFFFFFFFFFFFFFFFFFFFFFFFFFFFFFFFFFF AND DUP2 MSTORE PUSH1 0x20 ADD SWAP1 DUP2 MSTORE PUSH1 0x20 ADD PUSH1 0x0 KECCAK256 PUSH1 0x40 MLOAD DUP1 PUSH1 0x40 ADD PUSH1 0x40 MSTORE SWAP1 DUP2 PUSH1 0x0 DUP3 ADD DUP1 SLOAD PUSH2 0x2391 SWAP1 PUSH2 0x30B0 JUMP JUMPDEST DUP1 PUSH1 0x1F ADD PUSH1 0x20 DUP1 SWAP2 DIV MUL PUSH1 0x20 ADD PUSH1 0x40 MLOAD SWAP1 DUP2 ADD PUSH1 0x40 MSTORE DUP1 SWAP3 SWAP2 SWAP1 DUP2 DUP2 MSTORE PUSH1 0x20 ADD DUP3 DUP1 SLOAD PUSH2 0x23BD SWAP1 PUSH2 0x30B0 JUMP JUMPDEST DUP1 ISZERO PUSH2 0x240A JUMPI DUP1 PUSH1 0x1F LT PUSH2 0x23DF JUMPI PUSH2 0x100 DUP1 DUP4 SLOAD DIV MUL DUP4 MSTORE SWAP2 PUSH1 0x20 ADD SWAP2 PUSH2 0x240A JUMP JUMPDEST DUP3 ADD SWAP2 SWAP1 PUSH1 0x0 MSTORE PUSH1 0x20 PUSH1 0x0 KECCAK256 SWAP1 JUMPDEST DUP2 SLOAD DUP2 MSTORE SWAP1 PUSH1 0x1 ADD SWAP1 PUSH1 0x20 ADD DUP1 DUP4 GT PUSH2 0x23ED JUMPI DUP3 SWAP1 SUB PUSH1 0x1F AND DUP3 ADD SWAP2 JUMPDEST POP POP POP POP POP DUP2 MSTORE PUSH1 0x20 ADD PUSH1 0x1 DUP3 ADD DUP1 SLOAD PUSH2 0x2423 SWAP1 PUSH2 0x30B0 JUMP JUMPDEST DUP1 PUSH1 0x1F ADD PUSH1 0x20 DUP1 SWAP2 DIV MUL PUSH1 0x20 ADD PUSH1 0x40 MLOAD SWAP1 DUP2 ADD PUSH1 0x40 MSTORE DUP1 SWAP3 SWAP2 SWAP1 DUP2 DUP2 MSTORE PUSH1 0x20 ADD DUP3 DUP1 SLOAD PUSH2 0x244F SWAP1 PUSH2 0x30B0 JUMP JUMPDEST DUP1 ISZERO PUSH2 0x249C JUMPI DUP1 PUSH1 0x1F LT PUSH2 0x2471 JUMPI PUSH2 0x100 DUP1 DUP4 SLOAD DIV MUL DUP4 MSTORE SWAP2 PUSH1 0x20 ADD SWAP2 PUSH2 0x249C JUMP JUMPDEST DUP3 ADD SWAP2 SWAP1 PUSH1 0x0 MSTORE PUSH1 0x20 PUSH1 0x0 KECCAK256 SWAP1 JUMPDEST DUP2 SLOAD DUP2 MSTORE SWAP1 PUSH1 0x1 ADD SWAP1 PUSH1 0x20 ADD DUP1 DUP4 GT PUSH2 0x247F JUMPI DUP3 SWAP1 SUB PUSH1 0x1F AND DUP3 ADD SWAP2 JUMPDEST POP POP POP POP POP DUP2 MSTORE POP POP SWAP1 POP PUSH1 0x0 DUP2 PUSH1 0x0 ADD MLOAD MLOAD EQ PUSH2 0x24EF JUMPI PUSH1 0x40 MLOAD PUSH32 0x8C379A000000000000000000000000000000000000000000000000000000000 DUP2 MSTORE PUSH1 0x4 ADD PUSH2 0x24E6 SWAP1 PUSH2 0x38ED JUMP JUMPDEST PUSH1 0x40 MLOAD DUP1 SWAP2 SUB SWAP1 REVERT JUMPDEST PUSH1 0x0 DUP2 PUSH1 0x20 ADD MLOAD MLOAD EQ PUSH2 0x2537 JUMPI PUSH1 0x40 MLOAD PUSH32 0x8C379A000000000000000000000000000000000000000000000000000000000 DUP2 MSTORE PUSH1 0x4 ADD PUSH2 0x252E SWAP1 PUSH2 0x38ED JUMP JUMPDEST PUSH1 0x40 MLOAD DUP1 SWAP2 SUB SWAP1 REVERT JUMPDEST PUSH1 0x40 MLOAD DUP1 PUSH1 0x40 ADD PUSH1 0x40 MSTORE DUP1 DUP5 DUP2 MSTORE PUSH1 0x20 ADD DUP4 DUP2 MSTORE POP PUSH1 0x6 PUSH1 0x0 DUP7 PUSH20 0xFFFFFFFFFFFFFFFFFFFFFFFFFFFFFFFFFFFFFFFF AND PUSH20 0xFFFFFFFFFFFFFFFFFFFFFFFFFFFFFFFFFFFFFFFF AND DUP2 MSTORE PUSH1 0x20 ADD SWAP1 DUP2 MSTORE PUSH1 0x20 ADD PUSH1 0x0 KECCAK256 PUSH1 0x0 DUP3 ADD MLOAD DUP2 PUSH1 0x0 ADD SWAP1 DUP2 PUSH2 0x25A0 SWAP2 SWAP1 PUSH2 0x328D JUMP JUMPDEST POP PUSH1 0x20 DUP3 ADD MLOAD DUP2 PUSH1 0x1 ADD SWAP1 DUP2 PUSH2 0x25B6 SWAP2 SWAP1 PUSH2 0x328D JUMP JUMPDEST POP SWAP1 POP POP PUSH1 0x1 PUSH1 0x7 PUSH1 0x0 DUP3 DUP3 SLOAD PUSH2 0x25CD SWAP2 SWAP1 PUSH2 0x3979 JUMP JUMPDEST SWAP3 POP POP DUP2 SWAP1 SSTORE POP DUP4 PUSH20 0xFFFFFFFFFFFFFFFFFFFFFFFFFFFFFFFFFFFFFFFF AND PUSH32 0x402D924B9BD03718220C51647BE3AD8F7DA00914B8ABA403753CAA37F4944A02 PUSH1 0x40 MLOAD PUSH1 0x40 MLOAD DUP1 SWAP2 SUB SWAP1 LOG2 POP POP POP POP JUMP JUMPDEST POP DUP1 SLOAD PUSH2 0x2629 SWAP1 PUSH2 0x30B0 JUMP JUMPDEST PUSH1 0x0 DUP3 SSTORE DUP1 PUSH1 0x1F LT PUSH2 0x263B JUMPI POP PUSH2 0x265A JUMP JUMPDEST PUSH1 0x1F ADD PUSH1 0x20 SWAP1 DIV SWAP1 PUSH1 0x0 MSTORE PUSH1 0x20 PUSH1 0x0 KECCAK256 SWAP1 DUP2 ADD SWAP1 PUSH2 0x2659 SWAP2 SWAP1 PUSH2 0x265D JUMP JUMPDEST JUMPDEST POP JUMP JUMPDEST JUMPDEST DUP1 DUP3 GT ISZERO PUSH2 0x2676 JUMPI PUSH1 0x0 DUP2 PUSH1 0x0 SWAP1 SSTORE POP PUSH1 0x1 ADD PUSH2 0x265E JUMP JUMPDEST POP SWAP1 JUMP JUMPDEST PUSH1 0x0 PUSH1 0x40 MLOAD SWAP1 POP SWAP1 JUMP JUMPDEST PUSH1 0x0 DUP1 REVERT JUMPDEST PUSH1 0x0 DUP1 REVERT JUMPDEST PUSH1 0x0 DUP1 REVERT JUMPDEST PUSH1 0x0 DUP1 REVERT JUMPDEST PUSH1 0x0 DUP1 REVERT JUMPDEST PUSH1 0x0 DUP1 DUP4 PUSH1 0x1F DUP5 ADD SLT PUSH2 0x26B3 JUMPI PUSH2 0x26B2 PUSH2 0x268E JUMP JUMPDEST JUMPDEST DUP3 CALLDATALOAD SWAP1 POP PUSH8 0xFFFFFFFFFFFFFFFF DUP2 GT ISZERO PUSH2 0x26D0 JUMPI PUSH2 0x26CF PUSH2 0x2693 JUMP JUMPDEST JUMPDEST PUSH1 0x20 DUP4 ADD SWAP2 POP DUP4 PUSH1 0x1 DUP3 MUL DUP4 ADD GT ISZERO PUSH2 0x26EC JUMPI PUSH2 0x26EB PUSH2 0x2698 JUMP JUMPDEST JUMPDEST SWAP3 POP SWAP3 SWAP1 POP JUMP JUMPDEST PUSH1 0x4 DUP2 LT PUSH2 0x2700 JUMPI PUSH1 0x0 DUP1 REVERT JUMPDEST POP JUMP JUMPDEST PUSH1 0x0 DUP2 CALLDATALOAD SWAP1 POP PUSH2 0x2712 DUP2 PUSH2 0x26F3 JUMP JUMPDEST SWAP3 SWAP2 POP POP JUMP JUMPDEST PUSH1 0x0 DUP2 SWAP1 POP SWAP2 SWAP1 POP JUMP JUMPDEST PUSH2 0x272B DUP2 PUSH2 0x2718 JUMP JUMPDEST DUP2 EQ PUSH2 0x2736 JUMPI PUSH1 0x0 DUP1 REVERT JUMPDEST POP JUMP JUMPDEST PUSH1 0x0 DUP2 CALLDATALOAD SWAP1 POP PUSH2 0x2748 DUP2 PUSH2 0x2722 JUMP JUMPDEST SWAP3 SWAP2 POP POP JUMP JUMPDEST PUSH1 0x0 DUP1 PUSH1 0x0 DUP1 PUSH1 0x0 DUP1 PUSH1 0x0 DUP1 PUSH1 0xA0 DUP10 DUP12 SUB SLT ISZERO PUSH2 0x276E JUMPI PUSH2 0x276D PUSH2 0x2684 JUMP JUMPDEST JUMPDEST PUSH1 0x0 DUP10 ADD CALLDATALOAD PUSH8 0xFFFFFFFFFFFFFFFF DUP2 GT ISZERO PUSH2 0x278C JUMPI PUSH2 0x278B PUSH2 0x2689 JUMP JUMPDEST JUMPDEST PUSH2 0x2798 DUP12 DUP3 DUP13 ADD PUSH2 0x269D JUMP JUMPDEST SWAP9 POP SWAP9 POP POP PUSH1 0x20 DUP10 ADD CALLDATALOAD PUSH8 0xFFFFFFFFFFFFFFFF DUP2 GT ISZERO PUSH2 0x27BB JUMPI PUSH2 0x27BA PUSH2 0x2689 JUMP JUMPDEST JUMPDEST PUSH2 0x27C7 DUP12 DUP3 DUP13 ADD PUSH2 0x269D JUMP JUMPDEST SWAP7 POP SWAP7 POP POP PUSH1 0x40 DUP10 ADD CALLDATALOAD PUSH8 0xFFFFFFFFFFFFFFFF DUP2 GT ISZERO PUSH2 0x27EA JUMPI PUSH2 0x27E9 PUSH2 0x2689 JUMP JUMPDEST JUMPDEST PUSH2 0x27F6 DUP12 DUP3 DUP13 ADD PUSH2 0x269D JUMP JUMPDEST SWAP5 POP SWAP5 POP POP PUSH1 0x60 PUSH2 0x2809 DUP12 DUP3 DUP13 ADD PUSH2 0x2703 JUMP JUMPDEST SWAP3 POP POP PUSH1 0x80 PUSH2 0x281A DUP12 DUP3 DUP13 ADD PUSH2 0x2739 JUMP JUMPDEST SWAP2 POP POP SWAP3 SWAP6 SWAP9 POP SWAP3 SWAP6 SWAP9 SWAP1 SWAP4 SWAP7 POP JUMP JUMPDEST PUSH1 0x0 PUSH20 0xFFFFFFFFFFFFFFFFFFFFFFFFFFFFFFFFFFFFFFFF DUP3 AND SWAP1 POP SWAP2 SWAP1 POP JUMP JUMPDEST PUSH1 0x0 PUSH2 0x2855 DUP3 PUSH2 0x282A JUMP JUMPDEST SWAP1 POP SWAP2 SWAP1 POP JUMP JUMPDEST PUSH2 0x2865 DUP2 PUSH2 0x284A JUMP JUMPDEST DUP2 EQ PUSH2 0x2870 JUMPI PUSH1 0x0 DUP1 REVERT JUMPDEST POP JUMP JUMPDEST PUSH1 0x0 DUP2 CALLDATALOAD SWAP1 POP PUSH2 0x2882 DUP2 PUSH2 0x285C JUMP JUMPDEST SWAP3 SWAP2 POP POP JUMP JUMPDEST PUSH1 0x0 PUSH1 0x20 DUP3 DUP5 SUB SLT ISZERO PUSH2 0x289E JUMPI PUSH2 0x289D PUSH2 0x2684 JUMP JUMPDEST JUMPDEST PUSH1 0x0 PUSH2 0x28AC DUP5 DUP3 DUP6 ADD PUSH2 0x2873 JUMP JUMPDEST SWAP2 POP POP SWAP3 SWAP2 POP POP JUMP JUMPDEST PUSH1 0x0 DUP2 ISZERO ISZERO SWAP1 POP SWAP2 SWAP1 POP JUMP JUMPDEST PUSH2 0x28CA DUP2 PUSH2 0x28B5 JUMP JUMPDEST DUP3 MSTORE POP POP JUMP JUMPDEST PUSH1 0x0 PUSH1 0x20 DUP3 ADD SWAP1 POP PUSH2 0x28E5 PUSH1 0x0 DUP4 ADD DUP5 PUSH2 0x28C1 JUMP JUMPDEST SWAP3 SWAP2 POP POP JUMP JUMPDEST PUSH1 0x0 DUP1 PUSH1 0x0 DUP1 PUSH1 0x0 DUP1 PUSH1 0x0 DUP1 PUSH1 0x0 PUSH1 0xC0 DUP11 DUP13 SUB SLT ISZERO PUSH2 0x290D JUMPI PUSH2 0x290C PUSH2 0x2684 JUMP JUMPDEST JUMPDEST PUSH1 0x0 PUSH2 0x291B DUP13 DUP3 DUP14 ADD PUSH2 0x2739 JUMP JUMPDEST SWAP10 POP POP PUSH1 0x20 DUP11 ADD CALLDATALOAD PUSH8 0xFFFFFFFFFFFFFFFF DUP2 GT ISZERO PUSH2 0x293C JUMPI PUSH2 0x293B PUSH2 0x2689 JUMP JUMPDEST JUMPDEST PUSH2 0x2948 DUP13 DUP3 DUP14 ADD PUSH2 0x269D JUMP JUMPDEST SWAP9 POP SWAP9 POP POP PUSH1 0x40 DUP11 ADD CALLDATALOAD PUSH8 0xFFFFFFFFFFFFFFFF DUP2 GT ISZERO PUSH2 0x296B JUMPI PUSH2 0x296A PUSH2 0x2689 JUMP JUMPDEST JUMPDEST PUSH2 0x2977 DUP13 DUP3 DUP14 ADD PUSH2 0x269D JUMP JUMPDEST SWAP7 POP SWAP7 POP POP PUSH1 0x60 DUP11 ADD CALLDATALOAD PUSH8 0xFFFFFFFFFFFFFFFF DUP2 GT ISZERO PUSH2 0x299A JUMPI PUSH2 0x2999 PUSH2 0x2689 JUMP JUMPDEST JUMPDEST PUSH2 0x29A6 DUP13 DUP3 DUP14 ADD PUSH2 0x269D JUMP JUMPDEST SWAP5 POP SWAP5 POP POP PUSH1 0x80 PUSH2 0x29B9 DUP13 DUP3 DUP14 ADD PUSH2 0x2703 JUMP JUMPDEST SWAP3 POP POP PUSH1 0xA0 PUSH2 0x29CA DUP13 DUP3 DUP14 ADD PUSH2 0x2739 JUMP JUMPDEST SWAP2 POP POP SWAP3 SWAP6 SWAP9 POP SWAP3 SWAP6 SWAP9 POP SWAP3 SWAP6 SWAP9 JUMP JUMPDEST PUSH2 0x29E3 DUP2 PUSH2 0x2718 JUMP JUMPDEST DUP3 MSTORE POP POP JUMP JUMPDEST PUSH1 0x0 PUSH1 0x20 DUP3 ADD SWAP1 POP PUSH2 0x29FE PUSH1 0x0 DUP4 ADD DUP5 PUSH2 0x29DA JUMP JUMPDEST SWAP3 SWAP2 POP POP JUMP JUMPDEST PUSH1 0x0 DUP2 MLOAD SWAP1 POP SWAP2 SWAP1 POP JUMP JUMPDEST PUSH1 0x0 DUP3 DUP3 MSTORE PUSH1 0x20 DUP3 ADD SWAP1 POP SWAP3 SWAP2 POP POP JUMP JUMPDEST PUSH1 0x0 JUMPDEST DUP4 DUP2 LT ISZERO PUSH2 0x2A3E JUMPI DUP1 DUP3 ADD MLOAD DUP2 DUP5 ADD MSTORE PUSH1 0x20 DUP2 ADD SWAP1 POP PUSH2 0x2A23 JUMP JUMPDEST PUSH1 0x0 DUP5 DUP5 ADD MSTORE POP POP POP POP JUMP JUMPDEST PUSH1 0x0 PUSH1 0x1F NOT PUSH1 0x1F DUP4 ADD AND SWAP1 POP SWAP2 SWAP1 POP JUMP JUMPDEST PUSH1 0x0 PUSH2 0x2A66 DUP3 PUSH2 0x2A04 JUMP JUMPDEST PUSH2 0x2A70 DUP2 DUP6 PUSH2 0x2A0F JUMP JUMPDEST SWAP4 POP PUSH2 0x2A80 DUP2 DUP6 PUSH1 0x20 DUP7 ADD PUSH2 0x2A20 JUMP JUMPDEST PUSH2 0x2A89 DUP2 PUSH2 0x2A4A JUMP JUMPDEST DUP5 ADD SWAP2 POP POP SWAP3 SWAP2 POP POP JUMP JUMPDEST PUSH1 0x0 PUSH1 0x40 DUP3 ADD SWAP1 POP DUP2 DUP2 SUB PUSH1 0x0 DUP4 ADD MSTORE PUSH2 0x2AAE DUP2 DUP6 PUSH2 0x2A5B JUMP JUMPDEST SWAP1 POP DUP2 DUP2 SUB PUSH1 0x20 DUP4 ADD MSTORE PUSH2 0x2AC2 DUP2 DUP5 PUSH2 0x2A5B JUMP JUMPDEST SWAP1 POP SWAP4 SWAP3 POP POP POP JUMP JUMPDEST PUSH2 0x2AD4 DUP2 PUSH2 0x284A JUMP JUMPDEST DUP3 MSTORE POP POP JUMP JUMPDEST PUSH1 0x0 PUSH1 0x20 DUP3 ADD SWAP1 POP PUSH2 0x2AEF PUSH1 0x0 DUP4 ADD DUP5 PUSH2 0x2ACB JUMP JUMPDEST SWAP3 SWAP2 POP POP JUMP JUMPDEST PUSH1 0x0 DUP1 REVERT JUMPDEST PUSH32 0x4E487B7100000000000000000000000000000000000000000000000000000000 PUSH1 0x0 MSTORE PUSH1 0x41 PUSH1 0x4 MSTORE PUSH1 0x24 PUSH1 0x0 REVERT JUMPDEST PUSH2 0x2B32 DUP3 PUSH2 0x2A4A JUMP JUMPDEST DUP2 ADD DUP2 DUP2 LT PUSH8 0xFFFFFFFFFFFFFFFF DUP3 GT OR ISZERO PUSH2 0x2B51 JUMPI PUSH2 0x2B50 PUSH2 0x2AFA JUMP JUMPDEST JUMPDEST DUP1 PUSH1 0x40 MSTORE POP POP POP JUMP JUMPDEST PUSH1 0x0 PUSH2 0x2B64 PUSH2 0x267A JUMP JUMPDEST SWAP1 POP PUSH2 0x2B70 DUP3 DUP3 PUSH2 0x2B29 JUMP JUMPDEST SWAP2 SWAP1 POP JUMP JUMPDEST PUSH1 0x0 PUSH8 0xFFFFFFFFFFFFFFFF DUP3 GT ISZERO PUSH2 0x2B90 JUMPI PUSH2 0x2B8F PUSH2 0x2AFA JUMP JUMPDEST JUMPDEST PUSH2 0x2B99 DUP3 PUSH2 0x2A4A JUMP JUMPDEST SWAP1 POP PUSH1 0x20 DUP2 ADD SWAP1 POP SWAP2 SWAP1 POP JUMP JUMPDEST DUP3 DUP2 DUP4 CALLDATACOPY PUSH1 0x0 DUP4 DUP4 ADD MSTORE POP POP POP JUMP JUMPDEST PUSH1 0x0 PUSH2 0x2BC8 PUSH2 0x2BC3 DUP5 PUSH2 0x2B75 JUMP JUMPDEST PUSH2 0x2B5A JUMP JUMPDEST SWAP1 POP DUP3 DUP2 MSTORE PUSH1 0x20 DUP2 ADD DUP5 DUP5 DUP5 ADD GT ISZERO PUSH2 0x2BE4 JUMPI PUSH2 0x2BE3 PUSH2 0x2AF5 JUMP JUMPDEST JUMPDEST PUSH2 0x2BEF DUP5 DUP3 DUP6 PUSH2 0x2BA6 JUMP JUMPDEST POP SWAP4 SWAP3 POP POP POP JUMP JUMPDEST PUSH1 0x0 DUP3 PUSH1 0x1F DUP4 ADD SLT PUSH2 0x2C0C JUMPI PUSH2 0x2C0B PUSH2 0x268E JUMP JUMPDEST JUMPDEST DUP2 CALLDATALOAD PUSH2 0x2C1C DUP5 DUP3 PUSH1 0x20 DUP7 ADD PUSH2 0x2BB5 JUMP JUMPDEST SWAP2 POP POP SWAP3 SWAP2 POP POP JUMP JUMPDEST PUSH1 0x0 PUSH1 0x20 DUP3 DUP5 SUB SLT ISZERO PUSH2 0x2C3B JUMPI PUSH2 0x2C3A PUSH2 0x2684 JUMP JUMPDEST JUMPDEST PUSH1 0x0 DUP3 ADD CALLDATALOAD PUSH8 0xFFFFFFFFFFFFFFFF DUP2 GT ISZERO PUSH2 0x2C59 JUMPI PUSH2 0x2C58 PUSH2 0x2689 JUMP JUMPDEST JUMPDEST PUSH2 0x2C65 DUP5 DUP3 DUP6 ADD PUSH2 0x2BF7 JUMP JUMPDEST SWAP2 POP POP SWAP3 SWAP2 POP POP JUMP JUMPDEST PUSH1 0x0 PUSH1 0x20 DUP3 ADD SWAP1 POP DUP2 DUP2 SUB PUSH1 0x0 DUP4 ADD MSTORE PUSH2 0x2C88 DUP2 DUP5 PUSH2 0x2A5B JUMP JUMPDEST SWAP1 POP SWAP3 SWAP2 POP POP JUMP JUMPDEST PUSH1 0x0 DUP1 PUSH1 0x40 DUP4 DUP6 SUB SLT ISZERO PUSH2 0x2CA7 JUMPI PUSH2 0x2CA6 PUSH2 0x2684 JUMP JUMPDEST JUMPDEST PUSH1 0x0 PUSH2 0x2CB5 DUP6 DUP3 DUP7 ADD PUSH2 0x2873 JUMP JUMPDEST SWAP3 POP POP PUSH1 0x20 PUSH2 0x2CC6 DUP6 DUP3 DUP7 ADD PUSH2 0x2873 JUMP JUMPDEST SWAP2 POP POP SWAP3 POP SWAP3 SWAP1 POP JUMP JUMPDEST PUSH1 0x0 DUP1 PUSH1 0x0 DUP1 PUSH1 0x40 DUP6 DUP8 SUB SLT ISZERO PUSH2 0x2CEA JUMPI PUSH2 0x2CE9 PUSH2 0x2684 JUMP JUMPDEST JUMPDEST PUSH1 0x0 DUP6 ADD CALLDATALOAD PUSH8 0xFFFFFFFFFFFFFFFF DUP2 GT ISZERO PUSH2 0x2D08 JUMPI PUSH2 0x2D07 PUSH2 0x2689 JUMP JUMPDEST JUMPDEST PUSH2 0x2D14 DUP8 DUP3 DUP9 ADD PUSH2 0x269D JUMP JUMPDEST SWAP5 POP SWAP5 POP POP PUSH1 0x20 DUP6 ADD CALLDATALOAD PUSH8 0xFFFFFFFFFFFFFFFF DUP2 GT ISZERO PUSH2 0x2D37 JUMPI PUSH2 0x2D36 PUSH2 0x2689 JUMP JUMPDEST JUMPDEST PUSH2 0x2D43 DUP8 DUP3 DUP9 ADD PUSH2 0x269D JUMP JUMPDEST SWAP3 POP SWAP3 POP POP SWAP3 SWAP6 SWAP2 SWAP5 POP SWAP3 POP JUMP JUMPDEST PUSH1 0x0 PUSH1 0x20 DUP3 DUP5 SUB SLT ISZERO PUSH2 0x2D67 JUMPI PUSH2 0x2D66 PUSH2 0x2684 JUMP JUMPDEST JUMPDEST PUSH1 0x0 PUSH2 0x2D75 DUP5 DUP3 DUP6 ADD PUSH2 0x2739 JUMP JUMPDEST SWAP2 POP POP SWAP3 SWAP2 POP POP JUMP JUMPDEST PUSH32 0x4E487B7100000000000000000000000000000000000000000000000000000000 PUSH1 0x0 MSTORE PUSH1 0x21 PUSH1 0x4 MSTORE PUSH1 0x24 PUSH1 0x0 REVERT JUMPDEST PUSH1 0x4 DUP2 LT PUSH2 0x2DBE JUMPI PUSH2 0x2DBD PUSH2 0x2D7E JUMP JUMPDEST JUMPDEST POP JUMP JUMPDEST PUSH1 0x0 DUP2 SWAP1 POP PUSH2 0x2DCF DUP3 PUSH2 0x2DAD JUMP JUMPDEST SWAP2 SWAP1 POP JUMP JUMPDEST PUSH1 0x0 PUSH2 0x2DDF DUP3 PUSH2 0x2DC1 JUMP JUMPDEST SWAP1 POP SWAP2 SWAP1 POP JUMP JUMPDEST PUSH2 0x2DEF DUP2 PUSH2 0x2DD4 JUMP JUMPDEST DUP3 MSTORE POP POP JUMP JUMPDEST PUSH1 0x0 PUSH1 0xA0 DUP3 ADD SWAP1 POP DUP2 DUP2 SUB PUSH1 0x0 DUP4 ADD MSTORE PUSH2 0x2E0F DUP2 DUP9 PUSH2 0x2A5B JUMP JUMPDEST SWAP1 POP DUP2 DUP2 SUB PUSH1 0x20 DUP4 ADD MSTORE PUSH2 0x2E23 DUP2 DUP8 PUSH2 0x2A5B JUMP JUMPDEST SWAP1 POP DUP2 DUP2 SUB PUSH1 0x40 DUP4 ADD MSTORE PUSH2 0x2E37 DUP2 DUP7 PUSH2 0x2A5B JUMP JUMPDEST SWAP1 POP PUSH2 0x2E46 PUSH1 0x60 DUP4 ADD DUP6 PUSH2 0x2DE6 JUMP JUMPDEST PUSH2 0x2E53 PUSH1 0x80 DUP4 ADD DUP5 PUSH2 0x29DA JUMP JUMPDEST SWAP7 SWAP6 POP POP POP POP POP POP JUMP JUMPDEST PUSH1 0x0 DUP2 MLOAD SWAP1 POP SWAP2 SWAP1 POP JUMP JUMPDEST PUSH1 0x0 DUP3 DUP3 MSTORE PUSH1 0x20 DUP3 ADD SWAP1 POP SWAP3 SWAP2 POP POP JUMP JUMPDEST PUSH1 0x0 DUP2 SWAP1 POP PUSH1 0x20 DUP3 ADD SWAP1 POP SWAP2 SWAP1 POP JUMP JUMPDEST PUSH2 0x2E92 DUP2 PUSH2 0x284A JUMP JUMPDEST DUP3 MSTORE POP POP JUMP JUMPDEST PUSH1 0x0 PUSH2 0x2EA4 DUP4 DUP4 PUSH2 0x2E89 JUMP JUMPDEST PUSH1 0x20 DUP4 ADD SWAP1 POP SWAP3 SWAP2 POP POP JUMP JUMPDEST PUSH1 0x0 PUSH1 0x20 DUP3 ADD SWAP1 POP SWAP2 SWAP1 POP JUMP JUMPDEST PUSH1 0x0 PUSH2 0x2EC8 DUP3 PUSH2 0x2E5D JUMP JUMPDEST PUSH2 0x2ED2 DUP2 DUP6 PUSH2 0x2E68 JUMP JUMPDEST SWAP4 POP PUSH2 0x2EDD DUP4 PUSH2 0x2E79 JUMP JUMPDEST DUP1 PUSH1 0x0 JUMPDEST DUP4 DUP2 LT ISZERO PUSH2 0x2F0E JUMPI DUP2 MLOAD PUSH2 0x2EF5 DUP9 DUP3 PUSH2 0x2E98 JUMP JUMPDEST SWAP8 POP PUSH2 0x2F00 DUP4 PUSH2 0x2EB0 JUMP JUMPDEST SWAP3 POP POP PUSH1 0x1 DUP2 ADD SWAP1 POP PUSH2 0x2EE1 JUMP JUMPDEST POP DUP6 SWAP4 POP POP POP POP SWAP3 SWAP2 POP POP JUMP JUMPDEST PUSH1 0x0 PUSH1 0x20 DUP3 ADD SWAP1 POP DUP2 DUP2 SUB PUSH1 0x0 DUP4 ADD MSTORE PUSH2 0x2F35 DUP2 DUP5 PUSH2 0x2EBD JUMP JUMPDEST SWAP1 POP SWAP3 SWAP2 POP POP JUMP JUMPDEST PUSH32 0x4656323036000000000000000000000000000000000000000000000000000000 PUSH1 0x0 DUP3 ADD MSTORE POP JUMP JUMPDEST PUSH1 0x0 PUSH2 0x2F73 PUSH1 0x5 DUP4 PUSH2 0x2A0F JUMP JUMPDEST SWAP2 POP PUSH2 0x2F7E DUP3 PUSH2 0x2F3D JUMP JUMPDEST PUSH1 0x20 DUP3 ADD SWAP1 POP SWAP2 SWAP1 POP JUMP JUMPDEST PUSH1 0x0 PUSH1 0x20 DUP3 ADD SWAP1 POP DUP2 DUP2 SUB PUSH1 0x0 DUP4 ADD MSTORE PUSH2 0x2FA2 DUP2 PUSH2 0x2F66 JUMP JUMPDEST SWAP1 POP SWAP2 SWAP1 POP JUMP JUMPDEST PUSH32 0x4656323133000000000000000000000000000000000000000000000000000000 PUSH1 0x0 DUP3 ADD MSTORE POP JUMP JUMPDEST PUSH1 0x0 PUSH2 0x2FDF PUSH1 0x5 DUP4 PUSH2 0x2A0F JUMP JUMPDEST SWAP2 POP PUSH2 0x2FEA DUP3 PUSH2 0x2FA9 JUMP JUMPDEST PUSH1 0x20 DUP3 ADD SWAP1 POP SWAP2 SWAP1 POP JUMP JUMPDEST PUSH1 0x0 PUSH1 0x20 DUP3 ADD SWAP1 POP DUP2 DUP2 SUB PUSH1 0x0 DUP4 ADD MSTORE PUSH2 0x300E DUP2 PUSH2 0x2FD2 JUMP JUMPDEST SWAP1 POP SWAP2 SWAP1 POP JUMP JUMPDEST PUSH32 0x4656323134000000000000000000000000000000000000000000000000000000 PUSH1 0x0 DUP3 ADD MSTORE POP JUMP JUMPDEST PUSH1 0x0 PUSH2 0x304B PUSH1 0x5 DUP4 PUSH2 0x2A0F JUMP JUMPDEST SWAP2 POP PUSH2 0x3056 DUP3 PUSH2 0x3015 JUMP JUMPDEST PUSH1 0x20 DUP3 ADD SWAP1 POP SWAP2 SWAP1 POP JUMP JUMPDEST PUSH1 0x0 PUSH1 0x20 DUP3 ADD SWAP1 POP DUP2 DUP2 SUB PUSH1 0x0 DUP4 ADD MSTORE PUSH2 0x307A DUP2 PUSH2 0x303E JUMP JUMPDEST SWAP1 POP SWAP2 SWAP1 POP JUMP JUMPDEST PUSH32 0x4E487B7100000000000000000000000000000000000000000000000000000000 PUSH1 0x0 MSTORE PUSH1 0x22 PUSH1 0x4 MSTORE PUSH1 0x24 PUSH1 0x0 REVERT JUMPDEST PUSH1 0x0 PUSH1 0x2 DUP3 DIV SWAP1 POP PUSH1 0x1 DUP3 AND DUP1 PUSH2 0x30C8 JUMPI PUSH1 0x7F DUP3 AND SWAP2 POP JUMPDEST PUSH1 0x20 DUP3 LT DUP2 SUB PUSH2 0x30DB JUMPI PUSH2 0x30DA PUSH2 0x3081 JUMP JUMPDEST JUMPDEST POP SWAP2 SWAP1 POP JUMP JUMPDEST PUSH1 0x0 DUP2 SWAP1 POP DUP2 PUSH1 0x0 MSTORE PUSH1 0x20 PUSH1 0x0 KECCAK256 SWAP1 POP SWAP2 SWAP1 POP JUMP JUMPDEST PUSH1 0x0 PUSH1 0x20 PUSH1 0x1F DUP4 ADD DIV SWAP1 POP SWAP2 SWAP1 POP JUMP JUMPDEST PUSH1 0x0 DUP3 DUP3 SHL SWAP1 POP SWAP3 SWAP2 POP POP JUMP JUMPDEST PUSH1 0x0 PUSH1 0x8 DUP4 MUL PUSH2 0x3143 PUSH32 0xFFFFFFFFFFFFFFFFFFFFFFFFFFFFFFFFFFFFFFFFFFFFFFFFFFFFFFFFFFFFFFFF DUP3 PUSH2 0x3106 JUMP JUMPDEST PUSH2 0x314D DUP7 DUP4 PUSH2 0x3106 JUMP JUMPDEST SWAP6 POP DUP1 NOT DUP5 AND SWAP4 POP DUP1 DUP7 AND DUP5 OR SWAP3 POP POP POP SWAP4 SWAP3 POP POP POP JUMP JUMPDEST PUSH1 0x0 DUP2 SWAP1 POP SWAP2 SWAP1 POP JUMP JUMPDEST PUSH1 0x0 PUSH2 0x318A PUSH2 0x3185 PUSH2 0x3180 DUP5 PUSH2 0x2718 JUMP JUMPDEST PUSH2 0x3165 JUMP JUMPDEST PUSH2 0x2718 JUMP JUMPDEST SWAP1 POP SWAP2 SWAP1 POP JUMP JUMPDEST PUSH1 0x0 DUP2 SWAP1 POP SWAP2 SWAP1 POP JUMP JUMPDEST PUSH2 0x31A4 DUP4 PUSH2 0x316F JUMP JUMPDEST PUSH2 0x31B8 PUSH2 0x31B0 DUP3 PUSH2 0x3191 JUMP JUMPDEST DUP5 DUP5 SLOAD PUSH2 0x3113 JUMP JUMPDEST DUP3 SSTORE POP POP POP POP JUMP JUMPDEST PUSH1 0x0 SWAP1 JUMP JUMPDEST PUSH2 0x31CD PUSH2 0x31C0 JUMP JUMPDEST PUSH2 0x31D8 DUP2 DUP5 DUP5 PUSH2 0x319B JUMP JUMPDEST POP POP POP JUMP JUMPDEST JUMPDEST DUP2 DUP2 LT ISZERO PUSH2 0x31FC JUMPI PUSH2 0x31F1 PUSH1 0x0 DUP3 PUSH2 0x31C5 JUMP JUMPDEST PUSH1 0x1 DUP2 ADD SWAP1 POP PUSH2 0x31DE JUMP JUMPDEST POP POP JUMP JUMPDEST PUSH1 0x1F DUP3 GT ISZERO PUSH2 0x3241 JUMPI PUSH2 0x3212 DUP2 PUSH2 0x30E1 JUMP JUMPDEST PUSH2 0x321B DUP5 PUSH2 0x30F6 JUMP JUMPDEST DUP2 ADD PUSH1 0x20 DUP6 LT ISZERO PUSH2 0x322A JUMPI DUP2 SWAP1 POP JUMPDEST PUSH2 0x323E PUSH2 0x3236 DUP6 PUSH2 0x30F6 JUMP JUMPDEST DUP4 ADD DUP3 PUSH2 0x31DD JUMP JUMPDEST POP POP JUMPDEST POP POP POP JUMP JUMPDEST PUSH1 0x0 DUP3 DUP3 SHR SWAP1 POP SWAP3 SWAP2 POP POP JUMP JUMPDEST PUSH1 0x0 PUSH2 0x3264 PUSH1 0x0 NOT DUP5 PUSH1 0x8 MUL PUSH2 0x3246 JUMP JUMPDEST NOT DUP1 DUP4 AND SWAP2 POP POP SWAP3 SWAP2 POP POP JUMP JUMPDEST PUSH1 0x0 PUSH2 0x327D DUP4 DUP4 PUSH2 0x3253 JUMP JUMPDEST SWAP2 POP DUP3 PUSH1 0x2 MUL DUP3 OR SWAP1 POP SWAP3 SWAP2 POP POP JUMP JUMPDEST PUSH2 0x3296 DUP3 PUSH2 0x2A04 JUMP JUMPDEST PUSH8 0xFFFFFFFFFFFFFFFF DUP2 GT ISZERO PUSH2 0x32AF JUMPI PUSH2 0x32AE PUSH2 0x2AFA JUMP JUMPDEST JUMPDEST PUSH2 0x32B9 DUP3 SLOAD PUSH2 0x30B0 JUMP JUMPDEST PUSH2 0x32C4 DUP3 DUP3 DUP6 PUSH2 0x3200 JUMP JUMPDEST PUSH1 0x0 PUSH1 0x20 SWAP1 POP PUSH1 0x1F DUP4 GT PUSH1 0x1 DUP2 EQ PUSH2 0x32F7 JUMPI PUSH1 0x0 DUP5 ISZERO PUSH2 0x32E5 JUMPI DUP3 DUP8 ADD MLOAD SWAP1 POP JUMPDEST PUSH2 0x32EF DUP6 DUP3 PUSH2 0x3271 JUMP JUMPDEST DUP7 SSTORE POP PUSH2 0x3357 JUMP JUMPDEST PUSH1 0x1F NOT DUP5 AND PUSH2 0x3305 DUP7 PUSH2 0x30E1 JUMP JUMPDEST PUSH1 0x0 JUMPDEST DUP3 DUP2 LT ISZERO PUSH2 0x332D JUMPI DUP5 DUP10 ADD MLOAD DUP3 SSTORE PUSH1 0x1 DUP3 ADD SWAP2 POP PUSH1 0x20 DUP6 ADD SWAP5 POP PUSH1 0x20 DUP2 ADD SWAP1 POP PUSH2 0x3308 JUMP JUMPDEST DUP7 DUP4 LT ISZERO PUSH2 0x334A JUMPI DUP5 DUP10 ADD MLOAD PUSH2 0x3346 PUSH1 0x1F DUP10 AND DUP3 PUSH2 0x3253 JUMP JUMPDEST DUP4 SSTORE POP JUMPDEST PUSH1 0x1 PUSH1 0x2 DUP9 MUL ADD DUP9 SSTORE POP POP POP JUMPDEST POP POP POP POP POP POP JUMP JUMPDEST PUSH1 0x0 PUSH2 0x336B DUP4 DUP6 PUSH2 0x2A0F JUMP JUMPDEST SWAP4 POP PUSH2 0x3378 DUP4 DUP6 DUP5 PUSH2 0x2BA6 JUMP JUMPDEST PUSH2 0x3381 DUP4 PUSH2 0x2A4A JUMP JUMPDEST DUP5 ADD SWAP1 POP SWAP4 SWAP3 POP POP POP JUMP JUMPDEST PUSH1 0x0 PUSH1 0x60 DUP3 ADD SWAP1 POP DUP2 DUP2 SUB PUSH1 0x0 DUP4 ADD MSTORE PUSH2 0x33A7 DUP2 DUP9 DUP11 PUSH2 0x335F JUMP JUMPDEST SWAP1 POP DUP2 DUP2 SUB PUSH1 0x20 DUP4 ADD MSTORE PUSH2 0x33BC DUP2 DUP7 DUP9 PUSH2 0x335F JUMP JUMPDEST SWAP1 POP DUP2 DUP2 SUB PUSH1 0x40 DUP4 ADD MSTORE PUSH2 0x33D1 DUP2 DUP5 DUP7 PUSH2 0x335F JUMP JUMPDEST SWAP1 POP SWAP8 SWAP7 POP POP POP POP POP POP POP JUMP JUMPDEST PUSH32 0x4656323037000000000000000000000000000000000000000000000000000000 PUSH1 0x0 DUP3 ADD MSTORE POP JUMP JUMPDEST PUSH1 0x0 PUSH2 0x3414 PUSH1 0x5 DUP4 PUSH2 0x2A0F JUMP JUMPDEST SWAP2 POP PUSH2 0x341F DUP3 PUSH2 0x33DE JUMP JUMPDEST PUSH1 0x20 DUP3 ADD SWAP1 POP SWAP2 SWAP1 POP JUMP JUMPDEST PUSH1 0x0 PUSH1 0x20 DUP3 ADD SWAP1 POP DUP2 DUP2 SUB PUSH1 0x0 DUP4 ADD MSTORE PUSH2 0x3443 DUP2 PUSH2 0x3407 JUMP JUMPDEST SWAP1 POP SWAP2 SWAP1 POP JUMP JUMPDEST PUSH32 0x4F776E61626C6532537465703A2063616C6C6572206973206E6F742074686520 PUSH1 0x0 DUP3 ADD MSTORE PUSH32 0x6E6577206F776E65720000000000000000000000000000000000000000000000 PUSH1 0x20 DUP3 ADD MSTORE POP JUMP JUMPDEST PUSH1 0x0 PUSH2 0x34A6 PUSH1 0x29 DUP4 PUSH2 0x2A0F JUMP JUMPDEST SWAP2 POP PUSH2 0x34B1 DUP3 PUSH2 0x344A JUMP JUMPDEST PUSH1 0x40 DUP3 ADD SWAP1 POP SWAP2 SWAP1 POP JUMP JUMPDEST PUSH1 0x0 PUSH1 0x20 DUP3 ADD SWAP1 POP DUP2 DUP2 SUB PUSH1 0x0 DUP4 ADD MSTORE PUSH2 0x34D5 DUP2 PUSH2 0x3499 JUMP JUMPDEST SWAP1 POP SWAP2 SWAP1 POP JUMP JUMPDEST PUSH1 0x0 DUP2 SLOAD PUSH2 0x34E9 DUP2 PUSH2 0x30B0 JUMP JUMPDEST PUSH2 0x34F3 DUP2 DUP7 PUSH2 0x2A0F JUMP JUMPDEST SWAP5 POP PUSH1 0x1 DUP3 AND PUSH1 0x0 DUP2 EQ PUSH2 0x350E JUMPI PUSH1 0x1 DUP2 EQ PUSH2 0x3524 JUMPI PUSH2 0x3557 JUMP JUMPDEST PUSH1 0xFF NOT DUP4 AND DUP7 MSTORE DUP2 ISZERO ISZERO PUSH1 0x20 MUL DUP7 ADD SWAP4 POP PUSH2 0x3557 JUMP JUMPDEST PUSH2 0x352D DUP6 PUSH2 0x30E1 JUMP JUMPDEST PUSH1 0x0 JUMPDEST DUP4 DUP2 LT ISZERO PUSH2 0x354F JUMPI DUP2 SLOAD DUP2 DUP10 ADD MSTORE PUSH1 0x1 DUP3 ADD SWAP2 POP PUSH1 0x20 DUP2 ADD SWAP1 POP PUSH2 0x3530 JUMP JUMPDEST DUP1 DUP9 ADD SWAP6 POP POP POP JUMPDEST POP POP POP SWAP3 SWAP2 POP POP JUMP JUMPDEST PUSH1 0x0 PUSH1 0x20 DUP3 ADD SWAP1 POP DUP2 DUP2 SUB PUSH1 0x0 DUP4 ADD MSTORE PUSH2 0x357A DUP2 DUP5 PUSH2 0x34DC JUMP JUMPDEST SWAP1 POP SWAP3 SWAP2 POP POP JUMP JUMPDEST PUSH32 0x4E487B7100000000000000000000000000000000000000000000000000000000 PUSH1 0x0 MSTORE PUSH1 0x11 PUSH1 0x4 MSTORE PUSH1 0x24 PUSH1 0x0 REVERT JUMPDEST PUSH1 0x0 PUSH2 0x35BC DUP3 PUSH2 0x2718 JUMP JUMPDEST SWAP2 POP PUSH2 0x35C7 DUP4 PUSH2 0x2718 JUMP JUMPDEST SWAP3 POP DUP3 DUP3 SUB SWAP1 POP DUP2 DUP2 GT ISZERO PUSH2 0x35DF JUMPI PUSH2 0x35DE PUSH2 0x3582 JUMP JUMPDEST JUMPDEST SWAP3 SWAP2 POP POP JUMP JUMPDEST PUSH32 0x4656323035000000000000000000000000000000000000000000000000000000 PUSH1 0x0 DUP3 ADD MSTORE POP JUMP JUMPDEST PUSH1 0x0 PUSH2 0x361B PUSH1 0x5 DUP4 PUSH2 0x2A0F JUMP JUMPDEST SWAP2 POP PUSH2 0x3626 DUP3 PUSH2 0x35E5 JUMP JUMPDEST PUSH1 0x20 DUP3 ADD SWAP1 POP SWAP2 SWAP1 POP JUMP JUMPDEST PUSH1 0x0 PUSH1 0x20 DUP3 ADD SWAP1 POP DUP2 DUP2 SUB PUSH1 0x0 DUP4 ADD MSTORE PUSH2 0x364A DUP2 PUSH2 0x360E JUMP JUMPDEST SWAP1 POP SWAP2 SWAP1 POP JUMP JUMPDEST PUSH32 0x4656323033000000000000000000000000000000000000000000000000000000 PUSH1 0x0 DUP3 ADD MSTORE POP JUMP JUMPDEST PUSH1 0x0 PUSH2 0x3687 PUSH1 0x5 DUP4 PUSH2 0x2A0F JUMP JUMPDEST SWAP2 POP PUSH2 0x3692 DUP3 PUSH2 0x3651 JUMP JUMPDEST PUSH1 0x20 DUP3 ADD SWAP1 POP SWAP2 SWAP1 POP JUMP JUMPDEST PUSH1 0x0 PUSH1 0x20 DUP3 ADD SWAP1 POP DUP2 DUP2 SUB PUSH1 0x0 DUP4 ADD MSTORE PUSH2 0x36B6 DUP2 PUSH2 0x367A JUMP JUMPDEST SWAP1 POP SWAP2 SWAP1 POP JUMP JUMPDEST PUSH32 0x4656323034000000000000000000000000000000000000000000000000000000 PUSH1 0x0 DUP3 ADD MSTORE POP JUMP JUMPDEST PUSH1 0x0 PUSH2 0x36F3 PUSH1 0x5 DUP4 PUSH2 0x2A0F JUMP JUMPDEST SWAP2 POP PUSH2 0x36FE DUP3 PUSH2 0x36BD JUMP JUMPDEST PUSH1 0x20 DUP3 ADD SWAP1 POP SWAP2 SWAP1 POP JUMP JUMPDEST PUSH1 0x0 PUSH1 0x20 DUP3 ADD SWAP1 POP DUP2 DUP2 SUB PUSH1 0x0 DUP4 ADD MSTORE PUSH2 0x3722 DUP2 PUSH2 0x36E6 JUMP JUMPDEST SWAP1 POP SWAP2 SWAP1 POP JUMP JUMPDEST PUSH1 0x0 PUSH2 0x3734 DUP3 PUSH2 0x2718 JUMP JUMPDEST SWAP2 POP PUSH1 0x0 DUP3 SUB PUSH2 0x3747 JUMPI PUSH2 0x3746 PUSH2 0x3582 JUMP JUMPDEST JUMPDEST PUSH1 0x1 DUP3 SUB SWAP1 POP SWAP2 SWAP1 POP JUMP JUMPDEST PUSH32 0x4E487B7100000000000000000000000000000000000000000000000000000000 PUSH1 0x0 MSTORE PUSH1 0x32 PUSH1 0x4 MSTORE PUSH1 0x24 PUSH1 0x0 REVERT JUMPDEST PUSH1 0x0 PUSH2 0x378C DUP3 PUSH2 0x2718 JUMP JUMPDEST SWAP2 POP PUSH32 0xFFFFFFFFFFFFFFFFFFFFFFFFFFFFFFFFFFFFFFFFFFFFFFFFFFFFFFFFFFFFFFFF DUP3 SUB PUSH2 0x37BE JUMPI PUSH2 0x37BD PUSH2 0x3582 JUMP JUMPDEST JUMPDEST PUSH1 0x1 DUP3 ADD SWAP1 POP SWAP2 SWAP1 POP JUMP JUMPDEST PUSH32 0x526F6C65204D697373696E670000000000000000000000000000000000000000 PUSH1 0x0 DUP3 ADD MSTORE POP JUMP JUMPDEST PUSH1 0x0 PUSH2 0x37FF PUSH1 0xC DUP4 PUSH2 0x2A0F JUMP JUMPDEST SWAP2 POP PUSH2 0x380A DUP3 PUSH2 0x37C9 JUMP JUMPDEST PUSH1 0x20 DUP3 ADD SWAP1 POP SWAP2 SWAP1 POP JUMP JUMPDEST PUSH1 0x0 PUSH1 0x20 DUP3 ADD SWAP1 POP DUP2 DUP2 SUB PUSH1 0x0 DUP4 ADD MSTORE PUSH2 0x382E DUP2 PUSH2 0x37F2 JUMP JUMPDEST SWAP1 POP SWAP2 SWAP1 POP JUMP JUMPDEST PUSH32 0x4F776E61626C653A2063616C6C6572206973206E6F7420746865206F776E6572 PUSH1 0x0 DUP3 ADD MSTORE POP JUMP JUMPDEST PUSH1 0x0 PUSH2 0x386B PUSH1 0x20 DUP4 PUSH2 0x2A0F JUMP JUMPDEST SWAP2 POP PUSH2 0x3876 DUP3 PUSH2 0x3835 JUMP JUMPDEST PUSH1 0x20 DUP3 ADD SWAP1 POP SWAP2 SWAP1 POP JUMP JUMPDEST PUSH1 0x0 PUSH1 0x20 DUP3 ADD SWAP1 POP DUP2 DUP2 SUB PUSH1 0x0 DUP4 ADD MSTORE PUSH2 0x389A DUP2 PUSH2 0x385E JUMP JUMPDEST SWAP1 POP SWAP2 SWAP1 POP JUMP JUMPDEST PUSH32 0x4656323039000000000000000000000000000000000000000000000000000000 PUSH1 0x0 DUP3 ADD MSTORE POP JUMP JUMPDEST PUSH1 0x0 PUSH2 0x38D7 PUSH1 0x5 DUP4 PUSH2 0x2A0F JUMP JUMPDEST SWAP2 POP PUSH2 0x38E2 DUP3 PUSH2 0x38A1 JUMP JUMPDEST PUSH1 0x20 DUP3 ADD SWAP1 POP SWAP2 SWAP1 POP JUMP JUMPDEST PUSH1 0x0 PUSH1 0x20 DUP3 ADD SWAP1 POP DUP2 DUP2 SUB PUSH1 0x0 DUP4 ADD MSTORE PUSH2 0x3906 DUP2 PUSH2 0x38CA JUMP JUMPDEST SWAP1 POP SWAP2 SWAP1 POP JUMP JUMPDEST PUSH32 0x4656323031000000000000000000000000000000000000000000000000000000 PUSH1 0x0 DUP3 ADD MSTORE POP JUMP JUMPDEST PUSH1 0x0 PUSH2 0x3943 PUSH1 0x5 DUP4 PUSH2 0x2A0F JUMP JUMPDEST SWAP2 POP PUSH2 0x394E DUP3 PUSH2 0x390D JUMP JUMPDEST PUSH1 0x20 DUP3 ADD SWAP1 POP SWAP2 SWAP1 POP JUMP JUMPDEST PUSH1 0x0 PUSH1 0x20 DUP3 ADD SWAP1 POP DUP2 DUP2 SUB PUSH1 0x0 DUP4 ADD MSTORE PUSH2 0x3972 DUP2 PUSH2 0x3936 JUMP JUMPDEST SWAP1 POP SWAP2 SWAP1 POP JUMP JUMPDEST PUSH1 0x0 PUSH2 0x3984 DUP3 PUSH2 0x2718 JUMP JUMPDEST SWAP2 POP PUSH2 0x398F DUP4 PUSH2 0x2718 JUMP JUMPDEST SWAP3 POP DUP3 DUP3 ADD SWAP1 POP DUP1 DUP3 GT ISZERO PUSH2 0x39A7 JUMPI PUSH2 0x39A6 PUSH2 0x3582 JUMP JUMPDEST JUMPDEST SWAP3 SWAP2 POP POP JUMP INVALID LOG2 PUSH5 0x6970667358 0x22 SLT KECCAK256 0xB2 DUP15 0xD1 SWAP4 DUP13 0xE7 SIGNEXTEND SLOAD PUSH19 0x68DA2FCC38313540D025DA0D230F587CC8ACC5 JUMPDEST PUSH30 0x6F4264736F6C6343000811003346696C657665727365205A755061737320 MSTORE PUSH6 0x676973747279 KECCAK256 0x2D KECCAK256 GASLIMIT PUSH21 0x684265726C696EA2646970667358221220477B8F0C PUSH6 0x4CE19CA99AB6 PUSH30 0x7CD527A5A39015C2A3259855D6CFBFBA3C5EB4364736F6C634300081100 CALLER "
		},
		"gasEstimates": {
			"creation": {
				"codeDepositCost": "6894800",
				"executionCost": "infinite",
				"totalCost": "infinite"
			},
			"external": {
				"allPortal(uint256,uint256)": "infinite",
				"balancesOf(address)": "2952",
				"getSignerFromPublicSignals(uint256[38])": "infinite",
				"getValidEventIdFromPublicSignals(uint256[38])": "infinite",
				"getWaterMarkFromPublicSignals(uint256[38])": "infinite",
				"isTrustedForwarder(address)": "infinite",
				"mint(string,string,string,(uint256[2],uint256[2][2],uint256[2],uint256[38]))": "infinite",
				"name()": "infinite",
				"ownedPortal(address,uint256,uint256)": "infinite",
				"ownerOf(address)": "infinite",
				"portalInfo(address)": "infinite",
				"verifyProof(uint256[2],uint256[2][2],uint256[2],uint256[38])": "infinite"
			},
			"internal": {
				"_mint(address,address)": "infinite",
				"_pagination(uint256,uint256,uint256)": "infinite"
			}
		},
		"methodIdentifiers": {
			"allPortal(uint256,uint256)": "cb9f5b60",
			"balancesOf(address)": "6392a51f",
			"getSignerFromPublicSignals(uint256[38])": "a9ec656a",
			"getValidEventIdFromPublicSignals(uint256[38])": "183aaa39",
			"getWaterMarkFromPublicSignals(uint256[38])": "21673151",
			"isTrustedForwarder(address)": "572b6c05",
			"mint(string,string,string,(uint256[2],uint256[2][2],uint256[2],uint256[38]))": "7a21695d",
			"name()": "06fdde03",
			"ownedPortal(address,uint256,uint256)": "bad9744d",
			"ownerOf(address)": "14afd79e",
			"portalInfo(address)": "bf0392c2",
			"verifyProof(uint256[2],uint256[2][2],uint256[2],uint256[38])": "831e4ae0"
		}
	},
	"abi": [
		{
			"inputs": [
				{
					"internalType": "address",
					"name": "_trustedForwarder",
					"type": "address"
				}
			],
			"stateMutability": "nonpayable",
			"type": "constructor"
		},
		{
			"anonymous": false,
			"inputs": [
				{
					"indexed": true,
					"internalType": "address",
					"name": "account",
					"type": "address"
				},
				{
					"indexed": true,
					"internalType": "address",
					"name": "portal",
					"type": "address"
				}
			],
			"name": "Mint",
			"type": "event"
		},
		{
			"inputs": [
				{
					"internalType": "uint256",
					"name": "_resultsPerPage",
					"type": "uint256"
				},
				{
					"internalType": "uint256",
					"name": "_page",
					"type": "uint256"
				}
			],
			"name": "allPortal",
			"outputs": [
				{
					"components": [
						{
							"internalType": "address",
							"name": "portal",
							"type": "address"
						},
						{
							"internalType": "uint256",
							"name": "index",
							"type": "uint256"
						},
						{
							"internalType": "uint256",
							"name": "tokenId",
							"type": "uint256"
						}
					],
					"internalType": "struct FileverseZuPassRegistry.Portal[]",
					"name": "",
					"type": "tuple[]"
				}
			],
			"stateMutability": "view",
			"type": "function"
		},
		{
			"inputs": [
				{
					"internalType": "address",
					"name": "_owner",
					"type": "address"
				}
			],
			"name": "balancesOf",
			"outputs": [
				{
					"internalType": "uint256",
					"name": "",
					"type": "uint256"
				}
			],
			"stateMutability": "view",
			"type": "function"
		},
		{
			"inputs": [
				{
					"internalType": "uint256[38]",
					"name": "_pubSignals",
					"type": "uint256[38]"
				}
			],
			"name": "getSignerFromPublicSignals",
			"outputs": [
				{
					"internalType": "uint256[2]",
					"name": "",
					"type": "uint256[2]"
				}
			],
			"stateMutability": "pure",
			"type": "function"
		},
		{
			"inputs": [
				{
					"internalType": "uint256[38]",
					"name": "_pubSignals",
					"type": "uint256[38]"
				}
			],
			"name": "getValidEventIdFromPublicSignals",
			"outputs": [
				{
					"internalType": "uint256[]",
					"name": "",
					"type": "uint256[]"
				}
			],
			"stateMutability": "view",
			"type": "function"
		},
		{
			"inputs": [
				{
					"internalType": "uint256[38]",
					"name": "_pubSignals",
					"type": "uint256[38]"
				}
			],
			"name": "getWaterMarkFromPublicSignals",
			"outputs": [
				{
					"internalType": "uint256",
					"name": "",
					"type": "uint256"
				}
			],
			"stateMutability": "pure",
			"type": "function"
		},
		{
			"inputs": [
				{
					"internalType": "address",
					"name": "forwarder",
					"type": "address"
				}
			],
			"name": "isTrustedForwarder",
			"outputs": [
				{
					"internalType": "bool",
					"name": "",
					"type": "bool"
				}
			],
			"stateMutability": "view",
			"type": "function"
		},
		{
			"inputs": [
				{
					"internalType": "string",
					"name": "_metadataIPFSHash",
					"type": "string"
				},
				{
					"internalType": "string",
					"name": "_ownerViewDid",
					"type": "string"
				},
				{
					"internalType": "string",
					"name": "_ownerEditDid",
					"type": "string"
				},
				{
					"components": [
						{
							"internalType": "uint256[2]",
							"name": "_pA",
							"type": "uint256[2]"
						},
						{
							"internalType": "uint256[2][2]",
							"name": "_pB",
							"type": "uint256[2][2]"
						},
						{
							"internalType": "uint256[2]",
							"name": "_pC",
							"type": "uint256[2]"
						},
						{
							"internalType": "uint256[38]",
							"name": "_pubSignals",
							"type": "uint256[38]"
						}
					],
					"internalType": "struct FileverseZuPassRegistry.ProofArgs",
					"name": "_proof",
					"type": "tuple"
				}
			],
			"name": "mint",
			"outputs": [],
			"stateMutability": "nonpayable",
			"type": "function"
		},
		{
			"inputs": [],
			"name": "name",
			"outputs": [
				{
					"internalType": "string",
					"name": "",
					"type": "string"
				}
			],
			"stateMutability": "view",
			"type": "function"
		},
		{
			"inputs": [
				{
					"internalType": "address",
					"name": "_owner",
					"type": "address"
				},
				{
					"internalType": "uint256",
					"name": "_resultsPerPage",
					"type": "uint256"
				},
				{
					"internalType": "uint256",
					"name": "_page",
					"type": "uint256"
				}
			],
			"name": "ownedPortal",
			"outputs": [
				{
					"components": [
						{
							"internalType": "address",
							"name": "portal",
							"type": "address"
						},
						{
							"internalType": "uint256",
							"name": "index",
							"type": "uint256"
						},
						{
							"internalType": "uint256",
							"name": "tokenId",
							"type": "uint256"
						}
					],
					"internalType": "struct FileverseZuPassRegistry.Portal[]",
					"name": "",
					"type": "tuple[]"
				}
			],
			"stateMutability": "view",
			"type": "function"
		},
		{
			"inputs": [
				{
					"internalType": "address",
					"name": "_portal",
					"type": "address"
				}
			],
			"name": "ownerOf",
			"outputs": [
				{
					"internalType": "address",
					"name": "",
					"type": "address"
				}
			],
			"stateMutability": "view",
			"type": "function"
		},
		{
			"inputs": [
				{
					"internalType": "address",
					"name": "_portal",
					"type": "address"
				}
			],
			"name": "portalInfo",
			"outputs": [
				{
					"components": [
						{
							"internalType": "address",
							"name": "portal",
							"type": "address"
						},
						{
							"internalType": "uint256",
							"name": "index",
							"type": "uint256"
						},
						{
							"internalType": "uint256",
							"name": "tokenId",
							"type": "uint256"
						}
					],
					"internalType": "struct FileverseZuPassRegistry.Portal",
					"name": "",
					"type": "tuple"
				}
			],
			"stateMutability": "view",
			"type": "function"
		},
		{
			"inputs": [
				{
					"internalType": "uint256[2]",
					"name": "_pA",
					"type": "uint256[2]"
				},
				{
					"internalType": "uint256[2][2]",
					"name": "_pB",
					"type": "uint256[2][2]"
				},
				{
					"internalType": "uint256[2]",
					"name": "_pC",
					"type": "uint256[2]"
				},
				{
					"internalType": "uint256[38]",
					"name": "_pubSignals",
					"type": "uint256[38]"
				}
			],
			"name": "verifyProof",
			"outputs": [
				{
					"internalType": "bool",
					"name": "",
					"type": "bool"
				}
			],
			"stateMutability": "view",
			"type": "function"
		}
	]
}