{
  "_format": "hh-sol-artifact-1",
  "contractName": "FileverseZuPassRegistry",
  "sourceName": "contracts/FileverseZuPassRegistry.sol",
  "abi": [
    {
      "inputs": [
        {
          "internalType": "address",
          "name": "_trustedForwarder",
          "type": "address"
        }
      ],
      "stateMutability": "nonpayable",
      "type": "constructor"
    },
    {
      "anonymous": false,
      "inputs": [
        {
          "indexed": true,
          "internalType": "address",
          "name": "account",
          "type": "address"
        },
        {
          "indexed": true,
          "internalType": "address",
          "name": "portal",
          "type": "address"
        }
      ],
      "name": "Mint",
      "type": "event"
    },
    {
      "inputs": [
        {
          "internalType": "uint256",
          "name": "_resultsPerPage",
          "type": "uint256"
        },
        {
          "internalType": "uint256",
          "name": "_page",
          "type": "uint256"
        }
      ],
      "name": "allPortal",
      "outputs": [
        {
          "components": [
            {
              "internalType": "address",
              "name": "portal",
              "type": "address"
            },
            {
              "internalType": "uint256",
              "name": "index",
              "type": "uint256"
            },
            {
              "internalType": "uint256",
              "name": "tokenId",
              "type": "uint256"
            }
          ],
          "internalType": "struct FileverseZuPassRegistry.Portal[]",
          "name": "",
          "type": "tuple[]"
        }
      ],
      "stateMutability": "view",
      "type": "function"
    },
    {
      "inputs": [
        {
          "internalType": "address",
          "name": "_owner",
          "type": "address"
        }
      ],
      "name": "balancesOf",
      "outputs": [
        {
          "internalType": "uint256",
          "name": "",
          "type": "uint256"
        }
      ],
      "stateMutability": "view",
      "type": "function"
    },
    {
      "inputs": [
        {
          "internalType": "uint256[38]",
          "name": "_pubSignals",
          "type": "uint256[38]"
        }
      ],
      "name": "getSignerFromPublicSignals",
      "outputs": [
        {
          "internalType": "uint256[2]",
          "name": "",
          "type": "uint256[2]"
        }
      ],
      "stateMutability": "pure",
      "type": "function"
    },
    {
      "inputs": [
        {
          "internalType": "uint256[38]",
          "name": "_pubSignals",
          "type": "uint256[38]"
        }
      ],
      "name": "getValidEventIdFromPublicSignals",
      "outputs": [
        {
          "internalType": "uint256[]",
          "name": "",
          "type": "uint256[]"
        }
      ],
      "stateMutability": "view",
      "type": "function"
    },
    {
      "inputs": [
        {
          "internalType": "uint256[38]",
          "name": "_pubSignals",
          "type": "uint256[38]"
        }
      ],
      "name": "getWaterMarkFromPublicSignals",
      "outputs": [
        {
          "internalType": "uint256",
          "name": "",
          "type": "uint256"
        }
      ],
      "stateMutability": "pure",
      "type": "function"
    },
    {
      "inputs": [
        {
          "internalType": "address",
          "name": "forwarder",
          "type": "address"
        }
      ],
      "name": "isTrustedForwarder",
      "outputs": [
        {
          "internalType": "bool",
          "name": "",
          "type": "bool"
        }
      ],
      "stateMutability": "view",
      "type": "function"
    },
    {
      "inputs": [
        {
          "internalType": "string",
          "name": "_metadataIPFSHash",
          "type": "string"
        },
        {
          "internalType": "string",
          "name": "_ownerViewDid",
          "type": "string"
        },
        {
          "internalType": "string",
          "name": "_ownerEditDid",
          "type": "string"
        },
        {
          "components": [
            {
              "internalType": "uint256[2]",
              "name": "_pA",
              "type": "uint256[2]"
            },
            {
              "internalType": "uint256[2][2]",
              "name": "_pB",
              "type": "uint256[2][2]"
            },
            {
              "internalType": "uint256[2]",
              "name": "_pC",
              "type": "uint256[2]"
            },
            {
              "internalType": "uint256[38]",
              "name": "_pubSignals",
              "type": "uint256[38]"
            }
          ],
          "internalType": "struct FileverseZuPassRegistry.ProofArgs",
          "name": "_proof",
          "type": "tuple"
        }
      ],
      "name": "mint",
      "outputs": [],
      "stateMutability": "nonpayable",
      "type": "function"
    },
    {
      "inputs": [],
      "name": "name",
      "outputs": [
        {
          "internalType": "string",
          "name": "",
          "type": "string"
        }
      ],
      "stateMutability": "view",
      "type": "function"
    },
    {
      "inputs": [
        {
          "internalType": "address",
          "name": "_owner",
          "type": "address"
        },
        {
          "internalType": "uint256",
          "name": "_resultsPerPage",
          "type": "uint256"
        },
        {
          "internalType": "uint256",
          "name": "_page",
          "type": "uint256"
        }
      ],
      "name": "ownedPortal",
      "outputs": [
        {
          "components": [
            {
              "internalType": "address",
              "name": "portal",
              "type": "address"
            },
            {
              "internalType": "uint256",
              "name": "index",
              "type": "uint256"
            },
            {
              "internalType": "uint256",
              "name": "tokenId",
              "type": "uint256"
            }
          ],
          "internalType": "struct FileverseZuPassRegistry.Portal[]",
          "name": "",
          "type": "tuple[]"
        }
      ],
      "stateMutability": "view",
      "type": "function"
    },
    {
      "inputs": [
        {
          "internalType": "address",
          "name": "_portal",
          "type": "address"
        }
      ],
      "name": "ownerOf",
      "outputs": [
        {
          "internalType": "address",
          "name": "",
          "type": "address"
        }
      ],
      "stateMutability": "view",
      "type": "function"
    },
    {
      "inputs": [
        {
          "internalType": "address",
          "name": "_portal",
          "type": "address"
        }
      ],
      "name": "portalInfo",
      "outputs": [
        {
          "components": [
            {
              "internalType": "address",
              "name": "portal",
              "type": "address"
            },
            {
              "internalType": "uint256",
              "name": "index",
              "type": "uint256"
            },
            {
              "internalType": "uint256",
              "name": "tokenId",
              "type": "uint256"
            }
          ],
          "internalType": "struct FileverseZuPassRegistry.Portal",
          "name": "",
          "type": "tuple"
        }
      ],
      "stateMutability": "view",
      "type": "function"
    },
    {
      "inputs": [
        {
          "internalType": "uint256[2]",
          "name": "_pA",
          "type": "uint256[2]"
        },
        {
          "internalType": "uint256[2][2]",
          "name": "_pB",
          "type": "uint256[2][2]"
        },
        {
          "internalType": "uint256[2]",
          "name": "_pC",
          "type": "uint256[2]"
        },
        {
          "internalType": "uint256[38]",
          "name": "_pubSignals",
          "type": "uint256[38]"
        }
      ],
      "name": "verifyProof",
      "outputs": [
        {
          "internalType": "bool",
          "name": "",
          "type": "bool"
        }
      ],
      "stateMutability": "view",
      "type": "function"
    }
  ],
  "bytecode": "0x60e06040526f53edb3e7673341e0a9be488877c5c57260c09081526200002a9060069060016200011e565b50604080518082019091527f1ebfb986fbac5113f8e2c72286fe9362f8e7d211dbc68227a468d7b919e7500381527f10ec38f11baacad5535525bbe8e343074a483c051aa1616266f3b1df3fb7d20460208201526200008e9060079060026200016c565b503480156200009c57600080fd5b506040516200540b3803806200540b833981016040819052620000bf91620001b4565b60016000556001600160a01b03811660808190526200010c5760405162461bcd60e51b8152602060048201526005602482015264465632313160d81b604482015260640160405180910390fd5b6001600160a01b031660a052620001e6565b82600181019282156200015a579160200282015b828111156200015a57825182906001600160801b031690559160200191906001019062000132565b50620001689291506200019d565b5090565b82600281019282156200015a579160200282015b828111156200015a57825182559160200191906001019062000180565b5b808211156200016857600081556001016200019e565b600060208284031215620001c757600080fd5b81516001600160a01b0381168114620001df57600080fd5b9392505050565b60805160a0516151f86200021360003960006105a80152600081816101930152611c7201526151f86000f3fe60806040523480156200001157600080fd5b5060043610620000c35760003560e01c80637a21695d116200007a5780637a21695d1462000200578063831e4ae01462000219578063a9ec656a1462000230578063bad9744d1462000256578063bf0392c2146200027c578063cb9f5b6014620002a257600080fd5b806306fdde0314620000c857806314afd79e14620000ea578063183aaa391462000132578063216731511462000158578063572b6c0514620001805780636392a51f14620001d4575b600080fd5b620000d2620002b9565b604051620000e1919062001ef5565b60405180910390f35b62000119620000fb36600462001f62565b6001600160a01b039081166000908152600260205260409020541690565b6040516001600160a01b039091168152602001620000e1565b620001496200014336600462001f96565b620002d6565b604051620000e1919062002029565b620001716200016936600462001f96565b6104a0015190565b604051908152602001620000e1565b620001c36200019136600462001f62565b7f00000000000000000000000000000000000000000000000000000000000000006001600160a01b0390811691161490565b6040519015158152602001620000e1565b62000171620001e536600462001f62565b6001600160a01b031660009081526001602052604090205490565b6200021762000211366004620020bb565b6200036b565b005b620001c36200022a36600462002190565b6200066f565b620002476200024136600462001f96565b6200191b565b604051620000e19190620021fd565b6200026d6200026736600462002230565b62001947565b604051620000e1919062002266565b620002936200028d36600462001f62565b62001a8c565b604051620000e19190620022c8565b6200026d620002b3366004620022f3565b62001ada565b6040518060600160405280602581526020016200519e6025913981565b604080516001808252818301909252606091600091906020808301908036833701905050905060005b60018110156200036457836200031782600f6200232c565b602681106200032a576200032a62002342565b602002015182828151811062000344576200034462002342565b6020908102919091010152806200035b8162002358565b915050620002ff565b5092915050565b60408051630418f25760e51b81528291309163831e4ae091620003a191859182019060c083019061010084019060040162002374565b602060405180830381865afa158015620003bf573d6000803e3d6000fd5b505050506040513d601f19601f82011682018060405250810190620003e59190620023c3565b620004275760405162461bcd60e51b815260206004820152600d60248201526c24b73b30b634b210383937b7b360991b60448201526064015b60405180910390fd5b604080516104c0818101909252906101008401906026908390839080828437600092018290525091506200045d905082620002d6565b90506006604051602001620004739190620023e7565b60405160208183030381529060405280519060200120816040516020016200049c919062002424565b6040516020818303038152906040528051906020012014620004f55760405162461bcd60e51b8152602060048201526011602482015270496e76616c6964206576656e742069647360781b60448201526064016200041e565b604080516104c0818101909252906101008601906026908390839080828437600092018290525091506200052b9050826200191b565b60075481519192501480156200054657506008546020820151145b620005855760405162461bcd60e51b815260206004820152600e60248201526d24b73b30b634b21039b4b3b732b960911b60448201526064016200041e565b6200058f62001c13565b60006200059b62001c6e565b905060008d8d8d8d8d8d877f0000000000000000000000000000000000000000000000000000000000000000604051620005d59062001e9f565b620005e898979695949392919062002485565b604051809103906000f08015801562000605573d6000803e3d6000fd5b50905062000614828262001cb3565b806001600160a01b0316826001600160a01b03167fc5004d0de103a4ce335ec7dfbb178f69e81ecd773d402c331dafc66c465a020a60405160405180910390a35050620006616001600055565b505050505050505050505050565b60006200168d565b7f30644e72e131a029b85045b68181585d97816a916871ca8d3c208c16d87cfd478110620006a9576000805260206000f35b50565b600060405183815284602082015285604082015260408160608360076107d05a03fa915081620006e0576000805260206000f35b825160408201526020830151606082015260408360808360066107d05a03fa9150508062000712576000805260206000f35b5050505050565b7f0f9006886f6f20ff507615a18b97e3c01a4014043c38b27cde5a7cdf7dab0d7f85527f1e92b1b255ac9824dd1ee75e42c910e057e6dd572de9aad0494189943d373eb1602086015260006080860186620007b887357f2cb53751205cf78a9cf5e100f215c610367178554c581286e82ce6894d769ee17f08c033375f7b9b4d4d21ab61cf95398b85ceab592496fac5e0278c847e67427684620006ac565b6200080a60208801357f052490713e636a97e1fb031b2d3384c4ab2d6f6ed3ac9f459fac2d2ba4a1b2e07f01fd7cd23534b84d17783c31e441aa2eb95a050b9127e37a9f5587a1751f71eb84620006ac565b6200085c60408801357f256616621649a845cb66babd1f676ba44d689e683eb7eb53374e48b8e4c409b17f0b228257ad0859000e38bdf38ff787e6b829b3cd0040ab92164d6171f3b085ea84620006ac565b620008ae60608801357f186e961f4c05f1671f7994e4500382eefc07ea1ddc6a5a1a60f6ee347c7be0577f2979d724649fc184f1091abdedb64ea58401b0c0e54e9480a1c2ef5601c087e084620006ac565b6200090060808801357f27081b7a953c3790bf751674a50a23821e7f3841d7b0418e61b5277d6aaa7ccc7f1fd8ffd81e555806ffdc9e0f034c1373ae012499e7e67d5edc01582790d4099384620006ac565b6200095260a08801357f0e82363237a4dc55526e001eb1d695c3e9039986e9a2373455ba4b570acc72647f13498910321d23ea90b409e45e90c40e837c70eeffd5ca85a02eccbceade6b5384620006ac565b620009a460c08801357f2e2315c45313e02591ba43319399b74bedd9ced2793f602f6b22eafe003f8b4a7f203a8f7d111ad941e485f2692c256680b752edc3cd8ccd92e620cf17ff3534d284620006ac565b620009f660e08801357f1e86fb929660fdaa69f10be5714651ed0de3dfd49f06238334f937d9d3e2733f7f21564b1e9db2b247e0921254e9f0f75e3fcbe2d1d30a202b2be65e4b18a152e084620006ac565b62000a496101008801357f016ec5dcb66e609a8d89e711444d32e586f662354e41084e2888ebb97f5b67227f1a71bfa4c37985b56863021a5c26e1a561cdd4cfa2f1aa9327f632b4670f524284620006ac565b62000a9c6101208801357f1831182339eb45624402af0e2887a9a93b33abc52c8d50096aca373449396cd67f15e1f2d6b38cae9960aceae8d832067aac43565737b79c4875b6dd7a67d4bfc984620006ac565b62000aef6101408801357f05dd559259952daad5ad52f86970c2fa050974d317cc2ad04dd58f59ecbc7e787f3020cdde5eb7df9c7afd526edb333a11dcdb1f271e3e7d31dac1ad0ddc7b755384620006ac565b62000b426101608801357f1f63433f4731866908a7fdd84e9a6a9cc5584c8e9a6c9541183c17e018660f017f176401669c60e015427c97b4f4e756e9b12a249fbc767240a1b95b6e90339af884620006ac565b62000b956101808801357f1becf90ef08f14887607386cf5c4ae46eac76cc93f9b28e3dc6720f2a8636f727f266d92bb0c7cf54c13320ec43b304aae7c1e68ab8c633f6bc079beca7b83b8a884620006ac565b62000be86101a08801357f0f16bca08d7672c2c6a70b097f780d92cb6abe71231530ab38be47ec4bb9f0657f1ecef5129f49f6c4f70856db2437c3342d840ef55e7f674431b39235bb32a2e584620006ac565b62000c3b6101c08801357f0e57ec4267b4df8c79888d886080dddd7330233a9ea5489dbe03a388741adc657f0f8bf7735da92118f10b840163fc142a2f8c35c5daf732d0375f30ec021c382284620006ac565b62000c8d6101e08801357f25d3c509d8f46e27ef324e20dad1befe8f5ef4c5698065d8b2ec025b80a4bdb97e128ae85c76fbc1214b05cc94acb1a72e3f1fc009250a9a7c3eb907e1aaab4a84620006ac565b62000ce06102008801357f27529cf8c93cd529763ffa29d7b1b0bb845b2e4ee836bfa6fdc2a3f295a2a2a47f0b61bd21284bfb3849df98447bba37fd83979043923df5a5a1e2313f6c934fe784620006ac565b62000d336102208801357f1d0690e56fd4ebdbeddc2c36d146a581f1bada3459fc0d22e6cf3a879d8e0bb27f2a4c8d4ce173db6c3151ff95771e5bc600454ba8d8e77d73d691d3b788f1547c84620006ac565b62000d866102408801357f2197d9057bcd8512d8bd10d708f9b9b983e30aa4206d0d298b1bfdb22c03af0d7f1f91c262234db447c7a42e2ac865dfc25173698c81f7150c1fc6e3f52152517484620006ac565b62000dd96102608801357f0ccf58b5f8b38c4fb71107eb3141fd4cd8835c1ac98ce069d17f483fda4902137f160261b562bb1c2e1adfbe16213ab10f1d65a9af797ff9fdf33cbaffdd8ff14a84620006ac565b62000e2c6102808801357f06070cd76564f60c5cd3189dfd49e1aed642613d7d2361e1a8e522fa39e2139b7f06d6cb60a85a184ed8560777b4d6ea19d81cb7a5c1f2dc6a485edc4ceb40a26084620006ac565b62000e7f6102a08801357f2fc55313fc9e16e0dda7103536e846ee999347ed86ad019229f031a19ed4634c7f0baae891783d92c0d64d955d136cbcebb2e38ae09dbfde150feee3c0b882a86584620006ac565b62000ed26102c08801357f1d7c06c0d99ac359b5ef4753b1bf87d1a8fcffe2ce8cc05e92f39f1d027f43a47f065f3215077f26963b7171c9ff320db50fde64fb3dd2992595c11981b0bda98b84620006ac565b62000f256102e08801357f06fead1c35303d414ab4af9fda1e1fd929ef117d2cb5da0efc04f42bc9c6f0bb7f2484e7bd73447c5f7ce18f9df35f68977544ba54ba13a30555bbc0c11a8a427a84620006ac565b62000f786103008801357f1a2f48b9b4d7d54e7533ecce0c24385e6a2a65a9f073da49b169aa83444a2c787f2f68633a8f3f177d4be86b9e27b768b50cce1a9e304d44055081d1cf878c922d84620006ac565b62000fcb6103208801357f2a74eb84308bc8b3e745cb7869a3301e4f7c6376639d186606ff9a27bad8cbd07f13ec3d5bd56285ef6ad6950716731c0347193d8cadd2b24f33b0bc49ea8b002784620006ac565b6200101e6103408801357f04a3a7a4b18f2e65b78613d067c00fc8e083e60aa927d230047343e15570c1647f1b27af4b6e4052e4c2820aa710903fc054cc14f34e5515d98f9db79108e7197e84620006ac565b620010716103608801357f0a6a46ce4ff2fd7ec6b6bff4233f44cac59f12e27b2964aa4804a67b9cc179347f0466b278eb0e5e3a1117c981ee45eaa3fc9b99a65422bafc1ab3b2d35b25cb1784620006ac565b620010c46103808801357f2a0a97c04405a1f7fef7a27e4055bffc61bfa9213790043f44a58c97808466cd7f2d02b829f9fcf0d926ff84f19acd70edd1e3cebcb3d8992d08bb9abf65cc0b5a84620006ac565b620011176103a08801357f199dc24b47a01774b2ca14c6ebb1d6dbefd68f2910cea07a6f52a39a51e821b37f2e2acca1c520dbc0c6669c66d83c51d43ff7623e6e47e8b682b4b53c27fbee5484620006ac565b6200116a6103c08801357f10d9be99903ae31c2e662af507aeac7734dea024cdfca7d206aa20a47b893e707f15d021f30dff2805c0c2699359e2c1e1fd31ccaf156d2d38bbc1e1e2b42d91f184620006ac565b620011bd6103e08801357f182f3ab3a4ff98f3885bd016f76eeec476ba1b76c323b1653ef6b80768a5a16b7f1f03120f3f56b9035896158416bc21b1b55938ca68811e0713ab85d2feee2b3e84620006ac565b620012106104008801357f0f86d0b5c22dce1b3919696027d8a6e866726b44893e19cf1384544d66758f6b7f1218fcad9b211671bc8484d52d665df07d2a87fdce5e2df8c05c643a627a532184620006ac565b620012636104208801357f29feae1b5b40d3a967d3696b9503cececda9980a7a0b51e3386778862673abd67f19abd3b165a28e010c686149f039ea919508d9373aca3096fe6fee3e63717a6e84620006ac565b620012b56104408801357f2c3c0a78a37f4cd21f164ffd0133f5d4cb2c0ad3ca4ce260a04930dac48cc5207e7169c644575f01b354a6f7633c7be48066117f6add439b6f745525017ac9c584620006ac565b620013076104608801357f0b793cba68e2710afcdb131342860cea217a60ab74f3f49bcf10bbf9ad78533b7eb9e02b1890acc5f73ac202170eeb3d99ab5d849179db2a443e20d5d71cfeb084620006ac565b6200135a6104808801357f06f371ff234dbbe385a7b198ec02fe2c3114696d09a9baacb27c91f2bedd20ae7f0d4adb8a04cae83cb1cd6867a50b8bb4e6f506b4f76de88d66188a2caeee25fb84620006ac565b620013ad6104a08801357f2274d3006c7891d6ffa5005462d890c9a3f06c2740684f17d98f4fc749dc04de7f0e38eb2cc3fd05d81d7991331e43a9cb3a39825b841d3abe9fbba1d50269445484620006ac565b50823581527f30644e72e131a029b85045b68181585d97816a916871ca8d3c208c16d87cfd4760208401357f30644e72e131a029b85045b68181585d97816a916871ca8d3c208c16d87cfd4703066020820152833560408201526020840135606082015260408401356080820152606084013560a08201527f2d4d9aa7e302d9df41749d5507949d05dbea33fbb16c643b22f599a2be6df2e260c08201527f14bedd503c37ceb061d8ec60209fe345ce89830a19230301f076caff004d192660e08201527f0967032fcbf776d1afc985f88877f182d38480a653f2decaa9794cbc3bf3060c6101008201527f0e187847ad4c798374d0d6732bf501847dd68bc0e071241e0213bc7fc13db7ab6101208201527f304cfbd1e08a704a99f5e847d93f8c3caafddec46b7a0d379da69a4d112346a76101408201527f1739c1b1a457a8c7313123d24d2f9192f896b7c63eea05a9d57f06547ad0cec8610160820152600087015161018082015260206000018701516101a08201527f198e9393920d483a7260bfb731fb5d25f1aa493335a9e71297e485b7aef312c26101c08201527f1800deef121f1e76426a00665e5c4479674322d4f75edadd46debd5cd992f6ed6101e08201527f090689d0585ff075ec9e99ad690c3395bc4b313370b38ef355acdadcd122975b6102008201527f12c85ea5db8c6deb4aab71808dcb408fe3d1e7690c43d37b4ce6cc0166fa7daa610220820152843561024082015260208501356102608201527f0a99859aa8393a5eca66946b5015eaa847991f8bc375aa6cf49fa75656c614a66102808201527f040455d90d2400b3bccf9ce7dcf376258d8a89bfef69a359795ee559e971cb436102a08201527f0aa97e6e93aadcbb21d5b5e193976fc8edea5b4e5400d438ee722ce8b12416bf6102c08201527f1df147cf091a2b6e12bec09ea95cf9d90d8684d8c987b3041b6c08724a262ad26102e08201526020816103008360086107d05a03fa9051169695505050505050565b6040516103808101604052620016a7600084013562000677565b620016b6602084013562000677565b620016c5604084013562000677565b620016d4606084013562000677565b620016e3608084013562000677565b620016f260a084013562000677565b6200170160c084013562000677565b6200171060e084013562000677565b6200172061010084013562000677565b6200173061012084013562000677565b6200174061014084013562000677565b6200175061016084013562000677565b6200176061018084013562000677565b620017706101a084013562000677565b620017806101c084013562000677565b620017906101e084013562000677565b620017a061020084013562000677565b620017b061022084013562000677565b620017c061024084013562000677565b620017d061026084013562000677565b620017e061028084013562000677565b620017f06102a084013562000677565b620018006102c084013562000677565b620018106102e084013562000677565b6200182061030084013562000677565b6200183061032084013562000677565b6200184061034084013562000677565b6200185061036084013562000677565b6200186061038084013562000677565b620018706103a084013562000677565b620018806103c084013562000677565b620018906103e084013562000677565b620018a061040084013562000677565b620018b061042084013562000677565b620018c061044084013562000677565b620018d061046084013562000677565b620018e061048084013562000677565b620018f06104a084013562000677565b620019006104c084013562000677565b6200190f818486888a62000719565b90508060005260206000f35b6200192562001ead565b6200192f62001ead565b6101a083015181526101c09092015160208301525090565b606060006200196b856001600160a01b031660009081526001602052604090205490565b90506000806200197d86868562001e05565b90925090506000620019908383620024f0565b67ffffffffffffffff811115620019ab57620019ab62001f80565b604051908082528060200260200182016040528015620019e857816020015b620019d462001ecb565b815260200190600190039081620019ca5790505b509050825b8281101562001a80576001600160a01b03808a1660009081526003602090815260408083208584528252808320548416835260058252918290208251606081018452815490941684526001810154918401919091526002015490820152825183908390811062001a615762001a6162002342565b60200260200101819052508062001a789062002358565b9050620019ed565b50979650505050505050565b62001a9662001ecb565b506001600160a01b03908116600090815260056020908152604091829020825160608101845281549094168452600181015491840191909152600201549082015290565b60045460609060008062001af086868562001e05565b9092509050600062001b038383620024f0565b67ffffffffffffffff81111562001b1e5762001b1e62001f80565b60405190808252806020026020018201604052801562001b5b57816020015b62001b4762001ecb565b81526020019060019003908162001b3d5790505b509050825b8281101562001c0657600560006004838154811062001b835762001b8362002342565b60009182526020808320909101546001600160a01b0390811684528382019490945260409283019091208251606081018452815490941684526001810154918401919091526002015490820152825183908390811062001be75762001be762002342565b60200260200101819052508062001bfe9062002358565b905062001b60565b5093505050505b92915050565b60026000540362001c675760405162461bcd60e51b815260206004820152601f60248201527f5265656e7472616e637947756172643a207265656e7472616e742063616c6c0060448201526064016200041e565b6002600055565b60007f00000000000000000000000000000000000000000000000000000000000000006001600160a01b0316330362001cae575060131936013560601c90565b503390565b6001600160a01b03818116600090815260026020526040902054161562001d055760405162461bcd60e51b8152602060048201526005602482015264046563230360dc1b60448201526064016200041e565b6001600160a01b0382811660008181526001602081815260408084205460048054898916808852600280875285892080546001600160a01b03199081168c179091558454808a019095557f8a35acfbc15ff81a39ae7d344fd709f28e8600b4aa8c65c6b64bfe7fe36bd19b909401805485168317905598885260038652848820848952865284882080548416821790558451606081018652818152808701858152818701848152928a52600590975294909720935184549092169190981617825591519281019290925591519201919091559062001de38262002358565b6001600160a01b03909416600090815260016020526040902093909355505050565b600080808562001e16868262002506565b62001e229190620024f0565b9050600062001e3d62001e36878962002506565b8662001e85565b90508482111562001e795760405162461bcd60e51b8152602060048201526005602482015264232b19189960d91b60448201526064016200041e565b90969095509350505050565b600081831062001e96578162001e98565b825b9392505050565b612c7d806200252183390190565b60405180604001604052806002906020820280368337509192915050565b604051806060016040528060006001600160a01b0316815260200160008152602001600081525090565b600060208083528351808285015260005b8181101562001f245785810183015185820160400152820162001f06565b506000604082860101526040601f19601f8301168501019250505092915050565b80356001600160a01b038116811462001f5d57600080fd5b919050565b60006020828403121562001f7557600080fd5b62001e988262001f45565b634e487b7160e01b600052604160045260246000fd5b60006104c080838503121562001fab57600080fd5b83601f84011262001fbb57600080fd5b60405181810181811067ffffffffffffffff8211171562001fec57634e487b7160e01b600052604160045260246000fd5b6040529083019080858311156200200257600080fd5b845b838110156200201e57803582526020918201910162002004565b509095945050505050565b6020808252825182820181905260009190848201906040850190845b81811015620020635783518352928401929184019160010162002045565b50909695505050505050565b60008083601f8401126200208257600080fd5b50813567ffffffffffffffff8111156200209b57600080fd5b602083019150836020828501011115620020b457600080fd5b9250929050565b6000806000806000806000878903610620811215620020d957600080fd5b883567ffffffffffffffff80821115620020f257600080fd5b620021008c838d016200206f565b909a50985060208b01359150808211156200211a57600080fd5b620021288c838d016200206f565b909850965060408b01359150808211156200214257600080fd5b50620021518b828c016200206f565b9095509350506105c0605f19820112156200216b57600080fd5b5060608801905092959891949750929550565b806040810183101562001c0d57600080fd5b6000806000806105c0808688031215620021a957600080fd5b620021b587876200217e565b945060c0860187811115620021c957600080fd5b604087019450620021db88826200217e565b935050868187011115620021ee57600080fd5b50929591945092610100019150565b60408101818360005b60028110156200222757815183526020928301929091019060010162002206565b50505092915050565b6000806000606084860312156200224657600080fd5b620022518462001f45565b95602085013595506040909401359392505050565b6020808252825182820181905260009190848201906040850190845b818110156200206357620022b483855180516001600160a01b0316825260208082015190830152604090810151910152565b928401926060929092019160010162002282565b81516001600160a01b0316815260208083015190820152604080830151908201526060810162001c0d565b600080604083850312156200230757600080fd5b50508035926020909101359150565b634e487b7160e01b600052601160045260246000fd5b8082018082111562001c0d5762001c0d62002316565b634e487b7160e01b600052603260045260246000fd5b6000600182016200236d576200236d62002316565b5060010190565b6105c081016040808784378083018660005b6002811015620023a55783828437918301919083019060010162002386565b505050808560c0850137506104c08361010084013795945050505050565b600060208284031215620023d657600080fd5b8151801515811462001e9857600080fd5b60008183825b6001808210620023fe575062002415565b8254845260209093019290910190600101620023ed565b50505060208201905092915050565b815160009082906020808601845b83811015620024505781518552938201939082019060010162002432565b50929695505050505050565b81835281816020850137506000828201602090810191909152601f909101601f19169091010190565b60a0815260006200249b60a083018a8c6200245c565b8281036020840152620024b081898b6200245c565b90508281036040840152620024c78187896200245c565b6001600160a01b0395861660608501529390941660809092019190915250979650505050505050565b8181038181111562001c0d5762001c0d62002316565b808202811582820484141762001c0d5762001c0d6200231656fe60a06040523480156200001157600080fd5b5060405162002c7d38038062002c7d833981016040819052620000349162000737565b6001600160a01b038116608052620000556200004f6200015a565b62000176565b6001600160a01b038216620000995760405162461bcd60e51b8152602060048201526005602482015264465632313160d81b60448201526064015b60405180910390fd5b6001600160a01b038116620000d95760405162461bcd60e51b8152602060048201526005602482015264465632313160d81b604482015260640162000090565b6002620000e786826200087d565b50620000f38262000176565b620001376001600081905260036020527fa15bc60c955c405d20d9149c709e2460f1c2d9a497496a7f46004d1772c3054c80546001600160a01b0319169091179055565b6200014282620001a0565b6200014f828585620002d9565b505050505062000997565b600062000171620005c960201b620013031760201c565b905090565b600180546001600160a01b03191690556200019d8162000601602090811b6200134717901c565b50565b6001600160a01b03811615801590620001c357506001600160a01b038116600114155b8015620001d957506001600160a01b0381163014155b6200020f5760405162461bcd60e51b8152602060048201526005602482015264465632303360d81b604482015260640162000090565b6001600160a01b038181166000908152600360205260409020541615620002615760405162461bcd60e51b815260206004820152600560248201526411958c8c0d60da1b604482015260640162000090565b60036020527fa15bc60c955c405d20d9149c709e2460f1c2d9a497496a7f46004d1772c3054c80546001600160a01b038381166000818152604081208054939094166001600160a01b0319938416179093556001835283549091161790915560048054909190620002d2906200095f565b9091555050565b8151600003620003145760405162461bcd60e51b8152602060048201526005602482015264465632303160d81b604482015260640162000090565b80516000036200034f5760405162461bcd60e51b8152602060048201526005602482015264465632303160d81b604482015260640162000090565b6001600160a01b03831660009081526006602052604080822081518083019092528054829082906200038190620007ee565b80601f0160208091040260200160405190810160405280929190818152602001828054620003af90620007ee565b8015620004005780601f10620003d45761010080835404028352916020019162000400565b820191906000526020600020905b815481529060010190602001808311620003e257829003601f168201915b505050505081526020016001820180546200041b90620007ee565b80601f01602080910402602001604051908101604052809291908181526020018280546200044990620007ee565b80156200049a5780601f106200046e576101008083540402835291602001916200049a565b820191906000526020600020905b8154815290600101906020018083116200047c57829003601f168201915b5050509190925250508151519192505015620004e15760405162461bcd60e51b8152602060048201526005602482015264465632303960d81b604482015260640162000090565b602081015151156200051e5760405162461bcd60e51b8152602060048201526005602482015264465632303960d81b604482015260640162000090565b60408051808201825284815260208082018590526001600160a01b0387166000908152600690915291909120815181906200055a90826200087d565b50602082015160018201906200057190826200087d565b509050506001600760008282546200058a91906200097b565b90915550506040516001600160a01b038516907f402d924b9bd03718220c51647be3ad8f7da00914b8aba403753caa37f4944a0290600090a250505050565b6080516000906001600160a01b03163303620005ec575060131936013560601c90565b620001716200065160201b620013971760201c565b600080546001600160a01b038381166001600160a01b0319831681178455604051919092169283917f8be0079c531659141344cd1fd0a4f28419497f9722a3daafe3b4186f6b6457e09190a35050565b3390565b634e487b7160e01b600052604160045260246000fd5b600082601f8301126200067d57600080fd5b81516001600160401b03808211156200069a576200069a62000655565b604051601f8301601f19908116603f01168101908282118183101715620006c557620006c562000655565b81604052838152602092508683858801011115620006e257600080fd5b600091505b83821015620007065785820183015181830184015290820190620006e7565b600093810190920192909252949350505050565b80516001600160a01b03811681146200073257600080fd5b919050565b600080600080600060a086880312156200075057600080fd5b85516001600160401b03808211156200076857600080fd5b6200077689838a016200066b565b965060208801519150808211156200078d57600080fd5b6200079b89838a016200066b565b95506040880151915080821115620007b257600080fd5b50620007c1888289016200066b565b935050620007d2606087016200071a565b9150620007e2608087016200071a565b90509295509295909350565b600181811c908216806200080357607f821691505b6020821081036200082457634e487b7160e01b600052602260045260246000fd5b50919050565b601f8211156200087857600081815260208120601f850160051c81016020861015620008535750805b601f850160051c820191505b8181101562000874578281556001016200085f565b5050505b505050565b81516001600160401b0381111562000899576200089962000655565b620008b181620008aa8454620007ee565b846200082a565b602080601f831160018114620008e95760008415620008d05750858301515b600019600386901b1c1916600185901b17855562000874565b600085815260208120601f198616915b828110156200091a57888601518255948401946001909101908401620008f9565b5085821015620009395787850151600019600388901b60f8161c191681555b5050505050600190811b01905550565b634e487b7160e01b600052601160045260246000fd5b60006001820162000974576200097462000949565b5060010190565b8082018082111562000991576200099162000949565b92915050565b6080516122c3620009ba60003960008181610161015261130701526122c36000f3fe608060405234801561001057600080fd5b50600436106101375760003560e01c806393ce2036116100b8578063cfd9e0c11161007c578063cfd9e0c114610292578063de729317146102a5578063e30c3978146102ad578063f2fde38b146102be578063f4c714b4146102d1578063ffad0fc6146102f557600080fd5b806393ce203614610247578063a24259271461025c578063b4d266bc14610264578063bab50cc914610277578063ccdbe6a61461027f57600080fd5b8063715018a6116100ff578063715018a6146101de57806379ba5097146101e6578063876dbec4146101ee5780638da5cb5b1461020f578063918b5be11461023457600080fd5b80633bf1bdad1461013c578063572b6c05146101515780635eb1cf8f146101a657806366cc227d146101b95780636af8c4e7146101cb575b600080fd5b61014f61014a366004611b07565b61030a565b005b61019161015f366004611bd2565b7f00000000000000000000000000000000000000000000000000000000000000006001600160a01b0390811691161490565b60405190151581526020015b60405180910390f35b61014f6101b4366004611bf4565b6105c7565b6007545b60405190815260200161019d565b6101916101d9366004611bd2565b610881565b61014f6108bc565b61014f6108c6565b6102016101fc366004611bd2565b610962565b60405161019d929190611cf7565b6000546001600160a01b03165b6040516001600160a01b03909116815260200161019d565b61014f610242366004611d3b565b610a8e565b61024f610b10565b60405161019d9190611dec565b6004546101bd565b61014f610272366004611dff565b610b9e565b6101bd610eba565b61014f61028d366004611bd2565b610eca565b61014f6102a0366004611e32565b610f25565b61014f610fb7565b6001546001600160a01b031661021c565b61014f6102cc366004611bd2565b610fd7565b6102e46102df366004611e9e565b611048565b60405161019d959493929190611ecd565b6102fd611212565b60405161019d9190611f3a565b61031a61031561139b565b6113a5565b60008790036103445760405162461bcd60e51b815260040161033b90611f87565b60405180910390fd5b60008590036103655760405162461bcd60e51b815260040161033b90611f87565b600282600381111561037957610379611eb7565b036103bc5760008390036103b75760405162461bcd60e51b8152602060048201526005602482015264465632313360d81b604482015260640161033b565b6103f2565b82156103f25760405162461bcd60e51b815260206004820152600560248201526411958c8c4d60da1b604482015260640161033b565b60006103fd60055490565b905061040d600580546001019055565b6040518060a001604052808a8a8080601f016020809104026020016040519081016040528093929190818152602001838380828437600092019190915250505090825250604080516020601f8b0181900481028201810190925289815291810191908a908a9081908401838280828437600092019190915250505090825250604080516020601f8901819004810282018101909252878152918101919088908890819084018382808284376000920191909152505050908252506020018460038111156104dc576104dc611eb7565b81526020908101849052600083815260089091526040902081518190610502908261202f565b5060208201516001820190610517908261202f565b506040820151600282019061052c908261202f565b5060608201518160030160006101000a81548160ff0219169083600381111561055757610557611eb7565b02179055506080820151816004015590505061057161139b565b6001600160a01b0316817f7c868b0d1657677f41ebc5d6a76e66b11862720a3800b9b0895b9457c181d8d98b8b8b8b8b8b6040516105b496959493929190612118565b60405180910390a3505050505050505050565b6105d261031561139b565b60008790036105f35760405162461bcd60e51b815260040161033b90611f87565b60008590036106145760405162461bcd60e51b815260040161033b90611f87565b600282600381111561062857610628611eb7565b0361066b5760008390036106665760405162461bcd60e51b8152602060048201526005602482015264465632313360d81b604482015260640161033b565b6106a1565b82156106a15760405162461bcd60e51b815260206004820152600560248201526411958c8c4d60da1b604482015260640161033b565b60055489106106da5760405162461bcd60e51b8152602060048201526005602482015264465632303760d81b604482015260640161033b565b6040518060a0016040528089898080601f016020809104026020016040519081016040528093929190818152602001838380828437600092019190915250505090825250604080516020601f8a0181900481028201810190925288815291810191908990899081908401838280828437600092019190915250505090825250604080516020601f8801819004810282018101909252868152918101919087908790819084018382808284376000920191909152505050908252506020018360038111156107a9576107a9611eb7565b8152602090810183905260008b8152600890915260409020815181906107cf908261202f565b50602082015160018201906107e4908261202f565b50604082015160028201906107f9908261202f565b5060608201518160030160006101000a81548160ff0219169083600381111561082457610824611eb7565b02179055506080820151816004015590505061083e61139b565b6001600160a01b0316897f038bf72a38023435f249f01545d426ebccb3348739aab6415949426e9c5b1ca08a8a8a8a8a8a6040516105b496959493929190612118565b60006001600160a01b0382166001148015906108b657506001600160a01b038281166000908152600360205260409020541615155b92915050565b6108c46113e9565b565b60006108d061139b565b9050806001600160a01b03166108ee6001546001600160a01b031690565b6001600160a01b0316146109565760405162461bcd60e51b815260206004820152602960248201527f4f776e61626c6532537465703a2063616c6c6572206973206e6f7420746865206044820152683732bb9037bbb732b960b91b606482015260840161033b565b61095f81611462565b50565b60066020526000908152604090208054819061097d90611fa6565b80601f01602080910402602001604051908101604052809291908181526020018280546109a990611fa6565b80156109f65780601f106109cb576101008083540402835291602001916109f6565b820191906000526020600020905b8154815290600101906020018083116109d957829003601f168201915b505050505090806001018054610a0b90611fa6565b80601f0160208091040260200160405190810160405280929190818152602001828054610a3790611fa6565b8015610a845780601f10610a5957610100808354040283529160200191610a84565b820191906000526020600020905b815481529060010190602001808311610a6757829003601f168201915b5050505050905082565b610a966113e9565b8051600003610ab75760405162461bcd60e51b815260040161033b90611f87565b6002610ac3828261202f565b50610acc61139b565b6001600160a01b03167ff7e4f835d77656f8760a2c1a3e841fd8a50759e50c615130349625666a46acd56002604051610b059190612161565b60405180910390a250565b60028054610b1d90611fa6565b80601f0160208091040260200160405190810160405280929190818152602001828054610b4990611fa6565b8015610b965780601f10610b6b57610100808354040283529160200191610b96565b820191906000526020600020905b815481529060010190602001808311610b7957829003601f168201915b505050505081565b610ba66113e9565b6001600454610bb59190612202565b600003610bec5760405162461bcd60e51b8152602060048201526005602482015264465632303560d81b604482015260640161033b565b6001600160a01b03811615801590610c0e57506001600160a01b038116600114155b8015610c2357506001600160a01b0381163014155b610c575760405162461bcd60e51b8152602060048201526005602482015264465632303360d81b604482015260640161033b565b6001600160a01b03828116600090815260036020526040902054811690821614610cab5760405162461bcd60e51b815260206004820152600560248201526411958c8c0d60da1b604482015260640161033b565b6001600160a01b0381166000908152600660205260408082208151808301909252805482908290610cdb90611fa6565b80601f0160208091040260200160405190810160405280929190818152602001828054610d0790611fa6565b8015610d545780601f10610d2957610100808354040283529160200191610d54565b820191906000526020600020905b815481529060010190602001808311610d3757829003601f168201915b50505050508152602001600182018054610d6d90611fa6565b80601f0160208091040260200160405190810160405280929190818152602001828054610d9990611fa6565b8015610de65780601f10610dbb57610100808354040283529160200191610de6565b820191906000526020600020905b815481529060010190602001808311610dc957829003601f168201915b505050919092525050506001600160a01b03838116600081815260036020526040808220805489861684529183208054929095166001600160a01b03199283161790945591815282549091169091556004805492935090610e4683612215565b9091555050805151151580610e6057506000816020015151115b15610e6e57610e6e8261147b565b610e7661139b565b6001600160a01b0316826001600160a01b03167fa3cf1c45ba4d2d0a3d4d7a5fdd2a75b6feec8d0902c676a228fbb2cada34c31860405160405180910390a3505050565b6000610ec560055490565b905090565b610ed26113e9565b610edb81611689565b610ee361139b565b6001600160a01b0316816001600160a01b03167fce61b8b5dd5de3bc40e91f97638290ba020c1f9267272522a018d616f077b16660405160405180910390a350565b610f3061031561139b565b6000610f3a61139b565b9050610fb08186868080601f01602080910402602001604051908101604052809392919081815260200183838082843760009201919091525050604080516020601f8a0181900481028201810190925288815292508891508790819084018382808284376000920191909152506117ba92505050565b5050505050565b610fc261031561139b565b6000610fcc61139b565b905061095f8161147b565b610fdf6113e9565b600180546001600160a01b0383166001600160a01b031990911681179091556110106000546001600160a01b031690565b6001600160a01b03167f38d16b8cac22d99fc7c124b9cd0de2d3fa1faef420bfe791d8c362d765e2270060405160405180910390a350565b60086020526000908152604090208054819061106390611fa6565b80601f016020809104026020016040519081016040528092919081815260200182805461108f90611fa6565b80156110dc5780601f106110b1576101008083540402835291602001916110dc565b820191906000526020600020905b8154815290600101906020018083116110bf57829003601f168201915b5050505050908060010180546110f190611fa6565b80601f016020809104026020016040519081016040528092919081815260200182805461111d90611fa6565b801561116a5780601f1061113f5761010080835404028352916020019161116a565b820191906000526020600020905b81548152906001019060200180831161114d57829003601f168201915b50505050509080600201805461117f90611fa6565b80601f01602080910402602001604051908101604052809291908181526020018280546111ab90611fa6565b80156111f85780601f106111cd576101008083540402835291602001916111f8565b820191906000526020600020905b8154815290600101906020018083116111db57829003601f168201915b505050506003830154600490930154919260ff1691905085565b6060600060045467ffffffffffffffff81111561123157611231611d25565b60405190808252806020026020018201604052801561125a578160200160208202803683370190505b506001600090815260036020527fa15bc60c955c405d20d9149c709e2460f1c2d9a497496a7f46004d1772c3054c54919250906001600160a01b03165b6001600160a01b0381166001146112fb57808383815181106112bb576112bb61222c565b6001600160a01b039283166020918202929092018101919091529181166000908152600390925260409091205416816112f381612242565b925050611297565b509092915050565b60007f00000000000000000000000000000000000000000000000000000000000000006001600160a01b03163303611342575060131936013560601c90565b503390565b600080546001600160a01b038381166001600160a01b0319831681178455604051919092169283917f8be0079c531659141344cd1fd0a4f28419497f9722a3daafe3b4186f6b6457e09190a35050565b3390565b6000610ec5611303565b6113ae81610881565b61095f5760405162461bcd60e51b815260206004820152600c60248201526b526f6c65204d697373696e6760a01b604482015260640161033b565b6113f161139b565b6001600160a01b031661140c6000546001600160a01b031690565b6001600160a01b0316146108c45760405162461bcd60e51b815260206004820181905260248201527f4f776e61626c653a2063616c6c6572206973206e6f7420746865206f776e6572604482015260640161033b565b600180546001600160a01b031916905561095f81611347565b6001600160a01b03811660009081526006602052604080822081518083019092528054829082906114ab90611fa6565b80601f01602080910402602001604051908101604052809291908181526020018280546114d790611fa6565b80156115245780601f106114f957610100808354040283529160200191611524565b820191906000526020600020905b81548152906001019060200180831161150757829003601f168201915b5050505050815260200160018201805461153d90611fa6565b80601f016020809104026020016040519081016040528092919081815260200182805461156990611fa6565b80156115b65780601f1061158b576101008083540402835291602001916115b6565b820191906000526020600020905b81548152906001019060200180831161159957829003601f168201915b50505050508152505090506000816000015151116115e65760405162461bcd60e51b815260040161033b9061225b565b60008160200151511161160b5760405162461bcd60e51b815260040161033b9061225b565b6001600160a01b03821660009081526006602052604081209061162e8282611a5c565b61163c600183016000611a5c565b505060076000815461164d90612215565b909155506040516001600160a01b038316907fe43263e34fd2c5f045a6bb8f67fc65b9bdfd615beb14b6036a76aedf940e187690600090a25050565b6001600160a01b038116158015906116ab57506001600160a01b038116600114155b80156116c057506001600160a01b0381163014155b6116f45760405162461bcd60e51b8152602060048201526005602482015264465632303360d81b604482015260640161033b565b6001600160a01b0381811660009081526003602052604090205416156117445760405162461bcd60e51b815260206004820152600560248201526411958c8c0d60da1b604482015260640161033b565b60036020527fa15bc60c955c405d20d9149c709e2460f1c2d9a497496a7f46004d1772c3054c80546001600160a01b038381166000818152604081208054939094166001600160a01b03199384161790935560018352835490911617909155600480549091906117b390612242565b9091555050565b81516000036117f35760405162461bcd60e51b8152602060048201526005602482015264465632303160d81b604482015260640161033b565b805160000361182c5760405162461bcd60e51b8152602060048201526005602482015264465632303160d81b604482015260640161033b565b6001600160a01b038316600090815260066020526040808220815180830190925280548290829061185c90611fa6565b80601f016020809104026020016040519081016040528092919081815260200182805461188890611fa6565b80156118d55780601f106118aa576101008083540402835291602001916118d5565b820191906000526020600020905b8154815290600101906020018083116118b857829003601f168201915b505050505081526020016001820180546118ee90611fa6565b80601f016020809104026020016040519081016040528092919081815260200182805461191a90611fa6565b80156119675780601f1061193c57610100808354040283529160200191611967565b820191906000526020600020905b81548152906001019060200180831161194a57829003601f168201915b50505091909252505081515191925050156119945760405162461bcd60e51b815260040161033b9061225b565b602081015151156119b75760405162461bcd60e51b815260040161033b9061225b565b60408051808201825284815260208082018590526001600160a01b0387166000908152600690915291909120815181906119f1908261202f565b5060208201516001820190611a06908261202f565b50905050600160076000828254611a1d919061227a565b90915550506040516001600160a01b038516907f402d924b9bd03718220c51647be3ad8f7da00914b8aba403753caa37f4944a0290600090a250505050565b508054611a6890611fa6565b6000825580601f10611a78575050565b601f01602090049060005260206000209081019061095f91905b80821115611aa65760008155600101611a92565b5090565b60008083601f840112611abc57600080fd5b50813567ffffffffffffffff811115611ad457600080fd5b602083019150836020828501011115611aec57600080fd5b9250929050565b803560048110611b0257600080fd5b919050565b60008060008060008060008060a0898b031215611b2357600080fd5b883567ffffffffffffffff80821115611b3b57600080fd5b611b478c838d01611aaa565b909a50985060208b0135915080821115611b6057600080fd5b611b6c8c838d01611aaa565b909850965060408b0135915080821115611b8557600080fd5b50611b928b828c01611aaa565b9095509350611ba5905060608a01611af3565b9150608089013590509295985092959890939650565b80356001600160a01b0381168114611b0257600080fd5b600060208284031215611be457600080fd5b611bed82611bbb565b9392505050565b600080600080600080600080600060c08a8c031215611c1257600080fd5b8935985060208a013567ffffffffffffffff80821115611c3157600080fd5b611c3d8d838e01611aaa565b909a50985060408c0135915080821115611c5657600080fd5b611c628d838e01611aaa565b909850965060608c0135915080821115611c7b57600080fd5b50611c888c828d01611aaa565b9095509350611c9b905060808b01611af3565b915060a08a013590509295985092959850929598565b6000815180845260005b81811015611cd757602081850181015186830182015201611cbb565b506000602082860101526020601f19601f83011685010191505092915050565b604081526000611d0a6040830185611cb1565b8281036020840152611d1c8185611cb1565b95945050505050565b634e487b7160e01b600052604160045260246000fd5b600060208284031215611d4d57600080fd5b813567ffffffffffffffff80821115611d6557600080fd5b818401915084601f830112611d7957600080fd5b813581811115611d8b57611d8b611d25565b604051601f8201601f19908116603f01168101908382118183101715611db357611db3611d25565b81604052828152876020848701011115611dcc57600080fd5b826020860160208301376000928101602001929092525095945050505050565b602081526000611bed6020830184611cb1565b60008060408385031215611e1257600080fd5b611e1b83611bbb565b9150611e2960208401611bbb565b90509250929050565b60008060008060408587031215611e4857600080fd5b843567ffffffffffffffff80821115611e6057600080fd5b611e6c88838901611aaa565b90965094506020870135915080821115611e8557600080fd5b50611e9287828801611aaa565b95989497509550505050565b600060208284031215611eb057600080fd5b5035919050565b634e487b7160e01b600052602160045260246000fd5b60a081526000611ee060a0830188611cb1565b8281036020840152611ef28188611cb1565b90508281036040840152611f068187611cb1565b91505060048410611f2757634e487b7160e01b600052602160045260246000fd5b6060820193909352608001529392505050565b6020808252825182820181905260009190848201906040850190845b81811015611f7b5783516001600160a01b031683529284019291840191600101611f56565b50909695505050505050565b602080825260059082015264232b19181b60d91b604082015260600190565b600181811c90821680611fba57607f821691505b602082108103611fda57634e487b7160e01b600052602260045260246000fd5b50919050565b601f82111561202a57600081815260208120601f850160051c810160208610156120075750805b601f850160051c820191505b8181101561202657828155600101612013565b5050505b505050565b815167ffffffffffffffff81111561204957612049611d25565b61205d816120578454611fa6565b84611fe0565b602080601f831160018114612092576000841561207a5750858301515b600019600386901b1c1916600185901b178555612026565b600085815260208120601f198616915b828110156120c1578886015182559484019460019091019084016120a2565b50858210156120df5787850151600019600388901b60f8161c191681555b5050505050600190811b01905550565b81835281816020850137506000828201602090810191909152601f909101601f19169091010190565b60608152600061212c60608301888a6120ef565b828103602084015261213f8187896120ef565b905082810360408401526121548185876120ef565b9998505050505050505050565b600060208083526000845461217581611fa6565b8084870152604060018084166000811461219657600181146121b0576121de565b60ff1985168984015283151560051b8901830195506121de565b896000528660002060005b858110156121d65781548b82018601529083019088016121bb565b8a0184019650505b509398975050505050505050565b634e487b7160e01b600052601160045260246000fd5b818103818111156108b6576108b66121ec565b600081612224576122246121ec565b506000190190565b634e487b7160e01b600052603260045260246000fd5b600060018201612254576122546121ec565b5060010190565b602080825260059082015264465632303960d81b604082015260600190565b808201808211156108b6576108b66121ec56fea2646970667358221220deaad6b9f6666c255e75d5c416a7739980b5ba600fef5fc50fa8dd15c43612d664736f6c6343000811003346696c657665727365205a7550617373205265676973747279202d204574684265726c696ea2646970667358221220c2afd905e14e0b8f2eb59eec4e220b4b45beabfccb4445c692d3688e36a8813364736f6c63430008110033",
  "linkReferences": {},
  "deployedLinkReferences": {}
}