{
  "_format": "hh-sol-artifact-1",
  "contractName": "Forwarder",
  "sourceName": "contracts/Forwarder.sol",
  "abi": [
    {
      "inputs": [],
      "stateMutability": "nonpayable",
      "type": "constructor"
    },
    {
      "anonymous": false,
      "inputs": [
        {
          "indexed": true,
          "internalType": "bytes32",
          "name": "domainSeparator",
          "type": "bytes32"
        },
        {
          "indexed": false,
          "internalType": "bytes",
          "name": "domainValue",
          "type": "bytes"
        }
      ],
      "name": "DomainRegistered",
      "type": "event"
    },
    {
      "anonymous": false,
      "inputs": [
        {
          "indexed": true,
          "internalType": "bytes32",
          "name": "typeHash",
          "type": "bytes32"
        },
        {
          "indexed": false,
          "internalType": "string",
          "name": "typeStr",
          "type": "string"
        }
      ],
      "name": "RequestTypeRegistered",
      "type": "event"
    },
    {
      "inputs": [
        {
          "components": [
            {
              "internalType": "address",
              "name": "from",
              "type": "address"
            },
            {
              "internalType": "address",
              "name": "to",
              "type": "address"
            },
            {
              "internalType": "uint256",
              "name": "value",
              "type": "uint256"
            },
            {
              "internalType": "uint256",
              "name": "gas",
              "type": "uint256"
            },
            {
              "internalType": "uint256",
              "name": "nonce",
              "type": "uint256"
            },
            {
              "internalType": "bytes",
              "name": "data",
              "type": "bytes"
            },
            {
              "internalType": "uint256",
              "name": "validUntilTime",
              "type": "uint256"
            }
          ],
          "internalType": "struct IForwarder.ForwardRequest",
          "name": "req",
          "type": "tuple"
        }
      ],
      "name": "_getEncoded",
      "outputs": [
        {
          "internalType": "bytes",
          "name": "",
          "type": "bytes"
        }
      ],
      "stateMutability": "pure",
      "type": "function"
    },
    {
      "inputs": [
        {
          "components": [
            {
              "internalType": "address",
              "name": "from",
              "type": "address"
            },
            {
              "internalType": "address",
              "name": "to",
              "type": "address"
            },
            {
              "internalType": "uint256",
              "name": "value",
              "type": "uint256"
            },
            {
              "internalType": "uint256",
              "name": "gas",
              "type": "uint256"
            },
            {
              "internalType": "uint256",
              "name": "nonce",
              "type": "uint256"
            },
            {
              "internalType": "bytes",
              "name": "data",
              "type": "bytes"
            },
            {
              "internalType": "uint256",
              "name": "validUntilTime",
              "type": "uint256"
            }
          ],
          "internalType": "struct IForwarder.ForwardRequest",
          "name": "req",
          "type": "tuple"
        },
        {
          "internalType": "bytes",
          "name": "sig",
          "type": "bytes"
        }
      ],
      "name": "execute",
      "outputs": [
        {
          "internalType": "bool",
          "name": "success",
          "type": "bool"
        },
        {
          "internalType": "bytes",
          "name": "ret",
          "type": "bytes"
        }
      ],
      "stateMutability": "payable",
      "type": "function"
    },
    {
      "inputs": [
        {
          "internalType": "address",
          "name": "from",
          "type": "address"
        }
      ],
      "name": "getNonce",
      "outputs": [
        {
          "internalType": "uint256",
          "name": "",
          "type": "uint256"
        }
      ],
      "stateMutability": "view",
      "type": "function"
    },
    {
      "inputs": [
        {
          "internalType": "bytes4",
          "name": "interfaceId",
          "type": "bytes4"
        }
      ],
      "name": "supportsInterface",
      "outputs": [
        {
          "internalType": "bool",
          "name": "",
          "type": "bool"
        }
      ],
      "stateMutability": "view",
      "type": "function"
    },
    {
      "inputs": [
        {
          "components": [
            {
              "internalType": "address",
              "name": "from",
              "type": "address"
            },
            {
              "internalType": "address",
              "name": "to",
              "type": "address"
            },
            {
              "internalType": "uint256",
              "name": "value",
              "type": "uint256"
            },
            {
              "internalType": "uint256",
              "name": "gas",
              "type": "uint256"
            },
            {
              "internalType": "uint256",
              "name": "nonce",
              "type": "uint256"
            },
            {
              "internalType": "bytes",
              "name": "data",
              "type": "bytes"
            },
            {
              "internalType": "uint256",
              "name": "validUntilTime",
              "type": "uint256"
            }
          ],
          "internalType": "struct IForwarder.ForwardRequest",
          "name": "req",
          "type": "tuple"
        },
        {
          "internalType": "bytes",
          "name": "sig",
          "type": "bytes"
        }
      ],
      "name": "verify",
      "outputs": [],
      "stateMutability": "view",
      "type": "function"
    },
    {
      "stateMutability": "payable",
      "type": "receive"
    }
  ],
  "bytecode": "0x61014060405234801561001157600080fd5b50604080518082018252601881527f46696c6576657273654d6574615478466f7277617264657200000000000000006020808301918252835180850190945260038452620312e360ec1b908401528151902060e08190527fe6bbd6277e1bf288eed5e8d1780f9a50b239e86b153736bceebccf4ea79d90b36101008190524660a0529192917f8b73c3c69bb8fe3d512ecc4cf759cc79239f7b179b0ffacaa9a75d522b39400f6101068184846040805160208101859052908101839052606081018290524660808201523060a082015260009060c0016040516020818303038152906040528051906020012090509392505050565b6080523060c052610120525061011b92505050565b60805160a05160c05160e0516101005161012051610d6561016a6000396000610751015260006107a00152600061077b015260006106d4015260006106fe015260006107280152610d656000f3fe60806040526004361061004e5760003560e01c8063019fe8851461005a57806301ffc9a71461007c578063269fb1c7146100b15780632d0335ab146100de57806344d46c8e1461012257600080fd5b3661005557005b600080fd5b34801561006657600080fd5b5061007a610075366004610a59565b610143565b005b34801561008857600080fd5b5061009c610097366004610af0565b61015c565b60405190151581526020015b60405180910390f35b3480156100bd57600080fd5b506100d16100cc366004610b21565b610193565b6040516100a89190610bae565b3480156100ea57600080fd5b506101146100f9366004610bc1565b6001600160a01b031660009081526020819052604090205490565b6040519081526020016100a8565b610135610130366004610a59565b610268565b6040516100a8929190610bea565b61014c8361047c565b6101578383836104f8565b505050565b60006001600160e01b03198216630342458d60e51b148061018d57506301ffc9a760e01b6001600160e01b03198316145b92915050565b60607fb91ae508e6f0e8e33913dec60d2fdcb39fe037ce56198c70a7927d7cd813fd966101c36020840184610bc1565b6101d36040850160208601610bc1565b6040850135606086013560808701356101ef60a0890189610c05565b6040516101fd929190610c4c565b6040805191829003822060208301989098526001600160a01b0396871690820152939094166060840152608083019190915260a082015260c08082019290925260e0810192909252830135610100820152610120016040516020818303038152906040529050919050565b600060606102778585856104f8565b610280856105d2565b60c085013515806102945750428560c00135115b6102dc5760405162461bcd60e51b81526020600482015260146024820152731195d10e881c995c5d595cdd08195e1c1a5c995960621b60448201526064015b60405180910390fd5b60006040860135156102ed5750619c405b60006102fc60a0880188610c05565b61030960208a018a610bc1565b60405160200161031b93929190610c5c565b60408051601f19818403018152919052905061033b826060890135610c98565b60405a61034990603f610cab565b6103539190610cc2565b10156103995760405162461bcd60e51b81526020600482015260156024820152744657443a20696e73756666696369656e742067617360581b60448201526064016102d3565b6103a96040880160208901610bc1565b6001600160a01b031687606001358860400135836040516103ca9190610ce4565b600060405180830381858888f193505050503d8060008114610408576040519150601f19603f3d011682016040523d82523d6000602084013e61040d565b606091505b5090945092506040870135158015906104265750600047115b15610472576104386020880188610bc1565b6001600160a01b03166108fc479081150290604051600060405180830381858888f19350505050158015610470573d6000803e3d6000fd5b505b5050935093915050565b60808101356000806104916020850185610bc1565b6001600160a01b03166001600160a01b0316815260200190815260200160002054146104f55760405162461bcd60e51b815260206004820152601360248201527208cae887440dcdedcc6ca40dad2e6dac2e8c6d606b1b60448201526064016102d3565b50565b600061055483838080601f01602080910402602001604051908101604052809392919081815260200183838082843760009201919091525061054e92506105429150889050610193565b80519060200120610655565b906106a3565b9050321580610580575061056b6020850185610bc1565b6001600160a01b0316816001600160a01b0316145b6105cc5760405162461bcd60e51b815260206004820152601760248201527f4657443a207369676e6174757265206d69736d6174636800000000000000000060448201526064016102d3565b50505050565b60808101356000806105e76020850185610bc1565b6001600160a01b031681526020810191909152604001600090812080549161060e83610d00565b91905055146104f55760405162461bcd60e51b815260206004820152601360248201527208cae887440dcdedcc6ca40dad2e6dac2e8c6d606b1b60448201526064016102d3565b600061018d6106626106c7565b8360405161190160f01b6020820152602281018390526042810182905260009060620160405160208183030381529060405280519060200120905092915050565b60008060006106b285856107ee565b915091506106bf81610833565b509392505050565b6000306001600160a01b037f00000000000000000000000000000000000000000000000000000000000000001614801561072057507f000000000000000000000000000000000000000000000000000000000000000046145b1561074a57507f000000000000000000000000000000000000000000000000000000000000000090565b50604080517f00000000000000000000000000000000000000000000000000000000000000006020808301919091527f0000000000000000000000000000000000000000000000000000000000000000828401527f000000000000000000000000000000000000000000000000000000000000000060608301524660808301523060a0808401919091528351808403909101815260c0909201909252805191012090565b60008082516041036108245760208301516040840151606085015160001a6108188782858561097d565b9450945050505061082c565b506000905060025b9250929050565b600081600481111561084757610847610d19565b0361084f5750565b600181600481111561086357610863610d19565b036108b05760405162461bcd60e51b815260206004820152601860248201527f45434453413a20696e76616c6964207369676e6174757265000000000000000060448201526064016102d3565b60028160048111156108c4576108c4610d19565b036109115760405162461bcd60e51b815260206004820152601f60248201527f45434453413a20696e76616c6964207369676e6174757265206c656e6774680060448201526064016102d3565b600381600481111561092557610925610d19565b036104f55760405162461bcd60e51b815260206004820152602260248201527f45434453413a20696e76616c6964207369676e6174757265202773272076616c604482015261756560f01b60648201526084016102d3565b6000807f7fffffffffffffffffffffffffffffff5d576e7357a4501ddfe92f46681b20a08311156109b45750600090506003610a38565b6040805160008082526020820180845289905260ff881692820192909252606081018690526080810185905260019060a0016020604051602081039080840390855afa158015610a08573d6000803e3d6000fd5b5050604051601f1901519150506001600160a01b038116610a3157600060019250925050610a38565b9150600090505b94509492505050565b600060e08284031215610a5357600080fd5b50919050565b600080600060408486031215610a6e57600080fd5b833567ffffffffffffffff80821115610a8657600080fd5b610a9287838801610a41565b94506020860135915080821115610aa857600080fd5b818601915086601f830112610abc57600080fd5b813581811115610acb57600080fd5b876020828501011115610add57600080fd5b6020830194508093505050509250925092565b600060208284031215610b0257600080fd5b81356001600160e01b031981168114610b1a57600080fd5b9392505050565b600060208284031215610b3357600080fd5b813567ffffffffffffffff811115610b4a57600080fd5b610b5684828501610a41565b949350505050565b60005b83811015610b79578181015183820152602001610b61565b50506000910152565b60008151808452610b9a816020860160208601610b5e565b601f01601f19169290920160200192915050565b602081526000610b1a6020830184610b82565b600060208284031215610bd357600080fd5b81356001600160a01b0381168114610b1a57600080fd5b8215158152604060208201526000610b566040830184610b82565b6000808335601e19843603018112610c1c57600080fd5b83018035915067ffffffffffffffff821115610c3757600080fd5b60200191503681900382131561082c57600080fd5b8183823760009101908152919050565b8284823760609190911b6bffffffffffffffffffffffff19169101908152601401919050565b634e487b7160e01b600052601160045260246000fd5b8082018082111561018d5761018d610c82565b808202811582820484141761018d5761018d610c82565b600082610cdf57634e487b7160e01b600052601260045260246000fd5b500490565b60008251610cf6818460208701610b5e565b9190910192915050565b600060018201610d1257610d12610c82565b5060010190565b634e487b7160e01b600052602160045260246000fdfea264697066735822122064fe8bf9cc7895b8e66466eb26c025ebd35d5dbd08ba3f690b0ec3309ab3b2a764736f6c63430008110033",
  "linkReferences": {},
  "deployedLinkReferences": {}
}